{"contracts/periphery/routers/EquipmentMinter.sol":{"EquipmentMinter":{"abi":[{"inputs":[{"internalType":"address","name":"equipmentsNftAddress","type":"address"},{"internalType":"address","name":"charactersAddress","type":"address"},{"internalType":"address","name":"enerlinkAddress","type":"address"},{"internalType":"address","name":"materials","type":"address"},{"internalType":"address","name":"catalysts","type":"address"}],"stateMutability":"nonpayable","type":"constructor"},{"anonymous":false,"inputs":[{"indexed":true,"internalType":"address","name":"player_address","type":"address"},{"components":[{"internalType":"uint256","name":"request_id","type":"uint256"},{"internalType":"uint64","name":"equipment_type","type":"uint64"},{"internalType":"uint32","name":"number_of_items","type":"uint32"},{"internalType":"uint256","name":"time_requested","type":"uint256"},{"internalType":"bool","name":"free","type":"bool"}],"indexed":false,"internalType":"struct equipment_request","name":"request","type":"tuple"}],"name":"EquipmentRequested","type":"event"},{"anonymous":false,"inputs":[{"indexed":true,"internalType":"address","name":"previousOwner","type":"address"},{"indexed":true,"internalType":"address","name":"newOwner","type":"address"}],"name":"OwnershipTransferred","type":"event"},{"anonymous":false,"inputs":[{"indexed":false,"internalType":"address","name":"account","type":"address"}],"name":"Paused","type":"event"},{"anonymous":false,"inputs":[{"indexed":false,"internalType":"address","name":"account","type":"address"}],"name":"Unpaused","type":"event"},{"inputs":[],"name":"cancelRequestExperimental","outputs":[],"stateMutability":"nonpayable","type":"function"},{"inputs":[{"internalType":"uint256","name":"","type":"uint256"},{"internalType":"uint256","name":"","type":"uint256"}],"name":"character_minted_free","outputs":[{"internalType":"bool","name":"","type":"bool"}],"stateMutability":"view","type":"function"},{"inputs":[{"internalType":"uint256","name":"equipment_type","type":"uint256"}],"name":"getEquipmentRecipe","outputs":[{"components":[{"internalType":"uint256","name":"main_material","type":"uint256"},{"internalType":"uint256","name":"indirect_material","type":"uint256"},{"internalType":"uint256","name":"catalyst","type":"uint256"},{"internalType":"uint256","name":"main_material_amount","type":"uint256"},{"internalType":"uint256","name":"indirect_material_amount","type":"uint256"},{"internalType":"uint256","name":"catalyst_amount","type":"uint256"}],"internalType":"struct item_recipe","name":"recipe","type":"tuple"}],"stateMutability":"pure","type":"function"},{"inputs":[],"name":"mintEquipments","outputs":[],"stateMutability":"nonpayable","type":"function"},{"inputs":[{"internalType":"address","name":"user","type":"address"},{"internalType":"uint256[]","name":"randomNumberRequested","type":"uint256[]"}],"name":"mintEquipmentsExperimental","outputs":[],"stateMutability":"nonpayable","type":"function"},{"inputs":[],"name":"mint_fee","outputs":[{"internalType":"uint256","name":"","type":"uint256"}],"stateMutability":"view","type":"function"},{"inputs":[],"name":"owner","outputs":[{"internalType":"address","name":"","type":"address"}],"stateMutability":"view","type":"function"},{"inputs":[],"name":"paused","outputs":[{"internalType":"bool","name":"","type":"bool"}],"stateMutability":"view","type":"function"},{"inputs":[],"name":"renounceOwnership","outputs":[],"stateMutability":"nonpayable","type":"function"},{"inputs":[{"internalType":"address","name":"","type":"address"}],"name":"request","outputs":[{"internalType":"uint256","name":"request_id","type":"uint256"},{"internalType":"uint64","name":"equipment_type","type":"uint64"},{"internalType":"uint32","name":"number_of_items","type":"uint32"},{"internalType":"uint256","name":"time_requested","type":"uint256"},{"internalType":"bool","name":"free","type":"bool"}],"stateMutability":"view","type":"function"},{"inputs":[{"internalType":"uint64","name":"_equipment_type","type":"uint64"},{"internalType":"uint256","name":"item_count","type":"uint256"}],"name":"requestEquipment","outputs":[],"stateMutability":"payable","type":"function"},{"inputs":[{"internalType":"uint64","name":"_equipment_type","type":"uint64"}],"name":"requestEquipmentExperimental","outputs":[],"stateMutability":"payable","type":"function"},{"inputs":[{"internalType":"uint256","name":"character_id","type":"uint256"},{"internalType":"uint64","name":"_equipment_type","type":"uint64"}],"name":"requestEquipmentFree","outputs":[],"stateMutability":"payable","type":"function"},{"inputs":[{"internalType":"uint256","name":"amount","type":"uint256"}],"name":"setMintFee","outputs":[],"stateMutability":"nonpayable","type":"function"},{"inputs":[{"internalType":"address","name":"_vrfContract","type":"address"}],"name":"setRandomizationContract","outputs":[],"stateMutability":"nonpayable","type":"function"},{"inputs":[{"internalType":"address","name":"newOwner","type":"address"}],"name":"transferOwnership","outputs":[],"stateMutability":"nonpayable","type":"function"},{"inputs":[{"internalType":"uint256","name":"equipment_type","type":"uint256"},{"internalType":"uint256","name":"item_count","type":"uint256"}],"name":"userMaterialsEnough","outputs":[{"internalType":"bool","name":"enough","type":"bool"}],"stateMutability":"view","type":"function"},{"inputs":[],"name":"withdraw","outputs":[],"stateMutability":"nonpayable","type":"function"}],"evm":{"bytecode":{"linkReferences":{},"object":"6080604052670de0b6b3a76400006008553480156200001d57600080fd5b50604051620050fd380380620050fd833981810160405281019062000043919062000344565b62000063620000576200020e60201b60201c565b6200021660201b60201c565b60008060146101000a81548160ff02191690831515021790555084600560006101000a81548173ffffffffffffffffffffffffffffffffffffffff021916908373ffffffffffffffffffffffffffffffffffffffff16021790555083600260006101000a81548173ffffffffffffffffffffffffffffffffffffffff021916908373ffffffffffffffffffffffffffffffffffffffff16021790555082600360006101000a81548173ffffffffffffffffffffffffffffffffffffffff021916908373ffffffffffffffffffffffffffffffffffffffff16021790555081600a60006101000a81548173ffffffffffffffffffffffffffffffffffffffff021916908373ffffffffffffffffffffffffffffffffffffffff16021790555080600b60006101000a81548173ffffffffffffffffffffffffffffffffffffffff021916908373ffffffffffffffffffffffffffffffffffffffff16021790555033600660006101000a81548173ffffffffffffffffffffffffffffffffffffffff021916908373ffffffffffffffffffffffffffffffffffffffff1602179055505050505050620003cc565b600033905090565b60008060009054906101000a900473ffffffffffffffffffffffffffffffffffffffff169050816000806101000a81548173ffffffffffffffffffffffffffffffffffffffff021916908373ffffffffffffffffffffffffffffffffffffffff1602179055508173ffffffffffffffffffffffffffffffffffffffff168173ffffffffffffffffffffffffffffffffffffffff167f8be0079c531659141344cd1fd0a4f28419497f9722a3daafe3b4186f6b6457e060405160405180910390a35050565b600080fd5b600073ffffffffffffffffffffffffffffffffffffffff82169050919050565b60006200030c82620002df565b9050919050565b6200031e81620002ff565b81146200032a57600080fd5b50565b6000815190506200033e8162000313565b92915050565b600080600080600060a08688031215620003635762000362620002da565b5b600062000373888289016200032d565b955050602062000386888289016200032d565b945050604062000399888289016200032d565b9350506060620003ac888289016200032d565b9250506080620003bf888289016200032d565b9150509295509295909350565b614d2180620003dc6000396000f3fe6080604052600436106101095760003560e01c80638da5cb5b11610095578063b25f9b3e11610064578063b25f9b3e1461032b578063da610fcf14610342578063e9ff18c61461036d578063eddd0d9c14610389578063f2fde38b146103b257610109565b80638da5cb5b1461027e578063a330e03e146102a9578063a9a876af146102e6578063ab111add1461030f57610109565b80635473e978116100dc5780635473e978146101995780635c975abb146101c2578063715018a6146101ed5780638428e99a1461020457806387acbc971461024157610109565b806308e6b2c91461010e57806320b37cfc1461012557806327c78c42146101415780633ccfd60b14610182575b600080fd5b34801561011a57600080fd5b506101236103db565b005b61013f600480360381019061013a919061337b565b610748565b005b34801561014d57600080fd5b5061016860048036038101906101639190613419565b610bea565b60405161017995949392919061349e565b60405180910390f35b34801561018e57600080fd5b50610197610c51565b005b3480156101a557600080fd5b506101c060048036038101906101bb9190613419565b610d2a565b005b3480156101ce57600080fd5b506101d7610db7565b6040516101e491906134f1565b60405180910390f35b3480156101f957600080fd5b50610202610dcd565b005b34801561021057600080fd5b5061022b6004803603810190610226919061350c565b610de1565b60405161023891906135c3565b60405180910390f35b34801561024d57600080fd5b50610268600480360381019061026391906135de565b610df9565b60405161027591906134f1565b60405180910390f35b34801561028a57600080fd5b50610293610eca565b6040516102a0919061362d565b60405180910390f35b3480156102b557600080fd5b506102d060048036038101906102cb91906135de565b610ef3565b6040516102dd91906134f1565b60405180910390f35b3480156102f257600080fd5b5061030d600480360381019061030891906137a1565b610f22565b005b610329600480360381019061032491906137fd565b6111ec565b005b34801561033757600080fd5b50610340611872565b005b34801561034e57600080fd5b50610357611bd9565b604051610364919061383d565b60405180910390f35b61038760048036038101906103829190613858565b611bdf565b005b34801561039557600080fd5b506103b060048036038101906103ab919061350c565b612034565b005b3480156103be57600080fd5b506103d960048036038101906103d49190613419565b612055565b005b6000600760003373ffffffffffffffffffffffffffffffffffffffff1673ffffffffffffffffffffffffffffffffffffffff1681526020019081526020016000206040518060a0016040529081600082015481526020016001820160009054906101000a900467ffffffffffffffff1667ffffffffffffffff1667ffffffffffffffff1681526020016001820160089054906101000a900463ffffffff1663ffffffff1663ffffffff168152602001600282015481526020016003820160009054906101000a900460ff161515151581525050905060008160000151116104f7576040517f08c379a00000000000000000000000000000000000000000000000000000000081526004016104ee906138e2565b60405180910390fd5b600080600160009054906101000a900473ffffffffffffffffffffffffffffffffffffffff1673ffffffffffffffffffffffffffffffffffffffff1663d8a4676f84600001516040518263ffffffff1660e01b8152600401610559919061383d565b600060405180830381865afa158015610576573d6000803e3d6000fd5b505050506040513d6000823e3d601f19601f8201168201806040525081019061059f91906139da565b91509150816105e3576040517f08c379a00000000000000000000000000000000000000000000000000000000081526004016105da90613aa8565b60405180910390fd5b60005b836040015163ffffffff16811015610639576106263383838151811061060f5761060e613ac8565b5b6020026020010151866020015187608001516120d8565b808061063190613b26565b9150506105e6565b506040518060a0016040528060008152602001600067ffffffffffffffff168152602001600063ffffffff16815260200142815260200160001515815250600760003373ffffffffffffffffffffffffffffffffffffffff1673ffffffffffffffffffffffffffffffffffffffff1681526020019081526020016000206000820151816000015560208201518160010160006101000a81548167ffffffffffffffff021916908367ffffffffffffffff16021790555060408201518160010160086101000a81548163ffffffff021916908363ffffffff1602179055506060820151816002015560808201518160030160006101000a81548160ff021916908315150217905550905050505050565b610750612269565b6000600760003373ffffffffffffffffffffffffffffffffffffffff1673ffffffffffffffffffffffffffffffffffffffff1681526020019081526020016000206040518060a0016040529081600082015481526020016001820160009054906101000a900467ffffffffffffffff1667ffffffffffffffff1667ffffffffffffffff1681526020016001820160089054906101000a900463ffffffff1663ffffffff1663ffffffff168152602001600282015481526020016003820160009054906101000a900460ff1615151515815250509050600081600001511461086c576040517f08c379a000000000000000000000000000000000000000000000000000000000815260040161086390613be0565b60405180910390fd5b60058367ffffffffffffffff16106108b9576040517f08c379a00000000000000000000000000000000000000000000000000000000081526004016108b090613c72565b60405180910390fd5b6000821180156108c95750600482105b610908576040517f08c379a00000000000000000000000000000000000000000000000000000000081526004016108ff90613d04565b60405180910390fd5b600854826109169190613d24565b341015610958576040517f08c379a000000000000000000000000000000000000000000000000000000000815260040161094f90613dfe565b60405180910390fd5b600061096e8467ffffffffffffffff16846122b3565b9050806109b0576040517f08c379a00000000000000000000000000000000000000000000000000000000081526004016109a790613e90565b60405180910390fd5b6040518060a00160405280600160009054906101000a900473ffffffffffffffffffffffffffffffffffffffff1673ffffffffffffffffffffffffffffffffffffffff16639bca039d338760006040518463ffffffff1660e01b8152600401610a1b93929190613eb0565b6020604051808303816000875af1158015610a3a573d6000803e3d6000fd5b505050506040513d601f19601f82011682018060405250810190610a5e9190613ee7565b81526020018567ffffffffffffffff1681526020018463ffffffff16815260200142815260200160001515815250600760003373ffffffffffffffffffffffffffffffffffffffff1673ffffffffffffffffffffffffffffffffffffffff1681526020019081526020016000206000820151816000015560208201518160010160006101000a81548167ffffffffffffffff021916908367ffffffffffffffff16021790555060408201518160010160086101000a81548163ffffffff021916908363ffffffff1602179055506060820151816002015560808201518160030160006101000a81548160ff0219169083151502179055509050503373ffffffffffffffffffffffffffffffffffffffff167f58577bf17ae4d0cc9d3b31873621b2a79ce93516e49b689b734695e54df0d9fd600760003373ffffffffffffffffffffffffffffffffffffffff1673ffffffffffffffffffffffffffffffffffffffff168152602001908152602001600020604051610bdc9190614098565b60405180910390a250505050565b60076020528060005260406000206000915090508060000154908060010160009054906101000a900467ffffffffffffffff16908060010160089054906101000a900463ffffffff16908060020154908060030160009054906101000a900460ff16905085565b610c5961243c565b6000600660009054906101000a900473ffffffffffffffffffffffffffffffffffffffff1673ffffffffffffffffffffffffffffffffffffffff1647604051610ca1906140e4565b60006040518083038185875af1925050503d8060008114610cde576040519150601f19603f3d011682016040523d82523d6000602084013e610ce3565b606091505b5050905080610d27576040517f08c379a0000000000000000000000000000000000000000000000000000000008152600401610d1e90614145565b60405180910390fd5b50565b610d3261243c565b80600460006101000a81548173ffffffffffffffffffffffffffffffffffffffff021916908373ffffffffffffffffffffffffffffffffffffffff16021790555080600160006101000a81548173ffffffffffffffffffffffffffffffffffffffff021916908373ffffffffffffffffffffffffffffffffffffffff16021790555050565b60008060149054906101000a900460ff16905090565b610dd561243c565b610ddf60006124ba565b565b610de9613203565b610df28261257e565b9050919050565b6000600190506000610e0a8461257e565b9050828160600151610e1c9190613d24565b816060018181525050828160800151610e359190613d24565b816080018181525050828160a00151610e4e9190613d24565b8160a00181815250506000610e6682600001516125f0565b5090506000610e7883602001516125f0565b5090506000610e8a846040015161269f565b5090508360600151831015610e9e57600094505b8360800151821015610eaf57600094505b8360a00151811015610ec057600094505b5050505092915050565b60008060009054906101000a900473ffffffffffffffffffffffffffffffffffffffff16905090565b60096020528160005260406000206020528060005260406000206000915091509054906101000a900460ff1681565b600460009054906101000a900473ffffffffffffffffffffffffffffffffffffffff1673ffffffffffffffffffffffffffffffffffffffff163373ffffffffffffffffffffffffffffffffffffffff1614610fb2576040517f08c379a0000000000000000000000000000000000000000000000000000000008152600401610fa9906141fd565b60405180910390fd5b6000600760008473ffffffffffffffffffffffffffffffffffffffff1673ffffffffffffffffffffffffffffffffffffffff1681526020019081526020016000206040518060a0016040529081600082015481526020016001820160009054906101000a900467ffffffffffffffff1667ffffffffffffffff1667ffffffffffffffff1681526020016001820160089054906101000a900463ffffffff1663ffffffff1663ffffffff168152602001600282015481526020016003820160009054906101000a900460ff161515151581525050905060005b816040015163ffffffff168110156110dd576110ca848483815181106110b3576110b2613ac8565b5b6020026020010151846020015185608001516120d8565b80806110d590613b26565b91505061108a565b506040518060a0016040528060008152602001600067ffffffffffffffff168152602001600063ffffffff16815260200142815260200160001515815250600760008573ffffffffffffffffffffffffffffffffffffffff1673ffffffffffffffffffffffffffffffffffffffff1681526020019081526020016000206000820151816000015560208201518160010160006101000a81548167ffffffffffffffff021916908367ffffffffffffffff16021790555060408201518160010160086101000a81548163ffffffff021916908363ffffffff1602179055506060820151816002015560808201518160030160006101000a81548160ff021916908315150217905550905050505050565b6111f4612269565b6000600760003373ffffffffffffffffffffffffffffffffffffffff1673ffffffffffffffffffffffffffffffffffffffff1681526020019081526020016000206040518060a0016040529081600082015481526020016001820160009054906101000a900467ffffffffffffffff1667ffffffffffffffff1667ffffffffffffffff1681526020016001820160089054906101000a900463ffffffff1663ffffffff1663ffffffff168152602001600282015481526020016003820160009054906101000a900460ff16151515158152505090506000816000015114611310576040517f08c379a000000000000000000000000000000000000000000000000000000000815260040161130790613be0565b60405180910390fd5b60058267ffffffffffffffff161061135d576040517f08c379a000000000000000000000000000000000000000000000000000000000815260040161135490614269565b60405180910390fd5b600854600161136c9190613d24565b3410156113ae576040517f08c379a00000000000000000000000000000000000000000000000000000000081526004016113a5906142d5565b60405180910390fd5b6009600084815260200190815260200160002060008367ffffffffffffffff16815260200190815260200160002060009054906101000a900460ff161561142a576040517f08c379a000000000000000000000000000000000000000000000000000000000815260040161142190614341565b60405180910390fd5b6063600260009054906101000a900473ffffffffffffffffffffffffffffffffffffffff1673ffffffffffffffffffffffffffffffffffffffff1663468f25b0856040518263ffffffff1660e01b8152600401611487919061383d565b61010060405180830381865afa1580156114a5573d6000803e3d6000fd5b505050506040513d601f19601f820116820180604052508101906114c9919061445c565b60e0015163ffffffff1611611513576040517f08c379a000000000000000000000000000000000000000000000000000000000815260040161150a906144d6565b60405180910390fd5b600260009054906101000a900473ffffffffffffffffffffffffffffffffffffffff1673ffffffffffffffffffffffffffffffffffffffff1663e327a6af33856040518363ffffffff1660e01b81526004016115709291906144f6565b602060405180830381865afa15801561158d573d6000803e3d6000fd5b505050506040513d601f19601f820116820180604052508101906115b1919061451f565b6115f0576040517f08c379a00000000000000000000000000000000000000000000000000000000081526004016115e790614598565b60405180910390fd5b60016009600085815260200190815260200160002060008467ffffffffffffffff16815260200190815260200160002060006101000a81548160ff0219169083151502179055506040518060a00160405280600160009054906101000a900473ffffffffffffffffffffffffffffffffffffffff1673ffffffffffffffffffffffffffffffffffffffff16639bca039d33600160006040518463ffffffff1660e01b81526004016116a3939291906145fd565b6020604051808303816000875af11580156116c2573d6000803e3d6000fd5b505050506040513d601f19601f820116820180604052508101906116e69190613ee7565b81526020018367ffffffffffffffff168152602001600163ffffffff16815260200142815260200160011515815250600760003373ffffffffffffffffffffffffffffffffffffffff1673ffffffffffffffffffffffffffffffffffffffff1681526020019081526020016000206000820151816000015560208201518160010160006101000a81548167ffffffffffffffff021916908367ffffffffffffffff16021790555060408201518160010160086101000a81548163ffffffff021916908363ffffffff1602179055506060820151816002015560808201518160030160006101000a81548160ff0219169083151502179055509050503373ffffffffffffffffffffffffffffffffffffffff167f58577bf17ae4d0cc9d3b31873621b2a79ce93516e49b689b734695e54df0d9fd600760003373ffffffffffffffffffffffffffffffffffffffff1673ffffffffffffffffffffffffffffffffffffffff1681526020019081526020016000206040516118659190614098565b60405180910390a2505050565b6000600760003373ffffffffffffffffffffffffffffffffffffffff1673ffffffffffffffffffffffffffffffffffffffff1681526020019081526020016000206040518060a0016040529081600082015481526020016001820160009054906101000a900467ffffffffffffffff1667ffffffffffffffff1667ffffffffffffffff1681526020016001820160089054906101000a900463ffffffff1663ffffffff1663ffffffff168152602001600282015481526020016003820160009054906101000a900460ff16151515158152505090506000600160009054906101000a900473ffffffffffffffffffffffffffffffffffffffff1673ffffffffffffffffffffffffffffffffffffffff1663d8a4676f83600001516040518263ffffffff1660e01b81526004016119a8919061383d565b600060405180830381865afa1580156119c5573d6000803e3d6000fd5b505050506040513d6000823e3d601f19601f820116820180604052508101906119ee91906139da565b5090506000826000015111611a38576040517f08c379a0000000000000000000000000000000000000000000000000000000008152600401611a2f906146a6565b60405180910390fd5b610e10826060015142611a4b91906146c6565b11611a8b576040517f08c379a0000000000000000000000000000000000000000000000000000000008152600401611a8290614792565b60405180910390fd5b8015611acc576040517f08c379a0000000000000000000000000000000000000000000000000000000008152600401611ac390614824565b60405180910390fd5b6040518060a0016040528060008152602001600067ffffffffffffffff168152602001600063ffffffff16815260200142815260200160001515815250600760003373ffffffffffffffffffffffffffffffffffffffff1673ffffffffffffffffffffffffffffffffffffffff1681526020019081526020016000206000820151816000015560208201518160010160006101000a81548167ffffffffffffffff021916908367ffffffffffffffff16021790555060408201518160010160086101000a81548163ffffffff021916908363ffffffff1602179055506060820151816002015560808201518160030160006101000a81548160ff0219169083151502179055509050505050565b60085481565b611be7612269565b6000600760003373ffffffffffffffffffffffffffffffffffffffff1673ffffffffffffffffffffffffffffffffffffffff1681526020019081526020016000206040518060a0016040529081600082015481526020016001820160009054906101000a900467ffffffffffffffff1667ffffffffffffffff1667ffffffffffffffff1681526020016001820160089054906101000a900463ffffffff1663ffffffff1663ffffffff168152602001600282015481526020016003820160009054906101000a900460ff16151515158152505090506000816000015114611d03576040517f08c379a0000000000000000000000000000000000000000000000000000000008152600401611cfa90613be0565b60405180910390fd5b60058267ffffffffffffffff1610611d50576040517f08c379a0000000000000000000000000000000000000000000000000000000008152600401611d4790613c72565b60405180910390fd5b6008546001611d5f9190613d24565b341015611da1576040517f08c379a0000000000000000000000000000000000000000000000000000000008152600401611d98906148dc565b60405180910390fd5b6000611db88367ffffffffffffffff1660016122b3565b905080611dfa576040517f08c379a0000000000000000000000000000000000000000000000000000000008152600401611df190613e90565b60405180910390fd5b6040518060a00160405280600160009054906101000a900473ffffffffffffffffffffffffffffffffffffffff1673ffffffffffffffffffffffffffffffffffffffff16639bca039d336001806040518463ffffffff1660e01b8152600401611e65939291906145fd565b6020604051808303816000875af1158015611e84573d6000803e3d6000fd5b505050506040513d601f19601f82011682018060405250810190611ea89190613ee7565b81526020018467ffffffffffffffff168152602001600163ffffffff16815260200142815260200160001515815250600760003373ffffffffffffffffffffffffffffffffffffffff1673ffffffffffffffffffffffffffffffffffffffff1681526020019081526020016000206000820151816000015560208201518160010160006101000a81548167ffffffffffffffff021916908367ffffffffffffffff16021790555060408201518160010160086101000a81548163ffffffff021916908363ffffffff1602179055506060820151816002015560808201518160030160006101000a81548160ff0219169083151502179055509050503373ffffffffffffffffffffffffffffffffffffffff167f58577bf17ae4d0cc9d3b31873621b2a79ce93516e49b689b734695e54df0d9fd600760003373ffffffffffffffffffffffffffffffffffffffff1673ffffffffffffffffffffffffffffffffffffffff1681526020019081526020016000206040516120279190614098565b60405180910390a2505050565b61203c61243c565b633b9aca008161204c9190613d24565b60088190555050565b61205d61243c565b600073ffffffffffffffffffffffffffffffffffffffff168173ffffffffffffffffffffffffffffffffffffffff16036120cc576040517f08c379a00000000000000000000000000000000000000000000000000000000081526004016120c39061496e565b60405180910390fd5b6120d5816124ba565b50565b60048267ffffffffffffffff16036121ab57600060016003856120fb91906149bd565b61210591906149ee565b9050600360009054906101000a900473ffffffffffffffffffffffffffffffffffffffff1673ffffffffffffffffffffffffffffffffffffffff166340c10f1986670de0b6b3a76400008461215a9190613d24565b6040518363ffffffff1660e01b81526004016121779291906144f6565b600060405180830381600087803b15801561219157600080fd5b505af11580156121a5573d6000803e3d6000fd5b50505050505b60048267ffffffffffffffff1614612263576000806121cb85858561274e565b91509150600560009054906101000a900473ffffffffffffffffffffffffffffffffffffffff1673ffffffffffffffffffffffffffffffffffffffff1663506e90aa8784846040518463ffffffff1660e01b815260040161222e93929190614b19565b600060405180830381600087803b15801561224857600080fd5b505af115801561225c573d6000803e3d6000fd5b5050505050505b50505050565b612271610db7565b156122b1576040517f08c379a00000000000000000000000000000000000000000000000000000000081526004016122a890614b9d565b60405180910390fd5b565b60006001905060006122c48461257e565b90508281606001516122d69190613d24565b816060018181525050828160a001516122ef9190613d24565b8160a001818152505060008061230883600001516125f0565b9150915060008061231c856040015161269f565b91509150846060015184101561233157600095505b8460a0015182101561234257600095505b6001151586151503612431578273ffffffffffffffffffffffffffffffffffffffff166379cc67903387606001516040518363ffffffff1660e01b815260040161238d9291906144f6565b600060405180830381600087803b1580156123a757600080fd5b505af11580156123bb573d6000803e3d6000fd5b505050508073ffffffffffffffffffffffffffffffffffffffff166379cc6790338760a001516040518363ffffffff1660e01b81526004016123fe9291906144f6565b600060405180830381600087803b15801561241857600080fd5b505af115801561242c573d6000803e3d6000fd5b505050505b505050505092915050565b612444612974565b73ffffffffffffffffffffffffffffffffffffffff16612462610eca565b73ffffffffffffffffffffffffffffffffffffffff16146124b8576040517f08c379a00000000000000000000000000000000000000000000000000000000081526004016124af90614c09565b60405180910390fd5b565b60008060009054906101000a900473ffffffffffffffffffffffffffffffffffffffff169050816000806101000a81548173ffffffffffffffffffffffffffffffffffffffff021916908373ffffffffffffffffffffffffffffffffffffffff1602179055508173ffffffffffffffffffffffffffffffffffffffff168173ffffffffffffffffffffffffffffffffffffffff167f8be0079c531659141344cd1fd0a4f28419497f9722a3daafe3b4186f6b6457e060405160405180910390a35050565b612586613203565b6000806125928461297c565b915091506000806125a2866129e4565b915091506000806125b2886129f4565b915091506040518060c00160405280878152602001858152602001838152602001868152602001848152602001828152509650505050505050919050565b6000806000600a60009054906101000a900473ffffffffffffffffffffffffffffffffffffffff1690508091508173ffffffffffffffffffffffffffffffffffffffff166370a08231336040518263ffffffff1660e01b8152600401612656919061362d565b602060405180830381865afa158015612673573d6000803e3d6000fd5b505050506040513d601f19601f820116820180604052508101906126979190613ee7565b925050915091565b6000806000600b60009054906101000a900473ffffffffffffffffffffffffffffffffffffffff1690508091508173ffffffffffffffffffffffffffffffffffffffff166370a08231336040518263ffffffff1660e01b8152600401612705919061362d565b602060405180830381865afa158015612722573d6000803e3d6000fd5b505050506040513d601f19601f820116820180604052508101906127469190613ee7565b925050915091565b612756613239565b61275e613289565b600061276986612a0b565b905060008061279283600f8151811061278557612784613ac8565b5b6020026020010151612adf565b9150915085156127a157600091505b600060405180610100016040528085600e815181106127c3576127c2613ac8565b5b602002602001015161ffff1661ffff16815260200185600d815181106127ec576127eb613ac8565b5b602002602001015161ffff1661ffff16815260200185600c8151811061281557612814613ac8565b5b602002602001015161ffff1661ffff16815260200185600b8151811061283e5761283d613ac8565b5b602002602001015161ffff1661ffff16815260200185600a8151811061286757612866613ac8565b5b602002602001015161ffff1661ffff168152602001856009815181106128905761288f613ac8565b5b602002602001015161ffff1661ffff168152602001856008815181106128b9576128b8613ac8565b5b602002602001015161ffff1661ffff168152602001856007815181106128e2576128e1613ac8565b5b602002602001015161ffff1661ffff16815250905060008061290f83858c67ffffffffffffffff16612b95565b80935081945082995050505060405180608001604052808b67ffffffffffffffff1681526020018667ffffffffffffffff1681526020018367ffffffffffffffff1681526020018267ffffffffffffffff168152509750505050505050935093915050565b600033905090565b60008060008303612997576000915067a688906bd8b0000090505b600183036129af5760009150677ce66c50e284000090505b600283036129c757600091506753444835ec58000090505b600383036129df57600091506729a2241af62c000090505b915091565b6000806000915060009050915091565b60008060009150670de0b6b3a76400009050915091565b60606000601067ffffffffffffffff811115612a2a57612a2961365e565b5b604051908082528060200260200182016040528015612a585781602001602082028036833780820191505090505b509050600061ffff9050600080600f90505b60008112612ad35760008387169050601084901b93508281901c905080858381518110612a9a57612a99613ac8565b5b602002602001019061ffff16908161ffff1681525050601083612abd91906149ee565b9250508080612acb90614c33565b915050612a6a565b50829350505050919050565b60008060006103e884612af29190614c89565b61ffff1690506103e2811115612b0b5760049250606491505b6103d881118015612b1e57506103e28111155b15612b2c5760039250603c91505b6103b081118015612b3f57506103d88111155b15612b4d5760029250602891505b6102e881118015612b6057506103b08111155b15612b6e5760019250601991505b60008110158015612b8157506102ec8111155b15612b8f5760009250600f91505b50915091565b612b9d613289565b600080600080612bab6132ce565b612bb36132ce565b60005b6008811015612c425760006103e88c8360088110612bd757612bd6613ac8565b5b6020020151612be69190614c89565b61ffff16905080848360088110612c0057612bff613ac8565b5b602002018181525050838260088110612c1c57612c1b613ac8565b5b602002015186612c2c91906149ee565b9550508080612c3a90613b26565b915050612bb6565b5060005b6008811015612cac57848a848360088110612c6457612c63613ac8565b5b6020020151612c739190613d24565b612c7d9190614cba565b828260088110612c9057612c8f613ac8565b5b6020020181815250508080612ca490613b26565b915050612c46565b50600080612cba8a8c612e43565b9150915080838360088110612cd257612cd1613ac8565b5b60200201818151612ce391906149ee565b9150818152505060405180610100016040528084600060088110612d0a57612d09613ac8565b5b602002015163ffffffff16815260200184600160088110612d2e57612d2d613ac8565b5b602002015163ffffffff16815260200184600260088110612d5257612d51613ac8565b5b602002015163ffffffff16815260200184600360088110612d7657612d75613ac8565b5b602002015163ffffffff16815260200184600460088110612d9a57612d99613ac8565b5b602002015163ffffffff16815260200184600560088110612dbe57612dbd613ac8565b5b602002015163ffffffff16815260200184600660088110612de257612de1613ac8565b5b602002015163ffffffff16815260200184600760088110612e0657612e05613ac8565b5b602002015163ffffffff168152509850612e1f84612f43565b8096508199505050612e3285878d61312f565b965050505050505093509350939050565b60008060008403612e7b57600091506096603284612e6191906149ee565b61012c612e6e9190613d24565b612e789190614cba565b90505b60018403612ebb576001915060026096603285612e9891906149ee565b60e1612ea49190613d24565b612eae9190614cba565b612eb89190614cba565b90505b60028403612efb576001915060026096603285612ed891906149ee565b604b612ee49190613d24565b612eee9190614cba565b612ef89190614cba565b90505b60038403612f3c576002915060026096603285612f1891906149ee565b61012c612f259190613d24565b612f2f9190614cba565b612f399190614cba565b90505b9250929050565b6000806000604051806101000160405280600081526020016001815260200160028152602001600381526020016004815260200160058152602001600681526020016007815250905060006008905060005b818110156130f1576000600182612fac91906149ee565b90505b828110156130dd57868160088110612fca57612fc9613ac8565b5b6020020151878360088110612fe257612fe1613ac8565b5b602002015110156130ca57600087836008811061300257613001613ac8565b5b60200201519050600085846008811061301e5761301d613ac8565b5b6020020151905088836008811061303857613037613ac8565b5b60200201518985600881106130505761304f613ac8565b5b60200201818152505085836008811061306c5761306b613ac8565b5b602002015186856008811061308457613083613ac8565b5b602002018181525050818984600881106130a1576130a0613ac8565b5b602002018181525050808684600881106130be576130bd613ac8565b5b60200201818152505050505b80806130d590613b26565b915050612faf565b5080806130e990613b26565b915050612f95565b508160006008811061310657613105613ac8565b5b602002015193508460006008811061312157613120613ac8565b5b602002015192505050915091565b60008083838661313f9190613d24565b6131499190614cba565b905060058111801561315c5750600a8111155b1561316657600191505b600a811180156131775750600f8111155b1561318157600291505b600f81118015613192575060148111155b1561319c57600391505b6014811180156131ad5750601e8111155b156131b757600491505b601e811180156131c85750602d8111155b156131d257600591505b602d811180156131e3575060418111155b156131ed57600691505b60418111156131fb57600791505b509392505050565b6040518060c001604052806000815260200160008152602001600081526020016000815260200160008152602001600081525090565b6040518060800160405280600067ffffffffffffffff168152602001600067ffffffffffffffff168152602001600067ffffffffffffffff168152602001600067ffffffffffffffff1681525090565b60405180610100016040528060008152602001600081526020016000815260200160008152602001600081526020016000815260200160008152602001600081525090565b604051806101000160405280600890602082028036833780820191505090505090565b6000604051905090565b600080fd5b600080fd5b600067ffffffffffffffff82169050919050565b61332281613305565b811461332d57600080fd5b50565b60008135905061333f81613319565b92915050565b6000819050919050565b61335881613345565b811461336357600080fd5b50565b6000813590506133758161334f565b92915050565b60008060408385031215613392576133916132fb565b5b60006133a085828601613330565b92505060206133b185828601613366565b9150509250929050565b600073ffffffffffffffffffffffffffffffffffffffff82169050919050565b60006133e6826133bb565b9050919050565b6133f6816133db565b811461340157600080fd5b50565b600081359050613413816133ed565b92915050565b60006020828403121561342f5761342e6132fb565b5b600061343d84828501613404565b91505092915050565b61344f81613345565b82525050565b61345e81613305565b82525050565b600063ffffffff82169050919050565b61347d81613464565b82525050565b60008115159050919050565b61349881613483565b82525050565b600060a0820190506134b36000830188613446565b6134c06020830187613455565b6134cd6040830186613474565b6134da6060830185613446565b6134e7608083018461348f565b9695505050505050565b6000602082019050613506600083018461348f565b92915050565b600060208284031215613522576135216132fb565b5b600061353084828501613366565b91505092915050565b61354281613345565b82525050565b60c08201600082015161355e6000850182613539565b5060208201516135716020850182613539565b5060408201516135846040850182613539565b5060608201516135976060850182613539565b5060808201516135aa6080850182613539565b5060a08201516135bd60a0850182613539565b50505050565b600060c0820190506135d86000830184613548565b92915050565b600080604083850312156135f5576135f46132fb565b5b600061360385828601613366565b925050602061361485828601613366565b9150509250929050565b613627816133db565b82525050565b6000602082019050613642600083018461361e565b92915050565b600080fd5b6000601f19601f8301169050919050565b7f4e487b7100000000000000000000000000000000000000000000000000000000600052604160045260246000fd5b6136968261364d565b810181811067ffffffffffffffff821117156136b5576136b461365e565b5b80604052505050565b60006136c86132f1565b90506136d4828261368d565b919050565b600067ffffffffffffffff8211156136f4576136f361365e565b5b602082029050602081019050919050565b600080fd5b600061371d613718846136d9565b6136be565b905080838252602082019050602084028301858111156137405761373f613705565b5b835b8181101561376957806137558882613366565b845260208401935050602081019050613742565b5050509392505050565b600082601f83011261378857613787613648565b5b813561379884826020860161370a565b91505092915050565b600080604083850312156137b8576137b76132fb565b5b60006137c685828601613404565b925050602083013567ffffffffffffffff8111156137e7576137e6613300565b5b6137f385828601613773565b9150509250929050565b60008060408385031215613814576138136132fb565b5b600061382285828601613366565b925050602061383385828601613330565b9150509250929050565b60006020820190506138526000830184613446565b92915050565b60006020828403121561386e5761386d6132fb565b5b600061387c84828501613330565b91505092915050565b600082825260208201905092915050565b7f654d4e54523a204e6f207265717565737420746f206d696e742e000000000000600082015250565b60006138cc601a83613885565b91506138d782613896565b602082019050919050565b600060208201905081810360008301526138fb816138bf565b9050919050565b61390b81613483565b811461391657600080fd5b50565b60008151905061392881613902565b92915050565b60008151905061393d8161334f565b92915050565b6000613956613951846136d9565b6136be565b9050808382526020820190506020840283018581111561397957613978613705565b5b835b818110156139a2578061398e888261392e565b84526020840193505060208101905061397b565b5050509392505050565b600082601f8301126139c1576139c0613648565b5b81516139d1848260208601613943565b91505092915050565b600080604083850312156139f1576139f06132fb565b5b60006139ff85828601613919565b925050602083015167ffffffffffffffff811115613a2057613a1f613300565b5b613a2c858286016139ac565b9150509250929050565b7f654d4e54523a2052657175657374206973206e6f74207965742066756c66696c60008201527f6c6564206f7220696e76616c696420726571756573742069642e000000000000602082015250565b6000613a92603a83613885565b9150613a9d82613a36565b604082019050919050565b60006020820190508181036000830152613ac181613a85565b9050919050565b7f4e487b7100000000000000000000000000000000000000000000000000000000600052603260045260246000fd5b7f4e487b7100000000000000000000000000000000000000000000000000000000600052601160045260246000fd5b6000613b3182613345565b91507fffffffffffffffffffffffffffffffffffffffffffffffffffffffffffffffff8203613b6357613b62613af7565b5b600182019050919050565b7f654d4e54523a205468657265206973206120726571756573742070656e64696e60008201527f67206d696e742e00000000000000000000000000000000000000000000000000602082015250565b6000613bca602783613885565b9150613bd582613b6e565b604082019050919050565b60006020820190508181036000830152613bf981613bbd565b9050919050565b7f654d4e54523a20496e636f7272656374206e756d62657220666f7220616e206560008201527f717569706d656e7420747970652e000000000000000000000000000000000000602082015250565b6000613c5c602e83613885565b9150613c6782613c00565b604082019050919050565b60006020820190508181036000830152613c8b81613c4f565b9050919050565b7f654d4e54523a2043616e206f6e6c79207265717565737420746f206d696e742060008201527f3120746f2033206974656d7320617420612074696d652e000000000000000000602082015250565b6000613cee603783613885565b9150613cf982613c92565b604082019050919050565b60006020820190508181036000830152613d1d81613ce1565b9050919050565b6000613d2f82613345565b9150613d3a83613345565b9250828202613d4881613345565b91508282048414831517613d5f57613d5e613af7565b5b5092915050565b7f654d4e54523a20496e636f727265637420616d6f756e7420666f72206571756960008201527f706d656e74206d696e74696e672e2053656e642065786163746c79203120465460208201527f4d20706572206974656d207265717565737465642e0000000000000000000000604082015250565b6000613de8605583613885565b9150613df382613d66565b606082019050919050565b60006020820190508181036000830152613e1781613ddb565b9050919050565b7f654d4e54523a204e6f7420656e6f756768206d6174657269616c7320666f722060008201527f74686973206372616674696e67207472616e73616374696f6e2e000000000000602082015250565b6000613e7a603a83613885565b9150613e8582613e1e565b604082019050919050565b60006020820190508181036000830152613ea981613e6d565b9050919050565b6000606082019050613ec5600083018661361e565b613ed26020830185613474565b613edf604083018461348f565b949350505050565b600060208284031215613efd57613efc6132fb565b5b6000613f0b8482850161392e565b91505092915050565b60008160001c9050919050565b6000819050919050565b6000613f3e613f3983613f14565b613f21565b9050919050565b600067ffffffffffffffff82169050919050565b6000613f6c613f6783613f14565b613f45565b9050919050565b613f7c81613305565b82525050565b60008160401c9050919050565b600063ffffffff82169050919050565b6000613fb2613fad83613f82565b613f8f565b9050919050565b613fc281613464565b82525050565b600060ff82169050919050565b6000613fe8613fe383613f14565b613fc8565b9050919050565b613ff881613483565b82525050565b60a08201600080830154905061401381613f2b565b6140206000860182613539565b506001830154905061403181613f59565b61403e6020860182613f73565b5061404881613f9f565b6140556040860182613fb9565b506002830154905061406681613f2b565b6140736060860182613539565b506003830154905061408481613fd5565b6140916080860182613fef565b5050505050565b600060a0820190506140ad6000830184613ffe565b92915050565b600081905092915050565b50565b60006140ce6000836140b3565b91506140d9826140be565b600082019050919050565b60006140ef826140c1565b9150819050919050565b7f4661696c656420746f207769746864726177206d61746963732e000000000000600082015250565b600061412f601a83613885565b915061413a826140f9565b602082019050919050565b6000602082019050818103600083015261415e81614122565b9050919050565b7f654d4e54523a2043616e206f6e6c792062652063616c6c65642062792074686560008201527f2056524620436f6e747261637420666f722065717569706d656e74206372616660208201527f74696e672e000000000000000000000000000000000000000000000000000000604082015250565b60006141e7604583613885565b91506141f282614165565b606082019050919050565b60006020820190508181036000830152614216816141da565b9050919050565b7f654d4e54523a20696e76616c6964206571707420747970652e00000000000000600082015250565b6000614253601983613885565b915061425e8261421d565b602082019050919050565b6000602082019050818103600083015261428281614246565b9050919050565b7f654d4e54523a2073656e6420312046544d000000000000000000000000000000600082015250565b60006142bf601183613885565b91506142ca82614289565b602082019050919050565b600060208201905081810360008301526142ee816142b2565b9050919050565b7f654d4e54523a2063686172616374657220616c7265616479206d696e7465642e600082015250565b600061432b602083613885565b9150614336826142f5565b602082019050919050565b6000602082019050818103600083015261435a8161431e565b9050919050565b600080fd5b61436f81613464565b811461437a57600080fd5b50565b60008151905061438c81614366565b92915050565b600061010082840312156143a9576143a8614361565b5b6143b46101006136be565b905060006143c48482850161437d565b60008301525060206143d88482850161437d565b60208301525060406143ec8482850161437d565b60408301525060606144008482850161437d565b60608301525060806144148482850161437d565b60808301525060a06144288482850161437d565b60a08301525060c061443c8482850161437d565b60c08301525060e06144508482850161437d565b60e08301525092915050565b60006101008284031215614473576144726132fb565b5b600061448184828501614392565b91505092915050565b7f654d4e54523a20696e7375662063686172206578702e00000000000000000000600082015250565b60006144c0601683613885565b91506144cb8261448a565b602082019050919050565b600060208201905081810360008301526144ef816144b3565b9050919050565b600060408201905061450b600083018561361e565b6145186020830184613446565b9392505050565b600060208284031215614535576145346132fb565b5b600061454384828501613919565b91505092915050565b7f654d4e54523a20636861726163746572206e6f74206f776e65642e0000000000600082015250565b6000614582601b83613885565b915061458d8261454c565b602082019050919050565b600060208201905081810360008301526145b181614575565b9050919050565b6000819050919050565b6000819050919050565b60006145e76145e26145dd846145b8565b6145c2565b613464565b9050919050565b6145f7816145cc565b82525050565b6000606082019050614612600083018661361e565b61461f60208301856145ee565b61462c604083018461348f565b949350505050565b7f654d4e54523a2043616e6e6f742063616e63656c206e6f6e2d6578697374696e60008201527f672072657175657374732e000000000000000000000000000000000000000000602082015250565b6000614690602b83613885565b915061469b82614634565b604082019050919050565b600060208201905081810360008301526146bf81614683565b9050919050565b60006146d182613345565b91506146dc83613345565b92508282039050818111156146f4576146f3613af7565b5b92915050565b7f654d4e54523a2043616e6e6f742063616e63656c20726571756573747320746860008201527f617420686176656e74206c6170736564203120686f75722066726f6d2074696d60208201527f65207265717565737465642e0000000000000000000000000000000000000000604082015250565b600061477c604c83613885565b9150614787826146fa565b606082019050919050565b600060208201905081810360008301526147ab8161476f565b9050919050565b7f654d4e54523a2043616e6e6f742063616e63656c20726571756573747320746860008201527f6174206861766520616c7265616479206265656e2066756c66696c6c65642e00602082015250565b600061480e603f83613885565b9150614819826147b2565b604082019050919050565b6000602082019050818103600083015261483d81614801565b9050919050565b7f654d4e54523a20496e636f727265637420616d6f756e7420666f72206571756960008201527f706d656e74206d696e74696e672e2053656e642065786163746c7920302e303160208201527f204d4154494320706572206974656d207265717565737465642e000000000000604082015250565b60006148c6605a83613885565b91506148d182614844565b606082019050919050565b600060208201905081810360008301526148f5816148b9565b9050919050565b7f4f776e61626c653a206e6577206f776e657220697320746865207a65726f206160008201527f6464726573730000000000000000000000000000000000000000000000000000602082015250565b6000614958602683613885565b9150614963826148fc565b604082019050919050565b600060208201905081810360008301526149878161494b565b9050919050565b7f4e487b7100000000000000000000000000000000000000000000000000000000600052601260045260246000fd5b60006149c882613345565b91506149d383613345565b9250826149e3576149e261498e565b5b828206905092915050565b60006149f982613345565b9150614a0483613345565b9250828201905080821115614a1c57614a1b613af7565b5b92915050565b608082016000820151614a386000850182613f73565b506020820151614a4b6020850182613f73565b506040820151614a5e6040850182613f73565b506060820151614a716060850182613f73565b50505050565b61010082016000820151614a8e6000850182613539565b506020820151614aa16020850182613539565b506040820151614ab46040850182613539565b506060820151614ac76060850182613539565b506080820151614ada6080850182613539565b5060a0820151614aed60a0850182613539565b5060c0820151614b0060c0850182613539565b5060e0820151614b1360e0850182613539565b50505050565b60006101a082019050614b2f600083018661361e565b614b3c6020830185614a22565b614b4960a0830184614a77565b949350505050565b7f5061757361626c653a2070617573656400000000000000000000000000000000600082015250565b6000614b87601083613885565b9150614b9282614b51565b602082019050919050565b60006020820190508181036000830152614bb681614b7a565b9050919050565b7f4f776e61626c653a2063616c6c6572206973206e6f7420746865206f776e6572600082015250565b6000614bf3602083613885565b9150614bfe82614bbd565b602082019050919050565b60006020820190508181036000830152614c2281614be6565b9050919050565b6000819050919050565b6000614c3e82614c29565b91507f80000000000000000000000000000000000000000000000000000000000000008203614c7057614c6f613af7565b5b600182039050919050565b600061ffff82169050919050565b6000614c9482614c7b565b9150614c9f83614c7b565b925082614caf57614cae61498e565b5b828206905092915050565b6000614cc582613345565b9150614cd083613345565b925082614ce057614cdf61498e565b5b82820490509291505056fea26469706673582212201b289924afb94649a2cb42ca3d6c276f3acec52520f9bbc1b9773d9c6a600e5c64736f6c63430008110033","opcodes":"PUSH1 0x80 PUSH1 0x40 MSTORE PUSH8 0xDE0B6B3A7640000 PUSH1 0x8 SSTORE CALLVALUE DUP1 ISZERO PUSH3 0x1D JUMPI PUSH1 0x0 DUP1 REVERT JUMPDEST POP PUSH1 0x40 MLOAD PUSH3 0x50FD CODESIZE SUB DUP1 PUSH3 0x50FD DUP4 CODECOPY DUP2 DUP2 ADD PUSH1 0x40 MSTORE DUP2 ADD SWAP1 PUSH3 0x43 SWAP2 SWAP1 PUSH3 0x344 JUMP JUMPDEST PUSH3 0x63 PUSH3 0x57 PUSH3 0x20E PUSH1 0x20 SHL PUSH1 0x20 SHR JUMP JUMPDEST PUSH3 0x216 PUSH1 0x20 SHL PUSH1 0x20 SHR JUMP JUMPDEST PUSH1 0x0 DUP1 PUSH1 0x14 PUSH2 0x100 EXP DUP2 SLOAD DUP2 PUSH1 0xFF MUL NOT AND SWAP1 DUP4 ISZERO ISZERO MUL OR SWAP1 SSTORE POP DUP5 PUSH1 0x5 PUSH1 0x0 PUSH2 0x100 EXP DUP2 SLOAD DUP2 PUSH20 0xFFFFFFFFFFFFFFFFFFFFFFFFFFFFFFFFFFFFFFFF MUL NOT AND SWAP1 DUP4 PUSH20 0xFFFFFFFFFFFFFFFFFFFFFFFFFFFFFFFFFFFFFFFF AND MUL OR SWAP1 SSTORE POP DUP4 PUSH1 0x2 PUSH1 0x0 PUSH2 0x100 EXP DUP2 SLOAD DUP2 PUSH20 0xFFFFFFFFFFFFFFFFFFFFFFFFFFFFFFFFFFFFFFFF MUL NOT AND SWAP1 DUP4 PUSH20 0xFFFFFFFFFFFFFFFFFFFFFFFFFFFFFFFFFFFFFFFF AND MUL OR SWAP1 SSTORE POP DUP3 PUSH1 0x3 PUSH1 0x0 PUSH2 0x100 EXP DUP2 SLOAD DUP2 PUSH20 0xFFFFFFFFFFFFFFFFFFFFFFFFFFFFFFFFFFFFFFFF MUL NOT AND SWAP1 DUP4 PUSH20 0xFFFFFFFFFFFFFFFFFFFFFFFFFFFFFFFFFFFFFFFF AND MUL OR SWAP1 SSTORE POP DUP2 PUSH1 0xA PUSH1 0x0 PUSH2 0x100 EXP DUP2 SLOAD DUP2 PUSH20 0xFFFFFFFFFFFFFFFFFFFFFFFFFFFFFFFFFFFFFFFF MUL NOT AND SWAP1 DUP4 PUSH20 0xFFFFFFFFFFFFFFFFFFFFFFFFFFFFFFFFFFFFFFFF AND MUL OR SWAP1 SSTORE POP DUP1 PUSH1 0xB PUSH1 0x0 PUSH2 0x100 EXP DUP2 SLOAD DUP2 PUSH20 0xFFFFFFFFFFFFFFFFFFFFFFFFFFFFFFFFFFFFFFFF MUL NOT AND SWAP1 DUP4 PUSH20 0xFFFFFFFFFFFFFFFFFFFFFFFFFFFFFFFFFFFFFFFF AND MUL OR SWAP1 SSTORE POP CALLER PUSH1 0x6 PUSH1 0x0 PUSH2 0x100 EXP DUP2 SLOAD DUP2 PUSH20 0xFFFFFFFFFFFFFFFFFFFFFFFFFFFFFFFFFFFFFFFF MUL NOT AND SWAP1 DUP4 PUSH20 0xFFFFFFFFFFFFFFFFFFFFFFFFFFFFFFFFFFFFFFFF AND MUL OR SWAP1 SSTORE POP POP POP POP POP POP PUSH3 0x3CC JUMP JUMPDEST PUSH1 0x0 CALLER SWAP1 POP SWAP1 JUMP JUMPDEST PUSH1 0x0 DUP1 PUSH1 0x0 SWAP1 SLOAD SWAP1 PUSH2 0x100 EXP SWAP1 DIV PUSH20 0xFFFFFFFFFFFFFFFFFFFFFFFFFFFFFFFFFFFFFFFF AND SWAP1 POP DUP2 PUSH1 0x0 DUP1 PUSH2 0x100 EXP DUP2 SLOAD DUP2 PUSH20 0xFFFFFFFFFFFFFFFFFFFFFFFFFFFFFFFFFFFFFFFF MUL NOT AND SWAP1 DUP4 PUSH20 0xFFFFFFFFFFFFFFFFFFFFFFFFFFFFFFFFFFFFFFFF AND MUL OR SWAP1 SSTORE POP DUP2 PUSH20 0xFFFFFFFFFFFFFFFFFFFFFFFFFFFFFFFFFFFFFFFF AND DUP2 PUSH20 0xFFFFFFFFFFFFFFFFFFFFFFFFFFFFFFFFFFFFFFFF AND PUSH32 0x8BE0079C531659141344CD1FD0A4F28419497F9722A3DAAFE3B4186F6B6457E0 PUSH1 0x40 MLOAD PUSH1 0x40 MLOAD DUP1 SWAP2 SUB SWAP1 LOG3 POP POP JUMP JUMPDEST PUSH1 0x0 DUP1 REVERT JUMPDEST PUSH1 0x0 PUSH20 0xFFFFFFFFFFFFFFFFFFFFFFFFFFFFFFFFFFFFFFFF DUP3 AND SWAP1 POP SWAP2 SWAP1 POP JUMP JUMPDEST PUSH1 0x0 PUSH3 0x30C DUP3 PUSH3 0x2DF JUMP JUMPDEST SWAP1 POP SWAP2 SWAP1 POP JUMP JUMPDEST PUSH3 0x31E DUP2 PUSH3 0x2FF JUMP JUMPDEST DUP2 EQ PUSH3 0x32A JUMPI PUSH1 0x0 DUP1 REVERT JUMPDEST POP JUMP JUMPDEST PUSH1 0x0 DUP2 MLOAD SWAP1 POP PUSH3 0x33E DUP2 PUSH3 0x313 JUMP JUMPDEST SWAP3 SWAP2 POP POP JUMP JUMPDEST PUSH1 0x0 DUP1 PUSH1 0x0 DUP1 PUSH1 0x0 PUSH1 0xA0 DUP7 DUP9 SUB SLT ISZERO PUSH3 0x363 JUMPI PUSH3 0x362 PUSH3 0x2DA JUMP JUMPDEST JUMPDEST PUSH1 0x0 PUSH3 0x373 DUP9 DUP3 DUP10 ADD PUSH3 0x32D JUMP JUMPDEST SWAP6 POP POP PUSH1 0x20 PUSH3 0x386 DUP9 DUP3 DUP10 ADD PUSH3 0x32D JUMP JUMPDEST SWAP5 POP POP PUSH1 0x40 PUSH3 0x399 DUP9 DUP3 DUP10 ADD PUSH3 0x32D JUMP JUMPDEST SWAP4 POP POP PUSH1 0x60 PUSH3 0x3AC DUP9 DUP3 DUP10 ADD PUSH3 0x32D JUMP JUMPDEST SWAP3 POP POP PUSH1 0x80 PUSH3 0x3BF DUP9 DUP3 DUP10 ADD PUSH3 0x32D JUMP JUMPDEST SWAP2 POP POP SWAP3 SWAP6 POP SWAP3 SWAP6 SWAP1 SWAP4 POP JUMP JUMPDEST PUSH2 0x4D21 DUP1 PUSH3 0x3DC PUSH1 0x0 CODECOPY PUSH1 0x0 RETURN INVALID PUSH1 0x80 PUSH1 0x40 MSTORE PUSH1 0x4 CALLDATASIZE LT PUSH2 0x109 JUMPI PUSH1 0x0 CALLDATALOAD PUSH1 0xE0 SHR DUP1 PUSH4 0x8DA5CB5B GT PUSH2 0x95 JUMPI DUP1 PUSH4 0xB25F9B3E GT PUSH2 0x64 JUMPI DUP1 PUSH4 0xB25F9B3E EQ PUSH2 0x32B JUMPI DUP1 PUSH4 0xDA610FCF EQ PUSH2 0x342 JUMPI DUP1 PUSH4 0xE9FF18C6 EQ PUSH2 0x36D JUMPI DUP1 PUSH4 0xEDDD0D9C EQ PUSH2 0x389 JUMPI DUP1 PUSH4 0xF2FDE38B EQ PUSH2 0x3B2 JUMPI PUSH2 0x109 JUMP JUMPDEST DUP1 PUSH4 0x8DA5CB5B EQ PUSH2 0x27E JUMPI DUP1 PUSH4 0xA330E03E EQ PUSH2 0x2A9 JUMPI DUP1 PUSH4 0xA9A876AF EQ PUSH2 0x2E6 JUMPI DUP1 PUSH4 0xAB111ADD EQ PUSH2 0x30F JUMPI PUSH2 0x109 JUMP JUMPDEST DUP1 PUSH4 0x5473E978 GT PUSH2 0xDC JUMPI DUP1 PUSH4 0x5473E978 EQ PUSH2 0x199 JUMPI DUP1 PUSH4 0x5C975ABB EQ PUSH2 0x1C2 JUMPI DUP1 PUSH4 0x715018A6 EQ PUSH2 0x1ED JUMPI DUP1 PUSH4 0x8428E99A EQ PUSH2 0x204 JUMPI DUP1 PUSH4 0x87ACBC97 EQ PUSH2 0x241 JUMPI PUSH2 0x109 JUMP JUMPDEST DUP1 PUSH4 0x8E6B2C9 EQ PUSH2 0x10E JUMPI DUP1 PUSH4 0x20B37CFC EQ PUSH2 0x125 JUMPI DUP1 PUSH4 0x27C78C42 EQ PUSH2 0x141 JUMPI DUP1 PUSH4 0x3CCFD60B EQ PUSH2 0x182 JUMPI JUMPDEST PUSH1 0x0 DUP1 REVERT JUMPDEST CALLVALUE DUP1 ISZERO PUSH2 0x11A JUMPI PUSH1 0x0 DUP1 REVERT JUMPDEST POP PUSH2 0x123 PUSH2 0x3DB JUMP JUMPDEST STOP JUMPDEST PUSH2 0x13F PUSH1 0x4 DUP1 CALLDATASIZE SUB DUP2 ADD SWAP1 PUSH2 0x13A SWAP2 SWAP1 PUSH2 0x337B JUMP JUMPDEST PUSH2 0x748 JUMP JUMPDEST STOP JUMPDEST CALLVALUE DUP1 ISZERO PUSH2 0x14D JUMPI PUSH1 0x0 DUP1 REVERT JUMPDEST POP PUSH2 0x168 PUSH1 0x4 DUP1 CALLDATASIZE SUB DUP2 ADD SWAP1 PUSH2 0x163 SWAP2 SWAP1 PUSH2 0x3419 JUMP JUMPDEST PUSH2 0xBEA JUMP JUMPDEST PUSH1 0x40 MLOAD PUSH2 0x179 SWAP6 SWAP5 SWAP4 SWAP3 SWAP2 SWAP1 PUSH2 0x349E JUMP JUMPDEST PUSH1 0x40 MLOAD DUP1 SWAP2 SUB SWAP1 RETURN JUMPDEST CALLVALUE DUP1 ISZERO PUSH2 0x18E JUMPI PUSH1 0x0 DUP1 REVERT JUMPDEST POP PUSH2 0x197 PUSH2 0xC51 JUMP JUMPDEST STOP JUMPDEST CALLVALUE DUP1 ISZERO PUSH2 0x1A5 JUMPI PUSH1 0x0 DUP1 REVERT JUMPDEST POP PUSH2 0x1C0 PUSH1 0x4 DUP1 CALLDATASIZE SUB DUP2 ADD SWAP1 PUSH2 0x1BB SWAP2 SWAP1 PUSH2 0x3419 JUMP JUMPDEST PUSH2 0xD2A JUMP JUMPDEST STOP JUMPDEST CALLVALUE DUP1 ISZERO PUSH2 0x1CE JUMPI PUSH1 0x0 DUP1 REVERT JUMPDEST POP PUSH2 0x1D7 PUSH2 0xDB7 JUMP JUMPDEST PUSH1 0x40 MLOAD PUSH2 0x1E4 SWAP2 SWAP1 PUSH2 0x34F1 JUMP JUMPDEST PUSH1 0x40 MLOAD DUP1 SWAP2 SUB SWAP1 RETURN JUMPDEST CALLVALUE DUP1 ISZERO PUSH2 0x1F9 JUMPI PUSH1 0x0 DUP1 REVERT JUMPDEST POP PUSH2 0x202 PUSH2 0xDCD JUMP JUMPDEST STOP JUMPDEST CALLVALUE DUP1 ISZERO PUSH2 0x210 JUMPI PUSH1 0x0 DUP1 REVERT JUMPDEST POP PUSH2 0x22B PUSH1 0x4 DUP1 CALLDATASIZE SUB DUP2 ADD SWAP1 PUSH2 0x226 SWAP2 SWAP1 PUSH2 0x350C JUMP JUMPDEST PUSH2 0xDE1 JUMP JUMPDEST PUSH1 0x40 MLOAD PUSH2 0x238 SWAP2 SWAP1 PUSH2 0x35C3 JUMP JUMPDEST PUSH1 0x40 MLOAD DUP1 SWAP2 SUB SWAP1 RETURN JUMPDEST CALLVALUE DUP1 ISZERO PUSH2 0x24D JUMPI PUSH1 0x0 DUP1 REVERT JUMPDEST POP PUSH2 0x268 PUSH1 0x4 DUP1 CALLDATASIZE SUB DUP2 ADD SWAP1 PUSH2 0x263 SWAP2 SWAP1 PUSH2 0x35DE JUMP JUMPDEST PUSH2 0xDF9 JUMP JUMPDEST PUSH1 0x40 MLOAD PUSH2 0x275 SWAP2 SWAP1 PUSH2 0x34F1 JUMP JUMPDEST PUSH1 0x40 MLOAD DUP1 SWAP2 SUB SWAP1 RETURN JUMPDEST CALLVALUE DUP1 ISZERO PUSH2 0x28A JUMPI PUSH1 0x0 DUP1 REVERT JUMPDEST POP PUSH2 0x293 PUSH2 0xECA JUMP JUMPDEST PUSH1 0x40 MLOAD PUSH2 0x2A0 SWAP2 SWAP1 PUSH2 0x362D JUMP JUMPDEST PUSH1 0x40 MLOAD DUP1 SWAP2 SUB SWAP1 RETURN JUMPDEST CALLVALUE DUP1 ISZERO PUSH2 0x2B5 JUMPI PUSH1 0x0 DUP1 REVERT JUMPDEST POP PUSH2 0x2D0 PUSH1 0x4 DUP1 CALLDATASIZE SUB DUP2 ADD SWAP1 PUSH2 0x2CB SWAP2 SWAP1 PUSH2 0x35DE JUMP JUMPDEST PUSH2 0xEF3 JUMP JUMPDEST PUSH1 0x40 MLOAD PUSH2 0x2DD SWAP2 SWAP1 PUSH2 0x34F1 JUMP JUMPDEST PUSH1 0x40 MLOAD DUP1 SWAP2 SUB SWAP1 RETURN JUMPDEST CALLVALUE DUP1 ISZERO PUSH2 0x2F2 JUMPI PUSH1 0x0 DUP1 REVERT JUMPDEST POP PUSH2 0x30D PUSH1 0x4 DUP1 CALLDATASIZE SUB DUP2 ADD SWAP1 PUSH2 0x308 SWAP2 SWAP1 PUSH2 0x37A1 JUMP JUMPDEST PUSH2 0xF22 JUMP JUMPDEST STOP JUMPDEST PUSH2 0x329 PUSH1 0x4 DUP1 CALLDATASIZE SUB DUP2 ADD SWAP1 PUSH2 0x324 SWAP2 SWAP1 PUSH2 0x37FD JUMP JUMPDEST PUSH2 0x11EC JUMP JUMPDEST STOP JUMPDEST CALLVALUE DUP1 ISZERO PUSH2 0x337 JUMPI PUSH1 0x0 DUP1 REVERT JUMPDEST POP PUSH2 0x340 PUSH2 0x1872 JUMP JUMPDEST STOP JUMPDEST CALLVALUE DUP1 ISZERO PUSH2 0x34E JUMPI PUSH1 0x0 DUP1 REVERT JUMPDEST POP PUSH2 0x357 PUSH2 0x1BD9 JUMP JUMPDEST PUSH1 0x40 MLOAD PUSH2 0x364 SWAP2 SWAP1 PUSH2 0x383D JUMP JUMPDEST PUSH1 0x40 MLOAD DUP1 SWAP2 SUB SWAP1 RETURN JUMPDEST PUSH2 0x387 PUSH1 0x4 DUP1 CALLDATASIZE SUB DUP2 ADD SWAP1 PUSH2 0x382 SWAP2 SWAP1 PUSH2 0x3858 JUMP JUMPDEST PUSH2 0x1BDF JUMP JUMPDEST STOP JUMPDEST CALLVALUE DUP1 ISZERO PUSH2 0x395 JUMPI PUSH1 0x0 DUP1 REVERT JUMPDEST POP PUSH2 0x3B0 PUSH1 0x4 DUP1 CALLDATASIZE SUB DUP2 ADD SWAP1 PUSH2 0x3AB SWAP2 SWAP1 PUSH2 0x350C JUMP JUMPDEST PUSH2 0x2034 JUMP JUMPDEST STOP JUMPDEST CALLVALUE DUP1 ISZERO PUSH2 0x3BE JUMPI PUSH1 0x0 DUP1 REVERT JUMPDEST POP PUSH2 0x3D9 PUSH1 0x4 DUP1 CALLDATASIZE SUB DUP2 ADD SWAP1 PUSH2 0x3D4 SWAP2 SWAP1 PUSH2 0x3419 JUMP JUMPDEST PUSH2 0x2055 JUMP JUMPDEST STOP JUMPDEST PUSH1 0x0 PUSH1 0x7 PUSH1 0x0 CALLER PUSH20 0xFFFFFFFFFFFFFFFFFFFFFFFFFFFFFFFFFFFFFFFF AND PUSH20 0xFFFFFFFFFFFFFFFFFFFFFFFFFFFFFFFFFFFFFFFF AND DUP2 MSTORE PUSH1 0x20 ADD SWAP1 DUP2 MSTORE PUSH1 0x20 ADD PUSH1 0x0 KECCAK256 PUSH1 0x40 MLOAD DUP1 PUSH1 0xA0 ADD PUSH1 0x40 MSTORE SWAP1 DUP2 PUSH1 0x0 DUP3 ADD SLOAD DUP2 MSTORE PUSH1 0x20 ADD PUSH1 0x1 DUP3 ADD PUSH1 0x0 SWAP1 SLOAD SWAP1 PUSH2 0x100 EXP SWAP1 DIV PUSH8 0xFFFFFFFFFFFFFFFF AND PUSH8 0xFFFFFFFFFFFFFFFF AND PUSH8 0xFFFFFFFFFFFFFFFF AND DUP2 MSTORE PUSH1 0x20 ADD PUSH1 0x1 DUP3 ADD PUSH1 0x8 SWAP1 SLOAD SWAP1 PUSH2 0x100 EXP SWAP1 DIV PUSH4 0xFFFFFFFF AND PUSH4 0xFFFFFFFF AND PUSH4 0xFFFFFFFF AND DUP2 MSTORE PUSH1 0x20 ADD PUSH1 0x2 DUP3 ADD SLOAD DUP2 MSTORE PUSH1 0x20 ADD PUSH1 0x3 DUP3 ADD PUSH1 0x0 SWAP1 SLOAD SWAP1 PUSH2 0x100 EXP SWAP1 DIV PUSH1 0xFF AND ISZERO ISZERO ISZERO ISZERO DUP2 MSTORE POP POP SWAP1 POP PUSH1 0x0 DUP2 PUSH1 0x0 ADD MLOAD GT PUSH2 0x4F7 JUMPI PUSH1 0x40 MLOAD PUSH32 0x8C379A000000000000000000000000000000000000000000000000000000000 DUP2 MSTORE PUSH1 0x4 ADD PUSH2 0x4EE SWAP1 PUSH2 0x38E2 JUMP JUMPDEST PUSH1 0x40 MLOAD DUP1 SWAP2 SUB SWAP1 REVERT JUMPDEST PUSH1 0x0 DUP1 PUSH1 0x1 PUSH1 0x0 SWAP1 SLOAD SWAP1 PUSH2 0x100 EXP SWAP1 DIV PUSH20 0xFFFFFFFFFFFFFFFFFFFFFFFFFFFFFFFFFFFFFFFF AND PUSH20 0xFFFFFFFFFFFFFFFFFFFFFFFFFFFFFFFFFFFFFFFF AND PUSH4 0xD8A4676F DUP5 PUSH1 0x0 ADD MLOAD PUSH1 0x40 MLOAD DUP3 PUSH4 0xFFFFFFFF AND PUSH1 0xE0 SHL DUP2 MSTORE PUSH1 0x4 ADD PUSH2 0x559 SWAP2 SWAP1 PUSH2 0x383D JUMP JUMPDEST PUSH1 0x0 PUSH1 0x40 MLOAD DUP1 DUP4 SUB DUP2 DUP7 GAS STATICCALL ISZERO DUP1 ISZERO PUSH2 0x576 JUMPI RETURNDATASIZE PUSH1 0x0 DUP1 RETURNDATACOPY RETURNDATASIZE PUSH1 0x0 REVERT JUMPDEST POP POP POP POP PUSH1 0x40 MLOAD RETURNDATASIZE PUSH1 0x0 DUP3 RETURNDATACOPY RETURNDATASIZE PUSH1 0x1F NOT PUSH1 0x1F DUP3 ADD AND DUP3 ADD DUP1 PUSH1 0x40 MSTORE POP DUP2 ADD SWAP1 PUSH2 0x59F SWAP2 SWAP1 PUSH2 0x39DA JUMP JUMPDEST SWAP2 POP SWAP2 POP DUP2 PUSH2 0x5E3 JUMPI PUSH1 0x40 MLOAD PUSH32 0x8C379A000000000000000000000000000000000000000000000000000000000 DUP2 MSTORE PUSH1 0x4 ADD PUSH2 0x5DA SWAP1 PUSH2 0x3AA8 JUMP JUMPDEST PUSH1 0x40 MLOAD DUP1 SWAP2 SUB SWAP1 REVERT JUMPDEST PUSH1 0x0 JUMPDEST DUP4 PUSH1 0x40 ADD MLOAD PUSH4 0xFFFFFFFF AND DUP2 LT ISZERO PUSH2 0x639 JUMPI PUSH2 0x626 CALLER DUP4 DUP4 DUP2 MLOAD DUP2 LT PUSH2 0x60F JUMPI PUSH2 0x60E PUSH2 0x3AC8 JUMP JUMPDEST JUMPDEST PUSH1 0x20 MUL PUSH1 0x20 ADD ADD MLOAD DUP7 PUSH1 0x20 ADD MLOAD DUP8 PUSH1 0x80 ADD MLOAD PUSH2 0x20D8 JUMP JUMPDEST DUP1 DUP1 PUSH2 0x631 SWAP1 PUSH2 0x3B26 JUMP JUMPDEST SWAP2 POP POP PUSH2 0x5E6 JUMP JUMPDEST POP PUSH1 0x40 MLOAD DUP1 PUSH1 0xA0 ADD PUSH1 0x40 MSTORE DUP1 PUSH1 0x0 DUP2 MSTORE PUSH1 0x20 ADD PUSH1 0x0 PUSH8 0xFFFFFFFFFFFFFFFF AND DUP2 MSTORE PUSH1 0x20 ADD PUSH1 0x0 PUSH4 0xFFFFFFFF AND DUP2 MSTORE PUSH1 0x20 ADD TIMESTAMP DUP2 MSTORE PUSH1 0x20 ADD PUSH1 0x0 ISZERO ISZERO DUP2 MSTORE POP PUSH1 0x7 PUSH1 0x0 CALLER PUSH20 0xFFFFFFFFFFFFFFFFFFFFFFFFFFFFFFFFFFFFFFFF AND PUSH20 0xFFFFFFFFFFFFFFFFFFFFFFFFFFFFFFFFFFFFFFFF AND DUP2 MSTORE PUSH1 0x20 ADD SWAP1 DUP2 MSTORE PUSH1 0x20 ADD PUSH1 0x0 KECCAK256 PUSH1 0x0 DUP3 ADD MLOAD DUP2 PUSH1 0x0 ADD SSTORE PUSH1 0x20 DUP3 ADD MLOAD DUP2 PUSH1 0x1 ADD PUSH1 0x0 PUSH2 0x100 EXP DUP2 SLOAD DUP2 PUSH8 0xFFFFFFFFFFFFFFFF MUL NOT AND SWAP1 DUP4 PUSH8 0xFFFFFFFFFFFFFFFF AND MUL OR SWAP1 SSTORE POP PUSH1 0x40 DUP3 ADD MLOAD DUP2 PUSH1 0x1 ADD PUSH1 0x8 PUSH2 0x100 EXP DUP2 SLOAD DUP2 PUSH4 0xFFFFFFFF MUL NOT AND SWAP1 DUP4 PUSH4 0xFFFFFFFF AND MUL OR SWAP1 SSTORE POP PUSH1 0x60 DUP3 ADD MLOAD DUP2 PUSH1 0x2 ADD SSTORE PUSH1 0x80 DUP3 ADD MLOAD DUP2 PUSH1 0x3 ADD PUSH1 0x0 PUSH2 0x100 EXP DUP2 SLOAD DUP2 PUSH1 0xFF MUL NOT AND SWAP1 DUP4 ISZERO ISZERO MUL OR SWAP1 SSTORE POP SWAP1 POP POP POP POP POP JUMP JUMPDEST PUSH2 0x750 PUSH2 0x2269 JUMP JUMPDEST PUSH1 0x0 PUSH1 0x7 PUSH1 0x0 CALLER PUSH20 0xFFFFFFFFFFFFFFFFFFFFFFFFFFFFFFFFFFFFFFFF AND PUSH20 0xFFFFFFFFFFFFFFFFFFFFFFFFFFFFFFFFFFFFFFFF AND DUP2 MSTORE PUSH1 0x20 ADD SWAP1 DUP2 MSTORE PUSH1 0x20 ADD PUSH1 0x0 KECCAK256 PUSH1 0x40 MLOAD DUP1 PUSH1 0xA0 ADD PUSH1 0x40 MSTORE SWAP1 DUP2 PUSH1 0x0 DUP3 ADD SLOAD DUP2 MSTORE PUSH1 0x20 ADD PUSH1 0x1 DUP3 ADD PUSH1 0x0 SWAP1 SLOAD SWAP1 PUSH2 0x100 EXP SWAP1 DIV PUSH8 0xFFFFFFFFFFFFFFFF AND PUSH8 0xFFFFFFFFFFFFFFFF AND PUSH8 0xFFFFFFFFFFFFFFFF AND DUP2 MSTORE PUSH1 0x20 ADD PUSH1 0x1 DUP3 ADD PUSH1 0x8 SWAP1 SLOAD SWAP1 PUSH2 0x100 EXP SWAP1 DIV PUSH4 0xFFFFFFFF AND PUSH4 0xFFFFFFFF AND PUSH4 0xFFFFFFFF AND DUP2 MSTORE PUSH1 0x20 ADD PUSH1 0x2 DUP3 ADD SLOAD DUP2 MSTORE PUSH1 0x20 ADD PUSH1 0x3 DUP3 ADD PUSH1 0x0 SWAP1 SLOAD SWAP1 PUSH2 0x100 EXP SWAP1 DIV PUSH1 0xFF AND ISZERO ISZERO ISZERO ISZERO DUP2 MSTORE POP POP SWAP1 POP PUSH1 0x0 DUP2 PUSH1 0x0 ADD MLOAD EQ PUSH2 0x86C JUMPI PUSH1 0x40 MLOAD PUSH32 0x8C379A000000000000000000000000000000000000000000000000000000000 DUP2 MSTORE PUSH1 0x4 ADD PUSH2 0x863 SWAP1 PUSH2 0x3BE0 JUMP JUMPDEST PUSH1 0x40 MLOAD DUP1 SWAP2 SUB SWAP1 REVERT JUMPDEST PUSH1 0x5 DUP4 PUSH8 0xFFFFFFFFFFFFFFFF AND LT PUSH2 0x8B9 JUMPI PUSH1 0x40 MLOAD PUSH32 0x8C379A000000000000000000000000000000000000000000000000000000000 DUP2 MSTORE PUSH1 0x4 ADD PUSH2 0x8B0 SWAP1 PUSH2 0x3C72 JUMP JUMPDEST PUSH1 0x40 MLOAD DUP1 SWAP2 SUB SWAP1 REVERT JUMPDEST PUSH1 0x0 DUP3 GT DUP1 ISZERO PUSH2 0x8C9 JUMPI POP PUSH1 0x4 DUP3 LT JUMPDEST PUSH2 0x908 JUMPI PUSH1 0x40 MLOAD PUSH32 0x8C379A000000000000000000000000000000000000000000000000000000000 DUP2 MSTORE PUSH1 0x4 ADD PUSH2 0x8FF SWAP1 PUSH2 0x3D04 JUMP JUMPDEST PUSH1 0x40 MLOAD DUP1 SWAP2 SUB SWAP1 REVERT JUMPDEST PUSH1 0x8 SLOAD DUP3 PUSH2 0x916 SWAP2 SWAP1 PUSH2 0x3D24 JUMP JUMPDEST CALLVALUE LT ISZERO PUSH2 0x958 JUMPI PUSH1 0x40 MLOAD PUSH32 0x8C379A000000000000000000000000000000000000000000000000000000000 DUP2 MSTORE PUSH1 0x4 ADD PUSH2 0x94F SWAP1 PUSH2 0x3DFE JUMP JUMPDEST PUSH1 0x40 MLOAD DUP1 SWAP2 SUB SWAP1 REVERT JUMPDEST PUSH1 0x0 PUSH2 0x96E DUP5 PUSH8 0xFFFFFFFFFFFFFFFF AND DUP5 PUSH2 0x22B3 JUMP JUMPDEST SWAP1 POP DUP1 PUSH2 0x9B0 JUMPI PUSH1 0x40 MLOAD PUSH32 0x8C379A000000000000000000000000000000000000000000000000000000000 DUP2 MSTORE PUSH1 0x4 ADD PUSH2 0x9A7 SWAP1 PUSH2 0x3E90 JUMP JUMPDEST PUSH1 0x40 MLOAD DUP1 SWAP2 SUB SWAP1 REVERT JUMPDEST PUSH1 0x40 MLOAD DUP1 PUSH1 0xA0 ADD PUSH1 0x40 MSTORE DUP1 PUSH1 0x1 PUSH1 0x0 SWAP1 SLOAD SWAP1 PUSH2 0x100 EXP SWAP1 DIV PUSH20 0xFFFFFFFFFFFFFFFFFFFFFFFFFFFFFFFFFFFFFFFF AND PUSH20 0xFFFFFFFFFFFFFFFFFFFFFFFFFFFFFFFFFFFFFFFF AND PUSH4 0x9BCA039D CALLER DUP8 PUSH1 0x0 PUSH1 0x40 MLOAD DUP5 PUSH4 0xFFFFFFFF AND PUSH1 0xE0 SHL DUP2 MSTORE PUSH1 0x4 ADD PUSH2 0xA1B SWAP4 SWAP3 SWAP2 SWAP1 PUSH2 0x3EB0 JUMP JUMPDEST PUSH1 0x20 PUSH1 0x40 MLOAD DUP1 DUP4 SUB DUP2 PUSH1 0x0 DUP8 GAS CALL ISZERO DUP1 ISZERO PUSH2 0xA3A JUMPI RETURNDATASIZE PUSH1 0x0 DUP1 RETURNDATACOPY RETURNDATASIZE PUSH1 0x0 REVERT JUMPDEST POP POP POP POP PUSH1 0x40 MLOAD RETURNDATASIZE PUSH1 0x1F NOT PUSH1 0x1F DUP3 ADD AND DUP3 ADD DUP1 PUSH1 0x40 MSTORE POP DUP2 ADD SWAP1 PUSH2 0xA5E SWAP2 SWAP1 PUSH2 0x3EE7 JUMP JUMPDEST DUP2 MSTORE PUSH1 0x20 ADD DUP6 PUSH8 0xFFFFFFFFFFFFFFFF AND DUP2 MSTORE PUSH1 0x20 ADD DUP5 PUSH4 0xFFFFFFFF AND DUP2 MSTORE PUSH1 0x20 ADD TIMESTAMP DUP2 MSTORE PUSH1 0x20 ADD PUSH1 0x0 ISZERO ISZERO DUP2 MSTORE POP PUSH1 0x7 PUSH1 0x0 CALLER PUSH20 0xFFFFFFFFFFFFFFFFFFFFFFFFFFFFFFFFFFFFFFFF AND PUSH20 0xFFFFFFFFFFFFFFFFFFFFFFFFFFFFFFFFFFFFFFFF AND DUP2 MSTORE PUSH1 0x20 ADD SWAP1 DUP2 MSTORE PUSH1 0x20 ADD PUSH1 0x0 KECCAK256 PUSH1 0x0 DUP3 ADD MLOAD DUP2 PUSH1 0x0 ADD SSTORE PUSH1 0x20 DUP3 ADD MLOAD DUP2 PUSH1 0x1 ADD PUSH1 0x0 PUSH2 0x100 EXP DUP2 SLOAD DUP2 PUSH8 0xFFFFFFFFFFFFFFFF MUL NOT AND SWAP1 DUP4 PUSH8 0xFFFFFFFFFFFFFFFF AND MUL OR SWAP1 SSTORE POP PUSH1 0x40 DUP3 ADD MLOAD DUP2 PUSH1 0x1 ADD PUSH1 0x8 PUSH2 0x100 EXP DUP2 SLOAD DUP2 PUSH4 0xFFFFFFFF MUL NOT AND SWAP1 DUP4 PUSH4 0xFFFFFFFF AND MUL OR SWAP1 SSTORE POP PUSH1 0x60 DUP3 ADD MLOAD DUP2 PUSH1 0x2 ADD SSTORE PUSH1 0x80 DUP3 ADD MLOAD DUP2 PUSH1 0x3 ADD PUSH1 0x0 PUSH2 0x100 EXP DUP2 SLOAD DUP2 PUSH1 0xFF MUL NOT AND SWAP1 DUP4 ISZERO ISZERO MUL OR SWAP1 SSTORE POP SWAP1 POP POP CALLER PUSH20 0xFFFFFFFFFFFFFFFFFFFFFFFFFFFFFFFFFFFFFFFF AND PUSH32 0x58577BF17AE4D0CC9D3B31873621B2A79CE93516E49B689B734695E54DF0D9FD PUSH1 0x7 PUSH1 0x0 CALLER PUSH20 0xFFFFFFFFFFFFFFFFFFFFFFFFFFFFFFFFFFFFFFFF AND PUSH20 0xFFFFFFFFFFFFFFFFFFFFFFFFFFFFFFFFFFFFFFFF AND DUP2 MSTORE PUSH1 0x20 ADD SWAP1 DUP2 MSTORE PUSH1 0x20 ADD PUSH1 0x0 KECCAK256 PUSH1 0x40 MLOAD PUSH2 0xBDC SWAP2 SWAP1 PUSH2 0x4098 JUMP JUMPDEST PUSH1 0x40 MLOAD DUP1 SWAP2 SUB SWAP1 LOG2 POP POP POP POP JUMP JUMPDEST PUSH1 0x7 PUSH1 0x20 MSTORE DUP1 PUSH1 0x0 MSTORE PUSH1 0x40 PUSH1 0x0 KECCAK256 PUSH1 0x0 SWAP2 POP SWAP1 POP DUP1 PUSH1 0x0 ADD SLOAD SWAP1 DUP1 PUSH1 0x1 ADD PUSH1 0x0 SWAP1 SLOAD SWAP1 PUSH2 0x100 EXP SWAP1 DIV PUSH8 0xFFFFFFFFFFFFFFFF AND SWAP1 DUP1 PUSH1 0x1 ADD PUSH1 0x8 SWAP1 SLOAD SWAP1 PUSH2 0x100 EXP SWAP1 DIV PUSH4 0xFFFFFFFF AND SWAP1 DUP1 PUSH1 0x2 ADD SLOAD SWAP1 DUP1 PUSH1 0x3 ADD PUSH1 0x0 SWAP1 SLOAD SWAP1 PUSH2 0x100 EXP SWAP1 DIV PUSH1 0xFF AND SWAP1 POP DUP6 JUMP JUMPDEST PUSH2 0xC59 PUSH2 0x243C JUMP JUMPDEST PUSH1 0x0 PUSH1 0x6 PUSH1 0x0 SWAP1 SLOAD SWAP1 PUSH2 0x100 EXP SWAP1 DIV PUSH20 0xFFFFFFFFFFFFFFFFFFFFFFFFFFFFFFFFFFFFFFFF AND PUSH20 0xFFFFFFFFFFFFFFFFFFFFFFFFFFFFFFFFFFFFFFFF AND SELFBALANCE PUSH1 0x40 MLOAD PUSH2 0xCA1 SWAP1 PUSH2 0x40E4 JUMP JUMPDEST PUSH1 0x0 PUSH1 0x40 MLOAD DUP1 DUP4 SUB DUP2 DUP6 DUP8 GAS CALL SWAP3 POP POP POP RETURNDATASIZE DUP1 PUSH1 0x0 DUP2 EQ PUSH2 0xCDE JUMPI PUSH1 0x40 MLOAD SWAP2 POP PUSH1 0x1F NOT PUSH1 0x3F RETURNDATASIZE ADD AND DUP3 ADD PUSH1 0x40 MSTORE RETURNDATASIZE DUP3 MSTORE RETURNDATASIZE PUSH1 0x0 PUSH1 0x20 DUP5 ADD RETURNDATACOPY PUSH2 0xCE3 JUMP JUMPDEST PUSH1 0x60 SWAP2 POP JUMPDEST POP POP SWAP1 POP DUP1 PUSH2 0xD27 JUMPI PUSH1 0x40 MLOAD PUSH32 0x8C379A000000000000000000000000000000000000000000000000000000000 DUP2 MSTORE PUSH1 0x4 ADD PUSH2 0xD1E SWAP1 PUSH2 0x4145 JUMP JUMPDEST PUSH1 0x40 MLOAD DUP1 SWAP2 SUB SWAP1 REVERT JUMPDEST POP JUMP JUMPDEST PUSH2 0xD32 PUSH2 0x243C JUMP JUMPDEST DUP1 PUSH1 0x4 PUSH1 0x0 PUSH2 0x100 EXP DUP2 SLOAD DUP2 PUSH20 0xFFFFFFFFFFFFFFFFFFFFFFFFFFFFFFFFFFFFFFFF MUL NOT AND SWAP1 DUP4 PUSH20 0xFFFFFFFFFFFFFFFFFFFFFFFFFFFFFFFFFFFFFFFF AND MUL OR SWAP1 SSTORE POP DUP1 PUSH1 0x1 PUSH1 0x0 PUSH2 0x100 EXP DUP2 SLOAD DUP2 PUSH20 0xFFFFFFFFFFFFFFFFFFFFFFFFFFFFFFFFFFFFFFFF MUL NOT AND SWAP1 DUP4 PUSH20 0xFFFFFFFFFFFFFFFFFFFFFFFFFFFFFFFFFFFFFFFF AND MUL OR SWAP1 SSTORE POP POP JUMP JUMPDEST PUSH1 0x0 DUP1 PUSH1 0x14 SWAP1 SLOAD SWAP1 PUSH2 0x100 EXP SWAP1 DIV PUSH1 0xFF AND SWAP1 POP SWAP1 JUMP JUMPDEST PUSH2 0xDD5 PUSH2 0x243C JUMP JUMPDEST PUSH2 0xDDF PUSH1 0x0 PUSH2 0x24BA JUMP JUMPDEST JUMP JUMPDEST PUSH2 0xDE9 PUSH2 0x3203 JUMP JUMPDEST PUSH2 0xDF2 DUP3 PUSH2 0x257E JUMP JUMPDEST SWAP1 POP SWAP2 SWAP1 POP JUMP JUMPDEST PUSH1 0x0 PUSH1 0x1 SWAP1 POP PUSH1 0x0 PUSH2 0xE0A DUP5 PUSH2 0x257E JUMP JUMPDEST SWAP1 POP DUP3 DUP2 PUSH1 0x60 ADD MLOAD PUSH2 0xE1C SWAP2 SWAP1 PUSH2 0x3D24 JUMP JUMPDEST DUP2 PUSH1 0x60 ADD DUP2 DUP2 MSTORE POP POP DUP3 DUP2 PUSH1 0x80 ADD MLOAD PUSH2 0xE35 SWAP2 SWAP1 PUSH2 0x3D24 JUMP JUMPDEST DUP2 PUSH1 0x80 ADD DUP2 DUP2 MSTORE POP POP DUP3 DUP2 PUSH1 0xA0 ADD MLOAD PUSH2 0xE4E SWAP2 SWAP1 PUSH2 0x3D24 JUMP JUMPDEST DUP2 PUSH1 0xA0 ADD DUP2 DUP2 MSTORE POP POP PUSH1 0x0 PUSH2 0xE66 DUP3 PUSH1 0x0 ADD MLOAD PUSH2 0x25F0 JUMP JUMPDEST POP SWAP1 POP PUSH1 0x0 PUSH2 0xE78 DUP4 PUSH1 0x20 ADD MLOAD PUSH2 0x25F0 JUMP JUMPDEST POP SWAP1 POP PUSH1 0x0 PUSH2 0xE8A DUP5 PUSH1 0x40 ADD MLOAD PUSH2 0x269F JUMP JUMPDEST POP SWAP1 POP DUP4 PUSH1 0x60 ADD MLOAD DUP4 LT ISZERO PUSH2 0xE9E JUMPI PUSH1 0x0 SWAP5 POP JUMPDEST DUP4 PUSH1 0x80 ADD MLOAD DUP3 LT ISZERO PUSH2 0xEAF JUMPI PUSH1 0x0 SWAP5 POP JUMPDEST DUP4 PUSH1 0xA0 ADD MLOAD DUP2 LT ISZERO PUSH2 0xEC0 JUMPI PUSH1 0x0 SWAP5 POP JUMPDEST POP POP POP POP SWAP3 SWAP2 POP POP JUMP JUMPDEST PUSH1 0x0 DUP1 PUSH1 0x0 SWAP1 SLOAD SWAP1 PUSH2 0x100 EXP SWAP1 DIV PUSH20 0xFFFFFFFFFFFFFFFFFFFFFFFFFFFFFFFFFFFFFFFF AND SWAP1 POP SWAP1 JUMP JUMPDEST PUSH1 0x9 PUSH1 0x20 MSTORE DUP2 PUSH1 0x0 MSTORE PUSH1 0x40 PUSH1 0x0 KECCAK256 PUSH1 0x20 MSTORE DUP1 PUSH1 0x0 MSTORE PUSH1 0x40 PUSH1 0x0 KECCAK256 PUSH1 0x0 SWAP2 POP SWAP2 POP SWAP1 SLOAD SWAP1 PUSH2 0x100 EXP SWAP1 DIV PUSH1 0xFF AND DUP2 JUMP JUMPDEST PUSH1 0x4 PUSH1 0x0 SWAP1 SLOAD SWAP1 PUSH2 0x100 EXP SWAP1 DIV PUSH20 0xFFFFFFFFFFFFFFFFFFFFFFFFFFFFFFFFFFFFFFFF AND PUSH20 0xFFFFFFFFFFFFFFFFFFFFFFFFFFFFFFFFFFFFFFFF AND CALLER PUSH20 0xFFFFFFFFFFFFFFFFFFFFFFFFFFFFFFFFFFFFFFFF AND EQ PUSH2 0xFB2 JUMPI PUSH1 0x40 MLOAD PUSH32 0x8C379A000000000000000000000000000000000000000000000000000000000 DUP2 MSTORE PUSH1 0x4 ADD PUSH2 0xFA9 SWAP1 PUSH2 0x41FD JUMP JUMPDEST PUSH1 0x40 MLOAD DUP1 SWAP2 SUB SWAP1 REVERT JUMPDEST PUSH1 0x0 PUSH1 0x7 PUSH1 0x0 DUP5 PUSH20 0xFFFFFFFFFFFFFFFFFFFFFFFFFFFFFFFFFFFFFFFF AND PUSH20 0xFFFFFFFFFFFFFFFFFFFFFFFFFFFFFFFFFFFFFFFF AND DUP2 MSTORE PUSH1 0x20 ADD SWAP1 DUP2 MSTORE PUSH1 0x20 ADD PUSH1 0x0 KECCAK256 PUSH1 0x40 MLOAD DUP1 PUSH1 0xA0 ADD PUSH1 0x40 MSTORE SWAP1 DUP2 PUSH1 0x0 DUP3 ADD SLOAD DUP2 MSTORE PUSH1 0x20 ADD PUSH1 0x1 DUP3 ADD PUSH1 0x0 SWAP1 SLOAD SWAP1 PUSH2 0x100 EXP SWAP1 DIV PUSH8 0xFFFFFFFFFFFFFFFF AND PUSH8 0xFFFFFFFFFFFFFFFF AND PUSH8 0xFFFFFFFFFFFFFFFF AND DUP2 MSTORE PUSH1 0x20 ADD PUSH1 0x1 DUP3 ADD PUSH1 0x8 SWAP1 SLOAD SWAP1 PUSH2 0x100 EXP SWAP1 DIV PUSH4 0xFFFFFFFF AND PUSH4 0xFFFFFFFF AND PUSH4 0xFFFFFFFF AND DUP2 MSTORE PUSH1 0x20 ADD PUSH1 0x2 DUP3 ADD SLOAD DUP2 MSTORE PUSH1 0x20 ADD PUSH1 0x3 DUP3 ADD PUSH1 0x0 SWAP1 SLOAD SWAP1 PUSH2 0x100 EXP SWAP1 DIV PUSH1 0xFF AND ISZERO ISZERO ISZERO ISZERO DUP2 MSTORE POP POP SWAP1 POP PUSH1 0x0 JUMPDEST DUP2 PUSH1 0x40 ADD MLOAD PUSH4 0xFFFFFFFF AND DUP2 LT ISZERO PUSH2 0x10DD JUMPI PUSH2 0x10CA DUP5 DUP5 DUP4 DUP2 MLOAD DUP2 LT PUSH2 0x10B3 JUMPI PUSH2 0x10B2 PUSH2 0x3AC8 JUMP JUMPDEST JUMPDEST PUSH1 0x20 MUL PUSH1 0x20 ADD ADD MLOAD DUP5 PUSH1 0x20 ADD MLOAD DUP6 PUSH1 0x80 ADD MLOAD PUSH2 0x20D8 JUMP JUMPDEST DUP1 DUP1 PUSH2 0x10D5 SWAP1 PUSH2 0x3B26 JUMP JUMPDEST SWAP2 POP POP PUSH2 0x108A JUMP JUMPDEST POP PUSH1 0x40 MLOAD DUP1 PUSH1 0xA0 ADD PUSH1 0x40 MSTORE DUP1 PUSH1 0x0 DUP2 MSTORE PUSH1 0x20 ADD PUSH1 0x0 PUSH8 0xFFFFFFFFFFFFFFFF AND DUP2 MSTORE PUSH1 0x20 ADD PUSH1 0x0 PUSH4 0xFFFFFFFF AND DUP2 MSTORE PUSH1 0x20 ADD TIMESTAMP DUP2 MSTORE PUSH1 0x20 ADD PUSH1 0x0 ISZERO ISZERO DUP2 MSTORE POP PUSH1 0x7 PUSH1 0x0 DUP6 PUSH20 0xFFFFFFFFFFFFFFFFFFFFFFFFFFFFFFFFFFFFFFFF AND PUSH20 0xFFFFFFFFFFFFFFFFFFFFFFFFFFFFFFFFFFFFFFFF AND DUP2 MSTORE PUSH1 0x20 ADD SWAP1 DUP2 MSTORE PUSH1 0x20 ADD PUSH1 0x0 KECCAK256 PUSH1 0x0 DUP3 ADD MLOAD DUP2 PUSH1 0x0 ADD SSTORE PUSH1 0x20 DUP3 ADD MLOAD DUP2 PUSH1 0x1 ADD PUSH1 0x0 PUSH2 0x100 EXP DUP2 SLOAD DUP2 PUSH8 0xFFFFFFFFFFFFFFFF MUL NOT AND SWAP1 DUP4 PUSH8 0xFFFFFFFFFFFFFFFF AND MUL OR SWAP1 SSTORE POP PUSH1 0x40 DUP3 ADD MLOAD DUP2 PUSH1 0x1 ADD PUSH1 0x8 PUSH2 0x100 EXP DUP2 SLOAD DUP2 PUSH4 0xFFFFFFFF MUL NOT AND SWAP1 DUP4 PUSH4 0xFFFFFFFF AND MUL OR SWAP1 SSTORE POP PUSH1 0x60 DUP3 ADD MLOAD DUP2 PUSH1 0x2 ADD SSTORE PUSH1 0x80 DUP3 ADD MLOAD DUP2 PUSH1 0x3 ADD PUSH1 0x0 PUSH2 0x100 EXP DUP2 SLOAD DUP2 PUSH1 0xFF MUL NOT AND SWAP1 DUP4 ISZERO ISZERO MUL OR SWAP1 SSTORE POP SWAP1 POP POP POP POP POP JUMP JUMPDEST PUSH2 0x11F4 PUSH2 0x2269 JUMP JUMPDEST PUSH1 0x0 PUSH1 0x7 PUSH1 0x0 CALLER PUSH20 0xFFFFFFFFFFFFFFFFFFFFFFFFFFFFFFFFFFFFFFFF AND PUSH20 0xFFFFFFFFFFFFFFFFFFFFFFFFFFFFFFFFFFFFFFFF AND DUP2 MSTORE PUSH1 0x20 ADD SWAP1 DUP2 MSTORE PUSH1 0x20 ADD PUSH1 0x0 KECCAK256 PUSH1 0x40 MLOAD DUP1 PUSH1 0xA0 ADD PUSH1 0x40 MSTORE SWAP1 DUP2 PUSH1 0x0 DUP3 ADD SLOAD DUP2 MSTORE PUSH1 0x20 ADD PUSH1 0x1 DUP3 ADD PUSH1 0x0 SWAP1 SLOAD SWAP1 PUSH2 0x100 EXP SWAP1 DIV PUSH8 0xFFFFFFFFFFFFFFFF AND PUSH8 0xFFFFFFFFFFFFFFFF AND PUSH8 0xFFFFFFFFFFFFFFFF AND DUP2 MSTORE PUSH1 0x20 ADD PUSH1 0x1 DUP3 ADD PUSH1 0x8 SWAP1 SLOAD SWAP1 PUSH2 0x100 EXP SWAP1 DIV PUSH4 0xFFFFFFFF AND PUSH4 0xFFFFFFFF AND PUSH4 0xFFFFFFFF AND DUP2 MSTORE PUSH1 0x20 ADD PUSH1 0x2 DUP3 ADD SLOAD DUP2 MSTORE PUSH1 0x20 ADD PUSH1 0x3 DUP3 ADD PUSH1 0x0 SWAP1 SLOAD SWAP1 PUSH2 0x100 EXP SWAP1 DIV PUSH1 0xFF AND ISZERO ISZERO ISZERO ISZERO DUP2 MSTORE POP POP SWAP1 POP PUSH1 0x0 DUP2 PUSH1 0x0 ADD MLOAD EQ PUSH2 0x1310 JUMPI PUSH1 0x40 MLOAD PUSH32 0x8C379A000000000000000000000000000000000000000000000000000000000 DUP2 MSTORE PUSH1 0x4 ADD PUSH2 0x1307 SWAP1 PUSH2 0x3BE0 JUMP JUMPDEST PUSH1 0x40 MLOAD DUP1 SWAP2 SUB SWAP1 REVERT JUMPDEST PUSH1 0x5 DUP3 PUSH8 0xFFFFFFFFFFFFFFFF AND LT PUSH2 0x135D JUMPI PUSH1 0x40 MLOAD PUSH32 0x8C379A000000000000000000000000000000000000000000000000000000000 DUP2 MSTORE PUSH1 0x4 ADD PUSH2 0x1354 SWAP1 PUSH2 0x4269 JUMP JUMPDEST PUSH1 0x40 MLOAD DUP1 SWAP2 SUB SWAP1 REVERT JUMPDEST PUSH1 0x8 SLOAD PUSH1 0x1 PUSH2 0x136C SWAP2 SWAP1 PUSH2 0x3D24 JUMP JUMPDEST CALLVALUE LT ISZERO PUSH2 0x13AE JUMPI PUSH1 0x40 MLOAD PUSH32 0x8C379A000000000000000000000000000000000000000000000000000000000 DUP2 MSTORE PUSH1 0x4 ADD PUSH2 0x13A5 SWAP1 PUSH2 0x42D5 JUMP JUMPDEST PUSH1 0x40 MLOAD DUP1 SWAP2 SUB SWAP1 REVERT JUMPDEST PUSH1 0x9 PUSH1 0x0 DUP5 DUP2 MSTORE PUSH1 0x20 ADD SWAP1 DUP2 MSTORE PUSH1 0x20 ADD PUSH1 0x0 KECCAK256 PUSH1 0x0 DUP4 PUSH8 0xFFFFFFFFFFFFFFFF AND DUP2 MSTORE PUSH1 0x20 ADD SWAP1 DUP2 MSTORE PUSH1 0x20 ADD PUSH1 0x0 KECCAK256 PUSH1 0x0 SWAP1 SLOAD SWAP1 PUSH2 0x100 EXP SWAP1 DIV PUSH1 0xFF AND ISZERO PUSH2 0x142A JUMPI PUSH1 0x40 MLOAD PUSH32 0x8C379A000000000000000000000000000000000000000000000000000000000 DUP2 MSTORE PUSH1 0x4 ADD PUSH2 0x1421 SWAP1 PUSH2 0x4341 JUMP JUMPDEST PUSH1 0x40 MLOAD DUP1 SWAP2 SUB SWAP1 REVERT JUMPDEST PUSH1 0x63 PUSH1 0x2 PUSH1 0x0 SWAP1 SLOAD SWAP1 PUSH2 0x100 EXP SWAP1 DIV PUSH20 0xFFFFFFFFFFFFFFFFFFFFFFFFFFFFFFFFFFFFFFFF AND PUSH20 0xFFFFFFFFFFFFFFFFFFFFFFFFFFFFFFFFFFFFFFFF AND PUSH4 0x468F25B0 DUP6 PUSH1 0x40 MLOAD DUP3 PUSH4 0xFFFFFFFF AND PUSH1 0xE0 SHL DUP2 MSTORE PUSH1 0x4 ADD PUSH2 0x1487 SWAP2 SWAP1 PUSH2 0x383D JUMP JUMPDEST PUSH2 0x100 PUSH1 0x40 MLOAD DUP1 DUP4 SUB DUP2 DUP7 GAS STATICCALL ISZERO DUP1 ISZERO PUSH2 0x14A5 JUMPI RETURNDATASIZE PUSH1 0x0 DUP1 RETURNDATACOPY RETURNDATASIZE PUSH1 0x0 REVERT JUMPDEST POP POP POP POP PUSH1 0x40 MLOAD RETURNDATASIZE PUSH1 0x1F NOT PUSH1 0x1F DUP3 ADD AND DUP3 ADD DUP1 PUSH1 0x40 MSTORE POP DUP2 ADD SWAP1 PUSH2 0x14C9 SWAP2 SWAP1 PUSH2 0x445C JUMP JUMPDEST PUSH1 0xE0 ADD MLOAD PUSH4 0xFFFFFFFF AND GT PUSH2 0x1513 JUMPI PUSH1 0x40 MLOAD PUSH32 0x8C379A000000000000000000000000000000000000000000000000000000000 DUP2 MSTORE PUSH1 0x4 ADD PUSH2 0x150A SWAP1 PUSH2 0x44D6 JUMP JUMPDEST PUSH1 0x40 MLOAD DUP1 SWAP2 SUB SWAP1 REVERT JUMPDEST PUSH1 0x2 PUSH1 0x0 SWAP1 SLOAD SWAP1 PUSH2 0x100 EXP SWAP1 DIV PUSH20 0xFFFFFFFFFFFFFFFFFFFFFFFFFFFFFFFFFFFFFFFF AND PUSH20 0xFFFFFFFFFFFFFFFFFFFFFFFFFFFFFFFFFFFFFFFF AND PUSH4 0xE327A6AF CALLER DUP6 PUSH1 0x40 MLOAD DUP4 PUSH4 0xFFFFFFFF AND PUSH1 0xE0 SHL DUP2 MSTORE PUSH1 0x4 ADD PUSH2 0x1570 SWAP3 SWAP2 SWAP1 PUSH2 0x44F6 JUMP JUMPDEST PUSH1 0x20 PUSH1 0x40 MLOAD DUP1 DUP4 SUB DUP2 DUP7 GAS STATICCALL ISZERO DUP1 ISZERO PUSH2 0x158D JUMPI RETURNDATASIZE PUSH1 0x0 DUP1 RETURNDATACOPY RETURNDATASIZE PUSH1 0x0 REVERT JUMPDEST POP POP POP POP PUSH1 0x40 MLOAD RETURNDATASIZE PUSH1 0x1F NOT PUSH1 0x1F DUP3 ADD AND DUP3 ADD DUP1 PUSH1 0x40 MSTORE POP DUP2 ADD SWAP1 PUSH2 0x15B1 SWAP2 SWAP1 PUSH2 0x451F JUMP JUMPDEST PUSH2 0x15F0 JUMPI PUSH1 0x40 MLOAD PUSH32 0x8C379A000000000000000000000000000000000000000000000000000000000 DUP2 MSTORE PUSH1 0x4 ADD PUSH2 0x15E7 SWAP1 PUSH2 0x4598 JUMP JUMPDEST PUSH1 0x40 MLOAD DUP1 SWAP2 SUB SWAP1 REVERT JUMPDEST PUSH1 0x1 PUSH1 0x9 PUSH1 0x0 DUP6 DUP2 MSTORE PUSH1 0x20 ADD SWAP1 DUP2 MSTORE PUSH1 0x20 ADD PUSH1 0x0 KECCAK256 PUSH1 0x0 DUP5 PUSH8 0xFFFFFFFFFFFFFFFF AND DUP2 MSTORE PUSH1 0x20 ADD SWAP1 DUP2 MSTORE PUSH1 0x20 ADD PUSH1 0x0 KECCAK256 PUSH1 0x0 PUSH2 0x100 EXP DUP2 SLOAD DUP2 PUSH1 0xFF MUL NOT AND SWAP1 DUP4 ISZERO ISZERO MUL OR SWAP1 SSTORE POP PUSH1 0x40 MLOAD DUP1 PUSH1 0xA0 ADD PUSH1 0x40 MSTORE DUP1 PUSH1 0x1 PUSH1 0x0 SWAP1 SLOAD SWAP1 PUSH2 0x100 EXP SWAP1 DIV PUSH20 0xFFFFFFFFFFFFFFFFFFFFFFFFFFFFFFFFFFFFFFFF AND PUSH20 0xFFFFFFFFFFFFFFFFFFFFFFFFFFFFFFFFFFFFFFFF AND PUSH4 0x9BCA039D CALLER PUSH1 0x1 PUSH1 0x0 PUSH1 0x40 MLOAD DUP5 PUSH4 0xFFFFFFFF AND PUSH1 0xE0 SHL DUP2 MSTORE PUSH1 0x4 ADD PUSH2 0x16A3 SWAP4 SWAP3 SWAP2 SWAP1 PUSH2 0x45FD JUMP JUMPDEST PUSH1 0x20 PUSH1 0x40 MLOAD DUP1 DUP4 SUB DUP2 PUSH1 0x0 DUP8 GAS CALL ISZERO DUP1 ISZERO PUSH2 0x16C2 JUMPI RETURNDATASIZE PUSH1 0x0 DUP1 RETURNDATACOPY RETURNDATASIZE PUSH1 0x0 REVERT JUMPDEST POP POP POP POP PUSH1 0x40 MLOAD RETURNDATASIZE PUSH1 0x1F NOT PUSH1 0x1F DUP3 ADD AND DUP3 ADD DUP1 PUSH1 0x40 MSTORE POP DUP2 ADD SWAP1 PUSH2 0x16E6 SWAP2 SWAP1 PUSH2 0x3EE7 JUMP JUMPDEST DUP2 MSTORE PUSH1 0x20 ADD DUP4 PUSH8 0xFFFFFFFFFFFFFFFF AND DUP2 MSTORE PUSH1 0x20 ADD PUSH1 0x1 PUSH4 0xFFFFFFFF AND DUP2 MSTORE PUSH1 0x20 ADD TIMESTAMP DUP2 MSTORE PUSH1 0x20 ADD PUSH1 0x1 ISZERO ISZERO DUP2 MSTORE POP PUSH1 0x7 PUSH1 0x0 CALLER PUSH20 0xFFFFFFFFFFFFFFFFFFFFFFFFFFFFFFFFFFFFFFFF AND PUSH20 0xFFFFFFFFFFFFFFFFFFFFFFFFFFFFFFFFFFFFFFFF AND DUP2 MSTORE PUSH1 0x20 ADD SWAP1 DUP2 MSTORE PUSH1 0x20 ADD PUSH1 0x0 KECCAK256 PUSH1 0x0 DUP3 ADD MLOAD DUP2 PUSH1 0x0 ADD SSTORE PUSH1 0x20 DUP3 ADD MLOAD DUP2 PUSH1 0x1 ADD PUSH1 0x0 PUSH2 0x100 EXP DUP2 SLOAD DUP2 PUSH8 0xFFFFFFFFFFFFFFFF MUL NOT AND SWAP1 DUP4 PUSH8 0xFFFFFFFFFFFFFFFF AND MUL OR SWAP1 SSTORE POP PUSH1 0x40 DUP3 ADD MLOAD DUP2 PUSH1 0x1 ADD PUSH1 0x8 PUSH2 0x100 EXP DUP2 SLOAD DUP2 PUSH4 0xFFFFFFFF MUL NOT AND SWAP1 DUP4 PUSH4 0xFFFFFFFF AND MUL OR SWAP1 SSTORE POP PUSH1 0x60 DUP3 ADD MLOAD DUP2 PUSH1 0x2 ADD SSTORE PUSH1 0x80 DUP3 ADD MLOAD DUP2 PUSH1 0x3 ADD PUSH1 0x0 PUSH2 0x100 EXP DUP2 SLOAD DUP2 PUSH1 0xFF MUL NOT AND SWAP1 DUP4 ISZERO ISZERO MUL OR SWAP1 SSTORE POP SWAP1 POP POP CALLER PUSH20 0xFFFFFFFFFFFFFFFFFFFFFFFFFFFFFFFFFFFFFFFF AND PUSH32 0x58577BF17AE4D0CC9D3B31873621B2A79CE93516E49B689B734695E54DF0D9FD PUSH1 0x7 PUSH1 0x0 CALLER PUSH20 0xFFFFFFFFFFFFFFFFFFFFFFFFFFFFFFFFFFFFFFFF AND PUSH20 0xFFFFFFFFFFFFFFFFFFFFFFFFFFFFFFFFFFFFFFFF AND DUP2 MSTORE PUSH1 0x20 ADD SWAP1 DUP2 MSTORE PUSH1 0x20 ADD PUSH1 0x0 KECCAK256 PUSH1 0x40 MLOAD PUSH2 0x1865 SWAP2 SWAP1 PUSH2 0x4098 JUMP JUMPDEST PUSH1 0x40 MLOAD DUP1 SWAP2 SUB SWAP1 LOG2 POP POP POP JUMP JUMPDEST PUSH1 0x0 PUSH1 0x7 PUSH1 0x0 CALLER PUSH20 0xFFFFFFFFFFFFFFFFFFFFFFFFFFFFFFFFFFFFFFFF AND PUSH20 0xFFFFFFFFFFFFFFFFFFFFFFFFFFFFFFFFFFFFFFFF AND DUP2 MSTORE PUSH1 0x20 ADD SWAP1 DUP2 MSTORE PUSH1 0x20 ADD PUSH1 0x0 KECCAK256 PUSH1 0x40 MLOAD DUP1 PUSH1 0xA0 ADD PUSH1 0x40 MSTORE SWAP1 DUP2 PUSH1 0x0 DUP3 ADD SLOAD DUP2 MSTORE PUSH1 0x20 ADD PUSH1 0x1 DUP3 ADD PUSH1 0x0 SWAP1 SLOAD SWAP1 PUSH2 0x100 EXP SWAP1 DIV PUSH8 0xFFFFFFFFFFFFFFFF AND PUSH8 0xFFFFFFFFFFFFFFFF AND PUSH8 0xFFFFFFFFFFFFFFFF AND DUP2 MSTORE PUSH1 0x20 ADD PUSH1 0x1 DUP3 ADD PUSH1 0x8 SWAP1 SLOAD SWAP1 PUSH2 0x100 EXP SWAP1 DIV PUSH4 0xFFFFFFFF AND PUSH4 0xFFFFFFFF AND PUSH4 0xFFFFFFFF AND DUP2 MSTORE PUSH1 0x20 ADD PUSH1 0x2 DUP3 ADD SLOAD DUP2 MSTORE PUSH1 0x20 ADD PUSH1 0x3 DUP3 ADD PUSH1 0x0 SWAP1 SLOAD SWAP1 PUSH2 0x100 EXP SWAP1 DIV PUSH1 0xFF AND ISZERO ISZERO ISZERO ISZERO DUP2 MSTORE POP POP SWAP1 POP PUSH1 0x0 PUSH1 0x1 PUSH1 0x0 SWAP1 SLOAD SWAP1 PUSH2 0x100 EXP SWAP1 DIV PUSH20 0xFFFFFFFFFFFFFFFFFFFFFFFFFFFFFFFFFFFFFFFF AND PUSH20 0xFFFFFFFFFFFFFFFFFFFFFFFFFFFFFFFFFFFFFFFF AND PUSH4 0xD8A4676F DUP4 PUSH1 0x0 ADD MLOAD PUSH1 0x40 MLOAD DUP3 PUSH4 0xFFFFFFFF AND PUSH1 0xE0 SHL DUP2 MSTORE PUSH1 0x4 ADD PUSH2 0x19A8 SWAP2 SWAP1 PUSH2 0x383D JUMP JUMPDEST PUSH1 0x0 PUSH1 0x40 MLOAD DUP1 DUP4 SUB DUP2 DUP7 GAS STATICCALL ISZERO DUP1 ISZERO PUSH2 0x19C5 JUMPI RETURNDATASIZE PUSH1 0x0 DUP1 RETURNDATACOPY RETURNDATASIZE PUSH1 0x0 REVERT JUMPDEST POP POP POP POP PUSH1 0x40 MLOAD RETURNDATASIZE PUSH1 0x0 DUP3 RETURNDATACOPY RETURNDATASIZE PUSH1 0x1F NOT PUSH1 0x1F DUP3 ADD AND DUP3 ADD DUP1 PUSH1 0x40 MSTORE POP DUP2 ADD SWAP1 PUSH2 0x19EE SWAP2 SWAP1 PUSH2 0x39DA JUMP JUMPDEST POP SWAP1 POP PUSH1 0x0 DUP3 PUSH1 0x0 ADD MLOAD GT PUSH2 0x1A38 JUMPI PUSH1 0x40 MLOAD PUSH32 0x8C379A000000000000000000000000000000000000000000000000000000000 DUP2 MSTORE PUSH1 0x4 ADD PUSH2 0x1A2F SWAP1 PUSH2 0x46A6 JUMP JUMPDEST PUSH1 0x40 MLOAD DUP1 SWAP2 SUB SWAP1 REVERT JUMPDEST PUSH2 0xE10 DUP3 PUSH1 0x60 ADD MLOAD TIMESTAMP PUSH2 0x1A4B SWAP2 SWAP1 PUSH2 0x46C6 JUMP JUMPDEST GT PUSH2 0x1A8B JUMPI PUSH1 0x40 MLOAD PUSH32 0x8C379A000000000000000000000000000000000000000000000000000000000 DUP2 MSTORE PUSH1 0x4 ADD PUSH2 0x1A82 SWAP1 PUSH2 0x4792 JUMP JUMPDEST PUSH1 0x40 MLOAD DUP1 SWAP2 SUB SWAP1 REVERT JUMPDEST DUP1 ISZERO PUSH2 0x1ACC JUMPI PUSH1 0x40 MLOAD PUSH32 0x8C379A000000000000000000000000000000000000000000000000000000000 DUP2 MSTORE PUSH1 0x4 ADD PUSH2 0x1AC3 SWAP1 PUSH2 0x4824 JUMP JUMPDEST PUSH1 0x40 MLOAD DUP1 SWAP2 SUB SWAP1 REVERT JUMPDEST PUSH1 0x40 MLOAD DUP1 PUSH1 0xA0 ADD PUSH1 0x40 MSTORE DUP1 PUSH1 0x0 DUP2 MSTORE PUSH1 0x20 ADD PUSH1 0x0 PUSH8 0xFFFFFFFFFFFFFFFF AND DUP2 MSTORE PUSH1 0x20 ADD PUSH1 0x0 PUSH4 0xFFFFFFFF AND DUP2 MSTORE PUSH1 0x20 ADD TIMESTAMP DUP2 MSTORE PUSH1 0x20 ADD PUSH1 0x0 ISZERO ISZERO DUP2 MSTORE POP PUSH1 0x7 PUSH1 0x0 CALLER PUSH20 0xFFFFFFFFFFFFFFFFFFFFFFFFFFFFFFFFFFFFFFFF AND PUSH20 0xFFFFFFFFFFFFFFFFFFFFFFFFFFFFFFFFFFFFFFFF AND DUP2 MSTORE PUSH1 0x20 ADD SWAP1 DUP2 MSTORE PUSH1 0x20 ADD PUSH1 0x0 KECCAK256 PUSH1 0x0 DUP3 ADD MLOAD DUP2 PUSH1 0x0 ADD SSTORE PUSH1 0x20 DUP3 ADD MLOAD DUP2 PUSH1 0x1 ADD PUSH1 0x0 PUSH2 0x100 EXP DUP2 SLOAD DUP2 PUSH8 0xFFFFFFFFFFFFFFFF MUL NOT AND SWAP1 DUP4 PUSH8 0xFFFFFFFFFFFFFFFF AND MUL OR SWAP1 SSTORE POP PUSH1 0x40 DUP3 ADD MLOAD DUP2 PUSH1 0x1 ADD PUSH1 0x8 PUSH2 0x100 EXP DUP2 SLOAD DUP2 PUSH4 0xFFFFFFFF MUL NOT AND SWAP1 DUP4 PUSH4 0xFFFFFFFF AND MUL OR SWAP1 SSTORE POP PUSH1 0x60 DUP3 ADD MLOAD DUP2 PUSH1 0x2 ADD SSTORE PUSH1 0x80 DUP3 ADD MLOAD DUP2 PUSH1 0x3 ADD PUSH1 0x0 PUSH2 0x100 EXP DUP2 SLOAD DUP2 PUSH1 0xFF MUL NOT AND SWAP1 DUP4 ISZERO ISZERO MUL OR SWAP1 SSTORE POP SWAP1 POP POP POP POP JUMP JUMPDEST PUSH1 0x8 SLOAD DUP2 JUMP JUMPDEST PUSH2 0x1BE7 PUSH2 0x2269 JUMP JUMPDEST PUSH1 0x0 PUSH1 0x7 PUSH1 0x0 CALLER PUSH20 0xFFFFFFFFFFFFFFFFFFFFFFFFFFFFFFFFFFFFFFFF AND PUSH20 0xFFFFFFFFFFFFFFFFFFFFFFFFFFFFFFFFFFFFFFFF AND DUP2 MSTORE PUSH1 0x20 ADD SWAP1 DUP2 MSTORE PUSH1 0x20 ADD PUSH1 0x0 KECCAK256 PUSH1 0x40 MLOAD DUP1 PUSH1 0xA0 ADD PUSH1 0x40 MSTORE SWAP1 DUP2 PUSH1 0x0 DUP3 ADD SLOAD DUP2 MSTORE PUSH1 0x20 ADD PUSH1 0x1 DUP3 ADD PUSH1 0x0 SWAP1 SLOAD SWAP1 PUSH2 0x100 EXP SWAP1 DIV PUSH8 0xFFFFFFFFFFFFFFFF AND PUSH8 0xFFFFFFFFFFFFFFFF AND PUSH8 0xFFFFFFFFFFFFFFFF AND DUP2 MSTORE PUSH1 0x20 ADD PUSH1 0x1 DUP3 ADD PUSH1 0x8 SWAP1 SLOAD SWAP1 PUSH2 0x100 EXP SWAP1 DIV PUSH4 0xFFFFFFFF AND PUSH4 0xFFFFFFFF AND PUSH4 0xFFFFFFFF AND DUP2 MSTORE PUSH1 0x20 ADD PUSH1 0x2 DUP3 ADD SLOAD DUP2 MSTORE PUSH1 0x20 ADD PUSH1 0x3 DUP3 ADD PUSH1 0x0 SWAP1 SLOAD SWAP1 PUSH2 0x100 EXP SWAP1 DIV PUSH1 0xFF AND ISZERO ISZERO ISZERO ISZERO DUP2 MSTORE POP POP SWAP1 POP PUSH1 0x0 DUP2 PUSH1 0x0 ADD MLOAD EQ PUSH2 0x1D03 JUMPI PUSH1 0x40 MLOAD PUSH32 0x8C379A000000000000000000000000000000000000000000000000000000000 DUP2 MSTORE PUSH1 0x4 ADD PUSH2 0x1CFA SWAP1 PUSH2 0x3BE0 JUMP JUMPDEST PUSH1 0x40 MLOAD DUP1 SWAP2 SUB SWAP1 REVERT JUMPDEST PUSH1 0x5 DUP3 PUSH8 0xFFFFFFFFFFFFFFFF AND LT PUSH2 0x1D50 JUMPI PUSH1 0x40 MLOAD PUSH32 0x8C379A000000000000000000000000000000000000000000000000000000000 DUP2 MSTORE PUSH1 0x4 ADD PUSH2 0x1D47 SWAP1 PUSH2 0x3C72 JUMP JUMPDEST PUSH1 0x40 MLOAD DUP1 SWAP2 SUB SWAP1 REVERT JUMPDEST PUSH1 0x8 SLOAD PUSH1 0x1 PUSH2 0x1D5F SWAP2 SWAP1 PUSH2 0x3D24 JUMP JUMPDEST CALLVALUE LT ISZERO PUSH2 0x1DA1 JUMPI PUSH1 0x40 MLOAD PUSH32 0x8C379A000000000000000000000000000000000000000000000000000000000 DUP2 MSTORE PUSH1 0x4 ADD PUSH2 0x1D98 SWAP1 PUSH2 0x48DC JUMP JUMPDEST PUSH1 0x40 MLOAD DUP1 SWAP2 SUB SWAP1 REVERT JUMPDEST PUSH1 0x0 PUSH2 0x1DB8 DUP4 PUSH8 0xFFFFFFFFFFFFFFFF AND PUSH1 0x1 PUSH2 0x22B3 JUMP JUMPDEST SWAP1 POP DUP1 PUSH2 0x1DFA JUMPI PUSH1 0x40 MLOAD PUSH32 0x8C379A000000000000000000000000000000000000000000000000000000000 DUP2 MSTORE PUSH1 0x4 ADD PUSH2 0x1DF1 SWAP1 PUSH2 0x3E90 JUMP JUMPDEST PUSH1 0x40 MLOAD DUP1 SWAP2 SUB SWAP1 REVERT JUMPDEST PUSH1 0x40 MLOAD DUP1 PUSH1 0xA0 ADD PUSH1 0x40 MSTORE DUP1 PUSH1 0x1 PUSH1 0x0 SWAP1 SLOAD SWAP1 PUSH2 0x100 EXP SWAP1 DIV PUSH20 0xFFFFFFFFFFFFFFFFFFFFFFFFFFFFFFFFFFFFFFFF AND PUSH20 0xFFFFFFFFFFFFFFFFFFFFFFFFFFFFFFFFFFFFFFFF AND PUSH4 0x9BCA039D CALLER PUSH1 0x1 DUP1 PUSH1 0x40 MLOAD DUP5 PUSH4 0xFFFFFFFF AND PUSH1 0xE0 SHL DUP2 MSTORE PUSH1 0x4 ADD PUSH2 0x1E65 SWAP4 SWAP3 SWAP2 SWAP1 PUSH2 0x45FD JUMP JUMPDEST PUSH1 0x20 PUSH1 0x40 MLOAD DUP1 DUP4 SUB DUP2 PUSH1 0x0 DUP8 GAS CALL ISZERO DUP1 ISZERO PUSH2 0x1E84 JUMPI RETURNDATASIZE PUSH1 0x0 DUP1 RETURNDATACOPY RETURNDATASIZE PUSH1 0x0 REVERT JUMPDEST POP POP POP POP PUSH1 0x40 MLOAD RETURNDATASIZE PUSH1 0x1F NOT PUSH1 0x1F DUP3 ADD AND DUP3 ADD DUP1 PUSH1 0x40 MSTORE POP DUP2 ADD SWAP1 PUSH2 0x1EA8 SWAP2 SWAP1 PUSH2 0x3EE7 JUMP JUMPDEST DUP2 MSTORE PUSH1 0x20 ADD DUP5 PUSH8 0xFFFFFFFFFFFFFFFF AND DUP2 MSTORE PUSH1 0x20 ADD PUSH1 0x1 PUSH4 0xFFFFFFFF AND DUP2 MSTORE PUSH1 0x20 ADD TIMESTAMP DUP2 MSTORE PUSH1 0x20 ADD PUSH1 0x0 ISZERO ISZERO DUP2 MSTORE POP PUSH1 0x7 PUSH1 0x0 CALLER PUSH20 0xFFFFFFFFFFFFFFFFFFFFFFFFFFFFFFFFFFFFFFFF AND PUSH20 0xFFFFFFFFFFFFFFFFFFFFFFFFFFFFFFFFFFFFFFFF AND DUP2 MSTORE PUSH1 0x20 ADD SWAP1 DUP2 MSTORE PUSH1 0x20 ADD PUSH1 0x0 KECCAK256 PUSH1 0x0 DUP3 ADD MLOAD DUP2 PUSH1 0x0 ADD SSTORE PUSH1 0x20 DUP3 ADD MLOAD DUP2 PUSH1 0x1 ADD PUSH1 0x0 PUSH2 0x100 EXP DUP2 SLOAD DUP2 PUSH8 0xFFFFFFFFFFFFFFFF MUL NOT AND SWAP1 DUP4 PUSH8 0xFFFFFFFFFFFFFFFF AND MUL OR SWAP1 SSTORE POP PUSH1 0x40 DUP3 ADD MLOAD DUP2 PUSH1 0x1 ADD PUSH1 0x8 PUSH2 0x100 EXP DUP2 SLOAD DUP2 PUSH4 0xFFFFFFFF MUL NOT AND SWAP1 DUP4 PUSH4 0xFFFFFFFF AND MUL OR SWAP1 SSTORE POP PUSH1 0x60 DUP3 ADD MLOAD DUP2 PUSH1 0x2 ADD SSTORE PUSH1 0x80 DUP3 ADD MLOAD DUP2 PUSH1 0x3 ADD PUSH1 0x0 PUSH2 0x100 EXP DUP2 SLOAD DUP2 PUSH1 0xFF MUL NOT AND SWAP1 DUP4 ISZERO ISZERO MUL OR SWAP1 SSTORE POP SWAP1 POP POP CALLER PUSH20 0xFFFFFFFFFFFFFFFFFFFFFFFFFFFFFFFFFFFFFFFF AND PUSH32 0x58577BF17AE4D0CC9D3B31873621B2A79CE93516E49B689B734695E54DF0D9FD PUSH1 0x7 PUSH1 0x0 CALLER PUSH20 0xFFFFFFFFFFFFFFFFFFFFFFFFFFFFFFFFFFFFFFFF AND PUSH20 0xFFFFFFFFFFFFFFFFFFFFFFFFFFFFFFFFFFFFFFFF AND DUP2 MSTORE PUSH1 0x20 ADD SWAP1 DUP2 MSTORE PUSH1 0x20 ADD PUSH1 0x0 KECCAK256 PUSH1 0x40 MLOAD PUSH2 0x2027 SWAP2 SWAP1 PUSH2 0x4098 JUMP JUMPDEST PUSH1 0x40 MLOAD DUP1 SWAP2 SUB SWAP1 LOG2 POP POP POP JUMP JUMPDEST PUSH2 0x203C PUSH2 0x243C JUMP JUMPDEST PUSH4 0x3B9ACA00 DUP2 PUSH2 0x204C SWAP2 SWAP1 PUSH2 0x3D24 JUMP JUMPDEST PUSH1 0x8 DUP2 SWAP1 SSTORE POP POP JUMP JUMPDEST PUSH2 0x205D PUSH2 0x243C JUMP JUMPDEST PUSH1 0x0 PUSH20 0xFFFFFFFFFFFFFFFFFFFFFFFFFFFFFFFFFFFFFFFF AND DUP2 PUSH20 0xFFFFFFFFFFFFFFFFFFFFFFFFFFFFFFFFFFFFFFFF AND SUB PUSH2 0x20CC JUMPI PUSH1 0x40 MLOAD PUSH32 0x8C379A000000000000000000000000000000000000000000000000000000000 DUP2 MSTORE PUSH1 0x4 ADD PUSH2 0x20C3 SWAP1 PUSH2 0x496E JUMP JUMPDEST PUSH1 0x40 MLOAD DUP1 SWAP2 SUB SWAP1 REVERT JUMPDEST PUSH2 0x20D5 DUP2 PUSH2 0x24BA JUMP JUMPDEST POP JUMP JUMPDEST PUSH1 0x4 DUP3 PUSH8 0xFFFFFFFFFFFFFFFF AND SUB PUSH2 0x21AB JUMPI PUSH1 0x0 PUSH1 0x1 PUSH1 0x3 DUP6 PUSH2 0x20FB SWAP2 SWAP1 PUSH2 0x49BD JUMP JUMPDEST PUSH2 0x2105 SWAP2 SWAP1 PUSH2 0x49EE JUMP JUMPDEST SWAP1 POP PUSH1 0x3 PUSH1 0x0 SWAP1 SLOAD SWAP1 PUSH2 0x100 EXP SWAP1 DIV PUSH20 0xFFFFFFFFFFFFFFFFFFFFFFFFFFFFFFFFFFFFFFFF AND PUSH20 0xFFFFFFFFFFFFFFFFFFFFFFFFFFFFFFFFFFFFFFFF AND PUSH4 0x40C10F19 DUP7 PUSH8 0xDE0B6B3A7640000 DUP5 PUSH2 0x215A SWAP2 SWAP1 PUSH2 0x3D24 JUMP JUMPDEST PUSH1 0x40 MLOAD DUP4 PUSH4 0xFFFFFFFF AND PUSH1 0xE0 SHL DUP2 MSTORE PUSH1 0x4 ADD PUSH2 0x2177 SWAP3 SWAP2 SWAP1 PUSH2 0x44F6 JUMP JUMPDEST PUSH1 0x0 PUSH1 0x40 MLOAD DUP1 DUP4 SUB DUP2 PUSH1 0x0 DUP8 DUP1 EXTCODESIZE ISZERO DUP1 ISZERO PUSH2 0x2191 JUMPI PUSH1 0x0 DUP1 REVERT JUMPDEST POP GAS CALL ISZERO DUP1 ISZERO PUSH2 0x21A5 JUMPI RETURNDATASIZE PUSH1 0x0 DUP1 RETURNDATACOPY RETURNDATASIZE PUSH1 0x0 REVERT JUMPDEST POP POP POP POP POP JUMPDEST PUSH1 0x4 DUP3 PUSH8 0xFFFFFFFFFFFFFFFF AND EQ PUSH2 0x2263 JUMPI PUSH1 0x0 DUP1 PUSH2 0x21CB DUP6 DUP6 DUP6 PUSH2 0x274E JUMP JUMPDEST SWAP2 POP SWAP2 POP PUSH1 0x5 PUSH1 0x0 SWAP1 SLOAD SWAP1 PUSH2 0x100 EXP SWAP1 DIV PUSH20 0xFFFFFFFFFFFFFFFFFFFFFFFFFFFFFFFFFFFFFFFF AND PUSH20 0xFFFFFFFFFFFFFFFFFFFFFFFFFFFFFFFFFFFFFFFF AND PUSH4 0x506E90AA DUP8 DUP5 DUP5 PUSH1 0x40 MLOAD DUP5 PUSH4 0xFFFFFFFF AND PUSH1 0xE0 SHL DUP2 MSTORE PUSH1 0x4 ADD PUSH2 0x222E SWAP4 SWAP3 SWAP2 SWAP1 PUSH2 0x4B19 JUMP JUMPDEST PUSH1 0x0 PUSH1 0x40 MLOAD DUP1 DUP4 SUB DUP2 PUSH1 0x0 DUP8 DUP1 EXTCODESIZE ISZERO DUP1 ISZERO PUSH2 0x2248 JUMPI PUSH1 0x0 DUP1 REVERT JUMPDEST POP GAS CALL ISZERO DUP1 ISZERO PUSH2 0x225C JUMPI RETURNDATASIZE PUSH1 0x0 DUP1 RETURNDATACOPY RETURNDATASIZE PUSH1 0x0 REVERT JUMPDEST POP POP POP POP POP POP JUMPDEST POP POP POP POP JUMP JUMPDEST PUSH2 0x2271 PUSH2 0xDB7 JUMP JUMPDEST ISZERO PUSH2 0x22B1 JUMPI PUSH1 0x40 MLOAD PUSH32 0x8C379A000000000000000000000000000000000000000000000000000000000 DUP2 MSTORE PUSH1 0x4 ADD PUSH2 0x22A8 SWAP1 PUSH2 0x4B9D JUMP JUMPDEST PUSH1 0x40 MLOAD DUP1 SWAP2 SUB SWAP1 REVERT JUMPDEST JUMP JUMPDEST PUSH1 0x0 PUSH1 0x1 SWAP1 POP PUSH1 0x0 PUSH2 0x22C4 DUP5 PUSH2 0x257E JUMP JUMPDEST SWAP1 POP DUP3 DUP2 PUSH1 0x60 ADD MLOAD PUSH2 0x22D6 SWAP2 SWAP1 PUSH2 0x3D24 JUMP JUMPDEST DUP2 PUSH1 0x60 ADD DUP2 DUP2 MSTORE POP POP DUP3 DUP2 PUSH1 0xA0 ADD MLOAD PUSH2 0x22EF SWAP2 SWAP1 PUSH2 0x3D24 JUMP JUMPDEST DUP2 PUSH1 0xA0 ADD DUP2 DUP2 MSTORE POP POP PUSH1 0x0 DUP1 PUSH2 0x2308 DUP4 PUSH1 0x0 ADD MLOAD PUSH2 0x25F0 JUMP JUMPDEST SWAP2 POP SWAP2 POP PUSH1 0x0 DUP1 PUSH2 0x231C DUP6 PUSH1 0x40 ADD MLOAD PUSH2 0x269F JUMP JUMPDEST SWAP2 POP SWAP2 POP DUP5 PUSH1 0x60 ADD MLOAD DUP5 LT ISZERO PUSH2 0x2331 JUMPI PUSH1 0x0 SWAP6 POP JUMPDEST DUP5 PUSH1 0xA0 ADD MLOAD DUP3 LT ISZERO PUSH2 0x2342 JUMPI PUSH1 0x0 SWAP6 POP JUMPDEST PUSH1 0x1 ISZERO ISZERO DUP7 ISZERO ISZERO SUB PUSH2 0x2431 JUMPI DUP3 PUSH20 0xFFFFFFFFFFFFFFFFFFFFFFFFFFFFFFFFFFFFFFFF AND PUSH4 0x79CC6790 CALLER DUP8 PUSH1 0x60 ADD MLOAD PUSH1 0x40 MLOAD DUP4 PUSH4 0xFFFFFFFF AND PUSH1 0xE0 SHL DUP2 MSTORE PUSH1 0x4 ADD PUSH2 0x238D SWAP3 SWAP2 SWAP1 PUSH2 0x44F6 JUMP JUMPDEST PUSH1 0x0 PUSH1 0x40 MLOAD DUP1 DUP4 SUB DUP2 PUSH1 0x0 DUP8 DUP1 EXTCODESIZE ISZERO DUP1 ISZERO PUSH2 0x23A7 JUMPI PUSH1 0x0 DUP1 REVERT JUMPDEST POP GAS CALL ISZERO DUP1 ISZERO PUSH2 0x23BB JUMPI RETURNDATASIZE PUSH1 0x0 DUP1 RETURNDATACOPY RETURNDATASIZE PUSH1 0x0 REVERT JUMPDEST POP POP POP POP DUP1 PUSH20 0xFFFFFFFFFFFFFFFFFFFFFFFFFFFFFFFFFFFFFFFF AND PUSH4 0x79CC6790 CALLER DUP8 PUSH1 0xA0 ADD MLOAD PUSH1 0x40 MLOAD DUP4 PUSH4 0xFFFFFFFF AND PUSH1 0xE0 SHL DUP2 MSTORE PUSH1 0x4 ADD PUSH2 0x23FE SWAP3 SWAP2 SWAP1 PUSH2 0x44F6 JUMP JUMPDEST PUSH1 0x0 PUSH1 0x40 MLOAD DUP1 DUP4 SUB DUP2 PUSH1 0x0 DUP8 DUP1 EXTCODESIZE ISZERO DUP1 ISZERO PUSH2 0x2418 JUMPI PUSH1 0x0 DUP1 REVERT JUMPDEST POP GAS CALL ISZERO DUP1 ISZERO PUSH2 0x242C JUMPI RETURNDATASIZE PUSH1 0x0 DUP1 RETURNDATACOPY RETURNDATASIZE PUSH1 0x0 REVERT JUMPDEST POP POP POP POP JUMPDEST POP POP POP POP POP SWAP3 SWAP2 POP POP JUMP JUMPDEST PUSH2 0x2444 PUSH2 0x2974 JUMP JUMPDEST PUSH20 0xFFFFFFFFFFFFFFFFFFFFFFFFFFFFFFFFFFFFFFFF AND PUSH2 0x2462 PUSH2 0xECA JUMP JUMPDEST PUSH20 0xFFFFFFFFFFFFFFFFFFFFFFFFFFFFFFFFFFFFFFFF AND EQ PUSH2 0x24B8 JUMPI PUSH1 0x40 MLOAD PUSH32 0x8C379A000000000000000000000000000000000000000000000000000000000 DUP2 MSTORE PUSH1 0x4 ADD PUSH2 0x24AF SWAP1 PUSH2 0x4C09 JUMP JUMPDEST PUSH1 0x40 MLOAD DUP1 SWAP2 SUB SWAP1 REVERT JUMPDEST JUMP JUMPDEST PUSH1 0x0 DUP1 PUSH1 0x0 SWAP1 SLOAD SWAP1 PUSH2 0x100 EXP SWAP1 DIV PUSH20 0xFFFFFFFFFFFFFFFFFFFFFFFFFFFFFFFFFFFFFFFF AND SWAP1 POP DUP2 PUSH1 0x0 DUP1 PUSH2 0x100 EXP DUP2 SLOAD DUP2 PUSH20 0xFFFFFFFFFFFFFFFFFFFFFFFFFFFFFFFFFFFFFFFF MUL NOT AND SWAP1 DUP4 PUSH20 0xFFFFFFFFFFFFFFFFFFFFFFFFFFFFFFFFFFFFFFFF AND MUL OR SWAP1 SSTORE POP DUP2 PUSH20 0xFFFFFFFFFFFFFFFFFFFFFFFFFFFFFFFFFFFFFFFF AND DUP2 PUSH20 0xFFFFFFFFFFFFFFFFFFFFFFFFFFFFFFFFFFFFFFFF AND PUSH32 0x8BE0079C531659141344CD1FD0A4F28419497F9722A3DAAFE3B4186F6B6457E0 PUSH1 0x40 MLOAD PUSH1 0x40 MLOAD DUP1 SWAP2 SUB SWAP1 LOG3 POP POP JUMP JUMPDEST PUSH2 0x2586 PUSH2 0x3203 JUMP JUMPDEST PUSH1 0x0 DUP1 PUSH2 0x2592 DUP5 PUSH2 0x297C JUMP JUMPDEST SWAP2 POP SWAP2 POP PUSH1 0x0 DUP1 PUSH2 0x25A2 DUP7 PUSH2 0x29E4 JUMP JUMPDEST SWAP2 POP SWAP2 POP PUSH1 0x0 DUP1 PUSH2 0x25B2 DUP9 PUSH2 0x29F4 JUMP JUMPDEST SWAP2 POP SWAP2 POP PUSH1 0x40 MLOAD DUP1 PUSH1 0xC0 ADD PUSH1 0x40 MSTORE DUP1 DUP8 DUP2 MSTORE PUSH1 0x20 ADD DUP6 DUP2 MSTORE PUSH1 0x20 ADD DUP4 DUP2 MSTORE PUSH1 0x20 ADD DUP7 DUP2 MSTORE PUSH1 0x20 ADD DUP5 DUP2 MSTORE PUSH1 0x20 ADD DUP3 DUP2 MSTORE POP SWAP7 POP POP POP POP POP POP POP SWAP2 SWAP1 POP JUMP JUMPDEST PUSH1 0x0 DUP1 PUSH1 0x0 PUSH1 0xA PUSH1 0x0 SWAP1 SLOAD SWAP1 PUSH2 0x100 EXP SWAP1 DIV PUSH20 0xFFFFFFFFFFFFFFFFFFFFFFFFFFFFFFFFFFFFFFFF AND SWAP1 POP DUP1 SWAP2 POP DUP2 PUSH20 0xFFFFFFFFFFFFFFFFFFFFFFFFFFFFFFFFFFFFFFFF AND PUSH4 0x70A08231 CALLER PUSH1 0x40 MLOAD DUP3 PUSH4 0xFFFFFFFF AND PUSH1 0xE0 SHL DUP2 MSTORE PUSH1 0x4 ADD PUSH2 0x2656 SWAP2 SWAP1 PUSH2 0x362D JUMP JUMPDEST PUSH1 0x20 PUSH1 0x40 MLOAD DUP1 DUP4 SUB DUP2 DUP7 GAS STATICCALL ISZERO DUP1 ISZERO PUSH2 0x2673 JUMPI RETURNDATASIZE PUSH1 0x0 DUP1 RETURNDATACOPY RETURNDATASIZE PUSH1 0x0 REVERT JUMPDEST POP POP POP POP PUSH1 0x40 MLOAD RETURNDATASIZE PUSH1 0x1F NOT PUSH1 0x1F DUP3 ADD AND DUP3 ADD DUP1 PUSH1 0x40 MSTORE POP DUP2 ADD SWAP1 PUSH2 0x2697 SWAP2 SWAP1 PUSH2 0x3EE7 JUMP JUMPDEST SWAP3 POP POP SWAP2 POP SWAP2 JUMP JUMPDEST PUSH1 0x0 DUP1 PUSH1 0x0 PUSH1 0xB PUSH1 0x0 SWAP1 SLOAD SWAP1 PUSH2 0x100 EXP SWAP1 DIV PUSH20 0xFFFFFFFFFFFFFFFFFFFFFFFFFFFFFFFFFFFFFFFF AND SWAP1 POP DUP1 SWAP2 POP DUP2 PUSH20 0xFFFFFFFFFFFFFFFFFFFFFFFFFFFFFFFFFFFFFFFF AND PUSH4 0x70A08231 CALLER PUSH1 0x40 MLOAD DUP3 PUSH4 0xFFFFFFFF AND PUSH1 0xE0 SHL DUP2 MSTORE PUSH1 0x4 ADD PUSH2 0x2705 SWAP2 SWAP1 PUSH2 0x362D JUMP JUMPDEST PUSH1 0x20 PUSH1 0x40 MLOAD DUP1 DUP4 SUB DUP2 DUP7 GAS STATICCALL ISZERO DUP1 ISZERO PUSH2 0x2722 JUMPI RETURNDATASIZE PUSH1 0x0 DUP1 RETURNDATACOPY RETURNDATASIZE PUSH1 0x0 REVERT JUMPDEST POP POP POP POP PUSH1 0x40 MLOAD RETURNDATASIZE PUSH1 0x1F NOT PUSH1 0x1F DUP3 ADD AND DUP3 ADD DUP1 PUSH1 0x40 MSTORE POP DUP2 ADD SWAP1 PUSH2 0x2746 SWAP2 SWAP1 PUSH2 0x3EE7 JUMP JUMPDEST SWAP3 POP POP SWAP2 POP SWAP2 JUMP JUMPDEST PUSH2 0x2756 PUSH2 0x3239 JUMP JUMPDEST PUSH2 0x275E PUSH2 0x3289 JUMP JUMPDEST PUSH1 0x0 PUSH2 0x2769 DUP7 PUSH2 0x2A0B JUMP JUMPDEST SWAP1 POP PUSH1 0x0 DUP1 PUSH2 0x2792 DUP4 PUSH1 0xF DUP2 MLOAD DUP2 LT PUSH2 0x2785 JUMPI PUSH2 0x2784 PUSH2 0x3AC8 JUMP JUMPDEST JUMPDEST PUSH1 0x20 MUL PUSH1 0x20 ADD ADD MLOAD PUSH2 0x2ADF JUMP JUMPDEST SWAP2 POP SWAP2 POP DUP6 ISZERO PUSH2 0x27A1 JUMPI PUSH1 0x0 SWAP2 POP JUMPDEST PUSH1 0x0 PUSH1 0x40 MLOAD DUP1 PUSH2 0x100 ADD PUSH1 0x40 MSTORE DUP1 DUP6 PUSH1 0xE DUP2 MLOAD DUP2 LT PUSH2 0x27C3 JUMPI PUSH2 0x27C2 PUSH2 0x3AC8 JUMP JUMPDEST JUMPDEST PUSH1 0x20 MUL PUSH1 0x20 ADD ADD MLOAD PUSH2 0xFFFF AND PUSH2 0xFFFF AND DUP2 MSTORE PUSH1 0x20 ADD DUP6 PUSH1 0xD DUP2 MLOAD DUP2 LT PUSH2 0x27EC JUMPI PUSH2 0x27EB PUSH2 0x3AC8 JUMP JUMPDEST JUMPDEST PUSH1 0x20 MUL PUSH1 0x20 ADD ADD MLOAD PUSH2 0xFFFF AND PUSH2 0xFFFF AND DUP2 MSTORE PUSH1 0x20 ADD DUP6 PUSH1 0xC DUP2 MLOAD DUP2 LT PUSH2 0x2815 JUMPI PUSH2 0x2814 PUSH2 0x3AC8 JUMP JUMPDEST JUMPDEST PUSH1 0x20 MUL PUSH1 0x20 ADD ADD MLOAD PUSH2 0xFFFF AND PUSH2 0xFFFF AND DUP2 MSTORE PUSH1 0x20 ADD DUP6 PUSH1 0xB DUP2 MLOAD DUP2 LT PUSH2 0x283E JUMPI PUSH2 0x283D PUSH2 0x3AC8 JUMP JUMPDEST JUMPDEST PUSH1 0x20 MUL PUSH1 0x20 ADD ADD MLOAD PUSH2 0xFFFF AND PUSH2 0xFFFF AND DUP2 MSTORE PUSH1 0x20 ADD DUP6 PUSH1 0xA DUP2 MLOAD DUP2 LT PUSH2 0x2867 JUMPI PUSH2 0x2866 PUSH2 0x3AC8 JUMP JUMPDEST JUMPDEST PUSH1 0x20 MUL PUSH1 0x20 ADD ADD MLOAD PUSH2 0xFFFF AND PUSH2 0xFFFF AND DUP2 MSTORE PUSH1 0x20 ADD DUP6 PUSH1 0x9 DUP2 MLOAD DUP2 LT PUSH2 0x2890 JUMPI PUSH2 0x288F PUSH2 0x3AC8 JUMP JUMPDEST JUMPDEST PUSH1 0x20 MUL PUSH1 0x20 ADD ADD MLOAD PUSH2 0xFFFF AND PUSH2 0xFFFF AND DUP2 MSTORE PUSH1 0x20 ADD DUP6 PUSH1 0x8 DUP2 MLOAD DUP2 LT PUSH2 0x28B9 JUMPI PUSH2 0x28B8 PUSH2 0x3AC8 JUMP JUMPDEST JUMPDEST PUSH1 0x20 MUL PUSH1 0x20 ADD ADD MLOAD PUSH2 0xFFFF AND PUSH2 0xFFFF AND DUP2 MSTORE PUSH1 0x20 ADD DUP6 PUSH1 0x7 DUP2 MLOAD DUP2 LT PUSH2 0x28E2 JUMPI PUSH2 0x28E1 PUSH2 0x3AC8 JUMP JUMPDEST JUMPDEST PUSH1 0x20 MUL PUSH1 0x20 ADD ADD MLOAD PUSH2 0xFFFF AND PUSH2 0xFFFF AND DUP2 MSTORE POP SWAP1 POP PUSH1 0x0 DUP1 PUSH2 0x290F DUP4 DUP6 DUP13 PUSH8 0xFFFFFFFFFFFFFFFF AND PUSH2 0x2B95 JUMP JUMPDEST DUP1 SWAP4 POP DUP2 SWAP5 POP DUP3 SWAP10 POP POP POP POP PUSH1 0x40 MLOAD DUP1 PUSH1 0x80 ADD PUSH1 0x40 MSTORE DUP1 DUP12 PUSH8 0xFFFFFFFFFFFFFFFF AND DUP2 MSTORE PUSH1 0x20 ADD DUP7 PUSH8 0xFFFFFFFFFFFFFFFF AND DUP2 MSTORE PUSH1 0x20 ADD DUP4 PUSH8 0xFFFFFFFFFFFFFFFF AND DUP2 MSTORE PUSH1 0x20 ADD DUP3 PUSH8 0xFFFFFFFFFFFFFFFF AND DUP2 MSTORE POP SWAP8 POP POP POP POP POP POP POP SWAP4 POP SWAP4 SWAP2 POP POP JUMP JUMPDEST PUSH1 0x0 CALLER SWAP1 POP SWAP1 JUMP JUMPDEST PUSH1 0x0 DUP1 PUSH1 0x0 DUP4 SUB PUSH2 0x2997 JUMPI PUSH1 0x0 SWAP2 POP PUSH8 0xA688906BD8B00000 SWAP1 POP JUMPDEST PUSH1 0x1 DUP4 SUB PUSH2 0x29AF JUMPI PUSH1 0x0 SWAP2 POP PUSH8 0x7CE66C50E2840000 SWAP1 POP JUMPDEST PUSH1 0x2 DUP4 SUB PUSH2 0x29C7 JUMPI PUSH1 0x0 SWAP2 POP PUSH8 0x53444835EC580000 SWAP1 POP JUMPDEST PUSH1 0x3 DUP4 SUB PUSH2 0x29DF JUMPI PUSH1 0x0 SWAP2 POP PUSH8 0x29A2241AF62C0000 SWAP1 POP JUMPDEST SWAP2 POP SWAP2 JUMP JUMPDEST PUSH1 0x0 DUP1 PUSH1 0x0 SWAP2 POP PUSH1 0x0 SWAP1 POP SWAP2 POP SWAP2 JUMP JUMPDEST PUSH1 0x0 DUP1 PUSH1 0x0 SWAP2 POP PUSH8 0xDE0B6B3A7640000 SWAP1 POP SWAP2 POP SWAP2 JUMP JUMPDEST PUSH1 0x60 PUSH1 0x0 PUSH1 0x10 PUSH8 0xFFFFFFFFFFFFFFFF DUP2 GT ISZERO PUSH2 0x2A2A JUMPI PUSH2 0x2A29 PUSH2 0x365E JUMP JUMPDEST JUMPDEST PUSH1 0x40 MLOAD SWAP1 DUP1 DUP3 MSTORE DUP1 PUSH1 0x20 MUL PUSH1 0x20 ADD DUP3 ADD PUSH1 0x40 MSTORE DUP1 ISZERO PUSH2 0x2A58 JUMPI DUP2 PUSH1 0x20 ADD PUSH1 0x20 DUP3 MUL DUP1 CALLDATASIZE DUP4 CALLDATACOPY DUP1 DUP3 ADD SWAP2 POP POP SWAP1 POP JUMPDEST POP SWAP1 POP PUSH1 0x0 PUSH2 0xFFFF SWAP1 POP PUSH1 0x0 DUP1 PUSH1 0xF SWAP1 POP JUMPDEST PUSH1 0x0 DUP2 SLT PUSH2 0x2AD3 JUMPI PUSH1 0x0 DUP4 DUP8 AND SWAP1 POP PUSH1 0x10 DUP5 SWAP1 SHL SWAP4 POP DUP3 DUP2 SWAP1 SHR SWAP1 POP DUP1 DUP6 DUP4 DUP2 MLOAD DUP2 LT PUSH2 0x2A9A JUMPI PUSH2 0x2A99 PUSH2 0x3AC8 JUMP JUMPDEST JUMPDEST PUSH1 0x20 MUL PUSH1 0x20 ADD ADD SWAP1 PUSH2 0xFFFF AND SWAP1 DUP2 PUSH2 0xFFFF AND DUP2 MSTORE POP POP PUSH1 0x10 DUP4 PUSH2 0x2ABD SWAP2 SWAP1 PUSH2 0x49EE JUMP JUMPDEST SWAP3 POP POP DUP1 DUP1 PUSH2 0x2ACB SWAP1 PUSH2 0x4C33 JUMP JUMPDEST SWAP2 POP POP PUSH2 0x2A6A JUMP JUMPDEST POP DUP3 SWAP4 POP POP POP POP SWAP2 SWAP1 POP JUMP JUMPDEST PUSH1 0x0 DUP1 PUSH1 0x0 PUSH2 0x3E8 DUP5 PUSH2 0x2AF2 SWAP2 SWAP1 PUSH2 0x4C89 JUMP JUMPDEST PUSH2 0xFFFF AND SWAP1 POP PUSH2 0x3E2 DUP2 GT ISZERO PUSH2 0x2B0B JUMPI PUSH1 0x4 SWAP3 POP PUSH1 0x64 SWAP2 POP JUMPDEST PUSH2 0x3D8 DUP2 GT DUP1 ISZERO PUSH2 0x2B1E JUMPI POP PUSH2 0x3E2 DUP2 GT ISZERO JUMPDEST ISZERO PUSH2 0x2B2C JUMPI PUSH1 0x3 SWAP3 POP PUSH1 0x3C SWAP2 POP JUMPDEST PUSH2 0x3B0 DUP2 GT DUP1 ISZERO PUSH2 0x2B3F JUMPI POP PUSH2 0x3D8 DUP2 GT ISZERO JUMPDEST ISZERO PUSH2 0x2B4D JUMPI PUSH1 0x2 SWAP3 POP PUSH1 0x28 SWAP2 POP JUMPDEST PUSH2 0x2E8 DUP2 GT DUP1 ISZERO PUSH2 0x2B60 JUMPI POP PUSH2 0x3B0 DUP2 GT ISZERO JUMPDEST ISZERO PUSH2 0x2B6E JUMPI PUSH1 0x1 SWAP3 POP PUSH1 0x19 SWAP2 POP JUMPDEST PUSH1 0x0 DUP2 LT ISZERO DUP1 ISZERO PUSH2 0x2B81 JUMPI POP PUSH2 0x2EC DUP2 GT ISZERO JUMPDEST ISZERO PUSH2 0x2B8F JUMPI PUSH1 0x0 SWAP3 POP PUSH1 0xF SWAP2 POP JUMPDEST POP SWAP2 POP SWAP2 JUMP JUMPDEST PUSH2 0x2B9D PUSH2 0x3289 JUMP JUMPDEST PUSH1 0x0 DUP1 PUSH1 0x0 DUP1 PUSH2 0x2BAB PUSH2 0x32CE JUMP JUMPDEST PUSH2 0x2BB3 PUSH2 0x32CE JUMP JUMPDEST PUSH1 0x0 JUMPDEST PUSH1 0x8 DUP2 LT ISZERO PUSH2 0x2C42 JUMPI PUSH1 0x0 PUSH2 0x3E8 DUP13 DUP4 PUSH1 0x8 DUP2 LT PUSH2 0x2BD7 JUMPI PUSH2 0x2BD6 PUSH2 0x3AC8 JUMP JUMPDEST JUMPDEST PUSH1 0x20 MUL ADD MLOAD PUSH2 0x2BE6 SWAP2 SWAP1 PUSH2 0x4C89 JUMP JUMPDEST PUSH2 0xFFFF AND SWAP1 POP DUP1 DUP5 DUP4 PUSH1 0x8 DUP2 LT PUSH2 0x2C00 JUMPI PUSH2 0x2BFF PUSH2 0x3AC8 JUMP JUMPDEST JUMPDEST PUSH1 0x20 MUL ADD DUP2 DUP2 MSTORE POP POP DUP4 DUP3 PUSH1 0x8 DUP2 LT PUSH2 0x2C1C JUMPI PUSH2 0x2C1B PUSH2 0x3AC8 JUMP JUMPDEST JUMPDEST PUSH1 0x20 MUL ADD MLOAD DUP7 PUSH2 0x2C2C SWAP2 SWAP1 PUSH2 0x49EE JUMP JUMPDEST SWAP6 POP POP DUP1 DUP1 PUSH2 0x2C3A SWAP1 PUSH2 0x3B26 JUMP JUMPDEST SWAP2 POP POP PUSH2 0x2BB6 JUMP JUMPDEST POP PUSH1 0x0 JUMPDEST PUSH1 0x8 DUP2 LT ISZERO PUSH2 0x2CAC JUMPI DUP5 DUP11 DUP5 DUP4 PUSH1 0x8 DUP2 LT PUSH2 0x2C64 JUMPI PUSH2 0x2C63 PUSH2 0x3AC8 JUMP JUMPDEST JUMPDEST PUSH1 0x20 MUL ADD MLOAD PUSH2 0x2C73 SWAP2 SWAP1 PUSH2 0x3D24 JUMP JUMPDEST PUSH2 0x2C7D SWAP2 SWAP1 PUSH2 0x4CBA JUMP JUMPDEST DUP3 DUP3 PUSH1 0x8 DUP2 LT PUSH2 0x2C90 JUMPI PUSH2 0x2C8F PUSH2 0x3AC8 JUMP JUMPDEST JUMPDEST PUSH1 0x20 MUL ADD DUP2 DUP2 MSTORE POP POP DUP1 DUP1 PUSH2 0x2CA4 SWAP1 PUSH2 0x3B26 JUMP JUMPDEST SWAP2 POP POP PUSH2 0x2C46 JUMP JUMPDEST POP PUSH1 0x0 DUP1 PUSH2 0x2CBA DUP11 DUP13 PUSH2 0x2E43 JUMP JUMPDEST SWAP2 POP SWAP2 POP DUP1 DUP4 DUP4 PUSH1 0x8 DUP2 LT PUSH2 0x2CD2 JUMPI PUSH2 0x2CD1 PUSH2 0x3AC8 JUMP JUMPDEST JUMPDEST PUSH1 0x20 MUL ADD DUP2 DUP2 MLOAD PUSH2 0x2CE3 SWAP2 SWAP1 PUSH2 0x49EE JUMP JUMPDEST SWAP2 POP DUP2 DUP2 MSTORE POP POP PUSH1 0x40 MLOAD DUP1 PUSH2 0x100 ADD PUSH1 0x40 MSTORE DUP1 DUP5 PUSH1 0x0 PUSH1 0x8 DUP2 LT PUSH2 0x2D0A JUMPI PUSH2 0x2D09 PUSH2 0x3AC8 JUMP JUMPDEST JUMPDEST PUSH1 0x20 MUL ADD MLOAD PUSH4 0xFFFFFFFF AND DUP2 MSTORE PUSH1 0x20 ADD DUP5 PUSH1 0x1 PUSH1 0x8 DUP2 LT PUSH2 0x2D2E JUMPI PUSH2 0x2D2D PUSH2 0x3AC8 JUMP JUMPDEST JUMPDEST PUSH1 0x20 MUL ADD MLOAD PUSH4 0xFFFFFFFF AND DUP2 MSTORE PUSH1 0x20 ADD DUP5 PUSH1 0x2 PUSH1 0x8 DUP2 LT PUSH2 0x2D52 JUMPI PUSH2 0x2D51 PUSH2 0x3AC8 JUMP JUMPDEST JUMPDEST PUSH1 0x20 MUL ADD MLOAD PUSH4 0xFFFFFFFF AND DUP2 MSTORE PUSH1 0x20 ADD DUP5 PUSH1 0x3 PUSH1 0x8 DUP2 LT PUSH2 0x2D76 JUMPI PUSH2 0x2D75 PUSH2 0x3AC8 JUMP JUMPDEST JUMPDEST PUSH1 0x20 MUL ADD MLOAD PUSH4 0xFFFFFFFF AND DUP2 MSTORE PUSH1 0x20 ADD DUP5 PUSH1 0x4 PUSH1 0x8 DUP2 LT PUSH2 0x2D9A JUMPI PUSH2 0x2D99 PUSH2 0x3AC8 JUMP JUMPDEST JUMPDEST PUSH1 0x20 MUL ADD MLOAD PUSH4 0xFFFFFFFF AND DUP2 MSTORE PUSH1 0x20 ADD DUP5 PUSH1 0x5 PUSH1 0x8 DUP2 LT PUSH2 0x2DBE JUMPI PUSH2 0x2DBD PUSH2 0x3AC8 JUMP JUMPDEST JUMPDEST PUSH1 0x20 MUL ADD MLOAD PUSH4 0xFFFFFFFF AND DUP2 MSTORE PUSH1 0x20 ADD DUP5 PUSH1 0x6 PUSH1 0x8 DUP2 LT PUSH2 0x2DE2 JUMPI PUSH2 0x2DE1 PUSH2 0x3AC8 JUMP JUMPDEST JUMPDEST PUSH1 0x20 MUL ADD MLOAD PUSH4 0xFFFFFFFF AND DUP2 MSTORE PUSH1 0x20 ADD DUP5 PUSH1 0x7 PUSH1 0x8 DUP2 LT PUSH2 0x2E06 JUMPI PUSH2 0x2E05 PUSH2 0x3AC8 JUMP JUMPDEST JUMPDEST PUSH1 0x20 MUL ADD MLOAD PUSH4 0xFFFFFFFF AND DUP2 MSTORE POP SWAP9 POP PUSH2 0x2E1F DUP5 PUSH2 0x2F43 JUMP JUMPDEST DUP1 SWAP7 POP DUP2 SWAP10 POP POP POP PUSH2 0x2E32 DUP6 DUP8 DUP14 PUSH2 0x312F JUMP JUMPDEST SWAP7 POP POP POP POP POP POP POP SWAP4 POP SWAP4 POP SWAP4 SWAP1 POP JUMP JUMPDEST PUSH1 0x0 DUP1 PUSH1 0x0 DUP5 SUB PUSH2 0x2E7B JUMPI PUSH1 0x0 SWAP2 POP PUSH1 0x96 PUSH1 0x32 DUP5 PUSH2 0x2E61 SWAP2 SWAP1 PUSH2 0x49EE JUMP JUMPDEST PUSH2 0x12C PUSH2 0x2E6E SWAP2 SWAP1 PUSH2 0x3D24 JUMP JUMPDEST PUSH2 0x2E78 SWAP2 SWAP1 PUSH2 0x4CBA JUMP JUMPDEST SWAP1 POP JUMPDEST PUSH1 0x1 DUP5 SUB PUSH2 0x2EBB JUMPI PUSH1 0x1 SWAP2 POP PUSH1 0x2 PUSH1 0x96 PUSH1 0x32 DUP6 PUSH2 0x2E98 SWAP2 SWAP1 PUSH2 0x49EE JUMP JUMPDEST PUSH1 0xE1 PUSH2 0x2EA4 SWAP2 SWAP1 PUSH2 0x3D24 JUMP JUMPDEST PUSH2 0x2EAE SWAP2 SWAP1 PUSH2 0x4CBA JUMP JUMPDEST PUSH2 0x2EB8 SWAP2 SWAP1 PUSH2 0x4CBA JUMP JUMPDEST SWAP1 POP JUMPDEST PUSH1 0x2 DUP5 SUB PUSH2 0x2EFB JUMPI PUSH1 0x1 SWAP2 POP PUSH1 0x2 PUSH1 0x96 PUSH1 0x32 DUP6 PUSH2 0x2ED8 SWAP2 SWAP1 PUSH2 0x49EE JUMP JUMPDEST PUSH1 0x4B PUSH2 0x2EE4 SWAP2 SWAP1 PUSH2 0x3D24 JUMP JUMPDEST PUSH2 0x2EEE SWAP2 SWAP1 PUSH2 0x4CBA JUMP JUMPDEST PUSH2 0x2EF8 SWAP2 SWAP1 PUSH2 0x4CBA JUMP JUMPDEST SWAP1 POP JUMPDEST PUSH1 0x3 DUP5 SUB PUSH2 0x2F3C JUMPI PUSH1 0x2 SWAP2 POP PUSH1 0x2 PUSH1 0x96 PUSH1 0x32 DUP6 PUSH2 0x2F18 SWAP2 SWAP1 PUSH2 0x49EE JUMP JUMPDEST PUSH2 0x12C PUSH2 0x2F25 SWAP2 SWAP1 PUSH2 0x3D24 JUMP JUMPDEST PUSH2 0x2F2F SWAP2 SWAP1 PUSH2 0x4CBA JUMP JUMPDEST PUSH2 0x2F39 SWAP2 SWAP1 PUSH2 0x4CBA JUMP JUMPDEST SWAP1 POP JUMPDEST SWAP3 POP SWAP3 SWAP1 POP JUMP JUMPDEST PUSH1 0x0 DUP1 PUSH1 0x0 PUSH1 0x40 MLOAD DUP1 PUSH2 0x100 ADD PUSH1 0x40 MSTORE DUP1 PUSH1 0x0 DUP2 MSTORE PUSH1 0x20 ADD PUSH1 0x1 DUP2 MSTORE PUSH1 0x20 ADD PUSH1 0x2 DUP2 MSTORE PUSH1 0x20 ADD PUSH1 0x3 DUP2 MSTORE PUSH1 0x20 ADD PUSH1 0x4 DUP2 MSTORE PUSH1 0x20 ADD PUSH1 0x5 DUP2 MSTORE PUSH1 0x20 ADD PUSH1 0x6 DUP2 MSTORE PUSH1 0x20 ADD PUSH1 0x7 DUP2 MSTORE POP SWAP1 POP PUSH1 0x0 PUSH1 0x8 SWAP1 POP PUSH1 0x0 JUMPDEST DUP2 DUP2 LT ISZERO PUSH2 0x30F1 JUMPI PUSH1 0x0 PUSH1 0x1 DUP3 PUSH2 0x2FAC SWAP2 SWAP1 PUSH2 0x49EE JUMP JUMPDEST SWAP1 POP JUMPDEST DUP3 DUP2 LT ISZERO PUSH2 0x30DD JUMPI DUP7 DUP2 PUSH1 0x8 DUP2 LT PUSH2 0x2FCA JUMPI PUSH2 0x2FC9 PUSH2 0x3AC8 JUMP JUMPDEST JUMPDEST PUSH1 0x20 MUL ADD MLOAD DUP8 DUP4 PUSH1 0x8 DUP2 LT PUSH2 0x2FE2 JUMPI PUSH2 0x2FE1 PUSH2 0x3AC8 JUMP JUMPDEST JUMPDEST PUSH1 0x20 MUL ADD MLOAD LT ISZERO PUSH2 0x30CA JUMPI PUSH1 0x0 DUP8 DUP4 PUSH1 0x8 DUP2 LT PUSH2 0x3002 JUMPI PUSH2 0x3001 PUSH2 0x3AC8 JUMP JUMPDEST JUMPDEST PUSH1 0x20 MUL ADD MLOAD SWAP1 POP PUSH1 0x0 DUP6 DUP5 PUSH1 0x8 DUP2 LT PUSH2 0x301E JUMPI PUSH2 0x301D PUSH2 0x3AC8 JUMP JUMPDEST JUMPDEST PUSH1 0x20 MUL ADD MLOAD SWAP1 POP DUP9 DUP4 PUSH1 0x8 DUP2 LT PUSH2 0x3038 JUMPI PUSH2 0x3037 PUSH2 0x3AC8 JUMP JUMPDEST JUMPDEST PUSH1 0x20 MUL ADD MLOAD DUP10 DUP6 PUSH1 0x8 DUP2 LT PUSH2 0x3050 JUMPI PUSH2 0x304F PUSH2 0x3AC8 JUMP JUMPDEST JUMPDEST PUSH1 0x20 MUL ADD DUP2 DUP2 MSTORE POP POP DUP6 DUP4 PUSH1 0x8 DUP2 LT PUSH2 0x306C JUMPI PUSH2 0x306B PUSH2 0x3AC8 JUMP JUMPDEST JUMPDEST PUSH1 0x20 MUL ADD MLOAD DUP7 DUP6 PUSH1 0x8 DUP2 LT PUSH2 0x3084 JUMPI PUSH2 0x3083 PUSH2 0x3AC8 JUMP JUMPDEST JUMPDEST PUSH1 0x20 MUL ADD DUP2 DUP2 MSTORE POP POP DUP2 DUP10 DUP5 PUSH1 0x8 DUP2 LT PUSH2 0x30A1 JUMPI PUSH2 0x30A0 PUSH2 0x3AC8 JUMP JUMPDEST JUMPDEST PUSH1 0x20 MUL ADD DUP2 DUP2 MSTORE POP POP DUP1 DUP7 DUP5 PUSH1 0x8 DUP2 LT PUSH2 0x30BE JUMPI PUSH2 0x30BD PUSH2 0x3AC8 JUMP JUMPDEST JUMPDEST PUSH1 0x20 MUL ADD DUP2 DUP2 MSTORE POP POP POP POP JUMPDEST DUP1 DUP1 PUSH2 0x30D5 SWAP1 PUSH2 0x3B26 JUMP JUMPDEST SWAP2 POP POP PUSH2 0x2FAF JUMP JUMPDEST POP DUP1 DUP1 PUSH2 0x30E9 SWAP1 PUSH2 0x3B26 JUMP JUMPDEST SWAP2 POP POP PUSH2 0x2F95 JUMP JUMPDEST POP DUP2 PUSH1 0x0 PUSH1 0x8 DUP2 LT PUSH2 0x3106 JUMPI PUSH2 0x3105 PUSH2 0x3AC8 JUMP JUMPDEST JUMPDEST PUSH1 0x20 MUL ADD MLOAD SWAP4 POP DUP5 PUSH1 0x0 PUSH1 0x8 DUP2 LT PUSH2 0x3121 JUMPI PUSH2 0x3120 PUSH2 0x3AC8 JUMP JUMPDEST JUMPDEST PUSH1 0x20 MUL ADD MLOAD SWAP3 POP POP POP SWAP2 POP SWAP2 JUMP JUMPDEST PUSH1 0x0 DUP1 DUP4 DUP4 DUP7 PUSH2 0x313F SWAP2 SWAP1 PUSH2 0x3D24 JUMP JUMPDEST PUSH2 0x3149 SWAP2 SWAP1 PUSH2 0x4CBA JUMP JUMPDEST SWAP1 POP PUSH1 0x5 DUP2 GT DUP1 ISZERO PUSH2 0x315C JUMPI POP PUSH1 0xA DUP2 GT ISZERO JUMPDEST ISZERO PUSH2 0x3166 JUMPI PUSH1 0x1 SWAP2 POP JUMPDEST PUSH1 0xA DUP2 GT DUP1 ISZERO PUSH2 0x3177 JUMPI POP PUSH1 0xF DUP2 GT ISZERO JUMPDEST ISZERO PUSH2 0x3181 JUMPI PUSH1 0x2 SWAP2 POP JUMPDEST PUSH1 0xF DUP2 GT DUP1 ISZERO PUSH2 0x3192 JUMPI POP PUSH1 0x14 DUP2 GT ISZERO JUMPDEST ISZERO PUSH2 0x319C JUMPI PUSH1 0x3 SWAP2 POP JUMPDEST PUSH1 0x14 DUP2 GT DUP1 ISZERO PUSH2 0x31AD JUMPI POP PUSH1 0x1E DUP2 GT ISZERO JUMPDEST ISZERO PUSH2 0x31B7 JUMPI PUSH1 0x4 SWAP2 POP JUMPDEST PUSH1 0x1E DUP2 GT DUP1 ISZERO PUSH2 0x31C8 JUMPI POP PUSH1 0x2D DUP2 GT ISZERO JUMPDEST ISZERO PUSH2 0x31D2 JUMPI PUSH1 0x5 SWAP2 POP JUMPDEST PUSH1 0x2D DUP2 GT DUP1 ISZERO PUSH2 0x31E3 JUMPI POP PUSH1 0x41 DUP2 GT ISZERO JUMPDEST ISZERO PUSH2 0x31ED JUMPI PUSH1 0x6 SWAP2 POP JUMPDEST PUSH1 0x41 DUP2 GT ISZERO PUSH2 0x31FB JUMPI PUSH1 0x7 SWAP2 POP JUMPDEST POP SWAP4 SWAP3 POP POP POP JUMP JUMPDEST PUSH1 0x40 MLOAD DUP1 PUSH1 0xC0 ADD PUSH1 0x40 MSTORE DUP1 PUSH1 0x0 DUP2 MSTORE PUSH1 0x20 ADD PUSH1 0x0 DUP2 MSTORE PUSH1 0x20 ADD PUSH1 0x0 DUP2 MSTORE PUSH1 0x20 ADD PUSH1 0x0 DUP2 MSTORE PUSH1 0x20 ADD PUSH1 0x0 DUP2 MSTORE PUSH1 0x20 ADD PUSH1 0x0 DUP2 MSTORE POP SWAP1 JUMP JUMPDEST PUSH1 0x40 MLOAD DUP1 PUSH1 0x80 ADD PUSH1 0x40 MSTORE DUP1 PUSH1 0x0 PUSH8 0xFFFFFFFFFFFFFFFF AND DUP2 MSTORE PUSH1 0x20 ADD PUSH1 0x0 PUSH8 0xFFFFFFFFFFFFFFFF AND DUP2 MSTORE PUSH1 0x20 ADD PUSH1 0x0 PUSH8 0xFFFFFFFFFFFFFFFF AND DUP2 MSTORE PUSH1 0x20 ADD PUSH1 0x0 PUSH8 0xFFFFFFFFFFFFFFFF AND DUP2 MSTORE POP SWAP1 JUMP JUMPDEST PUSH1 0x40 MLOAD DUP1 PUSH2 0x100 ADD PUSH1 0x40 MSTORE DUP1 PUSH1 0x0 DUP2 MSTORE PUSH1 0x20 ADD PUSH1 0x0 DUP2 MSTORE PUSH1 0x20 ADD PUSH1 0x0 DUP2 MSTORE PUSH1 0x20 ADD PUSH1 0x0 DUP2 MSTORE PUSH1 0x20 ADD PUSH1 0x0 DUP2 MSTORE PUSH1 0x20 ADD PUSH1 0x0 DUP2 MSTORE PUSH1 0x20 ADD PUSH1 0x0 DUP2 MSTORE PUSH1 0x20 ADD PUSH1 0x0 DUP2 MSTORE POP SWAP1 JUMP JUMPDEST PUSH1 0x40 MLOAD DUP1 PUSH2 0x100 ADD PUSH1 0x40 MSTORE DUP1 PUSH1 0x8 SWAP1 PUSH1 0x20 DUP3 MUL DUP1 CALLDATASIZE DUP4 CALLDATACOPY DUP1 DUP3 ADD SWAP2 POP POP SWAP1 POP POP SWAP1 JUMP JUMPDEST PUSH1 0x0 PUSH1 0x40 MLOAD SWAP1 POP SWAP1 JUMP JUMPDEST PUSH1 0x0 DUP1 REVERT JUMPDEST PUSH1 0x0 DUP1 REVERT JUMPDEST PUSH1 0x0 PUSH8 0xFFFFFFFFFFFFFFFF DUP3 AND SWAP1 POP SWAP2 SWAP1 POP JUMP JUMPDEST PUSH2 0x3322 DUP2 PUSH2 0x3305 JUMP JUMPDEST DUP2 EQ PUSH2 0x332D JUMPI PUSH1 0x0 DUP1 REVERT JUMPDEST POP JUMP JUMPDEST PUSH1 0x0 DUP2 CALLDATALOAD SWAP1 POP PUSH2 0x333F DUP2 PUSH2 0x3319 JUMP JUMPDEST SWAP3 SWAP2 POP POP JUMP JUMPDEST PUSH1 0x0 DUP2 SWAP1 POP SWAP2 SWAP1 POP JUMP JUMPDEST PUSH2 0x3358 DUP2 PUSH2 0x3345 JUMP JUMPDEST DUP2 EQ PUSH2 0x3363 JUMPI PUSH1 0x0 DUP1 REVERT JUMPDEST POP JUMP JUMPDEST PUSH1 0x0 DUP2 CALLDATALOAD SWAP1 POP PUSH2 0x3375 DUP2 PUSH2 0x334F JUMP JUMPDEST SWAP3 SWAP2 POP POP JUMP JUMPDEST PUSH1 0x0 DUP1 PUSH1 0x40 DUP4 DUP6 SUB SLT ISZERO PUSH2 0x3392 JUMPI PUSH2 0x3391 PUSH2 0x32FB JUMP JUMPDEST JUMPDEST PUSH1 0x0 PUSH2 0x33A0 DUP6 DUP3 DUP7 ADD PUSH2 0x3330 JUMP JUMPDEST SWAP3 POP POP PUSH1 0x20 PUSH2 0x33B1 DUP6 DUP3 DUP7 ADD PUSH2 0x3366 JUMP JUMPDEST SWAP2 POP POP SWAP3 POP SWAP3 SWAP1 POP JUMP JUMPDEST PUSH1 0x0 PUSH20 0xFFFFFFFFFFFFFFFFFFFFFFFFFFFFFFFFFFFFFFFF DUP3 AND SWAP1 POP SWAP2 SWAP1 POP JUMP JUMPDEST PUSH1 0x0 PUSH2 0x33E6 DUP3 PUSH2 0x33BB JUMP JUMPDEST SWAP1 POP SWAP2 SWAP1 POP JUMP JUMPDEST PUSH2 0x33F6 DUP2 PUSH2 0x33DB JUMP JUMPDEST DUP2 EQ PUSH2 0x3401 JUMPI PUSH1 0x0 DUP1 REVERT JUMPDEST POP JUMP JUMPDEST PUSH1 0x0 DUP2 CALLDATALOAD SWAP1 POP PUSH2 0x3413 DUP2 PUSH2 0x33ED JUMP JUMPDEST SWAP3 SWAP2 POP POP JUMP JUMPDEST PUSH1 0x0 PUSH1 0x20 DUP3 DUP5 SUB SLT ISZERO PUSH2 0x342F JUMPI PUSH2 0x342E PUSH2 0x32FB JUMP JUMPDEST JUMPDEST PUSH1 0x0 PUSH2 0x343D DUP5 DUP3 DUP6 ADD PUSH2 0x3404 JUMP JUMPDEST SWAP2 POP POP SWAP3 SWAP2 POP POP JUMP JUMPDEST PUSH2 0x344F DUP2 PUSH2 0x3345 JUMP JUMPDEST DUP3 MSTORE POP POP JUMP JUMPDEST PUSH2 0x345E DUP2 PUSH2 0x3305 JUMP JUMPDEST DUP3 MSTORE POP POP JUMP JUMPDEST PUSH1 0x0 PUSH4 0xFFFFFFFF DUP3 AND SWAP1 POP SWAP2 SWAP1 POP JUMP JUMPDEST PUSH2 0x347D DUP2 PUSH2 0x3464 JUMP JUMPDEST DUP3 MSTORE POP POP JUMP JUMPDEST PUSH1 0x0 DUP2 ISZERO ISZERO SWAP1 POP SWAP2 SWAP1 POP JUMP JUMPDEST PUSH2 0x3498 DUP2 PUSH2 0x3483 JUMP JUMPDEST DUP3 MSTORE POP POP JUMP JUMPDEST PUSH1 0x0 PUSH1 0xA0 DUP3 ADD SWAP1 POP PUSH2 0x34B3 PUSH1 0x0 DUP4 ADD DUP9 PUSH2 0x3446 JUMP JUMPDEST PUSH2 0x34C0 PUSH1 0x20 DUP4 ADD DUP8 PUSH2 0x3455 JUMP JUMPDEST PUSH2 0x34CD PUSH1 0x40 DUP4 ADD DUP7 PUSH2 0x3474 JUMP JUMPDEST PUSH2 0x34DA PUSH1 0x60 DUP4 ADD DUP6 PUSH2 0x3446 JUMP JUMPDEST PUSH2 0x34E7 PUSH1 0x80 DUP4 ADD DUP5 PUSH2 0x348F JUMP JUMPDEST SWAP7 SWAP6 POP POP POP POP POP POP JUMP JUMPDEST PUSH1 0x0 PUSH1 0x20 DUP3 ADD SWAP1 POP PUSH2 0x3506 PUSH1 0x0 DUP4 ADD DUP5 PUSH2 0x348F JUMP JUMPDEST SWAP3 SWAP2 POP POP JUMP JUMPDEST PUSH1 0x0 PUSH1 0x20 DUP3 DUP5 SUB SLT ISZERO PUSH2 0x3522 JUMPI PUSH2 0x3521 PUSH2 0x32FB JUMP JUMPDEST JUMPDEST PUSH1 0x0 PUSH2 0x3530 DUP5 DUP3 DUP6 ADD PUSH2 0x3366 JUMP JUMPDEST SWAP2 POP POP SWAP3 SWAP2 POP POP JUMP JUMPDEST PUSH2 0x3542 DUP2 PUSH2 0x3345 JUMP JUMPDEST DUP3 MSTORE POP POP JUMP JUMPDEST PUSH1 0xC0 DUP3 ADD PUSH1 0x0 DUP3 ADD MLOAD PUSH2 0x355E PUSH1 0x0 DUP6 ADD DUP3 PUSH2 0x3539 JUMP JUMPDEST POP PUSH1 0x20 DUP3 ADD MLOAD PUSH2 0x3571 PUSH1 0x20 DUP6 ADD DUP3 PUSH2 0x3539 JUMP JUMPDEST POP PUSH1 0x40 DUP3 ADD MLOAD PUSH2 0x3584 PUSH1 0x40 DUP6 ADD DUP3 PUSH2 0x3539 JUMP JUMPDEST POP PUSH1 0x60 DUP3 ADD MLOAD PUSH2 0x3597 PUSH1 0x60 DUP6 ADD DUP3 PUSH2 0x3539 JUMP JUMPDEST POP PUSH1 0x80 DUP3 ADD MLOAD PUSH2 0x35AA PUSH1 0x80 DUP6 ADD DUP3 PUSH2 0x3539 JUMP JUMPDEST POP PUSH1 0xA0 DUP3 ADD MLOAD PUSH2 0x35BD PUSH1 0xA0 DUP6 ADD DUP3 PUSH2 0x3539 JUMP JUMPDEST POP POP POP POP JUMP JUMPDEST PUSH1 0x0 PUSH1 0xC0 DUP3 ADD SWAP1 POP PUSH2 0x35D8 PUSH1 0x0 DUP4 ADD DUP5 PUSH2 0x3548 JUMP JUMPDEST SWAP3 SWAP2 POP POP JUMP JUMPDEST PUSH1 0x0 DUP1 PUSH1 0x40 DUP4 DUP6 SUB SLT ISZERO PUSH2 0x35F5 JUMPI PUSH2 0x35F4 PUSH2 0x32FB JUMP JUMPDEST JUMPDEST PUSH1 0x0 PUSH2 0x3603 DUP6 DUP3 DUP7 ADD PUSH2 0x3366 JUMP JUMPDEST SWAP3 POP POP PUSH1 0x20 PUSH2 0x3614 DUP6 DUP3 DUP7 ADD PUSH2 0x3366 JUMP JUMPDEST SWAP2 POP POP SWAP3 POP SWAP3 SWAP1 POP JUMP JUMPDEST PUSH2 0x3627 DUP2 PUSH2 0x33DB JUMP JUMPDEST DUP3 MSTORE POP POP JUMP JUMPDEST PUSH1 0x0 PUSH1 0x20 DUP3 ADD SWAP1 POP PUSH2 0x3642 PUSH1 0x0 DUP4 ADD DUP5 PUSH2 0x361E JUMP JUMPDEST SWAP3 SWAP2 POP POP JUMP JUMPDEST PUSH1 0x0 DUP1 REVERT JUMPDEST PUSH1 0x0 PUSH1 0x1F NOT PUSH1 0x1F DUP4 ADD AND SWAP1 POP SWAP2 SWAP1 POP JUMP JUMPDEST PUSH32 0x4E487B7100000000000000000000000000000000000000000000000000000000 PUSH1 0x0 MSTORE PUSH1 0x41 PUSH1 0x4 MSTORE PUSH1 0x24 PUSH1 0x0 REVERT JUMPDEST PUSH2 0x3696 DUP3 PUSH2 0x364D JUMP JUMPDEST DUP2 ADD DUP2 DUP2 LT PUSH8 0xFFFFFFFFFFFFFFFF DUP3 GT OR ISZERO PUSH2 0x36B5 JUMPI PUSH2 0x36B4 PUSH2 0x365E JUMP JUMPDEST JUMPDEST DUP1 PUSH1 0x40 MSTORE POP POP POP JUMP JUMPDEST PUSH1 0x0 PUSH2 0x36C8 PUSH2 0x32F1 JUMP JUMPDEST SWAP1 POP PUSH2 0x36D4 DUP3 DUP3 PUSH2 0x368D JUMP JUMPDEST SWAP2 SWAP1 POP JUMP JUMPDEST PUSH1 0x0 PUSH8 0xFFFFFFFFFFFFFFFF DUP3 GT ISZERO PUSH2 0x36F4 JUMPI PUSH2 0x36F3 PUSH2 0x365E JUMP JUMPDEST JUMPDEST PUSH1 0x20 DUP3 MUL SWAP1 POP PUSH1 0x20 DUP2 ADD SWAP1 POP SWAP2 SWAP1 POP JUMP JUMPDEST PUSH1 0x0 DUP1 REVERT JUMPDEST PUSH1 0x0 PUSH2 0x371D PUSH2 0x3718 DUP5 PUSH2 0x36D9 JUMP JUMPDEST PUSH2 0x36BE JUMP JUMPDEST SWAP1 POP DUP1 DUP4 DUP3 MSTORE PUSH1 0x20 DUP3 ADD SWAP1 POP PUSH1 0x20 DUP5 MUL DUP4 ADD DUP6 DUP2 GT ISZERO PUSH2 0x3740 JUMPI PUSH2 0x373F PUSH2 0x3705 JUMP JUMPDEST JUMPDEST DUP4 JUMPDEST DUP2 DUP2 LT ISZERO PUSH2 0x3769 JUMPI DUP1 PUSH2 0x3755 DUP9 DUP3 PUSH2 0x3366 JUMP JUMPDEST DUP5 MSTORE PUSH1 0x20 DUP5 ADD SWAP4 POP POP PUSH1 0x20 DUP2 ADD SWAP1 POP PUSH2 0x3742 JUMP JUMPDEST POP POP POP SWAP4 SWAP3 POP POP POP JUMP JUMPDEST PUSH1 0x0 DUP3 PUSH1 0x1F DUP4 ADD SLT PUSH2 0x3788 JUMPI PUSH2 0x3787 PUSH2 0x3648 JUMP JUMPDEST JUMPDEST DUP2 CALLDATALOAD PUSH2 0x3798 DUP5 DUP3 PUSH1 0x20 DUP7 ADD PUSH2 0x370A JUMP JUMPDEST SWAP2 POP POP SWAP3 SWAP2 POP POP JUMP JUMPDEST PUSH1 0x0 DUP1 PUSH1 0x40 DUP4 DUP6 SUB SLT ISZERO PUSH2 0x37B8 JUMPI PUSH2 0x37B7 PUSH2 0x32FB JUMP JUMPDEST JUMPDEST PUSH1 0x0 PUSH2 0x37C6 DUP6 DUP3 DUP7 ADD PUSH2 0x3404 JUMP JUMPDEST SWAP3 POP POP PUSH1 0x20 DUP4 ADD CALLDATALOAD PUSH8 0xFFFFFFFFFFFFFFFF DUP2 GT ISZERO PUSH2 0x37E7 JUMPI PUSH2 0x37E6 PUSH2 0x3300 JUMP JUMPDEST JUMPDEST PUSH2 0x37F3 DUP6 DUP3 DUP7 ADD PUSH2 0x3773 JUMP JUMPDEST SWAP2 POP POP SWAP3 POP SWAP3 SWAP1 POP JUMP JUMPDEST PUSH1 0x0 DUP1 PUSH1 0x40 DUP4 DUP6 SUB SLT ISZERO PUSH2 0x3814 JUMPI PUSH2 0x3813 PUSH2 0x32FB JUMP JUMPDEST JUMPDEST PUSH1 0x0 PUSH2 0x3822 DUP6 DUP3 DUP7 ADD PUSH2 0x3366 JUMP JUMPDEST SWAP3 POP POP PUSH1 0x20 PUSH2 0x3833 DUP6 DUP3 DUP7 ADD PUSH2 0x3330 JUMP JUMPDEST SWAP2 POP POP SWAP3 POP SWAP3 SWAP1 POP JUMP JUMPDEST PUSH1 0x0 PUSH1 0x20 DUP3 ADD SWAP1 POP PUSH2 0x3852 PUSH1 0x0 DUP4 ADD DUP5 PUSH2 0x3446 JUMP JUMPDEST SWAP3 SWAP2 POP POP JUMP JUMPDEST PUSH1 0x0 PUSH1 0x20 DUP3 DUP5 SUB SLT ISZERO PUSH2 0x386E JUMPI PUSH2 0x386D PUSH2 0x32FB JUMP JUMPDEST JUMPDEST PUSH1 0x0 PUSH2 0x387C DUP5 DUP3 DUP6 ADD PUSH2 0x3330 JUMP JUMPDEST SWAP2 POP POP SWAP3 SWAP2 POP POP JUMP JUMPDEST PUSH1 0x0 DUP3 DUP3 MSTORE PUSH1 0x20 DUP3 ADD SWAP1 POP SWAP3 SWAP2 POP POP JUMP JUMPDEST PUSH32 0x654D4E54523A204E6F207265717565737420746F206D696E742E000000000000 PUSH1 0x0 DUP3 ADD MSTORE POP JUMP JUMPDEST PUSH1 0x0 PUSH2 0x38CC PUSH1 0x1A DUP4 PUSH2 0x3885 JUMP JUMPDEST SWAP2 POP PUSH2 0x38D7 DUP3 PUSH2 0x3896 JUMP JUMPDEST PUSH1 0x20 DUP3 ADD SWAP1 POP SWAP2 SWAP1 POP JUMP JUMPDEST PUSH1 0x0 PUSH1 0x20 DUP3 ADD SWAP1 POP DUP2 DUP2 SUB PUSH1 0x0 DUP4 ADD MSTORE PUSH2 0x38FB DUP2 PUSH2 0x38BF JUMP JUMPDEST SWAP1 POP SWAP2 SWAP1 POP JUMP JUMPDEST PUSH2 0x390B DUP2 PUSH2 0x3483 JUMP JUMPDEST DUP2 EQ PUSH2 0x3916 JUMPI PUSH1 0x0 DUP1 REVERT JUMPDEST POP JUMP JUMPDEST PUSH1 0x0 DUP2 MLOAD SWAP1 POP PUSH2 0x3928 DUP2 PUSH2 0x3902 JUMP JUMPDEST SWAP3 SWAP2 POP POP JUMP JUMPDEST PUSH1 0x0 DUP2 MLOAD SWAP1 POP PUSH2 0x393D DUP2 PUSH2 0x334F JUMP JUMPDEST SWAP3 SWAP2 POP POP JUMP JUMPDEST PUSH1 0x0 PUSH2 0x3956 PUSH2 0x3951 DUP5 PUSH2 0x36D9 JUMP JUMPDEST PUSH2 0x36BE JUMP JUMPDEST SWAP1 POP DUP1 DUP4 DUP3 MSTORE PUSH1 0x20 DUP3 ADD SWAP1 POP PUSH1 0x20 DUP5 MUL DUP4 ADD DUP6 DUP2 GT ISZERO PUSH2 0x3979 JUMPI PUSH2 0x3978 PUSH2 0x3705 JUMP JUMPDEST JUMPDEST DUP4 JUMPDEST DUP2 DUP2 LT ISZERO PUSH2 0x39A2 JUMPI DUP1 PUSH2 0x398E DUP9 DUP3 PUSH2 0x392E JUMP JUMPDEST DUP5 MSTORE PUSH1 0x20 DUP5 ADD SWAP4 POP POP PUSH1 0x20 DUP2 ADD SWAP1 POP PUSH2 0x397B JUMP JUMPDEST POP POP POP SWAP4 SWAP3 POP POP POP JUMP JUMPDEST PUSH1 0x0 DUP3 PUSH1 0x1F DUP4 ADD SLT PUSH2 0x39C1 JUMPI PUSH2 0x39C0 PUSH2 0x3648 JUMP JUMPDEST JUMPDEST DUP2 MLOAD PUSH2 0x39D1 DUP5 DUP3 PUSH1 0x20 DUP7 ADD PUSH2 0x3943 JUMP JUMPDEST SWAP2 POP POP SWAP3 SWAP2 POP POP JUMP JUMPDEST PUSH1 0x0 DUP1 PUSH1 0x40 DUP4 DUP6 SUB SLT ISZERO PUSH2 0x39F1 JUMPI PUSH2 0x39F0 PUSH2 0x32FB JUMP JUMPDEST JUMPDEST PUSH1 0x0 PUSH2 0x39FF DUP6 DUP3 DUP7 ADD PUSH2 0x3919 JUMP JUMPDEST SWAP3 POP POP PUSH1 0x20 DUP4 ADD MLOAD PUSH8 0xFFFFFFFFFFFFFFFF DUP2 GT ISZERO PUSH2 0x3A20 JUMPI PUSH2 0x3A1F PUSH2 0x3300 JUMP JUMPDEST JUMPDEST PUSH2 0x3A2C DUP6 DUP3 DUP7 ADD PUSH2 0x39AC JUMP JUMPDEST SWAP2 POP POP SWAP3 POP SWAP3 SWAP1 POP JUMP JUMPDEST PUSH32 0x654D4E54523A2052657175657374206973206E6F74207965742066756C66696C PUSH1 0x0 DUP3 ADD MSTORE PUSH32 0x6C6564206F7220696E76616C696420726571756573742069642E000000000000 PUSH1 0x20 DUP3 ADD MSTORE POP JUMP JUMPDEST PUSH1 0x0 PUSH2 0x3A92 PUSH1 0x3A DUP4 PUSH2 0x3885 JUMP JUMPDEST SWAP2 POP PUSH2 0x3A9D DUP3 PUSH2 0x3A36 JUMP JUMPDEST PUSH1 0x40 DUP3 ADD SWAP1 POP SWAP2 SWAP1 POP JUMP JUMPDEST PUSH1 0x0 PUSH1 0x20 DUP3 ADD SWAP1 POP DUP2 DUP2 SUB PUSH1 0x0 DUP4 ADD MSTORE PUSH2 0x3AC1 DUP2 PUSH2 0x3A85 JUMP JUMPDEST SWAP1 POP SWAP2 SWAP1 POP JUMP JUMPDEST PUSH32 0x4E487B7100000000000000000000000000000000000000000000000000000000 PUSH1 0x0 MSTORE PUSH1 0x32 PUSH1 0x4 MSTORE PUSH1 0x24 PUSH1 0x0 REVERT JUMPDEST PUSH32 0x4E487B7100000000000000000000000000000000000000000000000000000000 PUSH1 0x0 MSTORE PUSH1 0x11 PUSH1 0x4 MSTORE PUSH1 0x24 PUSH1 0x0 REVERT JUMPDEST PUSH1 0x0 PUSH2 0x3B31 DUP3 PUSH2 0x3345 JUMP JUMPDEST SWAP2 POP PUSH32 0xFFFFFFFFFFFFFFFFFFFFFFFFFFFFFFFFFFFFFFFFFFFFFFFFFFFFFFFFFFFFFFFF DUP3 SUB PUSH2 0x3B63 JUMPI PUSH2 0x3B62 PUSH2 0x3AF7 JUMP JUMPDEST JUMPDEST PUSH1 0x1 DUP3 ADD SWAP1 POP SWAP2 SWAP1 POP JUMP JUMPDEST PUSH32 0x654D4E54523A205468657265206973206120726571756573742070656E64696E PUSH1 0x0 DUP3 ADD MSTORE PUSH32 0x67206D696E742E00000000000000000000000000000000000000000000000000 PUSH1 0x20 DUP3 ADD MSTORE POP JUMP JUMPDEST PUSH1 0x0 PUSH2 0x3BCA PUSH1 0x27 DUP4 PUSH2 0x3885 JUMP JUMPDEST SWAP2 POP PUSH2 0x3BD5 DUP3 PUSH2 0x3B6E JUMP JUMPDEST PUSH1 0x40 DUP3 ADD SWAP1 POP SWAP2 SWAP1 POP JUMP JUMPDEST PUSH1 0x0 PUSH1 0x20 DUP3 ADD SWAP1 POP DUP2 DUP2 SUB PUSH1 0x0 DUP4 ADD MSTORE PUSH2 0x3BF9 DUP2 PUSH2 0x3BBD JUMP JUMPDEST SWAP1 POP SWAP2 SWAP1 POP JUMP JUMPDEST PUSH32 0x654D4E54523A20496E636F7272656374206E756D62657220666F7220616E2065 PUSH1 0x0 DUP3 ADD MSTORE PUSH32 0x717569706D656E7420747970652E000000000000000000000000000000000000 PUSH1 0x20 DUP3 ADD MSTORE POP JUMP JUMPDEST PUSH1 0x0 PUSH2 0x3C5C PUSH1 0x2E DUP4 PUSH2 0x3885 JUMP JUMPDEST SWAP2 POP PUSH2 0x3C67 DUP3 PUSH2 0x3C00 JUMP JUMPDEST PUSH1 0x40 DUP3 ADD SWAP1 POP SWAP2 SWAP1 POP JUMP JUMPDEST PUSH1 0x0 PUSH1 0x20 DUP3 ADD SWAP1 POP DUP2 DUP2 SUB PUSH1 0x0 DUP4 ADD MSTORE PUSH2 0x3C8B DUP2 PUSH2 0x3C4F JUMP JUMPDEST SWAP1 POP SWAP2 SWAP1 POP JUMP JUMPDEST PUSH32 0x654D4E54523A2043616E206F6E6C79207265717565737420746F206D696E7420 PUSH1 0x0 DUP3 ADD MSTORE PUSH32 0x3120746F2033206974656D7320617420612074696D652E000000000000000000 PUSH1 0x20 DUP3 ADD MSTORE POP JUMP JUMPDEST PUSH1 0x0 PUSH2 0x3CEE PUSH1 0x37 DUP4 PUSH2 0x3885 JUMP JUMPDEST SWAP2 POP PUSH2 0x3CF9 DUP3 PUSH2 0x3C92 JUMP JUMPDEST PUSH1 0x40 DUP3 ADD SWAP1 POP SWAP2 SWAP1 POP JUMP JUMPDEST PUSH1 0x0 PUSH1 0x20 DUP3 ADD SWAP1 POP DUP2 DUP2 SUB PUSH1 0x0 DUP4 ADD MSTORE PUSH2 0x3D1D DUP2 PUSH2 0x3CE1 JUMP JUMPDEST SWAP1 POP SWAP2 SWAP1 POP JUMP JUMPDEST PUSH1 0x0 PUSH2 0x3D2F DUP3 PUSH2 0x3345 JUMP JUMPDEST SWAP2 POP PUSH2 0x3D3A DUP4 PUSH2 0x3345 JUMP JUMPDEST SWAP3 POP DUP3 DUP3 MUL PUSH2 0x3D48 DUP2 PUSH2 0x3345 JUMP JUMPDEST SWAP2 POP DUP3 DUP3 DIV DUP5 EQ DUP4 ISZERO OR PUSH2 0x3D5F JUMPI PUSH2 0x3D5E PUSH2 0x3AF7 JUMP JUMPDEST JUMPDEST POP SWAP3 SWAP2 POP POP JUMP JUMPDEST PUSH32 0x654D4E54523A20496E636F727265637420616D6F756E7420666F722065717569 PUSH1 0x0 DUP3 ADD MSTORE PUSH32 0x706D656E74206D696E74696E672E2053656E642065786163746C792031204654 PUSH1 0x20 DUP3 ADD MSTORE PUSH32 0x4D20706572206974656D207265717565737465642E0000000000000000000000 PUSH1 0x40 DUP3 ADD MSTORE POP JUMP JUMPDEST PUSH1 0x0 PUSH2 0x3DE8 PUSH1 0x55 DUP4 PUSH2 0x3885 JUMP JUMPDEST SWAP2 POP PUSH2 0x3DF3 DUP3 PUSH2 0x3D66 JUMP JUMPDEST PUSH1 0x60 DUP3 ADD SWAP1 POP SWAP2 SWAP1 POP JUMP JUMPDEST PUSH1 0x0 PUSH1 0x20 DUP3 ADD SWAP1 POP DUP2 DUP2 SUB PUSH1 0x0 DUP4 ADD MSTORE PUSH2 0x3E17 DUP2 PUSH2 0x3DDB JUMP JUMPDEST SWAP1 POP SWAP2 SWAP1 POP JUMP JUMPDEST PUSH32 0x654D4E54523A204E6F7420656E6F756768206D6174657269616C7320666F7220 PUSH1 0x0 DUP3 ADD MSTORE PUSH32 0x74686973206372616674696E67207472616E73616374696F6E2E000000000000 PUSH1 0x20 DUP3 ADD MSTORE POP JUMP JUMPDEST PUSH1 0x0 PUSH2 0x3E7A PUSH1 0x3A DUP4 PUSH2 0x3885 JUMP JUMPDEST SWAP2 POP PUSH2 0x3E85 DUP3 PUSH2 0x3E1E JUMP JUMPDEST PUSH1 0x40 DUP3 ADD SWAP1 POP SWAP2 SWAP1 POP JUMP JUMPDEST PUSH1 0x0 PUSH1 0x20 DUP3 ADD SWAP1 POP DUP2 DUP2 SUB PUSH1 0x0 DUP4 ADD MSTORE PUSH2 0x3EA9 DUP2 PUSH2 0x3E6D JUMP JUMPDEST SWAP1 POP SWAP2 SWAP1 POP JUMP JUMPDEST PUSH1 0x0 PUSH1 0x60 DUP3 ADD SWAP1 POP PUSH2 0x3EC5 PUSH1 0x0 DUP4 ADD DUP7 PUSH2 0x361E JUMP JUMPDEST PUSH2 0x3ED2 PUSH1 0x20 DUP4 ADD DUP6 PUSH2 0x3474 JUMP JUMPDEST PUSH2 0x3EDF PUSH1 0x40 DUP4 ADD DUP5 PUSH2 0x348F JUMP JUMPDEST SWAP5 SWAP4 POP POP POP POP JUMP JUMPDEST PUSH1 0x0 PUSH1 0x20 DUP3 DUP5 SUB SLT ISZERO PUSH2 0x3EFD JUMPI PUSH2 0x3EFC PUSH2 0x32FB JUMP JUMPDEST JUMPDEST PUSH1 0x0 PUSH2 0x3F0B DUP5 DUP3 DUP6 ADD PUSH2 0x392E JUMP JUMPDEST SWAP2 POP POP SWAP3 SWAP2 POP POP JUMP JUMPDEST PUSH1 0x0 DUP2 PUSH1 0x0 SHR SWAP1 POP SWAP2 SWAP1 POP JUMP JUMPDEST PUSH1 0x0 DUP2 SWAP1 POP SWAP2 SWAP1 POP JUMP JUMPDEST PUSH1 0x0 PUSH2 0x3F3E PUSH2 0x3F39 DUP4 PUSH2 0x3F14 JUMP JUMPDEST PUSH2 0x3F21 JUMP JUMPDEST SWAP1 POP SWAP2 SWAP1 POP JUMP JUMPDEST PUSH1 0x0 PUSH8 0xFFFFFFFFFFFFFFFF DUP3 AND SWAP1 POP SWAP2 SWAP1 POP JUMP JUMPDEST PUSH1 0x0 PUSH2 0x3F6C PUSH2 0x3F67 DUP4 PUSH2 0x3F14 JUMP JUMPDEST PUSH2 0x3F45 JUMP JUMPDEST SWAP1 POP SWAP2 SWAP1 POP JUMP JUMPDEST PUSH2 0x3F7C DUP2 PUSH2 0x3305 JUMP JUMPDEST DUP3 MSTORE POP POP JUMP JUMPDEST PUSH1 0x0 DUP2 PUSH1 0x40 SHR SWAP1 POP SWAP2 SWAP1 POP JUMP JUMPDEST PUSH1 0x0 PUSH4 0xFFFFFFFF DUP3 AND SWAP1 POP SWAP2 SWAP1 POP JUMP JUMPDEST PUSH1 0x0 PUSH2 0x3FB2 PUSH2 0x3FAD DUP4 PUSH2 0x3F82 JUMP JUMPDEST PUSH2 0x3F8F JUMP JUMPDEST SWAP1 POP SWAP2 SWAP1 POP JUMP JUMPDEST PUSH2 0x3FC2 DUP2 PUSH2 0x3464 JUMP JUMPDEST DUP3 MSTORE POP POP JUMP JUMPDEST PUSH1 0x0 PUSH1 0xFF DUP3 AND SWAP1 POP SWAP2 SWAP1 POP JUMP JUMPDEST PUSH1 0x0 PUSH2 0x3FE8 PUSH2 0x3FE3 DUP4 PUSH2 0x3F14 JUMP JUMPDEST PUSH2 0x3FC8 JUMP JUMPDEST SWAP1 POP SWAP2 SWAP1 POP JUMP JUMPDEST PUSH2 0x3FF8 DUP2 PUSH2 0x3483 JUMP JUMPDEST DUP3 MSTORE POP POP JUMP JUMPDEST PUSH1 0xA0 DUP3 ADD PUSH1 0x0 DUP1 DUP4 ADD SLOAD SWAP1 POP PUSH2 0x4013 DUP2 PUSH2 0x3F2B JUMP JUMPDEST PUSH2 0x4020 PUSH1 0x0 DUP7 ADD DUP3 PUSH2 0x3539 JUMP JUMPDEST POP PUSH1 0x1 DUP4 ADD SLOAD SWAP1 POP PUSH2 0x4031 DUP2 PUSH2 0x3F59 JUMP JUMPDEST PUSH2 0x403E PUSH1 0x20 DUP7 ADD DUP3 PUSH2 0x3F73 JUMP JUMPDEST POP PUSH2 0x4048 DUP2 PUSH2 0x3F9F JUMP JUMPDEST PUSH2 0x4055 PUSH1 0x40 DUP7 ADD DUP3 PUSH2 0x3FB9 JUMP JUMPDEST POP PUSH1 0x2 DUP4 ADD SLOAD SWAP1 POP PUSH2 0x4066 DUP2 PUSH2 0x3F2B JUMP JUMPDEST PUSH2 0x4073 PUSH1 0x60 DUP7 ADD DUP3 PUSH2 0x3539 JUMP JUMPDEST POP PUSH1 0x3 DUP4 ADD SLOAD SWAP1 POP PUSH2 0x4084 DUP2 PUSH2 0x3FD5 JUMP JUMPDEST PUSH2 0x4091 PUSH1 0x80 DUP7 ADD DUP3 PUSH2 0x3FEF JUMP JUMPDEST POP POP POP POP POP JUMP JUMPDEST PUSH1 0x0 PUSH1 0xA0 DUP3 ADD SWAP1 POP PUSH2 0x40AD PUSH1 0x0 DUP4 ADD DUP5 PUSH2 0x3FFE JUMP JUMPDEST SWAP3 SWAP2 POP POP JUMP JUMPDEST PUSH1 0x0 DUP2 SWAP1 POP SWAP3 SWAP2 POP POP JUMP JUMPDEST POP JUMP JUMPDEST PUSH1 0x0 PUSH2 0x40CE PUSH1 0x0 DUP4 PUSH2 0x40B3 JUMP JUMPDEST SWAP2 POP PUSH2 0x40D9 DUP3 PUSH2 0x40BE JUMP JUMPDEST PUSH1 0x0 DUP3 ADD SWAP1 POP SWAP2 SWAP1 POP JUMP JUMPDEST PUSH1 0x0 PUSH2 0x40EF DUP3 PUSH2 0x40C1 JUMP JUMPDEST SWAP2 POP DUP2 SWAP1 POP SWAP2 SWAP1 POP JUMP JUMPDEST PUSH32 0x4661696C656420746F207769746864726177206D61746963732E000000000000 PUSH1 0x0 DUP3 ADD MSTORE POP JUMP JUMPDEST PUSH1 0x0 PUSH2 0x412F PUSH1 0x1A DUP4 PUSH2 0x3885 JUMP JUMPDEST SWAP2 POP PUSH2 0x413A DUP3 PUSH2 0x40F9 JUMP JUMPDEST PUSH1 0x20 DUP3 ADD SWAP1 POP SWAP2 SWAP1 POP JUMP JUMPDEST PUSH1 0x0 PUSH1 0x20 DUP3 ADD SWAP1 POP DUP2 DUP2 SUB PUSH1 0x0 DUP4 ADD MSTORE PUSH2 0x415E DUP2 PUSH2 0x4122 JUMP JUMPDEST SWAP1 POP SWAP2 SWAP1 POP JUMP JUMPDEST PUSH32 0x654D4E54523A2043616E206F6E6C792062652063616C6C656420627920746865 PUSH1 0x0 DUP3 ADD MSTORE PUSH32 0x2056524620436F6E747261637420666F722065717569706D656E742063726166 PUSH1 0x20 DUP3 ADD MSTORE PUSH32 0x74696E672E000000000000000000000000000000000000000000000000000000 PUSH1 0x40 DUP3 ADD MSTORE POP JUMP JUMPDEST PUSH1 0x0 PUSH2 0x41E7 PUSH1 0x45 DUP4 PUSH2 0x3885 JUMP JUMPDEST SWAP2 POP PUSH2 0x41F2 DUP3 PUSH2 0x4165 JUMP JUMPDEST PUSH1 0x60 DUP3 ADD SWAP1 POP SWAP2 SWAP1 POP JUMP JUMPDEST PUSH1 0x0 PUSH1 0x20 DUP3 ADD SWAP1 POP DUP2 DUP2 SUB PUSH1 0x0 DUP4 ADD MSTORE PUSH2 0x4216 DUP2 PUSH2 0x41DA JUMP JUMPDEST SWAP1 POP SWAP2 SWAP1 POP JUMP JUMPDEST PUSH32 0x654D4E54523A20696E76616C6964206571707420747970652E00000000000000 PUSH1 0x0 DUP3 ADD MSTORE POP JUMP JUMPDEST PUSH1 0x0 PUSH2 0x4253 PUSH1 0x19 DUP4 PUSH2 0x3885 JUMP JUMPDEST SWAP2 POP PUSH2 0x425E DUP3 PUSH2 0x421D JUMP JUMPDEST PUSH1 0x20 DUP3 ADD SWAP1 POP SWAP2 SWAP1 POP JUMP JUMPDEST PUSH1 0x0 PUSH1 0x20 DUP3 ADD SWAP1 POP DUP2 DUP2 SUB PUSH1 0x0 DUP4 ADD MSTORE PUSH2 0x4282 DUP2 PUSH2 0x4246 JUMP JUMPDEST SWAP1 POP SWAP2 SWAP1 POP JUMP JUMPDEST PUSH32 0x654D4E54523A2073656E6420312046544D000000000000000000000000000000 PUSH1 0x0 DUP3 ADD MSTORE POP JUMP JUMPDEST PUSH1 0x0 PUSH2 0x42BF PUSH1 0x11 DUP4 PUSH2 0x3885 JUMP JUMPDEST SWAP2 POP PUSH2 0x42CA DUP3 PUSH2 0x4289 JUMP JUMPDEST PUSH1 0x20 DUP3 ADD SWAP1 POP SWAP2 SWAP1 POP JUMP JUMPDEST PUSH1 0x0 PUSH1 0x20 DUP3 ADD SWAP1 POP DUP2 DUP2 SUB PUSH1 0x0 DUP4 ADD MSTORE PUSH2 0x42EE DUP2 PUSH2 0x42B2 JUMP JUMPDEST SWAP1 POP SWAP2 SWAP1 POP JUMP JUMPDEST PUSH32 0x654D4E54523A2063686172616374657220616C7265616479206D696E7465642E PUSH1 0x0 DUP3 ADD MSTORE POP JUMP JUMPDEST PUSH1 0x0 PUSH2 0x432B PUSH1 0x20 DUP4 PUSH2 0x3885 JUMP JUMPDEST SWAP2 POP PUSH2 0x4336 DUP3 PUSH2 0x42F5 JUMP JUMPDEST PUSH1 0x20 DUP3 ADD SWAP1 POP SWAP2 SWAP1 POP JUMP JUMPDEST PUSH1 0x0 PUSH1 0x20 DUP3 ADD SWAP1 POP DUP2 DUP2 SUB PUSH1 0x0 DUP4 ADD MSTORE PUSH2 0x435A DUP2 PUSH2 0x431E JUMP JUMPDEST SWAP1 POP SWAP2 SWAP1 POP JUMP JUMPDEST PUSH1 0x0 DUP1 REVERT JUMPDEST PUSH2 0x436F DUP2 PUSH2 0x3464 JUMP JUMPDEST DUP2 EQ PUSH2 0x437A JUMPI PUSH1 0x0 DUP1 REVERT JUMPDEST POP JUMP JUMPDEST PUSH1 0x0 DUP2 MLOAD SWAP1 POP PUSH2 0x438C DUP2 PUSH2 0x4366 JUMP JUMPDEST SWAP3 SWAP2 POP POP JUMP JUMPDEST PUSH1 0x0 PUSH2 0x100 DUP3 DUP5 SUB SLT ISZERO PUSH2 0x43A9 JUMPI PUSH2 0x43A8 PUSH2 0x4361 JUMP JUMPDEST JUMPDEST PUSH2 0x43B4 PUSH2 0x100 PUSH2 0x36BE JUMP JUMPDEST SWAP1 POP PUSH1 0x0 PUSH2 0x43C4 DUP5 DUP3 DUP6 ADD PUSH2 0x437D JUMP JUMPDEST PUSH1 0x0 DUP4 ADD MSTORE POP PUSH1 0x20 PUSH2 0x43D8 DUP5 DUP3 DUP6 ADD PUSH2 0x437D JUMP JUMPDEST PUSH1 0x20 DUP4 ADD MSTORE POP PUSH1 0x40 PUSH2 0x43EC DUP5 DUP3 DUP6 ADD PUSH2 0x437D JUMP JUMPDEST PUSH1 0x40 DUP4 ADD MSTORE POP PUSH1 0x60 PUSH2 0x4400 DUP5 DUP3 DUP6 ADD PUSH2 0x437D JUMP JUMPDEST PUSH1 0x60 DUP4 ADD MSTORE POP PUSH1 0x80 PUSH2 0x4414 DUP5 DUP3 DUP6 ADD PUSH2 0x437D JUMP JUMPDEST PUSH1 0x80 DUP4 ADD MSTORE POP PUSH1 0xA0 PUSH2 0x4428 DUP5 DUP3 DUP6 ADD PUSH2 0x437D JUMP JUMPDEST PUSH1 0xA0 DUP4 ADD MSTORE POP PUSH1 0xC0 PUSH2 0x443C DUP5 DUP3 DUP6 ADD PUSH2 0x437D JUMP JUMPDEST PUSH1 0xC0 DUP4 ADD MSTORE POP PUSH1 0xE0 PUSH2 0x4450 DUP5 DUP3 DUP6 ADD PUSH2 0x437D JUMP JUMPDEST PUSH1 0xE0 DUP4 ADD MSTORE POP SWAP3 SWAP2 POP POP JUMP JUMPDEST PUSH1 0x0 PUSH2 0x100 DUP3 DUP5 SUB SLT ISZERO PUSH2 0x4473 JUMPI PUSH2 0x4472 PUSH2 0x32FB JUMP JUMPDEST JUMPDEST PUSH1 0x0 PUSH2 0x4481 DUP5 DUP3 DUP6 ADD PUSH2 0x4392 JUMP JUMPDEST SWAP2 POP POP SWAP3 SWAP2 POP POP JUMP JUMPDEST PUSH32 0x654D4E54523A20696E7375662063686172206578702E00000000000000000000 PUSH1 0x0 DUP3 ADD MSTORE POP JUMP JUMPDEST PUSH1 0x0 PUSH2 0x44C0 PUSH1 0x16 DUP4 PUSH2 0x3885 JUMP JUMPDEST SWAP2 POP PUSH2 0x44CB DUP3 PUSH2 0x448A JUMP JUMPDEST PUSH1 0x20 DUP3 ADD SWAP1 POP SWAP2 SWAP1 POP JUMP JUMPDEST PUSH1 0x0 PUSH1 0x20 DUP3 ADD SWAP1 POP DUP2 DUP2 SUB PUSH1 0x0 DUP4 ADD MSTORE PUSH2 0x44EF DUP2 PUSH2 0x44B3 JUMP JUMPDEST SWAP1 POP SWAP2 SWAP1 POP JUMP JUMPDEST PUSH1 0x0 PUSH1 0x40 DUP3 ADD SWAP1 POP PUSH2 0x450B PUSH1 0x0 DUP4 ADD DUP6 PUSH2 0x361E JUMP JUMPDEST PUSH2 0x4518 PUSH1 0x20 DUP4 ADD DUP5 PUSH2 0x3446 JUMP JUMPDEST SWAP4 SWAP3 POP POP POP JUMP JUMPDEST PUSH1 0x0 PUSH1 0x20 DUP3 DUP5 SUB SLT ISZERO PUSH2 0x4535 JUMPI PUSH2 0x4534 PUSH2 0x32FB JUMP JUMPDEST JUMPDEST PUSH1 0x0 PUSH2 0x4543 DUP5 DUP3 DUP6 ADD PUSH2 0x3919 JUMP JUMPDEST SWAP2 POP POP SWAP3 SWAP2 POP POP JUMP JUMPDEST PUSH32 0x654D4E54523A20636861726163746572206E6F74206F776E65642E0000000000 PUSH1 0x0 DUP3 ADD MSTORE POP JUMP JUMPDEST PUSH1 0x0 PUSH2 0x4582 PUSH1 0x1B DUP4 PUSH2 0x3885 JUMP JUMPDEST SWAP2 POP PUSH2 0x458D DUP3 PUSH2 0x454C JUMP JUMPDEST PUSH1 0x20 DUP3 ADD SWAP1 POP SWAP2 SWAP1 POP JUMP JUMPDEST PUSH1 0x0 PUSH1 0x20 DUP3 ADD SWAP1 POP DUP2 DUP2 SUB PUSH1 0x0 DUP4 ADD MSTORE PUSH2 0x45B1 DUP2 PUSH2 0x4575 JUMP JUMPDEST SWAP1 POP SWAP2 SWAP1 POP JUMP JUMPDEST PUSH1 0x0 DUP2 SWAP1 POP SWAP2 SWAP1 POP JUMP JUMPDEST PUSH1 0x0 DUP2 SWAP1 POP SWAP2 SWAP1 POP JUMP JUMPDEST PUSH1 0x0 PUSH2 0x45E7 PUSH2 0x45E2 PUSH2 0x45DD DUP5 PUSH2 0x45B8 JUMP JUMPDEST PUSH2 0x45C2 JUMP JUMPDEST PUSH2 0x3464 JUMP JUMPDEST SWAP1 POP SWAP2 SWAP1 POP JUMP JUMPDEST PUSH2 0x45F7 DUP2 PUSH2 0x45CC JUMP JUMPDEST DUP3 MSTORE POP POP JUMP JUMPDEST PUSH1 0x0 PUSH1 0x60 DUP3 ADD SWAP1 POP PUSH2 0x4612 PUSH1 0x0 DUP4 ADD DUP7 PUSH2 0x361E JUMP JUMPDEST PUSH2 0x461F PUSH1 0x20 DUP4 ADD DUP6 PUSH2 0x45EE JUMP JUMPDEST PUSH2 0x462C PUSH1 0x40 DUP4 ADD DUP5 PUSH2 0x348F JUMP JUMPDEST SWAP5 SWAP4 POP POP POP POP JUMP JUMPDEST PUSH32 0x654D4E54523A2043616E6E6F742063616E63656C206E6F6E2D6578697374696E PUSH1 0x0 DUP3 ADD MSTORE PUSH32 0x672072657175657374732E000000000000000000000000000000000000000000 PUSH1 0x20 DUP3 ADD MSTORE POP JUMP JUMPDEST PUSH1 0x0 PUSH2 0x4690 PUSH1 0x2B DUP4 PUSH2 0x3885 JUMP JUMPDEST SWAP2 POP PUSH2 0x469B DUP3 PUSH2 0x4634 JUMP JUMPDEST PUSH1 0x40 DUP3 ADD SWAP1 POP SWAP2 SWAP1 POP JUMP JUMPDEST PUSH1 0x0 PUSH1 0x20 DUP3 ADD SWAP1 POP DUP2 DUP2 SUB PUSH1 0x0 DUP4 ADD MSTORE PUSH2 0x46BF DUP2 PUSH2 0x4683 JUMP JUMPDEST SWAP1 POP SWAP2 SWAP1 POP JUMP JUMPDEST PUSH1 0x0 PUSH2 0x46D1 DUP3 PUSH2 0x3345 JUMP JUMPDEST SWAP2 POP PUSH2 0x46DC DUP4 PUSH2 0x3345 JUMP JUMPDEST SWAP3 POP DUP3 DUP3 SUB SWAP1 POP DUP2 DUP2 GT ISZERO PUSH2 0x46F4 JUMPI PUSH2 0x46F3 PUSH2 0x3AF7 JUMP JUMPDEST JUMPDEST SWAP3 SWAP2 POP POP JUMP JUMPDEST PUSH32 0x654D4E54523A2043616E6E6F742063616E63656C207265717565737473207468 PUSH1 0x0 DUP3 ADD MSTORE PUSH32 0x617420686176656E74206C6170736564203120686F75722066726F6D2074696D PUSH1 0x20 DUP3 ADD MSTORE PUSH32 0x65207265717565737465642E0000000000000000000000000000000000000000 PUSH1 0x40 DUP3 ADD MSTORE POP JUMP JUMPDEST PUSH1 0x0 PUSH2 0x477C PUSH1 0x4C DUP4 PUSH2 0x3885 JUMP JUMPDEST SWAP2 POP PUSH2 0x4787 DUP3 PUSH2 0x46FA JUMP JUMPDEST PUSH1 0x60 DUP3 ADD SWAP1 POP SWAP2 SWAP1 POP JUMP JUMPDEST PUSH1 0x0 PUSH1 0x20 DUP3 ADD SWAP1 POP DUP2 DUP2 SUB PUSH1 0x0 DUP4 ADD MSTORE PUSH2 0x47AB DUP2 PUSH2 0x476F JUMP JUMPDEST SWAP1 POP SWAP2 SWAP1 POP JUMP JUMPDEST PUSH32 0x654D4E54523A2043616E6E6F742063616E63656C207265717565737473207468 PUSH1 0x0 DUP3 ADD MSTORE PUSH32 0x6174206861766520616C7265616479206265656E2066756C66696C6C65642E00 PUSH1 0x20 DUP3 ADD MSTORE POP JUMP JUMPDEST PUSH1 0x0 PUSH2 0x480E PUSH1 0x3F DUP4 PUSH2 0x3885 JUMP JUMPDEST SWAP2 POP PUSH2 0x4819 DUP3 PUSH2 0x47B2 JUMP JUMPDEST PUSH1 0x40 DUP3 ADD SWAP1 POP SWAP2 SWAP1 POP JUMP JUMPDEST PUSH1 0x0 PUSH1 0x20 DUP3 ADD SWAP1 POP DUP2 DUP2 SUB PUSH1 0x0 DUP4 ADD MSTORE PUSH2 0x483D DUP2 PUSH2 0x4801 JUMP JUMPDEST SWAP1 POP SWAP2 SWAP1 POP JUMP JUMPDEST PUSH32 0x654D4E54523A20496E636F727265637420616D6F756E7420666F722065717569 PUSH1 0x0 DUP3 ADD MSTORE PUSH32 0x706D656E74206D696E74696E672E2053656E642065786163746C7920302E3031 PUSH1 0x20 DUP3 ADD MSTORE PUSH32 0x204D4154494320706572206974656D207265717565737465642E000000000000 PUSH1 0x40 DUP3 ADD MSTORE POP JUMP JUMPDEST PUSH1 0x0 PUSH2 0x48C6 PUSH1 0x5A DUP4 PUSH2 0x3885 JUMP JUMPDEST SWAP2 POP PUSH2 0x48D1 DUP3 PUSH2 0x4844 JUMP JUMPDEST PUSH1 0x60 DUP3 ADD SWAP1 POP SWAP2 SWAP1 POP JUMP JUMPDEST PUSH1 0x0 PUSH1 0x20 DUP3 ADD SWAP1 POP DUP2 DUP2 SUB PUSH1 0x0 DUP4 ADD MSTORE PUSH2 0x48F5 DUP2 PUSH2 0x48B9 JUMP JUMPDEST SWAP1 POP SWAP2 SWAP1 POP JUMP JUMPDEST PUSH32 0x4F776E61626C653A206E6577206F776E657220697320746865207A65726F2061 PUSH1 0x0 DUP3 ADD MSTORE PUSH32 0x6464726573730000000000000000000000000000000000000000000000000000 PUSH1 0x20 DUP3 ADD MSTORE POP JUMP JUMPDEST PUSH1 0x0 PUSH2 0x4958 PUSH1 0x26 DUP4 PUSH2 0x3885 JUMP JUMPDEST SWAP2 POP PUSH2 0x4963 DUP3 PUSH2 0x48FC JUMP JUMPDEST PUSH1 0x40 DUP3 ADD SWAP1 POP SWAP2 SWAP1 POP JUMP JUMPDEST PUSH1 0x0 PUSH1 0x20 DUP3 ADD SWAP1 POP DUP2 DUP2 SUB PUSH1 0x0 DUP4 ADD MSTORE PUSH2 0x4987 DUP2 PUSH2 0x494B JUMP JUMPDEST SWAP1 POP SWAP2 SWAP1 POP JUMP JUMPDEST PUSH32 0x4E487B7100000000000000000000000000000000000000000000000000000000 PUSH1 0x0 MSTORE PUSH1 0x12 PUSH1 0x4 MSTORE PUSH1 0x24 PUSH1 0x0 REVERT JUMPDEST PUSH1 0x0 PUSH2 0x49C8 DUP3 PUSH2 0x3345 JUMP JUMPDEST SWAP2 POP PUSH2 0x49D3 DUP4 PUSH2 0x3345 JUMP JUMPDEST SWAP3 POP DUP3 PUSH2 0x49E3 JUMPI PUSH2 0x49E2 PUSH2 0x498E JUMP JUMPDEST JUMPDEST DUP3 DUP3 MOD SWAP1 POP SWAP3 SWAP2 POP POP JUMP JUMPDEST PUSH1 0x0 PUSH2 0x49F9 DUP3 PUSH2 0x3345 JUMP JUMPDEST SWAP2 POP PUSH2 0x4A04 DUP4 PUSH2 0x3345 JUMP JUMPDEST SWAP3 POP DUP3 DUP3 ADD SWAP1 POP DUP1 DUP3 GT ISZERO PUSH2 0x4A1C JUMPI PUSH2 0x4A1B PUSH2 0x3AF7 JUMP JUMPDEST JUMPDEST SWAP3 SWAP2 POP POP JUMP JUMPDEST PUSH1 0x80 DUP3 ADD PUSH1 0x0 DUP3 ADD MLOAD PUSH2 0x4A38 PUSH1 0x0 DUP6 ADD DUP3 PUSH2 0x3F73 JUMP JUMPDEST POP PUSH1 0x20 DUP3 ADD MLOAD PUSH2 0x4A4B PUSH1 0x20 DUP6 ADD DUP3 PUSH2 0x3F73 JUMP JUMPDEST POP PUSH1 0x40 DUP3 ADD MLOAD PUSH2 0x4A5E PUSH1 0x40 DUP6 ADD DUP3 PUSH2 0x3F73 JUMP JUMPDEST POP PUSH1 0x60 DUP3 ADD MLOAD PUSH2 0x4A71 PUSH1 0x60 DUP6 ADD DUP3 PUSH2 0x3F73 JUMP JUMPDEST POP POP POP POP JUMP JUMPDEST PUSH2 0x100 DUP3 ADD PUSH1 0x0 DUP3 ADD MLOAD PUSH2 0x4A8E PUSH1 0x0 DUP6 ADD DUP3 PUSH2 0x3539 JUMP JUMPDEST POP PUSH1 0x20 DUP3 ADD MLOAD PUSH2 0x4AA1 PUSH1 0x20 DUP6 ADD DUP3 PUSH2 0x3539 JUMP JUMPDEST POP PUSH1 0x40 DUP3 ADD MLOAD PUSH2 0x4AB4 PUSH1 0x40 DUP6 ADD DUP3 PUSH2 0x3539 JUMP JUMPDEST POP PUSH1 0x60 DUP3 ADD MLOAD PUSH2 0x4AC7 PUSH1 0x60 DUP6 ADD DUP3 PUSH2 0x3539 JUMP JUMPDEST POP PUSH1 0x80 DUP3 ADD MLOAD PUSH2 0x4ADA PUSH1 0x80 DUP6 ADD DUP3 PUSH2 0x3539 JUMP JUMPDEST POP PUSH1 0xA0 DUP3 ADD MLOAD PUSH2 0x4AED PUSH1 0xA0 DUP6 ADD DUP3 PUSH2 0x3539 JUMP JUMPDEST POP PUSH1 0xC0 DUP3 ADD MLOAD PUSH2 0x4B00 PUSH1 0xC0 DUP6 ADD DUP3 PUSH2 0x3539 JUMP JUMPDEST POP PUSH1 0xE0 DUP3 ADD MLOAD PUSH2 0x4B13 PUSH1 0xE0 DUP6 ADD DUP3 PUSH2 0x3539 JUMP JUMPDEST POP POP POP POP JUMP JUMPDEST PUSH1 0x0 PUSH2 0x1A0 DUP3 ADD SWAP1 POP PUSH2 0x4B2F PUSH1 0x0 DUP4 ADD DUP7 PUSH2 0x361E JUMP JUMPDEST PUSH2 0x4B3C PUSH1 0x20 DUP4 ADD DUP6 PUSH2 0x4A22 JUMP JUMPDEST PUSH2 0x4B49 PUSH1 0xA0 DUP4 ADD DUP5 PUSH2 0x4A77 JUMP JUMPDEST SWAP5 SWAP4 POP POP POP POP JUMP JUMPDEST PUSH32 0x5061757361626C653A2070617573656400000000000000000000000000000000 PUSH1 0x0 DUP3 ADD MSTORE POP JUMP JUMPDEST PUSH1 0x0 PUSH2 0x4B87 PUSH1 0x10 DUP4 PUSH2 0x3885 JUMP JUMPDEST SWAP2 POP PUSH2 0x4B92 DUP3 PUSH2 0x4B51 JUMP JUMPDEST PUSH1 0x20 DUP3 ADD SWAP1 POP SWAP2 SWAP1 POP JUMP JUMPDEST PUSH1 0x0 PUSH1 0x20 DUP3 ADD SWAP1 POP DUP2 DUP2 SUB PUSH1 0x0 DUP4 ADD MSTORE PUSH2 0x4BB6 DUP2 PUSH2 0x4B7A JUMP JUMPDEST SWAP1 POP SWAP2 SWAP1 POP JUMP JUMPDEST PUSH32 0x4F776E61626C653A2063616C6C6572206973206E6F7420746865206F776E6572 PUSH1 0x0 DUP3 ADD MSTORE POP JUMP JUMPDEST PUSH1 0x0 PUSH2 0x4BF3 PUSH1 0x20 DUP4 PUSH2 0x3885 JUMP JUMPDEST SWAP2 POP PUSH2 0x4BFE DUP3 PUSH2 0x4BBD JUMP JUMPDEST PUSH1 0x20 DUP3 ADD SWAP1 POP SWAP2 SWAP1 POP JUMP JUMPDEST PUSH1 0x0 PUSH1 0x20 DUP3 ADD SWAP1 POP DUP2 DUP2 SUB PUSH1 0x0 DUP4 ADD MSTORE PUSH2 0x4C22 DUP2 PUSH2 0x4BE6 JUMP JUMPDEST SWAP1 POP SWAP2 SWAP1 POP JUMP JUMPDEST PUSH1 0x0 DUP2 SWAP1 POP SWAP2 SWAP1 POP JUMP JUMPDEST PUSH1 0x0 PUSH2 0x4C3E DUP3 PUSH2 0x4C29 JUMP JUMPDEST SWAP2 POP PUSH32 0x8000000000000000000000000000000000000000000000000000000000000000 DUP3 SUB PUSH2 0x4C70 JUMPI PUSH2 0x4C6F PUSH2 0x3AF7 JUMP JUMPDEST JUMPDEST PUSH1 0x1 DUP3 SUB SWAP1 POP SWAP2 SWAP1 POP JUMP JUMPDEST PUSH1 0x0 PUSH2 0xFFFF DUP3 AND SWAP1 POP SWAP2 SWAP1 POP JUMP JUMPDEST PUSH1 0x0 PUSH2 0x4C94 DUP3 PUSH2 0x4C7B JUMP JUMPDEST SWAP2 POP PUSH2 0x4C9F DUP4 PUSH2 0x4C7B JUMP JUMPDEST SWAP3 POP DUP3 PUSH2 0x4CAF JUMPI PUSH2 0x4CAE PUSH2 0x498E JUMP JUMPDEST JUMPDEST DUP3 DUP3 MOD SWAP1 POP SWAP3 SWAP2 POP POP JUMP JUMPDEST PUSH1 0x0 PUSH2 0x4CC5 DUP3 PUSH2 0x3345 JUMP JUMPDEST SWAP2 POP PUSH2 0x4CD0 DUP4 PUSH2 0x3345 JUMP JUMPDEST SWAP3 POP DUP3 PUSH2 0x4CE0 JUMPI PUSH2 0x4CDF PUSH2 0x498E JUMP JUMPDEST JUMPDEST DUP3 DUP3 DIV SWAP1 POP SWAP3 SWAP2 POP POP JUMP INVALID LOG2 PUSH5 0x6970667358 0x22 SLT KECCAK256 SHL 0x28 SWAP10 0x24 0xAF 0xB9 CHAINID 0x49 LOG2 0xCB TIMESTAMP 0xCA RETURNDATASIZE PUSH13 0x276F3ACEC52520F9BBC1B9773D SWAP13 PUSH11 0x600E5C64736F6C63430008 GT STOP CALLER "},"methodIdentifiers":{"cancelRequestExperimental()":"b25f9b3e","character_minted_free(uint256,uint256)":"a330e03e","getEquipmentRecipe(uint256)":"8428e99a","mintEquipments()":"08e6b2c9","mintEquipmentsExperimental(address,uint256[])":"a9a876af","mint_fee()":"da610fcf","owner()":"8da5cb5b","paused()":"5c975abb","renounceOwnership()":"715018a6","request(address)":"27c78c42","requestEquipment(uint64,uint256)":"20b37cfc","requestEquipmentExperimental(uint64)":"e9ff18c6","requestEquipmentFree(uint256,uint64)":"ab111add","setMintFee(uint256)":"eddd0d9c","setRandomizationContract(address)":"5473e978","transferOwnership(address)":"f2fde38b","userMaterialsEnough(uint256,uint256)":"87acbc97","withdraw()":"3ccfd60b"}}}}}