{
  "_format": "hh-sol-artifact-1",
  "contractName": "CharacterUriConstructor",
  "sourceName": "contracts/periphery/libraries/characters/CharacterUriConstructor.sol",
  "abi": [
    {
      "inputs": [
        {
          "components": [
            {
              "internalType": "uint32",
              "name": "character_faction",
              "type": "uint32"
            },
            {
              "internalType": "uint32",
              "name": "character_class",
              "type": "uint32"
            },
            {
              "internalType": "uint32",
              "name": "element",
              "type": "uint32"
            },
            {
              "internalType": "uint32",
              "name": "str",
              "type": "uint32"
            },
            {
              "internalType": "uint32",
              "name": "vit",
              "type": "uint32"
            },
            {
              "internalType": "uint32",
              "name": "dex",
              "type": "uint32"
            },
            {
              "internalType": "uint32",
              "name": "talent",
              "type": "uint32"
            },
            {
              "internalType": "uint32",
              "name": "exp",
              "type": "uint32"
            }
          ],
          "internalType": "struct character_properties",
          "name": "character_props",
          "type": "tuple"
        },
        {
          "components": [
            {
              "internalType": "string",
              "name": "name",
              "type": "string"
            },
            {
              "internalType": "string",
              "name": "image",
              "type": "string"
            },
            {
              "internalType": "string",
              "name": "faction",
              "type": "string"
            },
            {
              "internalType": "string",
              "name": "_class",
              "type": "string"
            },
            {
              "internalType": "string",
              "name": "bonus",
              "type": "string"
            },
            {
              "internalType": "string",
              "name": "bonus_value",
              "type": "string"
            },
            {
              "internalType": "string",
              "name": "talent_value",
              "type": "string"
            }
          ],
          "internalType": "struct character_uri_details",
          "name": "uri_details",
          "type": "tuple"
        },
        {
          "internalType": "string",
          "name": "_character_name",
          "type": "string"
        }
      ],
      "name": "encodeStrings",
      "outputs": [
        {
          "internalType": "string",
          "name": "uriJSON",
          "type": "string"
        }
      ],
      "stateMutability": "pure",
      "type": "function"
    }
  ],
  "bytecode": "0x608060405234801561001057600080fd5b50612155806100206000396000f3fe608060405234801561001057600080fd5b506004361061002b5760003560e01c80634784271614610030575b600080fd5b61004a6004803603810190610045919061102d565b610060565b604051610057919061113a565b60405180910390f35b60606100b061006f84846100d8565b6100798686610120565b61008a610085886101d2565b61025b565b60405160200161009c93929190611198565b6040516020818303038152906040526102f2565b6040516020016100c091906111ef565b60405160208183030381529060405290509392505050565b6060826020015182846060015185608001518660a0015187604001516040516020016101099695949392919061149b565b604051602081830303815290604052905092915050565b6060610135836060015163ffffffff16610455565b610148846080015163ffffffff16610455565b61015b8560a0015163ffffffff16610455565b610186600160648860e0015161017191906115c8565b61017b91906115f9565b63ffffffff16610455565b61019387604001516105b5565b6101a08860c001516106d8565b8760c001516040516020016101bb9796959493929190611891565b604051602081830303815290604052905092915050565b6101da610c06565b6040518061010001604052806101ef84610842565b81526020016101fd846108f6565b815260200161020b846109a9565b815260200161021984610a5d565b815260200161022784610aa9565b815260200161023584610b2a565b815260200161024384610bab565b815260200161025184610bcb565b8152509050919050565b606061026a8260000151610455565b6102778360200151610455565b6102848460400151610455565b6102918560600151610455565b61029e8660800151610455565b6102ab8760a00151610455565b6102b88860c00151610455565b6102c58960e00151610455565b6040516020016102dc989796959493929190611e3c565b6040516020818303038152906040529050919050565b6060600082510361031457604051806020016040528060008152509050610450565b60006040518060600160405280604081526020016120e060409139905060006003600285516103439190611f1f565b61034d9190611f53565b60046103599190611f84565b67ffffffffffffffff81111561037257610371610c75565b5b6040519080825280601f01601f1916602001820160405280156103a45781602001600182028036833780820191505090505b509050600182016020820185865187015b80821015610410576003820191508151603f8160121c168501518453600184019350603f81600c1c168501518453600184019350603f8160061c168501518453600184019350603f81168501518453600184019350506103b5565b505060038651066001811461042c576002811461043f57610447565b603d6001830353603d6002830353610447565b603d60018303535b50505080925050505b919050565b60606000820361049c576040518060400160405280600181526020017f300000000000000000000000000000000000000000000000000000000000000081525090506105b0565b600082905060005b600082146104ce5780806104b790611fc6565b915050600a826104c79190611f53565b91506104a4565b60008167ffffffffffffffff8111156104ea576104e9610c75565b5b6040519080825280601f01601f19166020018201604052801561051c5781602001600182028036833780820191505090505b5090505b600085146105a957600182610535919061200e565b9150600a856105449190612042565b60306105509190611f1f565b60f81b81838151811061056657610565612073565b5b60200101907effffffffffffffffffffffffffffffffffffffffffffffffffffffffffffff1916908160001a905350600a856105a29190611f53565b9450610520565b8093505050505b919050565b606060008263ffffffff16036105fe576040518060400160405280600481526020017f466972650000000000000000000000000000000000000000000000000000000081525090505b60018263ffffffff1603610645576040518060400160405280600581526020017f456172746800000000000000000000000000000000000000000000000000000081525090505b60028263ffffffff160361068c576040518060400160405280600481526020017f57696e640000000000000000000000000000000000000000000000000000000081525090505b60038263ffffffff16036106d3576040518060400160405280600581526020017f576174657200000000000000000000000000000000000000000000000000000081525090505b919050565b606060008263ffffffff1603610721576040518060400160405280600f81526020017f49726f6e20536b696e202844454629000000000000000000000000000000000081525090505b60018263ffffffff1603610768576040518060400160405280601381526020017f436f6d6261742050737963686f202841544b290000000000000000000000000081525090505b60028263ffffffff16036107af576040518060400160405280601781526020017f576561706f6e205370656369616c697374202850454e2900000000000000000081525090505b60038263ffffffff16036107f6576040518060400160405280600d81526020017f536e69706572202843524954290000000000000000000000000000000000000081525090505b60048263ffffffff160361083d576040518060400160405280600b81526020017f4e696e6a6120284556412900000000000000000000000000000000000000000081525090505b919050565b60006004600a60048460a0015161085991906120a2565b6006856060015161086a91906120a2565b61087491906115f9565b61087e91906115c8565b61088891906115c8565b63ffffffff16905060006001836020015163ffffffff16036108a957600590505b60018360c0015163ffffffff16036108cb576005816108c89190611f1f565b90505b606481836108d99190611f84565b6108e39190611f53565b826108ee9190611f1f565b915050919050565b60006002600a6004846060015161090d91906120a2565b6006856080015161091e91906120a2565b61092891906115f9565b61093291906115c8565b61093c91906115c8565b63ffffffff169050600080836020015163ffffffff160361095c57600a90505b60008360c0015163ffffffff160361097e57600a8161097b9190611f1f565b90505b6064818361098c9190611f84565b6109969190611f53565b826109a19190611f1f565b915050919050565b60006002600a600484608001516109c091906120a2565b60068560a001516109d191906120a2565b6109db91906115f9565b6109e591906115c8565b6109ef91906115c8565b63ffffffff16905060006004836020015163ffffffff1603610a1057600a90505b60048360c0015163ffffffff1603610a3257600a81610a2f9190611f1f565b90505b60648183610a409190611f84565b610a4a9190611f53565b82610a559190611f1f565b915050919050565b600060058260800151610a7091906120a2565b63ffffffff16905060006001905060648183610a8c9190611f84565b610a969190611f53565b82610aa19190611f1f565b915050919050565b600060028260600151610abc91906115c8565b63ffffffff16905060006002836020015163ffffffff1603610add57600a90505b60028360c0015163ffffffff1603610aff57600a81610afc9190611f1f565b90505b60648183610b0d9190611f84565b610b179190611f53565b82610b229190611f1f565b915050919050565b600060028260a00151610b3d91906115c8565b63ffffffff16905060006003836020015163ffffffff1603610b5e57600a90505b60038360c0015163ffffffff1603610b8057600a81610b7d9190611f1f565b90505b60648183610b8e9190611f84565b610b989190611f53565b82610ba39190611f1f565b915050919050565b6000600a8260a00151610bbe91906115c8565b63ffffffff169050919050565b6000600a600283606001518460800151610be591906115f9565b610bef91906115c8565b610bf991906115c8565b63ffffffff169050919050565b60405180610100016040528060008152602001600081526020016000815260200160008152602001600081526020016000815260200160008152602001600081525090565b6000604051905090565b600080fd5b600080fd5b600080fd5b6000601f19601f8301169050919050565b7f4e487b7100000000000000000000000000000000000000000000000000000000600052604160045260246000fd5b610cad82610c64565b810181811067ffffffffffffffff82111715610ccc57610ccb610c75565b5b80604052505050565b6000610cdf610c4b565b9050610ceb8282610ca4565b919050565b600080fd5b600063ffffffff82169050919050565b610d0e81610cf5565b8114610d1957600080fd5b50565b600081359050610d2b81610d05565b92915050565b60006101008284031215610d4857610d47610c5f565b5b610d53610100610cd5565b90506000610d6384828501610d1c565b6000830152506020610d7784828501610d1c565b6020830152506040610d8b84828501610d1c565b6040830152506060610d9f84828501610d1c565b6060830152506080610db384828501610d1c565b60808301525060a0610dc784828501610d1c565b60a08301525060c0610ddb84828501610d1c565b60c08301525060e0610def84828501610d1c565b60e08301525092915050565b600080fd5b600080fd5b600067ffffffffffffffff821115610e2057610e1f610c75565b5b610e2982610c64565b9050602081019050919050565b82818337600083830152505050565b6000610e58610e5384610e05565b610cd5565b905082815260208101848484011115610e7457610e73610e00565b5b610e7f848285610e36565b509392505050565b600082601f830112610e9c57610e9b610dfb565b5b8135610eac848260208601610e45565b91505092915050565b600060e08284031215610ecb57610eca610c5f565b5b610ed560e0610cd5565b9050600082013567ffffffffffffffff811115610ef557610ef4610cf0565b5b610f0184828501610e87565b600083015250602082013567ffffffffffffffff811115610f2557610f24610cf0565b5b610f3184828501610e87565b602083015250604082013567ffffffffffffffff811115610f5557610f54610cf0565b5b610f6184828501610e87565b604083015250606082013567ffffffffffffffff811115610f8557610f84610cf0565b5b610f9184828501610e87565b606083015250608082013567ffffffffffffffff811115610fb557610fb4610cf0565b5b610fc184828501610e87565b60808301525060a082013567ffffffffffffffff811115610fe557610fe4610cf0565b5b610ff184828501610e87565b60a08301525060c082013567ffffffffffffffff81111561101557611014610cf0565b5b61102184828501610e87565b60c08301525092915050565b6000806000610140848603121561104757611046610c55565b5b600061105586828701610d31565b93505061010084013567ffffffffffffffff81111561107757611076610c5a565b5b61108386828701610eb5565b92505061012084013567ffffffffffffffff8111156110a5576110a4610c5a565b5b6110b186828701610e87565b9150509250925092565b600081519050919050565b600082825260208201905092915050565b60005b838110156110f55780820151818401526020810190506110da565b60008484015250505050565b600061110c826110bb565b61111681856110c6565b93506111268185602086016110d7565b61112f81610c64565b840191505092915050565b600060208201905081810360008301526111548184611101565b905092915050565b600081905092915050565b6000611172826110bb565b61117c818561115c565b935061118c8185602086016110d7565b80840191505092915050565b60006111a48286611167565b91506111b08285611167565b91506111bc8284611167565b9150819050949350505050565b7f646174613a6170706c69636174696f6e2f6a736f6e3b6261736536342c000000815250565b60006111fa826111c9565b601d8201915061120a8284611167565b915081905092915050565b7f7b226465736372697074696f6e223a202243686172616374657273222c20226960008201527f6d616765223a2022000000000000000000000000000000000000000000000000602082015250565b600061127160288361115c565b915061127c82611215565b602882019050919050565b7f222c20226e616d65223a20220000000000000000000000000000000000000000815250565b7f222c202261747472696275746573223a205b0000000000000000000000000000815250565b7f7b2274726169745f74797065223a20226368617261637465725f636c6173732260008201527f2c202276616c7565223a20220000000000000000000000000000000000000000602082015250565b600061132f602c8361115c565b915061133a826112d3565b602c82019050919050565b7f227d2c207b22646973706c61795f74797065223a2022626f6f73745f7065726360008201527f656e74616765222c202274726169745f74797065223a20220000000000000000602082015250565b60006113a160388361115c565b91506113ac82611345565b603882019050919050565b7f222c202276616c7565223a200000000000000000000000000000000000000000815250565b7f7d2c200000000000000000000000000000000000000000000000000000000000815250565b7f7b2274726169745f74797065223a202266616374696f6e222c202276616c756560008201527f223a202200000000000000000000000000000000000000000000000000000000602082015250565b600061145f60248361115c565b915061146a82611403565b602482019050919050565b7f227d000000000000000000000000000000000000000000000000000000000000815250565b60006114a682611264565b91506114b28289611167565b91506114bd82611287565b600c820191506114cd8288611167565b91506114d8826112ad565b6012820191506114e782611322565b91506114f38287611167565b91506114fe82611394565b915061150a8286611167565b9150611515826113b7565b600c820191506115258285611167565b9150611530826113dd565b60038201915061153f82611452565b915061154b8284611167565b915061155682611475565b600282019150819050979650505050505050565b7f4e487b7100000000000000000000000000000000000000000000000000000000600052601260045260246000fd5b7f4e487b7100000000000000000000000000000000000000000000000000000000600052601160045260246000fd5b60006115d382610cf5565b91506115de83610cf5565b9250826115ee576115ed61156a565b5b828204905092915050565b600061160482610cf5565b915061160f83610cf5565b9250828201905063ffffffff81111561162b5761162a611599565b5b92915050565b7f2c207b2274726169745f74797065223a2022535452222c20226d61785f76616c60008201527f7565223a20313030302c202276616c7565223a20000000000000000000000000602082015250565b600061168d60348361115c565b915061169882611631565b603482019050919050565b7f7d2c207b2274726169745f74797065223a2022564954222c20226d61785f766160008201527f6c7565223a20313030302c202276616c7565223a200000000000000000000000602082015250565b60006116ff60358361115c565b915061170a826116a3565b603582019050919050565b7f7d2c207b2274726169745f74797065223a2022444558222c20226d61785f766160008201527f6c7565223a20313030302c202276616c7565223a200000000000000000000000602082015250565b600061177160358361115c565b915061177c82611715565b603582019050919050565b7f7d2c207b2274726169745f74797065223a2022436861726163746572204c657660008201527f656c222c20226d61785f76616c7565223a203130302c202276616c7565223a20602082015250565b60006117e360408361115c565b91506117ee82611787565b604082019050919050565b7f7d2c207b2274726169745f74797065223a2022656c656d656e74222c2022766160008201527f6c7565223a202200000000000000000000000000000000000000000000000000602082015250565b600061185560278361115c565b9150611860826117f9565b602782019050919050565b7f7d00000000000000000000000000000000000000000000000000000000000000815250565b600061189c82611680565b91506118a8828a611167565b91506118b3826116f2565b91506118bf8289611167565b91506118ca82611764565b91506118d68288611167565b91506118e1826117d6565b91506118ed8287611167565b91506118f882611848565b91506119048286611167565b915061190f82611394565b915061191b8285611167565b9150611926826113b7565b600c820191506119368284611167565b91506119418261186b565b60018201915081905098975050505050505050565b7f2c207b22646973706c61795f74797065223a20226e756d626572222c2022747260008201527f6169745f74797065223a202241544b222c20226d61785f76616c7565223a203960208201527f3939392c202276616c7565223a20000000000000000000000000000000000000604082015250565b60006119d8604e8361115c565b91506119e382611956565b604e82019050919050565b7f7d2c207b22646973706c61795f74797065223a20226e756d626572222c20227460008201527f726169745f74797065223a2022444546222c20226d61785f76616c7565223a2060208201527f393939392c202276616c7565223a200000000000000000000000000000000000604082015250565b6000611a70604f8361115c565b9150611a7b826119ee565b604f82019050919050565b7f7d2c207b22646973706c61795f74797065223a20226e756d626572222c20227460008201527f726169745f74797065223a2022455641222c20226d61785f76616c7565223a2060208201527f313030302c202276616c7565223a200000000000000000000000000000000000604082015250565b6000611b08604f8361115c565b9150611b1382611a86565b604f82019050919050565b7f7d2c207b22646973706c61795f74797065223a20226e756d626572222c20227460008201527f726169745f74797065223a20224850222c20226d61785f76616c7565223a203960208201527f3939392c202276616c7565223a20000000000000000000000000000000000000604082015250565b6000611ba0604e8361115c565b9150611bab82611b1e565b604e82019050919050565b7f7d2c207b22646973706c61795f74797065223a20226e756d626572222c20227460008201527f726169745f74797065223a202250454e222c20226d61785f76616c7565223a2060208201527f313030302c202276616c7565223a200000000000000000000000000000000000604082015250565b6000611c38604f8361115c565b9150611c4382611bb6565b604f82019050919050565b7f7d2c207b22646973706c61795f74797065223a20226e756d626572222c20227460008201527f726169745f74797065223a202243524954222c20226d61785f76616c7565223a60208201527f20313030302c202276616c7565223a2000000000000000000000000000000000604082015250565b6000611cd060508361115c565b9150611cdb82611c4e565b605082019050919050565b7f7d2c207b22646973706c61795f74797065223a20226e756d626572222c20227460008201527f726169745f74797065223a20224c554b222c20226d61785f76616c7565223a2060208201527f313030302c202276616c7565223a200000000000000000000000000000000000604082015250565b6000611d68604f8361115c565b9150611d7382611ce6565b604f82019050919050565b7f7d2c207b22646973706c61795f74797065223a20226e756d626572222c20227460008201527f726169745f74797065223a2022524553222c20226d61785f76616c7565223a2060208201527f313030302c202276616c7565223a200000000000000000000000000000000000604082015250565b6000611e00604f8361115c565b9150611e0b82611d7e565b604f82019050919050565b7f7d5d7d0000000000000000000000000000000000000000000000000000000000815250565b6000611e47826119cb565b9150611e53828b611167565b9150611e5e82611a63565b9150611e6a828a611167565b9150611e7582611afb565b9150611e818289611167565b9150611e8c82611b93565b9150611e988288611167565b9150611ea382611c2b565b9150611eaf8287611167565b9150611eba82611cc3565b9150611ec68286611167565b9150611ed182611d5b565b9150611edd8285611167565b9150611ee882611df3565b9150611ef48284611167565b9150611eff82611e16565b6003820191508190509998505050505050505050565b6000819050919050565b6000611f2a82611f15565b9150611f3583611f15565b9250828201905080821115611f4d57611f4c611599565b5b92915050565b6000611f5e82611f15565b9150611f6983611f15565b925082611f7957611f7861156a565b5b828204905092915050565b6000611f8f82611f15565b9150611f9a83611f15565b9250828202611fa881611f15565b91508282048414831517611fbf57611fbe611599565b5b5092915050565b6000611fd182611f15565b91507fffffffffffffffffffffffffffffffffffffffffffffffffffffffffffffffff820361200357612002611599565b5b600182019050919050565b600061201982611f15565b915061202483611f15565b925082820390508181111561203c5761203b611599565b5b92915050565b600061204d82611f15565b915061205883611f15565b9250826120685761206761156a565b5b828206905092915050565b7f4e487b7100000000000000000000000000000000000000000000000000000000600052603260045260246000fd5b60006120ad82610cf5565b91506120b883610cf5565b92508282026120c681610cf5565b91508082146120d8576120d7611599565b5b509291505056fe4142434445464748494a4b4c4d4e4f505152535455565758595a6162636465666768696a6b6c6d6e6f707172737475767778797a303132333435363738392b2fa2646970667358221220621d83837cbaa5d946e201d969ebb09a4309f9abbdff39ab29dc6ecdb9971ac264736f6c63430008110033",
  "linkReferences": {},
  "deployedLinkReferences": {}
}