{
  "_format": "hh-sol-artifact-1",
  "contractName": "Characters",
  "sourceName": "contracts/core/nfts/Characters.sol",
  "abi": [
    {
      "inputs": [],
      "stateMutability": "nonpayable",
      "type": "constructor"
    },
    {
      "anonymous": false,
      "inputs": [
        {
          "indexed": true,
          "internalType": "address",
          "name": "owner",
          "type": "address"
        },
        {
          "indexed": true,
          "internalType": "address",
          "name": "approved",
          "type": "address"
        },
        {
          "indexed": true,
          "internalType": "uint256",
          "name": "tokenId",
          "type": "uint256"
        }
      ],
      "name": "Approval",
      "type": "event"
    },
    {
      "anonymous": false,
      "inputs": [
        {
          "indexed": true,
          "internalType": "address",
          "name": "owner",
          "type": "address"
        },
        {
          "indexed": true,
          "internalType": "address",
          "name": "operator",
          "type": "address"
        },
        {
          "indexed": false,
          "internalType": "bool",
          "name": "approved",
          "type": "bool"
        }
      ],
      "name": "ApprovalForAll",
      "type": "event"
    },
    {
      "anonymous": false,
      "inputs": [
        {
          "indexed": true,
          "internalType": "uint256",
          "name": "character_id",
          "type": "uint256"
        },
        {
          "indexed": false,
          "internalType": "address",
          "name": "user",
          "type": "address"
        },
        {
          "indexed": false,
          "internalType": "string",
          "name": "char_name",
          "type": "string"
        },
        {
          "components": [
            {
              "internalType": "uint32",
              "name": "character_faction",
              "type": "uint32"
            },
            {
              "internalType": "uint32",
              "name": "character_class",
              "type": "uint32"
            },
            {
              "internalType": "uint32",
              "name": "element",
              "type": "uint32"
            },
            {
              "internalType": "uint32",
              "name": "str",
              "type": "uint32"
            },
            {
              "internalType": "uint32",
              "name": "vit",
              "type": "uint32"
            },
            {
              "internalType": "uint32",
              "name": "dex",
              "type": "uint32"
            },
            {
              "internalType": "uint32",
              "name": "talent",
              "type": "uint32"
            },
            {
              "internalType": "uint32",
              "name": "exp",
              "type": "uint32"
            }
          ],
          "indexed": false,
          "internalType": "struct character_properties",
          "name": "character_props",
          "type": "tuple"
        }
      ],
      "name": "CharacterMinted",
      "type": "event"
    },
    {
      "anonymous": false,
      "inputs": [
        {
          "indexed": true,
          "internalType": "uint256",
          "name": "character_id",
          "type": "uint256"
        },
        {
          "indexed": false,
          "internalType": "string",
          "name": "char_name",
          "type": "string"
        }
      ],
      "name": "CharacterRenamed",
      "type": "event"
    },
    {
      "anonymous": false,
      "inputs": [
        {
          "indexed": true,
          "internalType": "uint256",
          "name": "character_id",
          "type": "uint256"
        },
        {
          "components": [
            {
              "internalType": "uint32",
              "name": "character_faction",
              "type": "uint32"
            },
            {
              "internalType": "uint32",
              "name": "character_class",
              "type": "uint32"
            },
            {
              "internalType": "uint32",
              "name": "element",
              "type": "uint32"
            },
            {
              "internalType": "uint32",
              "name": "str",
              "type": "uint32"
            },
            {
              "internalType": "uint32",
              "name": "vit",
              "type": "uint32"
            },
            {
              "internalType": "uint32",
              "name": "dex",
              "type": "uint32"
            },
            {
              "internalType": "uint32",
              "name": "talent",
              "type": "uint32"
            },
            {
              "internalType": "uint32",
              "name": "exp",
              "type": "uint32"
            }
          ],
          "indexed": false,
          "internalType": "struct character_properties",
          "name": "character_props",
          "type": "tuple"
        }
      ],
      "name": "CharacterUpdated",
      "type": "event"
    },
    {
      "anonymous": false,
      "inputs": [
        {
          "indexed": true,
          "internalType": "address",
          "name": "previousOwner",
          "type": "address"
        },
        {
          "indexed": true,
          "internalType": "address",
          "name": "newOwner",
          "type": "address"
        }
      ],
      "name": "OwnershipTransferred",
      "type": "event"
    },
    {
      "anonymous": false,
      "inputs": [
        {
          "indexed": true,
          "internalType": "address",
          "name": "from",
          "type": "address"
        },
        {
          "indexed": true,
          "internalType": "address",
          "name": "to",
          "type": "address"
        },
        {
          "indexed": true,
          "internalType": "uint256",
          "name": "tokenId",
          "type": "uint256"
        }
      ],
      "name": "Transfer",
      "type": "event"
    },
    {
      "inputs": [
        {
          "internalType": "address",
          "name": "user",
          "type": "address"
        },
        {
          "components": [
            {
              "internalType": "uint32",
              "name": "character_faction",
              "type": "uint32"
            },
            {
              "internalType": "uint32",
              "name": "character_class",
              "type": "uint32"
            },
            {
              "internalType": "uint32",
              "name": "element",
              "type": "uint32"
            },
            {
              "internalType": "uint32",
              "name": "str",
              "type": "uint32"
            },
            {
              "internalType": "uint32",
              "name": "vit",
              "type": "uint32"
            },
            {
              "internalType": "uint32",
              "name": "dex",
              "type": "uint32"
            },
            {
              "internalType": "uint32",
              "name": "talent",
              "type": "uint32"
            },
            {
              "internalType": "uint32",
              "name": "exp",
              "type": "uint32"
            }
          ],
          "internalType": "struct character_properties",
          "name": "character_props",
          "type": "tuple"
        },
        {
          "internalType": "string",
          "name": "_character_name",
          "type": "string"
        }
      ],
      "name": "_mintCharacter",
      "outputs": [],
      "stateMutability": "nonpayable",
      "type": "function"
    },
    {
      "inputs": [
        {
          "internalType": "address",
          "name": "to",
          "type": "address"
        },
        {
          "internalType": "uint256",
          "name": "tokenId",
          "type": "uint256"
        }
      ],
      "name": "approve",
      "outputs": [],
      "stateMutability": "nonpayable",
      "type": "function"
    },
    {
      "inputs": [
        {
          "internalType": "address",
          "name": "owner",
          "type": "address"
        }
      ],
      "name": "balanceOf",
      "outputs": [
        {
          "internalType": "uint256",
          "name": "",
          "type": "uint256"
        }
      ],
      "stateMutability": "view",
      "type": "function"
    },
    {
      "inputs": [
        {
          "internalType": "uint256",
          "name": "",
          "type": "uint256"
        }
      ],
      "name": "character",
      "outputs": [
        {
          "internalType": "uint32",
          "name": "character_faction",
          "type": "uint32"
        },
        {
          "internalType": "uint32",
          "name": "character_class",
          "type": "uint32"
        },
        {
          "internalType": "uint32",
          "name": "element",
          "type": "uint32"
        },
        {
          "internalType": "uint32",
          "name": "str",
          "type": "uint32"
        },
        {
          "internalType": "uint32",
          "name": "vit",
          "type": "uint32"
        },
        {
          "internalType": "uint32",
          "name": "dex",
          "type": "uint32"
        },
        {
          "internalType": "uint32",
          "name": "talent",
          "type": "uint32"
        },
        {
          "internalType": "uint32",
          "name": "exp",
          "type": "uint32"
        }
      ],
      "stateMutability": "view",
      "type": "function"
    },
    {
      "inputs": [
        {
          "internalType": "uint256",
          "name": "",
          "type": "uint256"
        }
      ],
      "name": "character_name",
      "outputs": [
        {
          "internalType": "string",
          "name": "",
          "type": "string"
        }
      ],
      "stateMutability": "view",
      "type": "function"
    },
    {
      "inputs": [
        {
          "internalType": "uint256",
          "name": "tokenId",
          "type": "uint256"
        }
      ],
      "name": "getApproved",
      "outputs": [
        {
          "internalType": "address",
          "name": "",
          "type": "address"
        }
      ],
      "stateMutability": "view",
      "type": "function"
    },
    {
      "inputs": [
        {
          "internalType": "uint256",
          "name": "character_id",
          "type": "uint256"
        }
      ],
      "name": "getCharacter",
      "outputs": [
        {
          "internalType": "string",
          "name": "char_name",
          "type": "string"
        },
        {
          "components": [
            {
              "internalType": "uint32",
              "name": "character_faction",
              "type": "uint32"
            },
            {
              "internalType": "uint32",
              "name": "character_class",
              "type": "uint32"
            },
            {
              "internalType": "uint32",
              "name": "element",
              "type": "uint32"
            },
            {
              "internalType": "uint32",
              "name": "str",
              "type": "uint32"
            },
            {
              "internalType": "uint32",
              "name": "vit",
              "type": "uint32"
            },
            {
              "internalType": "uint32",
              "name": "dex",
              "type": "uint32"
            },
            {
              "internalType": "uint32",
              "name": "talent",
              "type": "uint32"
            },
            {
              "internalType": "uint32",
              "name": "exp",
              "type": "uint32"
            }
          ],
          "internalType": "struct character_properties",
          "name": "char_props",
          "type": "tuple"
        },
        {
          "components": [
            {
              "internalType": "uint256",
              "name": "atk",
              "type": "uint256"
            },
            {
              "internalType": "uint256",
              "name": "def",
              "type": "uint256"
            },
            {
              "internalType": "uint256",
              "name": "eva",
              "type": "uint256"
            },
            {
              "internalType": "uint256",
              "name": "hp",
              "type": "uint256"
            },
            {
              "internalType": "uint256",
              "name": "pen",
              "type": "uint256"
            },
            {
              "internalType": "uint256",
              "name": "crit",
              "type": "uint256"
            },
            {
              "internalType": "uint256",
              "name": "luck",
              "type": "uint256"
            },
            {
              "internalType": "uint256",
              "name": "energy_restoration",
              "type": "uint256"
            }
          ],
          "internalType": "struct battle_stats",
          "name": "char_stats",
          "type": "tuple"
        }
      ],
      "stateMutability": "view",
      "type": "function"
    },
    {
      "inputs": [
        {
          "internalType": "address",
          "name": "owner",
          "type": "address"
        },
        {
          "internalType": "address",
          "name": "operator",
          "type": "address"
        }
      ],
      "name": "isApprovedForAll",
      "outputs": [
        {
          "internalType": "bool",
          "name": "",
          "type": "bool"
        }
      ],
      "stateMutability": "view",
      "type": "function"
    },
    {
      "inputs": [
        {
          "internalType": "address",
          "name": "_owner",
          "type": "address"
        },
        {
          "internalType": "uint256",
          "name": "_character",
          "type": "uint256"
        }
      ],
      "name": "isOwner",
      "outputs": [
        {
          "internalType": "bool",
          "name": "",
          "type": "bool"
        }
      ],
      "stateMutability": "view",
      "type": "function"
    },
    {
      "inputs": [],
      "name": "name",
      "outputs": [
        {
          "internalType": "string",
          "name": "",
          "type": "string"
        }
      ],
      "stateMutability": "view",
      "type": "function"
    },
    {
      "inputs": [],
      "name": "owner",
      "outputs": [
        {
          "internalType": "address",
          "name": "",
          "type": "address"
        }
      ],
      "stateMutability": "view",
      "type": "function"
    },
    {
      "inputs": [
        {
          "internalType": "uint256",
          "name": "tokenId",
          "type": "uint256"
        }
      ],
      "name": "ownerOf",
      "outputs": [
        {
          "internalType": "address",
          "name": "",
          "type": "address"
        }
      ],
      "stateMutability": "view",
      "type": "function"
    },
    {
      "inputs": [
        {
          "internalType": "uint256",
          "name": "tokenId",
          "type": "uint256"
        },
        {
          "internalType": "string",
          "name": "new_name",
          "type": "string"
        }
      ],
      "name": "renameCharacter",
      "outputs": [],
      "stateMutability": "nonpayable",
      "type": "function"
    },
    {
      "inputs": [],
      "name": "renounceOwnership",
      "outputs": [],
      "stateMutability": "nonpayable",
      "type": "function"
    },
    {
      "inputs": [
        {
          "internalType": "address",
          "name": "from",
          "type": "address"
        },
        {
          "internalType": "address",
          "name": "to",
          "type": "address"
        },
        {
          "internalType": "uint256",
          "name": "tokenId",
          "type": "uint256"
        }
      ],
      "name": "safeTransferFrom",
      "outputs": [],
      "stateMutability": "nonpayable",
      "type": "function"
    },
    {
      "inputs": [
        {
          "internalType": "address",
          "name": "from",
          "type": "address"
        },
        {
          "internalType": "address",
          "name": "to",
          "type": "address"
        },
        {
          "internalType": "uint256",
          "name": "tokenId",
          "type": "uint256"
        },
        {
          "internalType": "bytes",
          "name": "data",
          "type": "bytes"
        }
      ],
      "name": "safeTransferFrom",
      "outputs": [],
      "stateMutability": "nonpayable",
      "type": "function"
    },
    {
      "inputs": [
        {
          "internalType": "address",
          "name": "operator",
          "type": "address"
        },
        {
          "internalType": "bool",
          "name": "approved",
          "type": "bool"
        }
      ],
      "name": "setApprovalForAll",
      "outputs": [],
      "stateMutability": "nonpayable",
      "type": "function"
    },
    {
      "inputs": [
        {
          "internalType": "address",
          "name": "dungeonAddress",
          "type": "address"
        }
      ],
      "name": "setDungeon",
      "outputs": [],
      "stateMutability": "nonpayable",
      "type": "function"
    },
    {
      "inputs": [
        {
          "internalType": "address",
          "name": "managerAddress",
          "type": "address"
        }
      ],
      "name": "setEquipmentManager",
      "outputs": [],
      "stateMutability": "nonpayable",
      "type": "function"
    },
    {
      "inputs": [
        {
          "internalType": "address",
          "name": "minterAddress",
          "type": "address"
        }
      ],
      "name": "setMinter",
      "outputs": [],
      "stateMutability": "nonpayable",
      "type": "function"
    },
    {
      "inputs": [
        {
          "internalType": "address",
          "name": "uriConstructorAddress",
          "type": "address"
        }
      ],
      "name": "setUriConstructor",
      "outputs": [],
      "stateMutability": "nonpayable",
      "type": "function"
    },
    {
      "inputs": [
        {
          "internalType": "bytes4",
          "name": "interfaceId",
          "type": "bytes4"
        }
      ],
      "name": "supportsInterface",
      "outputs": [
        {
          "internalType": "bool",
          "name": "",
          "type": "bool"
        }
      ],
      "stateMutability": "view",
      "type": "function"
    },
    {
      "inputs": [],
      "name": "symbol",
      "outputs": [
        {
          "internalType": "string",
          "name": "",
          "type": "string"
        }
      ],
      "stateMutability": "view",
      "type": "function"
    },
    {
      "inputs": [
        {
          "internalType": "uint256",
          "name": "index",
          "type": "uint256"
        }
      ],
      "name": "tokenByIndex",
      "outputs": [
        {
          "internalType": "uint256",
          "name": "",
          "type": "uint256"
        }
      ],
      "stateMutability": "view",
      "type": "function"
    },
    {
      "inputs": [
        {
          "internalType": "address",
          "name": "owner",
          "type": "address"
        },
        {
          "internalType": "uint256",
          "name": "index",
          "type": "uint256"
        }
      ],
      "name": "tokenOfOwnerByIndex",
      "outputs": [
        {
          "internalType": "uint256",
          "name": "",
          "type": "uint256"
        }
      ],
      "stateMutability": "view",
      "type": "function"
    },
    {
      "inputs": [
        {
          "internalType": "uint256",
          "name": "tokenId",
          "type": "uint256"
        }
      ],
      "name": "tokenURI",
      "outputs": [
        {
          "internalType": "string",
          "name": "tokenURIString",
          "type": "string"
        }
      ],
      "stateMutability": "view",
      "type": "function"
    },
    {
      "inputs": [],
      "name": "totalSupply",
      "outputs": [
        {
          "internalType": "uint256",
          "name": "",
          "type": "uint256"
        }
      ],
      "stateMutability": "view",
      "type": "function"
    },
    {
      "inputs": [
        {
          "internalType": "address",
          "name": "from",
          "type": "address"
        },
        {
          "internalType": "address",
          "name": "to",
          "type": "address"
        },
        {
          "internalType": "uint256",
          "name": "tokenId",
          "type": "uint256"
        }
      ],
      "name": "transferFrom",
      "outputs": [],
      "stateMutability": "nonpayable",
      "type": "function"
    },
    {
      "inputs": [
        {
          "internalType": "address",
          "name": "newOwner",
          "type": "address"
        }
      ],
      "name": "transferOwnership",
      "outputs": [],
      "stateMutability": "nonpayable",
      "type": "function"
    },
    {
      "inputs": [
        {
          "internalType": "uint256",
          "name": "tokenId",
          "type": "uint256"
        },
        {
          "components": [
            {
              "internalType": "uint32",
              "name": "character_faction",
              "type": "uint32"
            },
            {
              "internalType": "uint32",
              "name": "character_class",
              "type": "uint32"
            },
            {
              "internalType": "uint32",
              "name": "element",
              "type": "uint32"
            },
            {
              "internalType": "uint32",
              "name": "str",
              "type": "uint32"
            },
            {
              "internalType": "uint32",
              "name": "vit",
              "type": "uint32"
            },
            {
              "internalType": "uint32",
              "name": "dex",
              "type": "uint32"
            },
            {
              "internalType": "uint32",
              "name": "talent",
              "type": "uint32"
            },
            {
              "internalType": "uint32",
              "name": "exp",
              "type": "uint32"
            }
          ],
          "internalType": "struct character_properties",
          "name": "updated_props",
          "type": "tuple"
        }
      ],
      "name": "updateCharacter",
      "outputs": [],
      "stateMutability": "nonpayable",
      "type": "function"
    }
  ],
  "bytecode": "0x60806040523480156200001157600080fd5b506040518060400160405280600a81526020017f43686172616374657273000000000000000000000000000000000000000000008152506040518060400160405280600481526020017f435452530000000000000000000000000000000000000000000000000000000081525081600090816200008f919062000412565b508060019081620000a1919062000412565b505050620000c4620000b8620000ca60201b60201c565b620000d260201b60201c565b620004f9565b600033905090565b6000600a60009054906101000a900473ffffffffffffffffffffffffffffffffffffffff16905081600a60006101000a81548173ffffffffffffffffffffffffffffffffffffffff021916908373ffffffffffffffffffffffffffffffffffffffff1602179055508173ffffffffffffffffffffffffffffffffffffffff168173ffffffffffffffffffffffffffffffffffffffff167f8be0079c531659141344cd1fd0a4f28419497f9722a3daafe3b4186f6b6457e060405160405180910390a35050565b600081519050919050565b7f4e487b7100000000000000000000000000000000000000000000000000000000600052604160045260246000fd5b7f4e487b7100000000000000000000000000000000000000000000000000000000600052602260045260246000fd5b600060028204905060018216806200021a57607f821691505b60208210810362000230576200022f620001d2565b5b50919050565b60008190508160005260206000209050919050565b60006020601f8301049050919050565b600082821b905092915050565b6000600883026200029a7fffffffffffffffffffffffffffffffffffffffffffffffffffffffffffffffff826200025b565b620002a686836200025b565b95508019841693508086168417925050509392505050565b6000819050919050565b6000819050919050565b6000620002f3620002ed620002e784620002be565b620002c8565b620002be565b9050919050565b6000819050919050565b6200030f83620002d2565b620003276200031e82620002fa565b84845462000268565b825550505050565b600090565b6200033e6200032f565b6200034b81848462000304565b505050565b5b8181101562000373576200036760008262000334565b60018101905062000351565b5050565b601f821115620003c2576200038c8162000236565b62000397846200024b565b81016020851015620003a7578190505b620003bf620003b6856200024b565b83018262000350565b50505b505050565b600082821c905092915050565b6000620003e760001984600802620003c7565b1980831691505092915050565b6000620004028383620003d4565b9150826002028217905092915050565b6200041d8262000198565b67ffffffffffffffff811115620004395762000438620001a3565b5b62000445825462000201565b6200045282828562000377565b600060209050601f8311600181146200048a576000841562000475578287015190505b620004818582620003f4565b865550620004f1565b601f1984166200049a8662000236565b60005b82811015620004c4578489015182556001820191506020850194506020810190506200049d565b86831015620004e45784890151620004e0601f891682620003d4565b8355505b6001600288020188555050505b505050505050565b61585f80620005096000396000f3fe608060405234801561001057600080fd5b50600436106101da5760003560e01c806373412e1c11610104578063b5ffc819116100a2578063e327a6af11610071578063e327a6af1461057e578063e985e9c5146105ae578063f2fde38b146105de578063fca3b5aa146105fa576101da565b8063b5ffc819146104e4578063b88d4fde14610500578063c87b56dd1461051c578063dabb05311461054c576101da565b80638da5cb5b116100de5780638da5cb5b1461047057806395d89b411461048e578063a22cb465146104ac578063ae0b1ea8146104c8576101da565b806373412e1c146104085780637e9fe963146104245780638d3bef3e14610454576101da565b80632f745c591161017c5780634f6ccce71161014b5780634f6ccce71461036e5780636352211e1461039e57806370a08231146103ce578063715018a6146103fe576101da565b80632f745c59146102cf57806342842e0e146102ff578063430c45321461031b578063468f25b014610337576101da565b8063095ea7b3116101b8578063095ea7b31461025d5780630dffcd851461027957806318160ddd1461029557806323b872dd146102b3576101da565b806301ffc9a7146101df57806306fdde031461020f578063081812fc1461022d575b600080fd5b6101f960048036038101906101f491906138ef565b610616565b6040516102069190613937565b60405180910390f35b610217610628565b60405161022491906139e2565b60405180910390f35b61024760048036038101906102429190613a3a565b6106ba565b6040516102549190613aa8565b60405180910390f35b61027760048036038101906102729190613aef565b610700565b005b610293600480360381019061028e9190613d6f565b610817565b005b61029d610a90565b6040516102aa9190613def565b60405180910390f35b6102cd60048036038101906102c89190613e0a565b610a9d565b005b6102e960048036038101906102e49190613aef565b610afd565b6040516102f69190613def565b60405180910390f35b61031960048036038101906103149190613e0a565b610ba2565b005b61033560048036038101906103309190613e5d565b610bc2565b005b610351600480360381019061034c9190613a3a565b610c0e565b604051610365989796959493929190613e99565b60405180910390f35b61038860048036038101906103839190613a3a565b610cd6565b6040516103959190613def565b60405180910390f35b6103b860048036038101906103b39190613a3a565b610d47565b6040516103c59190613aa8565b60405180910390f35b6103e860048036038101906103e39190613e5d565b610df8565b6040516103f59190613def565b60405180910390f35b610406610eaf565b005b610422600480360381019061041d9190613e5d565b610ec3565b005b61043e60048036038101906104399190613a3a565b610f0f565b60405161044b91906139e2565b60405180910390f35b61046e60048036038101906104699190613f17565b610faf565b005b610478611194565b6040516104859190613aa8565b60405180910390f35b6104966111be565b6040516104a391906139e2565b60405180910390f35b6104c660048036038101906104c19190613f84565b611250565b005b6104e260048036038101906104dd9190613e5d565b611266565b005b6104fe60048036038101906104f99190613fc4565b6112b2565b005b61051a600480360381019061051591906140c1565b611358565b005b61053660048036038101906105319190613a3a565b6113ba565b60405161054391906139e2565b60405180910390f35b61056660048036038101906105619190613a3a565b6116d6565b604051610575939291906142a6565b60405180910390f35b61059860048036038101906105939190613aef565b6118e9565b6040516105a59190613937565b60405180910390f35b6105c860048036038101906105c391906142e6565b6118fd565b6040516105d59190613937565b60405180910390f35b6105f860048036038101906105f39190613e5d565b611991565b005b610614600480360381019061060f9190613e5d565b611a14565b005b600061062182611a60565b9050919050565b60606000805461063790614355565b80601f016020809104026020016040519081016040528092919081815260200182805461066390614355565b80156106b05780601f10610685576101008083540402835291602001916106b0565b820191906000526020600020905b81548152906001019060200180831161069357829003601f168201915b5050505050905090565b60006106c582611ada565b6004600083815260200190815260200160002060009054906101000a900473ffffffffffffffffffffffffffffffffffffffff169050919050565b600061070b82610d47565b90508073ffffffffffffffffffffffffffffffffffffffff168373ffffffffffffffffffffffffffffffffffffffff160361077b576040517f08c379a0000000000000000000000000000000000000000000000000000000008152600401610772906143f8565b60405180910390fd5b8073ffffffffffffffffffffffffffffffffffffffff1661079a611b25565b73ffffffffffffffffffffffffffffffffffffffff1614806107c957506107c8816107c3611b25565b6118fd565b5b610808576040517f08c379a00000000000000000000000000000000000000000000000000000000081526004016107ff9061448a565b60405180910390fd5b6108128383611b2d565b505050565b601060009054906101000a900473ffffffffffffffffffffffffffffffffffffffff1673ffffffffffffffffffffffffffffffffffffffff163373ffffffffffffffffffffffffffffffffffffffff161461087157600080fd5b61087b600b611be6565b81600e600061088a600b611bfc565b815260200190815260200160002060008201518160000160006101000a81548163ffffffff021916908363ffffffff16021790555060208201518160000160046101000a81548163ffffffff021916908363ffffffff16021790555060408201518160000160086101000a81548163ffffffff021916908363ffffffff160217905550606082015181600001600c6101000a81548163ffffffff021916908363ffffffff16021790555060808201518160000160106101000a81548163ffffffff021916908363ffffffff16021790555060a08201518160000160146101000a81548163ffffffff021916908363ffffffff16021790555060c08201518160000160186101000a81548163ffffffff021916908363ffffffff16021790555060e082015181600001601c6101000a81548163ffffffff021916908363ffffffff16021790555090505080600f60006109e2600b611bfc565b815260200190815260200160002090816109fc9190614656565b50610a1083610a0b600b611bfc565b611c0a565b610a1a600b611bfc565b7f4d8e7234eb0fcf2f4c4de31348bbeb94e61ba9ed00fb8edff48c05a2d2e0154684600f6000610a4a600b611bfc565b8152602001908152602001600020600e6000610a66600b611bfc565b8152602001908152602001600020604051610a83939291906149bf565b60405180910390a2505050565b6000600880549050905090565b610aae610aa8611b25565b82611de3565b610aed576040517f08c379a0000000000000000000000000000000000000000000000000000000008152600401610ae490614a70565b60405180910390fd5b610af8838383611e78565b505050565b6000610b0883610df8565b8210610b49576040517f08c379a0000000000000000000000000000000000000000000000000000000008152600401610b4090614b02565b60405180910390fd5b600660008473ffffffffffffffffffffffffffffffffffffffff1673ffffffffffffffffffffffffffffffffffffffff168152602001908152602001600020600083815260200190815260200160002054905092915050565b610bbd83838360405180602001604052806000815250611358565b505050565b610bca6120de565b80601160006101000a81548173ffffffffffffffffffffffffffffffffffffffff021916908373ffffffffffffffffffffffffffffffffffffffff16021790555050565b600e6020528060005260406000206000915090508060000160009054906101000a900463ffffffff16908060000160049054906101000a900463ffffffff16908060000160089054906101000a900463ffffffff169080600001600c9054906101000a900463ffffffff16908060000160109054906101000a900463ffffffff16908060000160149054906101000a900463ffffffff16908060000160189054906101000a900463ffffffff169080600001601c9054906101000a900463ffffffff16905088565b6000610ce0610a90565b8210610d21576040517f08c379a0000000000000000000000000000000000000000000000000000000008152600401610d1890614b94565b60405180910390fd5b60088281548110610d3557610d34614bb4565b5b90600052602060002001549050919050565b6000806002600084815260200190815260200160002060009054906101000a900473ffffffffffffffffffffffffffffffffffffffff169050600073ffffffffffffffffffffffffffffffffffffffff168173ffffffffffffffffffffffffffffffffffffffff1603610def576040517f08c379a0000000000000000000000000000000000000000000000000000000008152600401610de690614c2f565b60405180910390fd5b80915050919050565b60008073ffffffffffffffffffffffffffffffffffffffff168273ffffffffffffffffffffffffffffffffffffffff1603610e68576040517f08c379a0000000000000000000000000000000000000000000000000000000008152600401610e5f90614cc1565b60405180910390fd5b600360008373ffffffffffffffffffffffffffffffffffffffff1673ffffffffffffffffffffffffffffffffffffffff168152602001908152602001600020549050919050565b610eb76120de565b610ec1600061215c565b565b610ecb6120de565b80600d60006101000a81548173ffffffffffffffffffffffffffffffffffffffff021916908373ffffffffffffffffffffffffffffffffffffffff16021790555050565b600f6020528060005260406000206000915090508054610f2e90614355565b80601f0160208091040260200160405190810160405280929190818152602001828054610f5a90614355565b8015610fa75780601f10610f7c57610100808354040283529160200191610fa7565b820191906000526020600020905b815481529060010190602001808311610f8a57829003601f168201915b505050505081565b601160009054906101000a900473ffffffffffffffffffffffffffffffffffffffff1673ffffffffffffffffffffffffffffffffffffffff163373ffffffffffffffffffffffffffffffffffffffff161461100957600080fd5b80600e600084815260200190815260200160002060008201518160000160006101000a81548163ffffffff021916908363ffffffff16021790555060208201518160000160046101000a81548163ffffffff021916908363ffffffff16021790555060408201518160000160086101000a81548163ffffffff021916908363ffffffff160217905550606082015181600001600c6101000a81548163ffffffff021916908363ffffffff16021790555060808201518160000160106101000a81548163ffffffff021916908363ffffffff16021790555060a08201518160000160146101000a81548163ffffffff021916908363ffffffff16021790555060c08201518160000160186101000a81548163ffffffff021916908363ffffffff16021790555060e082015181600001601c6101000a81548163ffffffff021916908363ffffffff160217905550905050817f9c7e2034baf5e11b7306c43be1f00b58ece4975a6e1eed1b95e471457a47a524826040516111889190614ce1565b60405180910390a25050565b6000600a60009054906101000a900473ffffffffffffffffffffffffffffffffffffffff16905090565b6060600180546111cd90614355565b80601f01602080910402602001604051908101604052809291908181526020018280546111f990614355565b80156112465780601f1061121b57610100808354040283529160200191611246565b820191906000526020600020905b81548152906001019060200180831161122957829003601f168201915b5050505050905090565b61126261125b611b25565b8383612222565b5050565b61126e6120de565b80600c60006101000a81548173ffffffffffffffffffffffffffffffffffffffff021916908373ffffffffffffffffffffffffffffffffffffffff16021790555050565b6112bc33836118e9565b6112fb576040517f08c379a00000000000000000000000000000000000000000000000000000000081526004016112f290614d6f565b60405180910390fd5b80600f6000848152602001908152602001600020908161131b9190614656565b50817f459d865fdd8f6e2100a04e04f89593b66221232d3a0cb3c0cb984344057a60998260405161134c91906139e2565b60405180910390a25050565b611369611363611b25565b83611de3565b6113a8576040517f08c379a000000000000000000000000000000000000000000000000000000000815260040161139f90614a70565b60405180910390fd5b6113b48484848461238e565b50505050565b60606113c5826123ea565b611404576040517f08c379a00000000000000000000000000000000000000000000000000000000081526004016113fb90614ddb565b60405180910390fd5b6000600e6000848152602001908152602001600020604051806101000160405290816000820160009054906101000a900463ffffffff1663ffffffff1663ffffffff1681526020016000820160049054906101000a900463ffffffff1663ffffffff1663ffffffff1681526020016000820160089054906101000a900463ffffffff1663ffffffff1663ffffffff16815260200160008201600c9054906101000a900463ffffffff1663ffffffff1663ffffffff1681526020016000820160109054906101000a900463ffffffff1663ffffffff1663ffffffff1681526020016000820160149054906101000a900463ffffffff1663ffffffff1663ffffffff1681526020016000820160189054906101000a900463ffffffff1663ffffffff1663ffffffff16815260200160008201601c9054906101000a900463ffffffff1663ffffffff1663ffffffff168152505090506000611570826000015183602001518460c00151612456565b9050600f6000858152602001908152602001600020805461159090614355565b80601f01602080910402602001604051908101604052809291908181526020018280546115bc90614355565b80156116095780601f106115de57610100808354040283529160200191611609565b820191906000526020600020905b8154815290600101906020018083116115ec57829003601f168201915b50505050508160000181905250600d60009054906101000a900473ffffffffffffffffffffffffffffffffffffffff1673ffffffffffffffffffffffffffffffffffffffff1663478427168383600f60008981526020019081526020016000206040518463ffffffff1660e01b815260040161168793929190614f0b565b600060405180830381865afa1580156116a4573d6000803e3d6000fd5b505050506040513d6000823e3d601f19601f820116820180604052508101906116cd9190614fc3565b92505050919050565b60606116e061378c565b6116e8613801565b600f6000858152602001908152602001600020805461170690614355565b80601f016020809104026020016040519081016040528092919081815260200182805461173290614355565b801561177f5780601f106117545761010080835404028352916020019161177f565b820191906000526020600020905b81548152906001019060200180831161176257829003601f168201915b50505050509250600e6000858152602001908152602001600020604051806101000160405290816000820160009054906101000a900463ffffffff1663ffffffff1663ffffffff1681526020016000820160049054906101000a900463ffffffff1663ffffffff1663ffffffff1681526020016000820160089054906101000a900463ffffffff1663ffffffff1663ffffffff16815260200160008201600c9054906101000a900463ffffffff1663ffffffff1663ffffffff1681526020016000820160109054906101000a900463ffffffff1663ffffffff1663ffffffff1681526020016000820160149054906101000a900463ffffffff1663ffffffff1663ffffffff1681526020016000820160189054906101000a900463ffffffff1663ffffffff1663ffffffff16815260200160008201601c9054906101000a900463ffffffff1663ffffffff1663ffffffff168152505091506118e08261250c565b90509193909250565b60006118f58383611de3565b905092915050565b6000600560008473ffffffffffffffffffffffffffffffffffffffff1673ffffffffffffffffffffffffffffffffffffffff16815260200190815260200160002060008373ffffffffffffffffffffffffffffffffffffffff1673ffffffffffffffffffffffffffffffffffffffff16815260200190815260200160002060009054906101000a900460ff16905092915050565b6119996120de565b600073ffffffffffffffffffffffffffffffffffffffff168173ffffffffffffffffffffffffffffffffffffffff1603611a08576040517f08c379a00000000000000000000000000000000000000000000000000000000081526004016119ff9061507e565b60405180910390fd5b611a118161215c565b50565b611a1c6120de565b80601060006101000a81548173ffffffffffffffffffffffffffffffffffffffff021916908373ffffffffffffffffffffffffffffffffffffffff16021790555050565b60007f780e9d63000000000000000000000000000000000000000000000000000000007bffffffffffffffffffffffffffffffffffffffffffffffffffffffff1916827bffffffffffffffffffffffffffffffffffffffffffffffffffffffff19161480611ad35750611ad282612595565b5b9050919050565b611ae3816123ea565b611b22576040517f08c379a0000000000000000000000000000000000000000000000000000000008152600401611b1990614c2f565b60405180910390fd5b50565b600033905090565b816004600083815260200190815260200160002060006101000a81548173ffffffffffffffffffffffffffffffffffffffff021916908373ffffffffffffffffffffffffffffffffffffffff160217905550808273ffffffffffffffffffffffffffffffffffffffff16611ba083610d47565b73ffffffffffffffffffffffffffffffffffffffff167f8c5be1e5ebec7d5bd14f71427d1e84f3dd0314c0f7b2291e5b200ac8c7c3b92560405160405180910390a45050565b6001816000016000828254019250508190555050565b600081600001549050919050565b600073ffffffffffffffffffffffffffffffffffffffff168273ffffffffffffffffffffffffffffffffffffffff1603611c79576040517f08c379a0000000000000000000000000000000000000000000000000000000008152600401611c70906150ea565b60405180910390fd5b611c82816123ea565b15611cc2576040517f08c379a0000000000000000000000000000000000000000000000000000000008152600401611cb990615156565b60405180910390fd5b611cce60008383612677565b6001600360008473ffffffffffffffffffffffffffffffffffffffff1673ffffffffffffffffffffffffffffffffffffffff1681526020019081526020016000206000828254611d1e91906151a5565b92505081905550816002600083815260200190815260200160002060006101000a81548173ffffffffffffffffffffffffffffffffffffffff021916908373ffffffffffffffffffffffffffffffffffffffff160217905550808273ffffffffffffffffffffffffffffffffffffffff16600073ffffffffffffffffffffffffffffffffffffffff167fddf252ad1be2c89b69c2b068fc378daa952ba7f163c4a11628f55a4df523b3ef60405160405180910390a4611ddf60008383612749565b5050565b600080611def83610d47565b90508073ffffffffffffffffffffffffffffffffffffffff168473ffffffffffffffffffffffffffffffffffffffff161480611e315750611e3081856118fd565b5b80611e6f57508373ffffffffffffffffffffffffffffffffffffffff16611e57846106ba565b73ffffffffffffffffffffffffffffffffffffffff16145b91505092915050565b8273ffffffffffffffffffffffffffffffffffffffff16611e9882610d47565b73ffffffffffffffffffffffffffffffffffffffff1614611eee576040517f08c379a0000000000000000000000000000000000000000000000000000000008152600401611ee59061524b565b60405180910390fd5b600073ffffffffffffffffffffffffffffffffffffffff168273ffffffffffffffffffffffffffffffffffffffff1603611f5d576040517f08c379a0000000000000000000000000000000000000000000000000000000008152600401611f54906152dd565b60405180910390fd5b611f68838383612677565b611f73600082611b2d565b6001600360008573ffffffffffffffffffffffffffffffffffffffff1673ffffffffffffffffffffffffffffffffffffffff1681526020019081526020016000206000828254611fc391906152fd565b925050819055506001600360008473ffffffffffffffffffffffffffffffffffffffff1673ffffffffffffffffffffffffffffffffffffffff168152602001908152602001600020600082825461201a91906151a5565b92505081905550816002600083815260200190815260200160002060006101000a81548173ffffffffffffffffffffffffffffffffffffffff021916908373ffffffffffffffffffffffffffffffffffffffff160217905550808273ffffffffffffffffffffffffffffffffffffffff168473ffffffffffffffffffffffffffffffffffffffff167fddf252ad1be2c89b69c2b068fc378daa952ba7f163c4a11628f55a4df523b3ef60405160405180910390a46120d9838383612749565b505050565b6120e6611b25565b73ffffffffffffffffffffffffffffffffffffffff16612104611194565b73ffffffffffffffffffffffffffffffffffffffff161461215a576040517f08c379a00000000000000000000000000000000000000000000000000000000081526004016121519061537d565b60405180910390fd5b565b6000600a60009054906101000a900473ffffffffffffffffffffffffffffffffffffffff16905081600a60006101000a81548173ffffffffffffffffffffffffffffffffffffffff021916908373ffffffffffffffffffffffffffffffffffffffff1602179055508173ffffffffffffffffffffffffffffffffffffffff168173ffffffffffffffffffffffffffffffffffffffff167f8be0079c531659141344cd1fd0a4f28419497f9722a3daafe3b4186f6b6457e060405160405180910390a35050565b8173ffffffffffffffffffffffffffffffffffffffff168373ffffffffffffffffffffffffffffffffffffffff1603612290576040517f08c379a0000000000000000000000000000000000000000000000000000000008152600401612287906153e9565b60405180910390fd5b80600560008573ffffffffffffffffffffffffffffffffffffffff1673ffffffffffffffffffffffffffffffffffffffff16815260200190815260200160002060008473ffffffffffffffffffffffffffffffffffffffff1673ffffffffffffffffffffffffffffffffffffffff16815260200190815260200160002060006101000a81548160ff0219169083151502179055508173ffffffffffffffffffffffffffffffffffffffff168373ffffffffffffffffffffffffffffffffffffffff167f17307eab39ab6107e8899845ad3d59bd9653f200f220920489ca2b5937696c31836040516123819190613937565b60405180910390a3505050565b612399848484611e78565b6123a58484848461274e565b6123e4576040517f08c379a00000000000000000000000000000000000000000000000000000000081526004016123db9061547b565b60405180910390fd5b50505050565b60008073ffffffffffffffffffffffffffffffffffffffff166002600084815260200190815260200160002060009054906101000a900473ffffffffffffffffffffffffffffffffffffffff1673ffffffffffffffffffffffffffffffffffffffff1614159050919050565b61245e613846565b60006040518060800160405280605d81526020016157cd605d91399050600080600080600061248e898b8a6128d5565b945094509450945094506040518060e001604052806040518060200160405280600081525081526020018786886040516020016124cd93929190615523565b60405160208183030381529060405281526020018581526020018681526020018481526020018381526020018281525096505050505050509392505050565b612514613801565b60405180610100016040528061252984612c91565b815260200161253784612d45565b815260200161254584612df8565b815260200161255384612eac565b815260200161256184612ef8565b815260200161256f84612f79565b815260200161257d84612ffa565b815260200161258b8461301a565b8152509050919050565b60007f80ac58cd000000000000000000000000000000000000000000000000000000007bffffffffffffffffffffffffffffffffffffffffffffffffffffffff1916827bffffffffffffffffffffffffffffffffffffffffffffffffffffffff1916148061266057507f5b5e139f000000000000000000000000000000000000000000000000000000007bffffffffffffffffffffffffffffffffffffffffffffffffffffffff1916827bffffffffffffffffffffffffffffffffffffffffffffffffffffffff1916145b80612670575061266f82613055565b5b9050919050565b600073ffffffffffffffffffffffffffffffffffffffff168373ffffffffffffffffffffffffffffffffffffffff161461273957600c60009054906101000a900473ffffffffffffffffffffffffffffffffffffffff1673ffffffffffffffffffffffffffffffffffffffff1663aeb804da826040518263ffffffff1660e01b81526004016127069190613def565b600060405180830381600087803b15801561272057600080fd5b505af1158015612734573d6000803e3d6000fd5b505050505b6127448383836130bf565b505050565b505050565b600061276f8473ffffffffffffffffffffffffffffffffffffffff166131d1565b156128c8578373ffffffffffffffffffffffffffffffffffffffff1663150b7a02612798611b25565b8786866040518563ffffffff1660e01b81526004016127ba94939291906155c7565b6020604051808303816000875af19250505080156127f657506040513d601f19601f820116820180604052508101906127f39190615628565b60015b612878573d8060008114612826576040519150601f19603f3d011682016040523d82523d6000602084013e61282b565b606091505b506000815103612870576040517f08c379a00000000000000000000000000000000000000000000000000000000081526004016128679061547b565b60405180910390fd5b805181602001fd5b63150b7a0260e01b7bffffffffffffffffffffffffffffffffffffffffffffffffffffffff1916817bffffffffffffffffffffffffffffffffffffffffffffffffffffffff1916149150506128cd565b600190505b949350505050565b606080606080606060008863ffffffff1603612994576040518060400160405280600481526020017f54616e6b0000000000000000000000000000000000000000000000000000000081525094506040518060400160405280600a81526020017f54616e6b2028444546290000000000000000000000000000000000000000000081525092506040518060400160405280600281526020017f313000000000000000000000000000000000000000000000000000000000000081525091505b60018863ffffffff1603612a4b576040518060400160405280600781526020017f466967687465720000000000000000000000000000000000000000000000000081525094506040518060400160405280600d81526020017f46696768746572202841544b290000000000000000000000000000000000000081525092506040518060400160405280600181526020017f350000000000000000000000000000000000000000000000000000000000000081525091505b60028863ffffffff1603612b02576040518060400160405280600481526020017f4d6167650000000000000000000000000000000000000000000000000000000081525094506040518060400160405280600a81526020017f4d616765202850454e290000000000000000000000000000000000000000000081525092506040518060400160405280600281526020017f313000000000000000000000000000000000000000000000000000000000000081525091505b60038863ffffffff1603612bb9576040518060400160405280600981526020017f4265727365726b6572000000000000000000000000000000000000000000000081525094506040518060400160405280601081526020017f4265727365726b6572202843524954290000000000000000000000000000000081525092506040518060400160405280600281526020017f313000000000000000000000000000000000000000000000000000000000000081525091505b60048863ffffffff1603612c70576040518060400160405280600681526020017f52616e676572000000000000000000000000000000000000000000000000000081525094506040518060400160405280600c81526020017f52616e676572202845564129000000000000000000000000000000000000000081525092506040518060400160405280600281526020017f313000000000000000000000000000000000000000000000000000000000000081525091505b612c79876131f4565b9350612c8486613317565b9050939792965093509350565b60006004600a60048460a00151612ca89190615655565b60068560600151612cb99190615655565b612cc39190615692565b612ccd91906156f9565b612cd791906156f9565b63ffffffff16905060006001836020015163ffffffff1603612cf857600590505b60018360c0015163ffffffff1603612d1a57600581612d1791906151a5565b90505b60648183612d28919061572a565b612d32919061576c565b82612d3d91906151a5565b915050919050565b60006002600a60048460600151612d5c9190615655565b60068560800151612d6d9190615655565b612d779190615692565b612d8191906156f9565b612d8b91906156f9565b63ffffffff169050600080836020015163ffffffff1603612dab57600a90505b60008360c0015163ffffffff1603612dcd57600a81612dca91906151a5565b90505b60648183612ddb919061572a565b612de5919061576c565b82612df091906151a5565b915050919050565b60006002600a60048460800151612e0f9190615655565b60068560a00151612e209190615655565b612e2a9190615692565b612e3491906156f9565b612e3e91906156f9565b63ffffffff16905060006004836020015163ffffffff1603612e5f57600a90505b60048360c0015163ffffffff1603612e8157600a81612e7e91906151a5565b90505b60648183612e8f919061572a565b612e99919061576c565b82612ea491906151a5565b915050919050565b600060058260800151612ebf9190615655565b63ffffffff16905060006001905060648183612edb919061572a565b612ee5919061576c565b82612ef091906151a5565b915050919050565b600060028260600151612f0b91906156f9565b63ffffffff16905060006002836020015163ffffffff1603612f2c57600a90505b60028360c0015163ffffffff1603612f4e57600a81612f4b91906151a5565b90505b60648183612f5c919061572a565b612f66919061576c565b82612f7191906151a5565b915050919050565b600060028260a00151612f8c91906156f9565b63ffffffff16905060006003836020015163ffffffff1603612fad57600a90505b60038360c0015163ffffffff1603612fcf57600a81612fcc91906151a5565b90505b60648183612fdd919061572a565b612fe7919061576c565b82612ff291906151a5565b915050919050565b6000600a8260a0015161300d91906156f9565b63ffffffff169050919050565b6000600a6002836060015184608001516130349190615692565b61303e91906156f9565b61304891906156f9565b63ffffffff169050919050565b60007f01ffc9a7000000000000000000000000000000000000000000000000000000007bffffffffffffffffffffffffffffffffffffffffffffffffffffffff1916827bffffffffffffffffffffffffffffffffffffffffffffffffffffffff1916149050919050565b6130ca838383613481565b600073ffffffffffffffffffffffffffffffffffffffff168373ffffffffffffffffffffffffffffffffffffffff160361310c5761310781613486565b61314b565b8173ffffffffffffffffffffffffffffffffffffffff168373ffffffffffffffffffffffffffffffffffffffff161461314a5761314983826134cf565b5b5b600073ffffffffffffffffffffffffffffffffffffffff168273ffffffffffffffffffffffffffffffffffffffff160361318d576131888161363c565b6131cc565b8273ffffffffffffffffffffffffffffffffffffffff168273ffffffffffffffffffffffffffffffffffffffff16146131cb576131ca828261370d565b5b5b505050565b6000808273ffffffffffffffffffffffffffffffffffffffff163b119050919050565b606060008263ffffffff160361323d576040518060400160405280600781526020017f446574657272610000000000000000000000000000000000000000000000000081525090505b60018263ffffffff1603613284576040518060400160405280600781526020017f52616d656c616e0000000000000000000000000000000000000000000000000081525090505b60028263ffffffff16036132cb576040518060400160405280600681526020017f536b6f75726f000000000000000000000000000000000000000000000000000081525090505b60038263ffffffff1603613312576040518060400160405280600881526020017f54686f7269796f6e00000000000000000000000000000000000000000000000081525090505b919050565b606060008263ffffffff1603613360576040518060400160405280600281526020017f313000000000000000000000000000000000000000000000000000000000000081525090505b60018263ffffffff16036133a7576040518060400160405280600181526020017f350000000000000000000000000000000000000000000000000000000000000081525090505b60028263ffffffff16036133ee576040518060400160405280600281526020017f313000000000000000000000000000000000000000000000000000000000000081525090505b60038263ffffffff1603613435576040518060400160405280600281526020017f313000000000000000000000000000000000000000000000000000000000000081525090505b60048263ffffffff160361347c576040518060400160405280600281526020017f313000000000000000000000000000000000000000000000000000000000000081525090505b919050565b505050565b6008805490506009600083815260200190815260200160002081905550600881908060018154018082558091505060019003906000526020600020016000909190919091505550565b600060016134dc84610df8565b6134e691906152fd565b90506000600760008481526020019081526020016000205490508181146135cb576000600660008673ffffffffffffffffffffffffffffffffffffffff1673ffffffffffffffffffffffffffffffffffffffff168152602001908152602001600020600084815260200190815260200160002054905080600660008773ffffffffffffffffffffffffffffffffffffffff1673ffffffffffffffffffffffffffffffffffffffff168152602001908152602001600020600084815260200190815260200160002081905550816007600083815260200190815260200160002081905550505b6007600084815260200190815260200160002060009055600660008573ffffffffffffffffffffffffffffffffffffffff1673ffffffffffffffffffffffffffffffffffffffff16815260200190815260200160002060008381526020019081526020016000206000905550505050565b6000600160088054905061365091906152fd565b90506000600960008481526020019081526020016000205490506000600883815481106136805761367f614bb4565b5b9060005260206000200154905080600883815481106136a2576136a1614bb4565b5b9060005260206000200181905550816009600083815260200190815260200160002081905550600960008581526020019081526020016000206000905560088054806136f1576136f061579d565b5b6001900381819060005260206000200160009055905550505050565b600061371883610df8565b905081600660008573ffffffffffffffffffffffffffffffffffffffff1673ffffffffffffffffffffffffffffffffffffffff168152602001908152602001600020600083815260200190815260200160002081905550806007600084815260200190815260200160002081905550505050565b604051806101000160405280600063ffffffff168152602001600063ffffffff168152602001600063ffffffff168152602001600063ffffffff168152602001600063ffffffff168152602001600063ffffffff168152602001600063ffffffff168152602001600063ffffffff1681525090565b60405180610100016040528060008152602001600081526020016000815260200160008152602001600081526020016000815260200160008152602001600081525090565b6040518060e00160405280606081526020016060815260200160608152602001606081526020016060815260200160608152602001606081525090565b6000604051905090565b600080fd5b600080fd5b60007fffffffff0000000000000000000000000000000000000000000000000000000082169050919050565b6138cc81613897565b81146138d757600080fd5b50565b6000813590506138e9816138c3565b92915050565b6000602082840312156139055761390461388d565b5b6000613913848285016138da565b91505092915050565b60008115159050919050565b6139318161391c565b82525050565b600060208201905061394c6000830184613928565b92915050565b600081519050919050565b600082825260208201905092915050565b60005b8381101561398c578082015181840152602081019050613971565b60008484015250505050565b6000601f19601f8301169050919050565b60006139b482613952565b6139be818561395d565b93506139ce81856020860161396e565b6139d781613998565b840191505092915050565b600060208201905081810360008301526139fc81846139a9565b905092915050565b6000819050919050565b613a1781613a04565b8114613a2257600080fd5b50565b600081359050613a3481613a0e565b92915050565b600060208284031215613a5057613a4f61388d565b5b6000613a5e84828501613a25565b91505092915050565b600073ffffffffffffffffffffffffffffffffffffffff82169050919050565b6000613a9282613a67565b9050919050565b613aa281613a87565b82525050565b6000602082019050613abd6000830184613a99565b92915050565b613acc81613a87565b8114613ad757600080fd5b50565b600081359050613ae981613ac3565b92915050565b60008060408385031215613b0657613b0561388d565b5b6000613b1485828601613ada565b9250506020613b2585828601613a25565b9150509250929050565b600080fd5b7f4e487b7100000000000000000000000000000000000000000000000000000000600052604160045260246000fd5b613b6c82613998565b810181811067ffffffffffffffff82111715613b8b57613b8a613b34565b5b80604052505050565b6000613b9e613883565b9050613baa8282613b63565b919050565b600063ffffffff82169050919050565b613bc881613baf565b8114613bd357600080fd5b50565b600081359050613be581613bbf565b92915050565b60006101008284031215613c0257613c01613b2f565b5b613c0d610100613b94565b90506000613c1d84828501613bd6565b6000830152506020613c3184828501613bd6565b6020830152506040613c4584828501613bd6565b6040830152506060613c5984828501613bd6565b6060830152506080613c6d84828501613bd6565b60808301525060a0613c8184828501613bd6565b60a08301525060c0613c9584828501613bd6565b60c08301525060e0613ca984828501613bd6565b60e08301525092915050565b600080fd5b600080fd5b600067ffffffffffffffff821115613cda57613cd9613b34565b5b613ce382613998565b9050602081019050919050565b82818337600083830152505050565b6000613d12613d0d84613cbf565b613b94565b905082815260208101848484011115613d2e57613d2d613cba565b5b613d39848285613cf0565b509392505050565b600082601f830112613d5657613d55613cb5565b5b8135613d66848260208601613cff565b91505092915050565b60008060006101408486031215613d8957613d8861388d565b5b6000613d9786828701613ada565b9350506020613da886828701613beb565b92505061012084013567ffffffffffffffff811115613dca57613dc9613892565b5b613dd686828701613d41565b9150509250925092565b613de981613a04565b82525050565b6000602082019050613e046000830184613de0565b92915050565b600080600060608486031215613e2357613e2261388d565b5b6000613e3186828701613ada565b9350506020613e4286828701613ada565b9250506040613e5386828701613a25565b9150509250925092565b600060208284031215613e7357613e7261388d565b5b6000613e8184828501613ada565b91505092915050565b613e9381613baf565b82525050565b600061010082019050613eaf600083018b613e8a565b613ebc602083018a613e8a565b613ec96040830189613e8a565b613ed66060830188613e8a565b613ee36080830187613e8a565b613ef060a0830186613e8a565b613efd60c0830185613e8a565b613f0a60e0830184613e8a565b9998505050505050505050565b6000806101208385031215613f2f57613f2e61388d565b5b6000613f3d85828601613a25565b9250506020613f4e85828601613beb565b9150509250929050565b613f618161391c565b8114613f6c57600080fd5b50565b600081359050613f7e81613f58565b92915050565b60008060408385031215613f9b57613f9a61388d565b5b6000613fa985828601613ada565b9250506020613fba85828601613f6f565b9150509250929050565b60008060408385031215613fdb57613fda61388d565b5b6000613fe985828601613a25565b925050602083013567ffffffffffffffff81111561400a57614009613892565b5b61401685828601613d41565b9150509250929050565b600067ffffffffffffffff82111561403b5761403a613b34565b5b61404482613998565b9050602081019050919050565b600061406461405f84614020565b613b94565b9050828152602081018484840111156140805761407f613cba565b5b61408b848285613cf0565b509392505050565b600082601f8301126140a8576140a7613cb5565b5b81356140b8848260208601614051565b91505092915050565b600080600080608085870312156140db576140da61388d565b5b60006140e987828801613ada565b94505060206140fa87828801613ada565b935050604061410b87828801613a25565b925050606085013567ffffffffffffffff81111561412c5761412b613892565b5b61413887828801614093565b91505092959194509250565b61414d81613baf565b82525050565b6101008201600082015161416a6000850182614144565b50602082015161417d6020850182614144565b5060408201516141906040850182614144565b5060608201516141a36060850182614144565b5060808201516141b66080850182614144565b5060a08201516141c960a0850182614144565b5060c08201516141dc60c0850182614144565b5060e08201516141ef60e0850182614144565b50505050565b6141fe81613a04565b82525050565b6101008201600082015161421b60008501826141f5565b50602082015161422e60208501826141f5565b50604082015161424160408501826141f5565b50606082015161425460608501826141f5565b50608082015161426760808501826141f5565b5060a082015161427a60a08501826141f5565b5060c082015161428d60c08501826141f5565b5060e08201516142a060e08501826141f5565b50505050565b60006102208201905081810360008301526142c181866139a9565b90506142d06020830185614153565b6142de610120830184614204565b949350505050565b600080604083850312156142fd576142fc61388d565b5b600061430b85828601613ada565b925050602061431c85828601613ada565b9150509250929050565b7f4e487b7100000000000000000000000000000000000000000000000000000000600052602260045260246000fd5b6000600282049050600182168061436d57607f821691505b6020821081036143805761437f614326565b5b50919050565b7f4552433732313a20617070726f76616c20746f2063757272656e74206f776e6560008201527f7200000000000000000000000000000000000000000000000000000000000000602082015250565b60006143e260218361395d565b91506143ed82614386565b604082019050919050565b60006020820190508181036000830152614411816143d5565b9050919050565b7f4552433732313a20617070726f76652063616c6c6572206973206e6f7420746f60008201527f6b656e206f776e6572206e6f7220617070726f76656420666f7220616c6c0000602082015250565b6000614474603e8361395d565b915061447f82614418565b604082019050919050565b600060208201905081810360008301526144a381614467565b9050919050565b60008190508160005260206000209050919050565b60006020601f8301049050919050565b600082821b905092915050565b60006008830261450c7fffffffffffffffffffffffffffffffffffffffffffffffffffffffffffffffff826144cf565b61451686836144cf565b95508019841693508086168417925050509392505050565b6000819050919050565b600061455361454e61454984613a04565b61452e565b613a04565b9050919050565b6000819050919050565b61456d83614538565b6145816145798261455a565b8484546144dc565b825550505050565b600090565b614596614589565b6145a1818484614564565b505050565b5b818110156145c5576145ba60008261458e565b6001810190506145a7565b5050565b601f82111561460a576145db816144aa565b6145e4846144bf565b810160208510156145f3578190505b6146076145ff856144bf565b8301826145a6565b50505b505050565b600082821c905092915050565b600061462d6000198460080261460f565b1980831691505092915050565b6000614646838361461c565b9150826002028217905092915050565b61465f82613952565b67ffffffffffffffff81111561467857614677613b34565b5b6146828254614355565b61468d8282856145c9565b600060209050601f8311600181146146c057600084156146ae578287015190505b6146b8858261463a565b865550614720565b601f1984166146ce866144aa565b60005b828110156146f6578489015182556001820191506020850194506020810190506146d1565b86831015614713578489015161470f601f89168261461c565b8355505b6001600288020188555050505b505050505050565b6000815461473581614355565b61473f818661395d565b9450600182166000811461475a5760018114614770576147a3565b60ff1983168652811515602002860193506147a3565b614779856144aa565b60005b8381101561479b5781548189015260018201915060208101905061477c565b808801955050505b50505092915050565b60008160001c9050919050565b600063ffffffff82169050919050565b60006147dc6147d7836147ac565b6147b9565b9050919050565b60008160201c9050919050565b60006148036147fe836147e3565b6147b9565b9050919050565b60008160401c9050919050565b600061482a6148258361480a565b6147b9565b9050919050565b60008160601c9050919050565b600061485161484c83614831565b6147b9565b9050919050565b60008160801c9050919050565b600061487861487383614858565b6147b9565b9050919050565b60008160a01c9050919050565b600061489f61489a8361487f565b6147b9565b9050919050565b60008160c01c9050919050565b60006148c66148c1836148a6565b6147b9565b9050919050565b60008160e01c9050919050565b60006148ed6148e8836148cd565b6147b9565b9050919050565b6101008201600080830154905061490a816147c9565b6149176000860182614144565b50614921816147f0565b61492e6020860182614144565b5061493881614817565b6149456040860182614144565b5061494f8161483e565b61495c6060860182614144565b5061496681614865565b6149736080860182614144565b5061497d8161488c565b61498a60a0860182614144565b50614994816148b3565b6149a160c0860182614144565b506149ab816148da565b6149b860e0860182614144565b5050505050565b6000610140820190506149d56000830186613a99565b81810360208301526149e78185614728565b90506149f660408301846148f4565b949350505050565b7f4552433732313a2063616c6c6572206973206e6f7420746f6b656e206f776e6560008201527f72206e6f7220617070726f766564000000000000000000000000000000000000602082015250565b6000614a5a602e8361395d565b9150614a65826149fe565b604082019050919050565b60006020820190508181036000830152614a8981614a4d565b9050919050565b7f455243373231456e756d657261626c653a206f776e657220696e646578206f7560008201527f74206f6620626f756e6473000000000000000000000000000000000000000000602082015250565b6000614aec602b8361395d565b9150614af782614a90565b604082019050919050565b60006020820190508181036000830152614b1b81614adf565b9050919050565b7f455243373231456e756d657261626c653a20676c6f62616c20696e646578206f60008201527f7574206f6620626f756e64730000000000000000000000000000000000000000602082015250565b6000614b7e602c8361395d565b9150614b8982614b22565b604082019050919050565b60006020820190508181036000830152614bad81614b71565b9050919050565b7f4e487b7100000000000000000000000000000000000000000000000000000000600052603260045260246000fd5b7f4552433732313a20696e76616c696420746f6b656e2049440000000000000000600082015250565b6000614c1960188361395d565b9150614c2482614be3565b602082019050919050565b60006020820190508181036000830152614c4881614c0c565b9050919050565b7f4552433732313a2061646472657373207a65726f206973206e6f74206120766160008201527f6c6964206f776e65720000000000000000000000000000000000000000000000602082015250565b6000614cab60298361395d565b9150614cb682614c4f565b604082019050919050565b60006020820190508181036000830152614cda81614c9e565b9050919050565b600061010082019050614cf76000830184614153565b92915050565b7f43616e6e6f742072656e616d6520636861726163746572206e6f74206f776e6560008201527f642e000000000000000000000000000000000000000000000000000000000000602082015250565b6000614d5960228361395d565b9150614d6482614cfd565b604082019050919050565b60006020820190508181036000830152614d8881614d4c565b9050919050565b7f4e6f6e6578697374656e74000000000000000000000000000000000000000000600082015250565b6000614dc5600b8361395d565b9150614dd082614d8f565b602082019050919050565b60006020820190508181036000830152614df481614db8565b9050919050565b600082825260208201905092915050565b6000614e1782613952565b614e218185614dfb565b9350614e3181856020860161396e565b614e3a81613998565b840191505092915050565b600060e0830160008301518482036000860152614e628282614e0c565b91505060208301518482036020860152614e7c8282614e0c565b91505060408301518482036040860152614e968282614e0c565b91505060608301518482036060860152614eb08282614e0c565b91505060808301518482036080860152614eca8282614e0c565b91505060a083015184820360a0860152614ee48282614e0c565b91505060c083015184820360c0860152614efe8282614e0c565b9150508091505092915050565b600061014082019050614f216000830186614153565b818103610100830152614f348185614e45565b9050818103610120830152614f498184614728565b9050949350505050565b6000614f66614f6184613cbf565b613b94565b905082815260208101848484011115614f8257614f81613cba565b5b614f8d84828561396e565b509392505050565b600082601f830112614faa57614fa9613cb5565b5b8151614fba848260208601614f53565b91505092915050565b600060208284031215614fd957614fd861388d565b5b600082015167ffffffffffffffff811115614ff757614ff6613892565b5b61500384828501614f95565b91505092915050565b7f4f776e61626c653a206e6577206f776e657220697320746865207a65726f206160008201527f6464726573730000000000000000000000000000000000000000000000000000602082015250565b600061506860268361395d565b91506150738261500c565b604082019050919050565b600060208201905081810360008301526150978161505b565b9050919050565b7f4552433732313a206d696e7420746f20746865207a65726f2061646472657373600082015250565b60006150d460208361395d565b91506150df8261509e565b602082019050919050565b60006020820190508181036000830152615103816150c7565b9050919050565b7f4552433732313a20746f6b656e20616c7265616479206d696e74656400000000600082015250565b6000615140601c8361395d565b915061514b8261510a565b602082019050919050565b6000602082019050818103600083015261516f81615133565b9050919050565b7f4e487b7100000000000000000000000000000000000000000000000000000000600052601160045260246000fd5b60006151b082613a04565b91506151bb83613a04565b92508282019050808211156151d3576151d2615176565b5b92915050565b7f4552433732313a207472616e736665722066726f6d20696e636f72726563742060008201527f6f776e6572000000000000000000000000000000000000000000000000000000602082015250565b600061523560258361395d565b9150615240826151d9565b604082019050919050565b6000602082019050818103600083015261526481615228565b9050919050565b7f4552433732313a207472616e7366657220746f20746865207a65726f2061646460008201527f7265737300000000000000000000000000000000000000000000000000000000602082015250565b60006152c760248361395d565b91506152d28261526b565b604082019050919050565b600060208201905081810360008301526152f6816152ba565b9050919050565b600061530882613a04565b915061531383613a04565b925082820390508181111561532b5761532a615176565b5b92915050565b7f4f776e61626c653a2063616c6c6572206973206e6f7420746865206f776e6572600082015250565b600061536760208361395d565b915061537282615331565b602082019050919050565b600060208201905081810360008301526153968161535a565b9050919050565b7f4552433732313a20617070726f766520746f2063616c6c657200000000000000600082015250565b60006153d360198361395d565b91506153de8261539d565b602082019050919050565b60006020820190508181036000830152615402816153c6565b9050919050565b7f4552433732313a207472616e7366657220746f206e6f6e20455243373231526560008201527f63656976657220696d706c656d656e7465720000000000000000000000000000602082015250565b600061546560328361395d565b915061547082615409565b604082019050919050565b6000602082019050818103600083015261549481615458565b9050919050565b600081905092915050565b60006154b182613952565b6154bb818561549b565b93506154cb81856020860161396e565b80840191505092915050565b7f2f00000000000000000000000000000000000000000000000000000000000000815250565b7f2e706e6700000000000000000000000000000000000000000000000000000000815250565b600061552f82866154a6565b915061553b82856154a6565b9150615546826154d7565b60018201915061555682846154a6565b9150615561826154fd565b600482019150819050949350505050565b600081519050919050565b600082825260208201905092915050565b600061559982615572565b6155a3818561557d565b93506155b381856020860161396e565b6155bc81613998565b840191505092915050565b60006080820190506155dc6000830187613a99565b6155e96020830186613a99565b6155f66040830185613de0565b8181036060830152615608818461558e565b905095945050505050565b600081519050615622816138c3565b92915050565b60006020828403121561563e5761563d61388d565b5b600061564c84828501615613565b91505092915050565b600061566082613baf565b915061566b83613baf565b925082820261567981613baf565b915080821461568b5761568a615176565b5b5092915050565b600061569d82613baf565b91506156a883613baf565b9250828201905063ffffffff8111156156c4576156c3615176565b5b92915050565b7f4e487b7100000000000000000000000000000000000000000000000000000000600052601260045260246000fd5b600061570482613baf565b915061570f83613baf565b92508261571f5761571e6156ca565b5b828204905092915050565b600061573582613a04565b915061574083613a04565b925082820261574e81613a04565b9150828204841483151761576557615764615176565b5b5092915050565b600061577782613a04565b915061578283613a04565b925082615792576157916156ca565b5b828204905092915050565b7f4e487b7100000000000000000000000000000000000000000000000000000000600052603160045260246000fdfe68747470733a2f2f636861696e6c696e6b2d727067323032322e696e667572612d697066732e696f2f697066732f516d546e4351567a6b466563426a4c55544a54624a6d753144733373696d696d75385a31584b4b6b7367633761732fa26469706673582212201deb7dbefea0682bf01005762d8f1257c44219b82d9d88c4d77039ec377489b664736f6c63430008110033",
  "linkReferences": {},
  "deployedLinkReferences": {}
}