{
  "_format": "hh-sol-artifact-1",
  "contractName": "EquipmentMinter",
  "sourceName": "contracts/periphery/routers/EquipmentMinter.sol",
  "abi": [
    {
      "inputs": [
        {
          "internalType": "address",
          "name": "equipmentsNftAddress",
          "type": "address"
        },
        {
          "internalType": "address",
          "name": "charactersAddress",
          "type": "address"
        },
        {
          "internalType": "address",
          "name": "enerlinkAddress",
          "type": "address"
        },
        {
          "internalType": "address",
          "name": "materials",
          "type": "address"
        },
        {
          "internalType": "address",
          "name": "catalysts",
          "type": "address"
        }
      ],
      "stateMutability": "nonpayable",
      "type": "constructor"
    },
    {
      "anonymous": false,
      "inputs": [
        {
          "indexed": true,
          "internalType": "address",
          "name": "player_address",
          "type": "address"
        },
        {
          "components": [
            {
              "internalType": "uint256",
              "name": "request_id",
              "type": "uint256"
            },
            {
              "internalType": "uint64",
              "name": "equipment_type",
              "type": "uint64"
            },
            {
              "internalType": "uint32",
              "name": "number_of_items",
              "type": "uint32"
            },
            {
              "internalType": "uint256",
              "name": "time_requested",
              "type": "uint256"
            },
            {
              "internalType": "bool",
              "name": "free",
              "type": "bool"
            }
          ],
          "indexed": false,
          "internalType": "struct equipment_request",
          "name": "request",
          "type": "tuple"
        }
      ],
      "name": "EquipmentRequested",
      "type": "event"
    },
    {
      "anonymous": false,
      "inputs": [
        {
          "indexed": true,
          "internalType": "address",
          "name": "previousOwner",
          "type": "address"
        },
        {
          "indexed": true,
          "internalType": "address",
          "name": "newOwner",
          "type": "address"
        }
      ],
      "name": "OwnershipTransferred",
      "type": "event"
    },
    {
      "anonymous": false,
      "inputs": [
        {
          "indexed": false,
          "internalType": "address",
          "name": "account",
          "type": "address"
        }
      ],
      "name": "Paused",
      "type": "event"
    },
    {
      "anonymous": false,
      "inputs": [
        {
          "indexed": false,
          "internalType": "address",
          "name": "account",
          "type": "address"
        }
      ],
      "name": "Unpaused",
      "type": "event"
    },
    {
      "inputs": [],
      "name": "cancelRequestExperimental",
      "outputs": [],
      "stateMutability": "nonpayable",
      "type": "function"
    },
    {
      "inputs": [
        {
          "internalType": "uint256",
          "name": "",
          "type": "uint256"
        },
        {
          "internalType": "uint256",
          "name": "",
          "type": "uint256"
        }
      ],
      "name": "character_minted_free",
      "outputs": [
        {
          "internalType": "bool",
          "name": "",
          "type": "bool"
        }
      ],
      "stateMutability": "view",
      "type": "function"
    },
    {
      "inputs": [
        {
          "internalType": "uint256",
          "name": "equipment_type",
          "type": "uint256"
        }
      ],
      "name": "getEquipmentRecipe",
      "outputs": [
        {
          "components": [
            {
              "internalType": "uint256",
              "name": "main_material",
              "type": "uint256"
            },
            {
              "internalType": "uint256",
              "name": "indirect_material",
              "type": "uint256"
            },
            {
              "internalType": "uint256",
              "name": "catalyst",
              "type": "uint256"
            },
            {
              "internalType": "uint256",
              "name": "main_material_amount",
              "type": "uint256"
            },
            {
              "internalType": "uint256",
              "name": "indirect_material_amount",
              "type": "uint256"
            },
            {
              "internalType": "uint256",
              "name": "catalyst_amount",
              "type": "uint256"
            }
          ],
          "internalType": "struct item_recipe",
          "name": "recipe",
          "type": "tuple"
        }
      ],
      "stateMutability": "pure",
      "type": "function"
    },
    {
      "inputs": [],
      "name": "mintEquipments",
      "outputs": [],
      "stateMutability": "nonpayable",
      "type": "function"
    },
    {
      "inputs": [
        {
          "internalType": "address",
          "name": "user",
          "type": "address"
        },
        {
          "internalType": "uint256[]",
          "name": "randomNumberRequested",
          "type": "uint256[]"
        }
      ],
      "name": "mintEquipmentsExperimental",
      "outputs": [],
      "stateMutability": "nonpayable",
      "type": "function"
    },
    {
      "inputs": [],
      "name": "mint_fee",
      "outputs": [
        {
          "internalType": "uint256",
          "name": "",
          "type": "uint256"
        }
      ],
      "stateMutability": "view",
      "type": "function"
    },
    {
      "inputs": [],
      "name": "owner",
      "outputs": [
        {
          "internalType": "address",
          "name": "",
          "type": "address"
        }
      ],
      "stateMutability": "view",
      "type": "function"
    },
    {
      "inputs": [],
      "name": "paused",
      "outputs": [
        {
          "internalType": "bool",
          "name": "",
          "type": "bool"
        }
      ],
      "stateMutability": "view",
      "type": "function"
    },
    {
      "inputs": [],
      "name": "renounceOwnership",
      "outputs": [],
      "stateMutability": "nonpayable",
      "type": "function"
    },
    {
      "inputs": [
        {
          "internalType": "address",
          "name": "",
          "type": "address"
        }
      ],
      "name": "request",
      "outputs": [
        {
          "internalType": "uint256",
          "name": "request_id",
          "type": "uint256"
        },
        {
          "internalType": "uint64",
          "name": "equipment_type",
          "type": "uint64"
        },
        {
          "internalType": "uint32",
          "name": "number_of_items",
          "type": "uint32"
        },
        {
          "internalType": "uint256",
          "name": "time_requested",
          "type": "uint256"
        },
        {
          "internalType": "bool",
          "name": "free",
          "type": "bool"
        }
      ],
      "stateMutability": "view",
      "type": "function"
    },
    {
      "inputs": [
        {
          "internalType": "uint64",
          "name": "_equipment_type",
          "type": "uint64"
        },
        {
          "internalType": "uint256",
          "name": "item_count",
          "type": "uint256"
        }
      ],
      "name": "requestEquipment",
      "outputs": [],
      "stateMutability": "payable",
      "type": "function"
    },
    {
      "inputs": [
        {
          "internalType": "uint64",
          "name": "_equipment_type",
          "type": "uint64"
        }
      ],
      "name": "requestEquipmentExperimental",
      "outputs": [],
      "stateMutability": "payable",
      "type": "function"
    },
    {
      "inputs": [
        {
          "internalType": "uint256",
          "name": "character_id",
          "type": "uint256"
        },
        {
          "internalType": "uint64",
          "name": "_equipment_type",
          "type": "uint64"
        }
      ],
      "name": "requestEquipmentFree",
      "outputs": [],
      "stateMutability": "payable",
      "type": "function"
    },
    {
      "inputs": [
        {
          "internalType": "uint256",
          "name": "amount",
          "type": "uint256"
        }
      ],
      "name": "setMintFee",
      "outputs": [],
      "stateMutability": "nonpayable",
      "type": "function"
    },
    {
      "inputs": [
        {
          "internalType": "address",
          "name": "_vrfContract",
          "type": "address"
        }
      ],
      "name": "setRandomizationContract",
      "outputs": [],
      "stateMutability": "nonpayable",
      "type": "function"
    },
    {
      "inputs": [
        {
          "internalType": "address",
          "name": "newOwner",
          "type": "address"
        }
      ],
      "name": "transferOwnership",
      "outputs": [],
      "stateMutability": "nonpayable",
      "type": "function"
    },
    {
      "inputs": [
        {
          "internalType": "uint256",
          "name": "equipment_type",
          "type": "uint256"
        },
        {
          "internalType": "uint256",
          "name": "item_count",
          "type": "uint256"
        }
      ],
      "name": "userMaterialsEnough",
      "outputs": [
        {
          "internalType": "bool",
          "name": "enough",
          "type": "bool"
        }
      ],
      "stateMutability": "view",
      "type": "function"
    },
    {
      "inputs": [],
      "name": "withdraw",
      "outputs": [],
      "stateMutability": "nonpayable",
      "type": "function"
    }
  ],
  "bytecode": "0x60806040523480156200001157600080fd5b506040516200503938038062005039833981810160405281019062000037919062000338565b620000576200004b6200020260201b60201c565b6200020a60201b60201c565b60008060146101000a81548160ff02191690831515021790555084600560006101000a81548173ffffffffffffffffffffffffffffffffffffffff021916908373ffffffffffffffffffffffffffffffffffffffff16021790555083600260006101000a81548173ffffffffffffffffffffffffffffffffffffffff021916908373ffffffffffffffffffffffffffffffffffffffff16021790555082600360006101000a81548173ffffffffffffffffffffffffffffffffffffffff021916908373ffffffffffffffffffffffffffffffffffffffff16021790555081600a60006101000a81548173ffffffffffffffffffffffffffffffffffffffff021916908373ffffffffffffffffffffffffffffffffffffffff16021790555080600b60006101000a81548173ffffffffffffffffffffffffffffffffffffffff021916908373ffffffffffffffffffffffffffffffffffffffff16021790555033600660006101000a81548173ffffffffffffffffffffffffffffffffffffffff021916908373ffffffffffffffffffffffffffffffffffffffff1602179055505050505050620003c0565b600033905090565b60008060009054906101000a900473ffffffffffffffffffffffffffffffffffffffff169050816000806101000a81548173ffffffffffffffffffffffffffffffffffffffff021916908373ffffffffffffffffffffffffffffffffffffffff1602179055508173ffffffffffffffffffffffffffffffffffffffff168173ffffffffffffffffffffffffffffffffffffffff167f8be0079c531659141344cd1fd0a4f28419497f9722a3daafe3b4186f6b6457e060405160405180910390a35050565b600080fd5b600073ffffffffffffffffffffffffffffffffffffffff82169050919050565b60006200030082620002d3565b9050919050565b6200031281620002f3565b81146200031e57600080fd5b50565b600081519050620003328162000307565b92915050565b600080600080600060a08688031215620003575762000356620002ce565b5b6000620003678882890162000321565b95505060206200037a8882890162000321565b94505060406200038d8882890162000321565b9350506060620003a08882890162000321565b9250506080620003b38882890162000321565b9150509295509295909350565b614c6980620003d06000396000f3fe6080604052600436106101095760003560e01c80638da5cb5b11610095578063b25f9b3e11610064578063b25f9b3e1461032b578063da610fcf14610342578063e9ff18c61461036d578063eddd0d9c14610389578063f2fde38b146103b257610109565b80638da5cb5b1461027e578063a330e03e146102a9578063a9a876af146102e6578063ab111add1461030f57610109565b80635473e978116100dc5780635473e978146101995780635c975abb146101c2578063715018a6146101ed5780638428e99a1461020457806387acbc971461024157610109565b806308e6b2c91461010e57806320b37cfc1461012557806327c78c42146101415780633ccfd60b14610182575b600080fd5b34801561011a57600080fd5b506101236103db565b005b61013f600480360381019061013a919061337b565b610748565b005b34801561014d57600080fd5b5061016860048036038101906101639190613419565b610bea565b60405161017995949392919061349e565b60405180910390f35b34801561018e57600080fd5b50610197610c51565b005b3480156101a557600080fd5b506101c060048036038101906101bb9190613419565b610d2a565b005b3480156101ce57600080fd5b506101d7610db7565b6040516101e491906134f1565b60405180910390f35b3480156101f957600080fd5b50610202610dcd565b005b34801561021057600080fd5b5061022b6004803603810190610226919061350c565b610de1565b60405161023891906135c3565b60405180910390f35b34801561024d57600080fd5b50610268600480360381019061026391906135de565b610df9565b60405161027591906134f1565b60405180910390f35b34801561028a57600080fd5b50610293610eca565b6040516102a0919061362d565b60405180910390f35b3480156102b557600080fd5b506102d060048036038101906102cb91906135de565b610ef3565b6040516102dd91906134f1565b60405180910390f35b3480156102f257600080fd5b5061030d600480360381019061030891906137a1565b610f22565b005b610329600480360381019061032491906137fd565b6111ec565b005b34801561033757600080fd5b50610340611872565b005b34801561034e57600080fd5b50610357611bd9565b604051610364919061383d565b60405180910390f35b61038760048036038101906103829190613858565b611bdf565b005b34801561039557600080fd5b506103b060048036038101906103ab919061350c565b612034565b005b3480156103be57600080fd5b506103d960048036038101906103d49190613419565b612055565b005b6000600760003373ffffffffffffffffffffffffffffffffffffffff1673ffffffffffffffffffffffffffffffffffffffff1681526020019081526020016000206040518060a0016040529081600082015481526020016001820160009054906101000a900467ffffffffffffffff1667ffffffffffffffff1667ffffffffffffffff1681526020016001820160089054906101000a900463ffffffff1663ffffffff1663ffffffff168152602001600282015481526020016003820160009054906101000a900460ff161515151581525050905060008160000151116104f7576040517f08c379a00000000000000000000000000000000000000000000000000000000081526004016104ee906138e2565b60405180910390fd5b600080600160009054906101000a900473ffffffffffffffffffffffffffffffffffffffff1673ffffffffffffffffffffffffffffffffffffffff1663d8a4676f84600001516040518263ffffffff1660e01b8152600401610559919061383d565b600060405180830381865afa158015610576573d6000803e3d6000fd5b505050506040513d6000823e3d601f19601f8201168201806040525081019061059f91906139da565b91509150816105e3576040517f08c379a00000000000000000000000000000000000000000000000000000000081526004016105da90613aa8565b60405180910390fd5b60005b836040015163ffffffff16811015610639576106263383838151811061060f5761060e613ac8565b5b6020026020010151866020015187608001516120d8565b808061063190613b26565b9150506105e6565b506040518060a0016040528060008152602001600067ffffffffffffffff168152602001600063ffffffff16815260200142815260200160001515815250600760003373ffffffffffffffffffffffffffffffffffffffff1673ffffffffffffffffffffffffffffffffffffffff1681526020019081526020016000206000820151816000015560208201518160010160006101000a81548167ffffffffffffffff021916908367ffffffffffffffff16021790555060408201518160010160086101000a81548163ffffffff021916908363ffffffff1602179055506060820151816002015560808201518160030160006101000a81548160ff021916908315150217905550905050505050565b610750612269565b6000600760003373ffffffffffffffffffffffffffffffffffffffff1673ffffffffffffffffffffffffffffffffffffffff1681526020019081526020016000206040518060a0016040529081600082015481526020016001820160009054906101000a900467ffffffffffffffff1667ffffffffffffffff1667ffffffffffffffff1681526020016001820160089054906101000a900463ffffffff1663ffffffff1663ffffffff168152602001600282015481526020016003820160009054906101000a900460ff1615151515815250509050600081600001511461086c576040517f08c379a000000000000000000000000000000000000000000000000000000000815260040161086390613be0565b60405180910390fd5b60058367ffffffffffffffff16106108b9576040517f08c379a00000000000000000000000000000000000000000000000000000000081526004016108b090613c72565b60405180910390fd5b6000821180156108c95750600482105b610908576040517f08c379a00000000000000000000000000000000000000000000000000000000081526004016108ff90613d04565b60405180910390fd5b600854826109169190613d24565b341015610958576040517f08c379a000000000000000000000000000000000000000000000000000000000815260040161094f90613dfe565b60405180910390fd5b600061096e8467ffffffffffffffff16846122b3565b9050806109b0576040517f08c379a00000000000000000000000000000000000000000000000000000000081526004016109a790613e90565b60405180910390fd5b6040518060a00160405280600160009054906101000a900473ffffffffffffffffffffffffffffffffffffffff1673ffffffffffffffffffffffffffffffffffffffff16639bca039d338760006040518463ffffffff1660e01b8152600401610a1b93929190613eb0565b6020604051808303816000875af1158015610a3a573d6000803e3d6000fd5b505050506040513d601f19601f82011682018060405250810190610a5e9190613ee7565b81526020018567ffffffffffffffff1681526020018463ffffffff16815260200142815260200160001515815250600760003373ffffffffffffffffffffffffffffffffffffffff1673ffffffffffffffffffffffffffffffffffffffff1681526020019081526020016000206000820151816000015560208201518160010160006101000a81548167ffffffffffffffff021916908367ffffffffffffffff16021790555060408201518160010160086101000a81548163ffffffff021916908363ffffffff1602179055506060820151816002015560808201518160030160006101000a81548160ff0219169083151502179055509050503373ffffffffffffffffffffffffffffffffffffffff167f58577bf17ae4d0cc9d3b31873621b2a79ce93516e49b689b734695e54df0d9fd600760003373ffffffffffffffffffffffffffffffffffffffff1673ffffffffffffffffffffffffffffffffffffffff168152602001908152602001600020604051610bdc9190614098565b60405180910390a250505050565b60076020528060005260406000206000915090508060000154908060010160009054906101000a900467ffffffffffffffff16908060010160089054906101000a900463ffffffff16908060020154908060030160009054906101000a900460ff16905085565b610c5961243c565b6000600660009054906101000a900473ffffffffffffffffffffffffffffffffffffffff1673ffffffffffffffffffffffffffffffffffffffff1647604051610ca1906140e4565b60006040518083038185875af1925050503d8060008114610cde576040519150601f19603f3d011682016040523d82523d6000602084013e610ce3565b606091505b5050905080610d27576040517f08c379a0000000000000000000000000000000000000000000000000000000008152600401610d1e90614145565b60405180910390fd5b50565b610d3261243c565b80600460006101000a81548173ffffffffffffffffffffffffffffffffffffffff021916908373ffffffffffffffffffffffffffffffffffffffff16021790555080600160006101000a81548173ffffffffffffffffffffffffffffffffffffffff021916908373ffffffffffffffffffffffffffffffffffffffff16021790555050565b60008060149054906101000a900460ff16905090565b610dd561243c565b610ddf60006124ba565b565b610de9613203565b610df28261257e565b9050919050565b6000600190506000610e0a8461257e565b9050828160600151610e1c9190613d24565b816060018181525050828160800151610e359190613d24565b816080018181525050828160a00151610e4e9190613d24565b8160a00181815250506000610e6682600001516125f0565b5090506000610e7883602001516125f0565b5090506000610e8a846040015161269f565b5090508360600151831015610e9e57600094505b8360800151821015610eaf57600094505b8360a00151811015610ec057600094505b5050505092915050565b60008060009054906101000a900473ffffffffffffffffffffffffffffffffffffffff16905090565b60096020528160005260406000206020528060005260406000206000915091509054906101000a900460ff1681565b600460009054906101000a900473ffffffffffffffffffffffffffffffffffffffff1673ffffffffffffffffffffffffffffffffffffffff163373ffffffffffffffffffffffffffffffffffffffff1614610fb2576040517f08c379a0000000000000000000000000000000000000000000000000000000008152600401610fa9906141fd565b60405180910390fd5b6000600760008473ffffffffffffffffffffffffffffffffffffffff1673ffffffffffffffffffffffffffffffffffffffff1681526020019081526020016000206040518060a0016040529081600082015481526020016001820160009054906101000a900467ffffffffffffffff1667ffffffffffffffff1667ffffffffffffffff1681526020016001820160089054906101000a900463ffffffff1663ffffffff1663ffffffff168152602001600282015481526020016003820160009054906101000a900460ff161515151581525050905060005b816040015163ffffffff168110156110dd576110ca848483815181106110b3576110b2613ac8565b5b6020026020010151846020015185608001516120d8565b80806110d590613b26565b91505061108a565b506040518060a0016040528060008152602001600067ffffffffffffffff168152602001600063ffffffff16815260200142815260200160001515815250600760008573ffffffffffffffffffffffffffffffffffffffff1673ffffffffffffffffffffffffffffffffffffffff1681526020019081526020016000206000820151816000015560208201518160010160006101000a81548167ffffffffffffffff021916908367ffffffffffffffff16021790555060408201518160010160086101000a81548163ffffffff021916908363ffffffff1602179055506060820151816002015560808201518160030160006101000a81548160ff021916908315150217905550905050505050565b6111f4612269565b6000600760003373ffffffffffffffffffffffffffffffffffffffff1673ffffffffffffffffffffffffffffffffffffffff1681526020019081526020016000206040518060a0016040529081600082015481526020016001820160009054906101000a900467ffffffffffffffff1667ffffffffffffffff1667ffffffffffffffff1681526020016001820160089054906101000a900463ffffffff1663ffffffff1663ffffffff168152602001600282015481526020016003820160009054906101000a900460ff16151515158152505090506000816000015114611310576040517f08c379a000000000000000000000000000000000000000000000000000000000815260040161130790613be0565b60405180910390fd5b60058267ffffffffffffffff161061135d576040517f08c379a000000000000000000000000000000000000000000000000000000000815260040161135490614269565b60405180910390fd5b600854600161136c9190613d24565b3410156113ae576040517f08c379a00000000000000000000000000000000000000000000000000000000081526004016113a5906142d5565b60405180910390fd5b6009600084815260200190815260200160002060008367ffffffffffffffff16815260200190815260200160002060009054906101000a900460ff161561142a576040517f08c379a000000000000000000000000000000000000000000000000000000000815260040161142190614341565b60405180910390fd5b6063600260009054906101000a900473ffffffffffffffffffffffffffffffffffffffff1673ffffffffffffffffffffffffffffffffffffffff1663468f25b0856040518263ffffffff1660e01b8152600401611487919061383d565b61010060405180830381865afa1580156114a5573d6000803e3d6000fd5b505050506040513d601f19601f820116820180604052508101906114c9919061445c565b60e0015163ffffffff1611611513576040517f08c379a000000000000000000000000000000000000000000000000000000000815260040161150a906144d6565b60405180910390fd5b600260009054906101000a900473ffffffffffffffffffffffffffffffffffffffff1673ffffffffffffffffffffffffffffffffffffffff1663e327a6af33856040518363ffffffff1660e01b81526004016115709291906144f6565b602060405180830381865afa15801561158d573d6000803e3d6000fd5b505050506040513d601f19601f820116820180604052508101906115b1919061451f565b6115f0576040517f08c379a00000000000000000000000000000000000000000000000000000000081526004016115e790614598565b60405180910390fd5b60016009600085815260200190815260200160002060008467ffffffffffffffff16815260200190815260200160002060006101000a81548160ff0219169083151502179055506040518060a00160405280600160009054906101000a900473ffffffffffffffffffffffffffffffffffffffff1673ffffffffffffffffffffffffffffffffffffffff16639bca039d33600160006040518463ffffffff1660e01b81526004016116a3939291906145fd565b6020604051808303816000875af11580156116c2573d6000803e3d6000fd5b505050506040513d601f19601f820116820180604052508101906116e69190613ee7565b81526020018367ffffffffffffffff168152602001600163ffffffff16815260200142815260200160011515815250600760003373ffffffffffffffffffffffffffffffffffffffff1673ffffffffffffffffffffffffffffffffffffffff1681526020019081526020016000206000820151816000015560208201518160010160006101000a81548167ffffffffffffffff021916908367ffffffffffffffff16021790555060408201518160010160086101000a81548163ffffffff021916908363ffffffff1602179055506060820151816002015560808201518160030160006101000a81548160ff0219169083151502179055509050503373ffffffffffffffffffffffffffffffffffffffff167f58577bf17ae4d0cc9d3b31873621b2a79ce93516e49b689b734695e54df0d9fd600760003373ffffffffffffffffffffffffffffffffffffffff1673ffffffffffffffffffffffffffffffffffffffff1681526020019081526020016000206040516118659190614098565b60405180910390a2505050565b6000600760003373ffffffffffffffffffffffffffffffffffffffff1673ffffffffffffffffffffffffffffffffffffffff1681526020019081526020016000206040518060a0016040529081600082015481526020016001820160009054906101000a900467ffffffffffffffff1667ffffffffffffffff1667ffffffffffffffff1681526020016001820160089054906101000a900463ffffffff1663ffffffff1663ffffffff168152602001600282015481526020016003820160009054906101000a900460ff16151515158152505090506000600160009054906101000a900473ffffffffffffffffffffffffffffffffffffffff1673ffffffffffffffffffffffffffffffffffffffff1663d8a4676f83600001516040518263ffffffff1660e01b81526004016119a8919061383d565b600060405180830381865afa1580156119c5573d6000803e3d6000fd5b505050506040513d6000823e3d601f19601f820116820180604052508101906119ee91906139da565b5090506000826000015111611a38576040517f08c379a0000000000000000000000000000000000000000000000000000000008152600401611a2f906146a6565b60405180910390fd5b610e10826060015142611a4b91906146c6565b11611a8b576040517f08c379a0000000000000000000000000000000000000000000000000000000008152600401611a8290614792565b60405180910390fd5b8015611acc576040517f08c379a0000000000000000000000000000000000000000000000000000000008152600401611ac390614824565b60405180910390fd5b6040518060a0016040528060008152602001600067ffffffffffffffff168152602001600063ffffffff16815260200142815260200160001515815250600760003373ffffffffffffffffffffffffffffffffffffffff1673ffffffffffffffffffffffffffffffffffffffff1681526020019081526020016000206000820151816000015560208201518160010160006101000a81548167ffffffffffffffff021916908367ffffffffffffffff16021790555060408201518160010160086101000a81548163ffffffff021916908363ffffffff1602179055506060820151816002015560808201518160030160006101000a81548160ff0219169083151502179055509050505050565b60085481565b611be7612269565b6000600760003373ffffffffffffffffffffffffffffffffffffffff1673ffffffffffffffffffffffffffffffffffffffff1681526020019081526020016000206040518060a0016040529081600082015481526020016001820160009054906101000a900467ffffffffffffffff1667ffffffffffffffff1667ffffffffffffffff1681526020016001820160089054906101000a900463ffffffff1663ffffffff1663ffffffff168152602001600282015481526020016003820160009054906101000a900460ff16151515158152505090506000816000015114611d03576040517f08c379a0000000000000000000000000000000000000000000000000000000008152600401611cfa90613be0565b60405180910390fd5b60058267ffffffffffffffff1610611d50576040517f08c379a0000000000000000000000000000000000000000000000000000000008152600401611d4790613c72565b60405180910390fd5b6008546001611d5f9190613d24565b341015611da1576040517f08c379a0000000000000000000000000000000000000000000000000000000008152600401611d9890613dfe565b60405180910390fd5b6000611db88367ffffffffffffffff1660016122b3565b905080611dfa576040517f08c379a0000000000000000000000000000000000000000000000000000000008152600401611df190613e90565b60405180910390fd5b6040518060a00160405280600160009054906101000a900473ffffffffffffffffffffffffffffffffffffffff1673ffffffffffffffffffffffffffffffffffffffff16639bca039d336001806040518463ffffffff1660e01b8152600401611e65939291906145fd565b6020604051808303816000875af1158015611e84573d6000803e3d6000fd5b505050506040513d601f19601f82011682018060405250810190611ea89190613ee7565b81526020018467ffffffffffffffff168152602001600163ffffffff16815260200142815260200160001515815250600760003373ffffffffffffffffffffffffffffffffffffffff1673ffffffffffffffffffffffffffffffffffffffff1681526020019081526020016000206000820151816000015560208201518160010160006101000a81548167ffffffffffffffff021916908367ffffffffffffffff16021790555060408201518160010160086101000a81548163ffffffff021916908363ffffffff1602179055506060820151816002015560808201518160030160006101000a81548160ff0219169083151502179055509050503373ffffffffffffffffffffffffffffffffffffffff167f58577bf17ae4d0cc9d3b31873621b2a79ce93516e49b689b734695e54df0d9fd600760003373ffffffffffffffffffffffffffffffffffffffff1673ffffffffffffffffffffffffffffffffffffffff1681526020019081526020016000206040516120279190614098565b60405180910390a2505050565b61203c61243c565b633b9aca008161204c9190613d24565b60088190555050565b61205d61243c565b600073ffffffffffffffffffffffffffffffffffffffff168173ffffffffffffffffffffffffffffffffffffffff16036120cc576040517f08c379a00000000000000000000000000000000000000000000000000000000081526004016120c3906148b6565b60405180910390fd5b6120d5816124ba565b50565b60048267ffffffffffffffff16036121ab57600060016003856120fb9190614905565b6121059190614936565b9050600360009054906101000a900473ffffffffffffffffffffffffffffffffffffffff1673ffffffffffffffffffffffffffffffffffffffff166340c10f1986670de0b6b3a76400008461215a9190613d24565b6040518363ffffffff1660e01b81526004016121779291906144f6565b600060405180830381600087803b15801561219157600080fd5b505af11580156121a5573d6000803e3d6000fd5b50505050505b60048267ffffffffffffffff1614612263576000806121cb85858561274e565b91509150600560009054906101000a900473ffffffffffffffffffffffffffffffffffffffff1673ffffffffffffffffffffffffffffffffffffffff1663506e90aa8784846040518463ffffffff1660e01b815260040161222e93929190614a61565b600060405180830381600087803b15801561224857600080fd5b505af115801561225c573d6000803e3d6000fd5b5050505050505b50505050565b612271610db7565b156122b1576040517f08c379a00000000000000000000000000000000000000000000000000000000081526004016122a890614ae5565b60405180910390fd5b565b60006001905060006122c48461257e565b90508281606001516122d69190613d24565b816060018181525050828160a001516122ef9190613d24565b8160a001818152505060008061230883600001516125f0565b9150915060008061231c856040015161269f565b91509150846060015184101561233157600095505b8460a0015182101561234257600095505b6001151586151503612431578273ffffffffffffffffffffffffffffffffffffffff166379cc67903387606001516040518363ffffffff1660e01b815260040161238d9291906144f6565b600060405180830381600087803b1580156123a757600080fd5b505af11580156123bb573d6000803e3d6000fd5b505050508073ffffffffffffffffffffffffffffffffffffffff166379cc6790338760a001516040518363ffffffff1660e01b81526004016123fe9291906144f6565b600060405180830381600087803b15801561241857600080fd5b505af115801561242c573d6000803e3d6000fd5b505050505b505050505092915050565b612444612974565b73ffffffffffffffffffffffffffffffffffffffff16612462610eca565b73ffffffffffffffffffffffffffffffffffffffff16146124b8576040517f08c379a00000000000000000000000000000000000000000000000000000000081526004016124af90614b51565b60405180910390fd5b565b60008060009054906101000a900473ffffffffffffffffffffffffffffffffffffffff169050816000806101000a81548173ffffffffffffffffffffffffffffffffffffffff021916908373ffffffffffffffffffffffffffffffffffffffff1602179055508173ffffffffffffffffffffffffffffffffffffffff168173ffffffffffffffffffffffffffffffffffffffff167f8be0079c531659141344cd1fd0a4f28419497f9722a3daafe3b4186f6b6457e060405160405180910390a35050565b612586613203565b6000806125928461297c565b915091506000806125a2866129e4565b915091506000806125b2886129f4565b915091506040518060c00160405280878152602001858152602001838152602001868152602001848152602001828152509650505050505050919050565b6000806000600a60009054906101000a900473ffffffffffffffffffffffffffffffffffffffff1690508091508173ffffffffffffffffffffffffffffffffffffffff166370a08231336040518263ffffffff1660e01b8152600401612656919061362d565b602060405180830381865afa158015612673573d6000803e3d6000fd5b505050506040513d601f19601f820116820180604052508101906126979190613ee7565b925050915091565b6000806000600b60009054906101000a900473ffffffffffffffffffffffffffffffffffffffff1690508091508173ffffffffffffffffffffffffffffffffffffffff166370a08231336040518263ffffffff1660e01b8152600401612705919061362d565b602060405180830381865afa158015612722573d6000803e3d6000fd5b505050506040513d601f19601f820116820180604052508101906127469190613ee7565b925050915091565b612756613239565b61275e613289565b600061276986612a0b565b905060008061279283600f8151811061278557612784613ac8565b5b6020026020010151612adf565b9150915085156127a157600091505b600060405180610100016040528085600e815181106127c3576127c2613ac8565b5b602002602001015161ffff1661ffff16815260200185600d815181106127ec576127eb613ac8565b5b602002602001015161ffff1661ffff16815260200185600c8151811061281557612814613ac8565b5b602002602001015161ffff1661ffff16815260200185600b8151811061283e5761283d613ac8565b5b602002602001015161ffff1661ffff16815260200185600a8151811061286757612866613ac8565b5b602002602001015161ffff1661ffff168152602001856009815181106128905761288f613ac8565b5b602002602001015161ffff1661ffff168152602001856008815181106128b9576128b8613ac8565b5b602002602001015161ffff1661ffff168152602001856007815181106128e2576128e1613ac8565b5b602002602001015161ffff1661ffff16815250905060008061290f83858c67ffffffffffffffff16612b95565b80935081945082995050505060405180608001604052808b67ffffffffffffffff1681526020018667ffffffffffffffff1681526020018367ffffffffffffffff1681526020018267ffffffffffffffff168152509750505050505050935093915050565b600033905090565b60008060008303612997576000915067a688906bd8b0000090505b600183036129af5760009150677ce66c50e284000090505b600283036129c757600091506753444835ec58000090505b600383036129df57600091506729a2241af62c000090505b915091565b6000806000915060009050915091565b60008060009150670de0b6b3a76400009050915091565b60606000601067ffffffffffffffff811115612a2a57612a2961365e565b5b604051908082528060200260200182016040528015612a585781602001602082028036833780820191505090505b509050600061ffff9050600080600f90505b60008112612ad35760008387169050601084901b93508281901c905080858381518110612a9a57612a99613ac8565b5b602002602001019061ffff16908161ffff1681525050601083612abd9190614936565b9250508080612acb90614b7b565b915050612a6a565b50829350505050919050565b60008060006103e884612af29190614bd1565b61ffff1690506103e2811115612b0b5760049250606491505b6103d881118015612b1e57506103e28111155b15612b2c5760039250603c91505b6103b081118015612b3f57506103d88111155b15612b4d5760029250602891505b6102e881118015612b6057506103b08111155b15612b6e5760019250601991505b60008110158015612b8157506102ec8111155b15612b8f5760009250600f91505b50915091565b612b9d613289565b600080600080612bab6132ce565b612bb36132ce565b60005b6008811015612c425760006103e88c8360088110612bd757612bd6613ac8565b5b6020020151612be69190614bd1565b61ffff16905080848360088110612c0057612bff613ac8565b5b602002018181525050838260088110612c1c57612c1b613ac8565b5b602002015186612c2c9190614936565b9550508080612c3a90613b26565b915050612bb6565b5060005b6008811015612cac57848a848360088110612c6457612c63613ac8565b5b6020020151612c739190613d24565b612c7d9190614c02565b828260088110612c9057612c8f613ac8565b5b6020020181815250508080612ca490613b26565b915050612c46565b50600080612cba8a8c612e43565b9150915080838360088110612cd257612cd1613ac8565b5b60200201818151612ce39190614936565b9150818152505060405180610100016040528084600060088110612d0a57612d09613ac8565b5b602002015163ffffffff16815260200184600160088110612d2e57612d2d613ac8565b5b602002015163ffffffff16815260200184600260088110612d5257612d51613ac8565b5b602002015163ffffffff16815260200184600360088110612d7657612d75613ac8565b5b602002015163ffffffff16815260200184600460088110612d9a57612d99613ac8565b5b602002015163ffffffff16815260200184600560088110612dbe57612dbd613ac8565b5b602002015163ffffffff16815260200184600660088110612de257612de1613ac8565b5b602002015163ffffffff16815260200184600760088110612e0657612e05613ac8565b5b602002015163ffffffff168152509850612e1f84612f43565b8096508199505050612e3285878d61312f565b965050505050505093509350939050565b60008060008403612e7b57600091506096603284612e619190614936565b61012c612e6e9190613d24565b612e789190614c02565b90505b60018403612ebb576001915060026096603285612e989190614936565b60e1612ea49190613d24565b612eae9190614c02565b612eb89190614c02565b90505b60028403612efb576001915060026096603285612ed89190614936565b604b612ee49190613d24565b612eee9190614c02565b612ef89190614c02565b90505b60038403612f3c576002915060026096603285612f189190614936565b61012c612f259190613d24565b612f2f9190614c02565b612f399190614c02565b90505b9250929050565b6000806000604051806101000160405280600081526020016001815260200160028152602001600381526020016004815260200160058152602001600681526020016007815250905060006008905060005b818110156130f1576000600182612fac9190614936565b90505b828110156130dd57868160088110612fca57612fc9613ac8565b5b6020020151878360088110612fe257612fe1613ac8565b5b602002015110156130ca57600087836008811061300257613001613ac8565b5b60200201519050600085846008811061301e5761301d613ac8565b5b6020020151905088836008811061303857613037613ac8565b5b60200201518985600881106130505761304f613ac8565b5b60200201818152505085836008811061306c5761306b613ac8565b5b602002015186856008811061308457613083613ac8565b5b602002018181525050818984600881106130a1576130a0613ac8565b5b602002018181525050808684600881106130be576130bd613ac8565b5b60200201818152505050505b80806130d590613b26565b915050612faf565b5080806130e990613b26565b915050612f95565b508160006008811061310657613105613ac8565b5b602002015193508460006008811061312157613120613ac8565b5b602002015192505050915091565b60008083838661313f9190613d24565b6131499190614c02565b905060058111801561315c5750600a8111155b1561316657600191505b600a811180156131775750600f8111155b1561318157600291505b600f81118015613192575060148111155b1561319c57600391505b6014811180156131ad5750601e8111155b156131b757600491505b601e811180156131c85750602d8111155b156131d257600591505b602d811180156131e3575060418111155b156131ed57600691505b60418111156131fb57600791505b509392505050565b6040518060c001604052806000815260200160008152602001600081526020016000815260200160008152602001600081525090565b6040518060800160405280600067ffffffffffffffff168152602001600067ffffffffffffffff168152602001600067ffffffffffffffff168152602001600067ffffffffffffffff1681525090565b60405180610100016040528060008152602001600081526020016000815260200160008152602001600081526020016000815260200160008152602001600081525090565b604051806101000160405280600890602082028036833780820191505090505090565b6000604051905090565b600080fd5b600080fd5b600067ffffffffffffffff82169050919050565b61332281613305565b811461332d57600080fd5b50565b60008135905061333f81613319565b92915050565b6000819050919050565b61335881613345565b811461336357600080fd5b50565b6000813590506133758161334f565b92915050565b60008060408385031215613392576133916132fb565b5b60006133a085828601613330565b92505060206133b185828601613366565b9150509250929050565b600073ffffffffffffffffffffffffffffffffffffffff82169050919050565b60006133e6826133bb565b9050919050565b6133f6816133db565b811461340157600080fd5b50565b600081359050613413816133ed565b92915050565b60006020828403121561342f5761342e6132fb565b5b600061343d84828501613404565b91505092915050565b61344f81613345565b82525050565b61345e81613305565b82525050565b600063ffffffff82169050919050565b61347d81613464565b82525050565b60008115159050919050565b61349881613483565b82525050565b600060a0820190506134b36000830188613446565b6134c06020830187613455565b6134cd6040830186613474565b6134da6060830185613446565b6134e7608083018461348f565b9695505050505050565b6000602082019050613506600083018461348f565b92915050565b600060208284031215613522576135216132fb565b5b600061353084828501613366565b91505092915050565b61354281613345565b82525050565b60c08201600082015161355e6000850182613539565b5060208201516135716020850182613539565b5060408201516135846040850182613539565b5060608201516135976060850182613539565b5060808201516135aa6080850182613539565b5060a08201516135bd60a0850182613539565b50505050565b600060c0820190506135d86000830184613548565b92915050565b600080604083850312156135f5576135f46132fb565b5b600061360385828601613366565b925050602061361485828601613366565b9150509250929050565b613627816133db565b82525050565b6000602082019050613642600083018461361e565b92915050565b600080fd5b6000601f19601f8301169050919050565b7f4e487b7100000000000000000000000000000000000000000000000000000000600052604160045260246000fd5b6136968261364d565b810181811067ffffffffffffffff821117156136b5576136b461365e565b5b80604052505050565b60006136c86132f1565b90506136d4828261368d565b919050565b600067ffffffffffffffff8211156136f4576136f361365e565b5b602082029050602081019050919050565b600080fd5b600061371d613718846136d9565b6136be565b905080838252602082019050602084028301858111156137405761373f613705565b5b835b8181101561376957806137558882613366565b845260208401935050602081019050613742565b5050509392505050565b600082601f83011261378857613787613648565b5b813561379884826020860161370a565b91505092915050565b600080604083850312156137b8576137b76132fb565b5b60006137c685828601613404565b925050602083013567ffffffffffffffff8111156137e7576137e6613300565b5b6137f385828601613773565b9150509250929050565b60008060408385031215613814576138136132fb565b5b600061382285828601613366565b925050602061383385828601613330565b9150509250929050565b60006020820190506138526000830184613446565b92915050565b60006020828403121561386e5761386d6132fb565b5b600061387c84828501613330565b91505092915050565b600082825260208201905092915050565b7f654d4e54523a204e6f207265717565737420746f206d696e742e000000000000600082015250565b60006138cc601a83613885565b91506138d782613896565b602082019050919050565b600060208201905081810360008301526138fb816138bf565b9050919050565b61390b81613483565b811461391657600080fd5b50565b60008151905061392881613902565b92915050565b60008151905061393d8161334f565b92915050565b6000613956613951846136d9565b6136be565b9050808382526020820190506020840283018581111561397957613978613705565b5b835b818110156139a2578061398e888261392e565b84526020840193505060208101905061397b565b5050509392505050565b600082601f8301126139c1576139c0613648565b5b81516139d1848260208601613943565b91505092915050565b600080604083850312156139f1576139f06132fb565b5b60006139ff85828601613919565b925050602083015167ffffffffffffffff811115613a2057613a1f613300565b5b613a2c858286016139ac565b9150509250929050565b7f654d4e54523a2052657175657374206973206e6f74207965742066756c66696c60008201527f6c6564206f7220696e76616c696420726571756573742069642e000000000000602082015250565b6000613a92603a83613885565b9150613a9d82613a36565b604082019050919050565b60006020820190508181036000830152613ac181613a85565b9050919050565b7f4e487b7100000000000000000000000000000000000000000000000000000000600052603260045260246000fd5b7f4e487b7100000000000000000000000000000000000000000000000000000000600052601160045260246000fd5b6000613b3182613345565b91507fffffffffffffffffffffffffffffffffffffffffffffffffffffffffffffffff8203613b6357613b62613af7565b5b600182019050919050565b7f654d4e54523a205468657265206973206120726571756573742070656e64696e60008201527f67206d696e742e00000000000000000000000000000000000000000000000000602082015250565b6000613bca602783613885565b9150613bd582613b6e565b604082019050919050565b60006020820190508181036000830152613bf981613bbd565b9050919050565b7f654d4e54523a20496e636f7272656374206e756d62657220666f7220616e206560008201527f717569706d656e7420747970652e000000000000000000000000000000000000602082015250565b6000613c5c602e83613885565b9150613c6782613c00565b604082019050919050565b60006020820190508181036000830152613c8b81613c4f565b9050919050565b7f654d4e54523a2043616e206f6e6c79207265717565737420746f206d696e742060008201527f3120746f2033206974656d7320617420612074696d652e000000000000000000602082015250565b6000613cee603783613885565b9150613cf982613c92565b604082019050919050565b60006020820190508181036000830152613d1d81613ce1565b9050919050565b6000613d2f82613345565b9150613d3a83613345565b9250828202613d4881613345565b91508282048414831517613d5f57613d5e613af7565b5b5092915050565b7f654d4e54523a20496e636f727265637420616d6f756e7420666f72206571756960008201527f706d656e74206d696e74696e672e2053656e642065786163746c7920302e303160208201527f204d4154494320706572206974656d207265717565737465642e000000000000604082015250565b6000613de8605a83613885565b9150613df382613d66565b606082019050919050565b60006020820190508181036000830152613e1781613ddb565b9050919050565b7f654d4e54523a204e6f7420656e6f756768206d6174657269616c7320666f722060008201527f74686973206372616674696e67207472616e73616374696f6e2e000000000000602082015250565b6000613e7a603a83613885565b9150613e8582613e1e565b604082019050919050565b60006020820190508181036000830152613ea981613e6d565b9050919050565b6000606082019050613ec5600083018661361e565b613ed26020830185613474565b613edf604083018461348f565b949350505050565b600060208284031215613efd57613efc6132fb565b5b6000613f0b8482850161392e565b91505092915050565b60008160001c9050919050565b6000819050919050565b6000613f3e613f3983613f14565b613f21565b9050919050565b600067ffffffffffffffff82169050919050565b6000613f6c613f6783613f14565b613f45565b9050919050565b613f7c81613305565b82525050565b60008160401c9050919050565b600063ffffffff82169050919050565b6000613fb2613fad83613f82565b613f8f565b9050919050565b613fc281613464565b82525050565b600060ff82169050919050565b6000613fe8613fe383613f14565b613fc8565b9050919050565b613ff881613483565b82525050565b60a08201600080830154905061401381613f2b565b6140206000860182613539565b506001830154905061403181613f59565b61403e6020860182613f73565b5061404881613f9f565b6140556040860182613fb9565b506002830154905061406681613f2b565b6140736060860182613539565b506003830154905061408481613fd5565b6140916080860182613fef565b5050505050565b600060a0820190506140ad6000830184613ffe565b92915050565b600081905092915050565b50565b60006140ce6000836140b3565b91506140d9826140be565b600082019050919050565b60006140ef826140c1565b9150819050919050565b7f4661696c656420746f207769746864726177206d61746963732e000000000000600082015250565b600061412f601a83613885565b915061413a826140f9565b602082019050919050565b6000602082019050818103600083015261415e81614122565b9050919050565b7f654d4e54523a2043616e206f6e6c792062652063616c6c65642062792074686560008201527f2056524620436f6e747261637420666f722065717569706d656e74206372616660208201527f74696e672e000000000000000000000000000000000000000000000000000000604082015250565b60006141e7604583613885565b91506141f282614165565b606082019050919050565b60006020820190508181036000830152614216816141da565b9050919050565b7f654d4e54523a20696e76616c6964206571707420747970652e00000000000000600082015250565b6000614253601983613885565b915061425e8261421d565b602082019050919050565b6000602082019050818103600083015261428281614246565b9050919050565b7f654d4e54523a2073656e6420302e3031206d6174696300000000000000000000600082015250565b60006142bf601683613885565b91506142ca82614289565b602082019050919050565b600060208201905081810360008301526142ee816142b2565b9050919050565b7f654d4e54523a2063686172616374657220616c7265616479206d696e7465642e600082015250565b600061432b602083613885565b9150614336826142f5565b602082019050919050565b6000602082019050818103600083015261435a8161431e565b9050919050565b600080fd5b61436f81613464565b811461437a57600080fd5b50565b60008151905061438c81614366565b92915050565b600061010082840312156143a9576143a8614361565b5b6143b46101006136be565b905060006143c48482850161437d565b60008301525060206143d88482850161437d565b60208301525060406143ec8482850161437d565b60408301525060606144008482850161437d565b60608301525060806144148482850161437d565b60808301525060a06144288482850161437d565b60a08301525060c061443c8482850161437d565b60c08301525060e06144508482850161437d565b60e08301525092915050565b60006101008284031215614473576144726132fb565b5b600061448184828501614392565b91505092915050565b7f654d4e54523a20696e7375662063686172206578702e00000000000000000000600082015250565b60006144c0601683613885565b91506144cb8261448a565b602082019050919050565b600060208201905081810360008301526144ef816144b3565b9050919050565b600060408201905061450b600083018561361e565b6145186020830184613446565b9392505050565b600060208284031215614535576145346132fb565b5b600061454384828501613919565b91505092915050565b7f654d4e54523a20636861726163746572206e6f74206f776e65642e0000000000600082015250565b6000614582601b83613885565b915061458d8261454c565b602082019050919050565b600060208201905081810360008301526145b181614575565b9050919050565b6000819050919050565b6000819050919050565b60006145e76145e26145dd846145b8565b6145c2565b613464565b9050919050565b6145f7816145cc565b82525050565b6000606082019050614612600083018661361e565b61461f60208301856145ee565b61462c604083018461348f565b949350505050565b7f654d4e54523a2043616e6e6f742063616e63656c206e6f6e2d6578697374696e60008201527f672072657175657374732e000000000000000000000000000000000000000000602082015250565b6000614690602b83613885565b915061469b82614634565b604082019050919050565b600060208201905081810360008301526146bf81614683565b9050919050565b60006146d182613345565b91506146dc83613345565b92508282039050818111156146f4576146f3613af7565b5b92915050565b7f654d4e54523a2043616e6e6f742063616e63656c20726571756573747320746860008201527f617420686176656e74206c6170736564203120686f75722066726f6d2074696d60208201527f65207265717565737465642e0000000000000000000000000000000000000000604082015250565b600061477c604c83613885565b9150614787826146fa565b606082019050919050565b600060208201905081810360008301526147ab8161476f565b9050919050565b7f654d4e54523a2043616e6e6f742063616e63656c20726571756573747320746860008201527f6174206861766520616c7265616479206265656e2066756c66696c6c65642e00602082015250565b600061480e603f83613885565b9150614819826147b2565b604082019050919050565b6000602082019050818103600083015261483d81614801565b9050919050565b7f4f776e61626c653a206e6577206f776e657220697320746865207a65726f206160008201527f6464726573730000000000000000000000000000000000000000000000000000602082015250565b60006148a0602683613885565b91506148ab82614844565b604082019050919050565b600060208201905081810360008301526148cf81614893565b9050919050565b7f4e487b7100000000000000000000000000000000000000000000000000000000600052601260045260246000fd5b600061491082613345565b915061491b83613345565b92508261492b5761492a6148d6565b5b828206905092915050565b600061494182613345565b915061494c83613345565b925082820190508082111561496457614963613af7565b5b92915050565b6080820160008201516149806000850182613f73565b5060208201516149936020850182613f73565b5060408201516149a66040850182613f73565b5060608201516149b96060850182613f73565b50505050565b610100820160008201516149d66000850182613539565b5060208201516149e96020850182613539565b5060408201516149fc6040850182613539565b506060820151614a0f6060850182613539565b506080820151614a226080850182613539565b5060a0820151614a3560a0850182613539565b5060c0820151614a4860c0850182613539565b5060e0820151614a5b60e0850182613539565b50505050565b60006101a082019050614a77600083018661361e565b614a84602083018561496a565b614a9160a08301846149bf565b949350505050565b7f5061757361626c653a2070617573656400000000000000000000000000000000600082015250565b6000614acf601083613885565b9150614ada82614a99565b602082019050919050565b60006020820190508181036000830152614afe81614ac2565b9050919050565b7f4f776e61626c653a2063616c6c6572206973206e6f7420746865206f776e6572600082015250565b6000614b3b602083613885565b9150614b4682614b05565b602082019050919050565b60006020820190508181036000830152614b6a81614b2e565b9050919050565b6000819050919050565b6000614b8682614b71565b91507f80000000000000000000000000000000000000000000000000000000000000008203614bb857614bb7613af7565b5b600182039050919050565b600061ffff82169050919050565b6000614bdc82614bc3565b9150614be783614bc3565b925082614bf757614bf66148d6565b5b828206905092915050565b6000614c0d82613345565b9150614c1883613345565b925082614c2857614c276148d6565b5b82820490509291505056fea26469706673582212206b22a03cec74f0527de9c70d2b27abcca96289056cba05e129a15b1ee78bc0f764736f6c63430008110033",
  "linkReferences": {},
  "deployedLinkReferences": {}
}