{
  "_format": "hh-sol-artifact-1",
  "contractName": "CharacterMinter",
  "sourceName": "contracts/periphery/routers/CharacterMinter.sol",
  "abi": [
    {
      "inputs": [
        {
          "internalType": "address",
          "name": "charactersNftAddress",
          "type": "address"
        }
      ],
      "stateMutability": "nonpayable",
      "type": "constructor"
    },
    {
      "anonymous": false,
      "inputs": [
        {
          "indexed": true,
          "internalType": "address",
          "name": "user",
          "type": "address"
        },
        {
          "components": [
            {
              "internalType": "uint256",
              "name": "request_id",
              "type": "uint256"
            },
            {
              "internalType": "uint32",
              "name": "character_faction",
              "type": "uint32"
            },
            {
              "internalType": "uint32",
              "name": "character_class",
              "type": "uint32"
            },
            {
              "internalType": "string",
              "name": "_name",
              "type": "string"
            },
            {
              "internalType": "uint256",
              "name": "time_requested",
              "type": "uint256"
            }
          ],
          "indexed": false,
          "internalType": "struct character_request",
          "name": "request",
          "type": "tuple"
        }
      ],
      "name": "CharacterRequested",
      "type": "event"
    },
    {
      "anonymous": false,
      "inputs": [
        {
          "indexed": true,
          "internalType": "address",
          "name": "previousOwner",
          "type": "address"
        },
        {
          "indexed": true,
          "internalType": "address",
          "name": "newOwner",
          "type": "address"
        }
      ],
      "name": "OwnershipTransferred",
      "type": "event"
    },
    {
      "anonymous": false,
      "inputs": [
        {
          "indexed": false,
          "internalType": "address",
          "name": "account",
          "type": "address"
        }
      ],
      "name": "Paused",
      "type": "event"
    },
    {
      "anonymous": false,
      "inputs": [
        {
          "indexed": false,
          "internalType": "address",
          "name": "account",
          "type": "address"
        }
      ],
      "name": "Unpaused",
      "type": "event"
    },
    {
      "inputs": [],
      "name": "cancelRequestExperimental",
      "outputs": [],
      "stateMutability": "nonpayable",
      "type": "function"
    },
    {
      "inputs": [],
      "name": "mintCharacter",
      "outputs": [],
      "stateMutability": "nonpayable",
      "type": "function"
    },
    {
      "inputs": [
        {
          "internalType": "address",
          "name": "user",
          "type": "address"
        },
        {
          "internalType": "uint256[]",
          "name": "randomNumberRequested",
          "type": "uint256[]"
        }
      ],
      "name": "mintCharacterExperimental",
      "outputs": [],
      "stateMutability": "nonpayable",
      "type": "function"
    },
    {
      "inputs": [],
      "name": "owner",
      "outputs": [
        {
          "internalType": "address",
          "name": "",
          "type": "address"
        }
      ],
      "stateMutability": "view",
      "type": "function"
    },
    {
      "inputs": [],
      "name": "paused",
      "outputs": [
        {
          "internalType": "bool",
          "name": "",
          "type": "bool"
        }
      ],
      "stateMutability": "view",
      "type": "function"
    },
    {
      "inputs": [],
      "name": "renounceOwnership",
      "outputs": [],
      "stateMutability": "nonpayable",
      "type": "function"
    },
    {
      "inputs": [
        {
          "internalType": "address",
          "name": "",
          "type": "address"
        }
      ],
      "name": "request",
      "outputs": [
        {
          "internalType": "uint256",
          "name": "request_id",
          "type": "uint256"
        },
        {
          "internalType": "uint32",
          "name": "character_faction",
          "type": "uint32"
        },
        {
          "internalType": "uint32",
          "name": "character_class",
          "type": "uint32"
        },
        {
          "internalType": "string",
          "name": "_name",
          "type": "string"
        },
        {
          "internalType": "uint256",
          "name": "time_requested",
          "type": "uint256"
        }
      ],
      "stateMutability": "view",
      "type": "function"
    },
    {
      "inputs": [
        {
          "internalType": "uint32",
          "name": "_character_faction",
          "type": "uint32"
        },
        {
          "internalType": "uint32",
          "name": "_character_class",
          "type": "uint32"
        },
        {
          "internalType": "string",
          "name": "_character_name",
          "type": "string"
        }
      ],
      "name": "requestCharacter",
      "outputs": [],
      "stateMutability": "payable",
      "type": "function"
    },
    {
      "inputs": [
        {
          "internalType": "uint32",
          "name": "_character_faction",
          "type": "uint32"
        },
        {
          "internalType": "uint32",
          "name": "_character_class",
          "type": "uint32"
        },
        {
          "internalType": "string",
          "name": "_character_name",
          "type": "string"
        }
      ],
      "name": "requestCharacterExperimental",
      "outputs": [],
      "stateMutability": "payable",
      "type": "function"
    },
    {
      "inputs": [
        {
          "internalType": "uint256",
          "name": "amount",
          "type": "uint256"
        }
      ],
      "name": "setMintFee",
      "outputs": [],
      "stateMutability": "nonpayable",
      "type": "function"
    },
    {
      "inputs": [
        {
          "internalType": "address",
          "name": "_vrf_contract_address",
          "type": "address"
        }
      ],
      "name": "setRandomizationContract",
      "outputs": [],
      "stateMutability": "nonpayable",
      "type": "function"
    },
    {
      "inputs": [
        {
          "internalType": "address",
          "name": "newOwner",
          "type": "address"
        }
      ],
      "name": "transferOwnership",
      "outputs": [],
      "stateMutability": "nonpayable",
      "type": "function"
    },
    {
      "inputs": [],
      "name": "withdraw",
      "outputs": [],
      "stateMutability": "nonpayable",
      "type": "function"
    }
  ],
  "bytecode": "0x60806040523480156200001157600080fd5b50604051620039a1380380620039a1833981810160405281019062000037919062000230565b620000576200004b620000fa60201b60201c565b6200010260201b60201c565b60008060146101000a81548160ff02191690831515021790555080600360006101000a81548173ffffffffffffffffffffffffffffffffffffffff021916908373ffffffffffffffffffffffffffffffffffffffff16021790555033600460006101000a81548173ffffffffffffffffffffffffffffffffffffffff021916908373ffffffffffffffffffffffffffffffffffffffff1602179055505062000262565b600033905090565b60008060009054906101000a900473ffffffffffffffffffffffffffffffffffffffff169050816000806101000a81548173ffffffffffffffffffffffffffffffffffffffff021916908373ffffffffffffffffffffffffffffffffffffffff1602179055508173ffffffffffffffffffffffffffffffffffffffff168173ffffffffffffffffffffffffffffffffffffffff167f8be0079c531659141344cd1fd0a4f28419497f9722a3daafe3b4186f6b6457e060405160405180910390a35050565b600080fd5b600073ffffffffffffffffffffffffffffffffffffffff82169050919050565b6000620001f882620001cb565b9050919050565b6200020a81620001eb565b81146200021657600080fd5b50565b6000815190506200022a81620001ff565b92915050565b600060208284031215620002495762000248620001c6565b5b6000620002598482850162000219565b91505092915050565b61372f80620002726000396000f3fe6080604052600436106100c25760003560e01c80638da5cb5b1161007f578063bd97bb8111610059578063bd97bb8114610204578063eddd0d9c1461022d578063f2fde38b14610256578063faf039f41461027f576100c2565b80638da5cb5b146101a6578063904ccb35146101d1578063b25f9b3e146101ed576100c2565b8063072b767e146100c757806327c78c42146100e35780633ccfd60b146101245780635473e9781461013b5780635c975abb14610164578063715018a61461018f575b600080fd5b6100e160048036038101906100dc9190612104565b610296565b005b3480156100ef57600080fd5b5061010a600480360381019061010591906121d1565b61071d565b60405161011b9594939291906122a5565b60405180910390f35b34801561013057600080fd5b506101396107fb565b005b34801561014757600080fd5b50610162600480360381019061015d91906121d1565b6108d4565b005b34801561017057600080fd5b50610179610961565b604051610186919061231a565b60405180910390f35b34801561019b57600080fd5b506101a4610977565b005b3480156101b257600080fd5b506101bb61098b565b6040516101c89190612344565b60405180910390f35b6101eb60048036038101906101e69190612104565b6109b4565b005b3480156101f957600080fd5b50610202610e3c565b005b34801561021057600080fd5b5061022b60048036038101906102269190612453565b611204565b005b34801561023957600080fd5b50610254600480360381019061024f91906124af565b61150c565b005b34801561026257600080fd5b5061027d600480360381019061027891906121d1565b61152d565b005b34801561028b57600080fd5b506102946115b0565b005b61029e61195b565b6000600660003373ffffffffffffffffffffffffffffffffffffffff1673ffffffffffffffffffffffffffffffffffffffff1681526020019081526020016000206040518060a0016040529081600082015481526020016001820160009054906101000a900463ffffffff1663ffffffff1663ffffffff1681526020016001820160049054906101000a900463ffffffff1663ffffffff1663ffffffff1681526020016002820180546103509061250b565b80601f016020809104026020016040519081016040528092919081815260200182805461037c9061250b565b80156103c95780601f1061039e576101008083540402835291602001916103c9565b820191906000526020600020905b8154815290600101906020018083116103ac57829003601f168201915b5050505050815260200160038201548152505090506000816000015114610425576040517f08c379a000000000000000000000000000000000000000000000000000000000815260040161041c906125ae565b60405180910390fd5b60048463ffffffff161061046e576040517f08c379a000000000000000000000000000000000000000000000000000000000815260040161046590612640565b60405180910390fd5b60058363ffffffff16106104b7576040517f08c379a00000000000000000000000000000000000000000000000000000000081526004016104ae906126d2565b60405180910390fd5b6005543410156104fc576040517f08c379a00000000000000000000000000000000000000000000000000000000081526004016104f39061278a565b60405180910390fd5b6040518060a00160405280600160009054906101000a900473ffffffffffffffffffffffffffffffffffffffff1673ffffffffffffffffffffffffffffffffffffffff16639bca039d336001806040518463ffffffff1660e01b8152600401610567939291906127ef565b6020604051808303816000875af1158015610586573d6000803e3d6000fd5b505050506040513d601f19601f820116820180604052508101906105aa919061283b565b81526020018563ffffffff1681526020018463ffffffff16815260200183815260200142815250600660003373ffffffffffffffffffffffffffffffffffffffff1673ffffffffffffffffffffffffffffffffffffffff1681526020019081526020016000206000820151816000015560208201518160010160006101000a81548163ffffffff021916908363ffffffff16021790555060408201518160010160046101000a81548163ffffffff021916908363ffffffff160217905550606082015181600201908161067d9190612a0a565b50608082015181600301559050503373ffffffffffffffffffffffffffffffffffffffff167fa01e06567550ac15ed4113c791e56045605da2f72d2378d7ce0c9b494c49e371600660003373ffffffffffffffffffffffffffffffffffffffff1673ffffffffffffffffffffffffffffffffffffffff16815260200190815260200160002060405161070f9190612cad565b60405180910390a250505050565b60066020528060005260406000206000915090508060000154908060010160009054906101000a900463ffffffff16908060010160049054906101000a900463ffffffff16908060020180546107729061250b565b80601f016020809104026020016040519081016040528092919081815260200182805461079e9061250b565b80156107eb5780601f106107c0576101008083540402835291602001916107eb565b820191906000526020600020905b8154815290600101906020018083116107ce57829003601f168201915b5050505050908060030154905085565b6108036119a5565b6000600460009054906101000a900473ffffffffffffffffffffffffffffffffffffffff1673ffffffffffffffffffffffffffffffffffffffff164760405161084b90612d00565b60006040518083038185875af1925050503d8060008114610888576040519150601f19603f3d011682016040523d82523d6000602084013e61088d565b606091505b50509050806108d1576040517f08c379a00000000000000000000000000000000000000000000000000000000081526004016108c890612d61565b60405180910390fd5b50565b6108dc6119a5565b80600260006101000a81548173ffffffffffffffffffffffffffffffffffffffff021916908373ffffffffffffffffffffffffffffffffffffffff16021790555080600160006101000a81548173ffffffffffffffffffffffffffffffffffffffff021916908373ffffffffffffffffffffffffffffffffffffffff16021790555050565b60008060149054906101000a900460ff16905090565b61097f6119a5565b6109896000611a23565b565b60008060009054906101000a900473ffffffffffffffffffffffffffffffffffffffff16905090565b6109bc61195b565b6000600660003373ffffffffffffffffffffffffffffffffffffffff1673ffffffffffffffffffffffffffffffffffffffff1681526020019081526020016000206040518060a0016040529081600082015481526020016001820160009054906101000a900463ffffffff1663ffffffff1663ffffffff1681526020016001820160049054906101000a900463ffffffff1663ffffffff1663ffffffff168152602001600282018054610a6e9061250b565b80601f0160208091040260200160405190810160405280929190818152602001828054610a9a9061250b565b8015610ae75780601f10610abc57610100808354040283529160200191610ae7565b820191906000526020600020905b815481529060010190602001808311610aca57829003601f168201915b5050505050815260200160038201548152505090506000816000015114610b43576040517f08c379a0000000000000000000000000000000000000000000000000000000008152600401610b3a906125ae565b60405180910390fd5b60048463ffffffff1610610b8c576040517f08c379a0000000000000000000000000000000000000000000000000000000008152600401610b8390612640565b60405180910390fd5b60058363ffffffff1610610bd5576040517f08c379a0000000000000000000000000000000000000000000000000000000008152600401610bcc906126d2565b60405180910390fd5b600554341015610c1a576040517f08c379a0000000000000000000000000000000000000000000000000000000008152600401610c119061278a565b60405180910390fd5b6040518060a00160405280600160009054906101000a900473ffffffffffffffffffffffffffffffffffffffff1673ffffffffffffffffffffffffffffffffffffffff16639bca039d33600160006040518463ffffffff1660e01b8152600401610c86939291906127ef565b6020604051808303816000875af1158015610ca5573d6000803e3d6000fd5b505050506040513d601f19601f82011682018060405250810190610cc9919061283b565b81526020018563ffffffff1681526020018463ffffffff16815260200183815260200142815250600660003373ffffffffffffffffffffffffffffffffffffffff1673ffffffffffffffffffffffffffffffffffffffff1681526020019081526020016000206000820151816000015560208201518160010160006101000a81548163ffffffff021916908363ffffffff16021790555060408201518160010160046101000a81548163ffffffff021916908363ffffffff1602179055506060820151816002019081610d9c9190612a0a565b50608082015181600301559050503373ffffffffffffffffffffffffffffffffffffffff167fa01e06567550ac15ed4113c791e56045605da2f72d2378d7ce0c9b494c49e371600660003373ffffffffffffffffffffffffffffffffffffffff1673ffffffffffffffffffffffffffffffffffffffff168152602001908152602001600020604051610e2e9190612cad565b60405180910390a250505050565b6000600660003373ffffffffffffffffffffffffffffffffffffffff1673ffffffffffffffffffffffffffffffffffffffff1681526020019081526020016000206040518060a0016040529081600082015481526020016001820160009054906101000a900463ffffffff1663ffffffff1663ffffffff1681526020016001820160049054906101000a900463ffffffff1663ffffffff1663ffffffff168152602001600282018054610eee9061250b565b80601f0160208091040260200160405190810160405280929190818152602001828054610f1a9061250b565b8015610f675780601f10610f3c57610100808354040283529160200191610f67565b820191906000526020600020905b815481529060010190602001808311610f4a57829003601f168201915b5050505050815260200160038201548152505090506000816000015111610fc3576040517f08c379a0000000000000000000000000000000000000000000000000000000008152600401610fba90612df3565b60405180910390fd5b610e10816080015142610fd69190612e42565b11611016576040517f08c379a000000000000000000000000000000000000000000000000000000000815260040161100d90612f0e565b60405180910390fd5b6000600160009054906101000a900473ffffffffffffffffffffffffffffffffffffffff1673ffffffffffffffffffffffffffffffffffffffff1663d8a4676f83600001516040518263ffffffff1660e01b81526004016110779190612f2e565b600060405180830381865afa158015611094573d6000803e3d6000fd5b505050506040513d6000823e3d601f19601f820116820180604052508101906110bd919061300c565b5090508015611101576040517f08c379a00000000000000000000000000000000000000000000000000000000081526004016110f8906130da565b60405180910390fd5b6040518060a0016040528060008152602001600063ffffffff168152602001600063ffffffff16815260200160405180602001604052806000815250815260200142815250600660003373ffffffffffffffffffffffffffffffffffffffff1673ffffffffffffffffffffffffffffffffffffffff1681526020019081526020016000206000820151816000015560208201518160010160006101000a81548163ffffffff021916908363ffffffff16021790555060408201518160010160046101000a81548163ffffffff021916908363ffffffff16021790555060608201518160020190816111f29190612a0a565b50608082015181600301559050505050565b600260009054906101000a900473ffffffffffffffffffffffffffffffffffffffff1673ffffffffffffffffffffffffffffffffffffffff163373ffffffffffffffffffffffffffffffffffffffff1614611294576040517f08c379a000000000000000000000000000000000000000000000000000000000815260040161128b90613192565b60405180910390fd5b6000600660008473ffffffffffffffffffffffffffffffffffffffff1673ffffffffffffffffffffffffffffffffffffffff1681526020019081526020016000206040518060a0016040529081600082015481526020016001820160009054906101000a900463ffffffff1663ffffffff1663ffffffff1681526020016001820160049054906101000a900463ffffffff1663ffffffff1663ffffffff1681526020016002820180546113469061250b565b80601f01602080910402602001604051908101604052809291908181526020018280546113729061250b565b80156113bf5780601f10611394576101008083540402835291602001916113bf565b820191906000526020600020905b8154815290600101906020018083116113a257829003601f168201915b50505050508152602001600382015481525050905061140883836000815181106113ec576113eb6131b2565b5b6020026020010151836020015184604001518560600151611ae7565b6040518060a0016040528060008152602001600063ffffffff168152602001600063ffffffff16815260200160405180602001604052806000815250815260200142815250600660008573ffffffffffffffffffffffffffffffffffffffff1673ffffffffffffffffffffffffffffffffffffffff1681526020019081526020016000206000820151816000015560208201518160010160006101000a81548163ffffffff021916908363ffffffff16021790555060408201518160010160046101000a81548163ffffffff021916908363ffffffff16021790555060608201518160020190816114f99190612a0a565b5060808201518160030155905050505050565b6115146119a5565b633b9aca008161152491906131e1565b60058190555050565b6115356119a5565b600073ffffffffffffffffffffffffffffffffffffffff168173ffffffffffffffffffffffffffffffffffffffff16036115a4576040517f08c379a000000000000000000000000000000000000000000000000000000000815260040161159b90613295565b60405180910390fd5b6115ad81611a23565b50565b6000600660003373ffffffffffffffffffffffffffffffffffffffff1673ffffffffffffffffffffffffffffffffffffffff1681526020019081526020016000206040518060a0016040529081600082015481526020016001820160009054906101000a900463ffffffff1663ffffffff1663ffffffff1681526020016001820160049054906101000a900463ffffffff1663ffffffff1663ffffffff1681526020016002820180546116629061250b565b80601f016020809104026020016040519081016040528092919081815260200182805461168e9061250b565b80156116db5780601f106116b0576101008083540402835291602001916116db565b820191906000526020600020905b8154815290600101906020018083116116be57829003601f168201915b5050505050815260200160038201548152505090506000816000015111611737576040517f08c379a000000000000000000000000000000000000000000000000000000000815260040161172e90613301565b60405180910390fd5b600080600160009054906101000a900473ffffffffffffffffffffffffffffffffffffffff1673ffffffffffffffffffffffffffffffffffffffff1663d8a4676f84600001516040518263ffffffff1660e01b81526004016117999190612f2e565b600060405180830381865afa1580156117b6573d6000803e3d6000fd5b505050506040513d6000823e3d601f19601f820116820180604052508101906117df919061300c565b9150915081611823576040517f08c379a000000000000000000000000000000000000000000000000000000000815260040161181a90613393565b60405180910390fd5b611857338260008151811061183b5761183a6131b2565b5b6020026020010151856020015186604001518760600151611ae7565b6040518060a0016040528060008152602001600063ffffffff168152602001600063ffffffff16815260200160405180602001604052806000815250815260200142815250600660003373ffffffffffffffffffffffffffffffffffffffff1673ffffffffffffffffffffffffffffffffffffffff1681526020019081526020016000206000820151816000015560208201518160010160006101000a81548163ffffffff021916908363ffffffff16021790555060408201518160010160046101000a81548163ffffffff021916908363ffffffff16021790555060608201518160020190816119489190612a0a565b5060808201518160030155905050505050565b611963610961565b156119a3576040517f08c379a000000000000000000000000000000000000000000000000000000000815260040161199a906133ff565b60405180910390fd5b565b6119ad611b8f565b73ffffffffffffffffffffffffffffffffffffffff166119cb61098b565b73ffffffffffffffffffffffffffffffffffffffff1614611a21576040517f08c379a0000000000000000000000000000000000000000000000000000000008152600401611a189061346b565b60405180910390fd5b565b60008060009054906101000a900473ffffffffffffffffffffffffffffffffffffffff169050816000806101000a81548173ffffffffffffffffffffffffffffffffffffffff021916908373ffffffffffffffffffffffffffffffffffffffff1602179055508173ffffffffffffffffffffffffffffffffffffffff168173ffffffffffffffffffffffffffffffffffffffff167f8be0079c531659141344cd1fd0a4f28419497f9722a3daafe3b4186f6b6457e060405160405180910390a35050565b6000611af4858585611b97565b9050600360009054906101000a900473ffffffffffffffffffffffffffffffffffffffff1673ffffffffffffffffffffffffffffffffffffffff16630dffcd858783856040518463ffffffff1660e01b8152600401611b559392919061352d565b600060405180830381600087803b158015611b6f57600080fd5b505af1158015611b83573d6000803e3d6000fd5b50505050505050505050565b600033905090565b611b9f611ef9565b6000611baa85611d06565b90506000611bd282600781518110611bc557611bc46131b2565b5b6020026020010151611de0565b90506000806000611c3585600681518110611bf057611bef6131b2565b5b602002602001015186600581518110611c0c57611c0b6131b2565b5b602002602001015187600481518110611c2857611c276131b2565b5b6020026020010151611df6565b9250925092506000611c6186600381518110611c5457611c536131b2565b5b6020026020010151611ecd565b90506000611c8987600281518110611c7c57611c7b6131b2565b5b6020026020010151611ee3565b90506040518061010001604052808b63ffffffff1681526020018a63ffffffff1681526020018763ffffffff1681526020018663ffffffff1681526020018563ffffffff1681526020018463ffffffff1681526020018363ffffffff168152602001600063ffffffff168152509750505050505050509392505050565b60606000600867ffffffffffffffff811115611d2557611d24611fd9565b5b604051908082528060200260200182016040528015611d535781602001602082028036833780820191505090505b509050600063ffffffff9050600080600790505b60008112611dd45760008387169050602084901b93508281901c905080858381518110611d9757611d966131b2565b5b602002602001019063ffffffff16908163ffffffff1681525050602083611dbe919061356d565b9250508080611dcc906135ab565b915050611d67565b50829350505050919050565b6000600482611def9190613622565b9050919050565b6000806000806103e887611e0a9190613622565b905060006103e887611e1c9190613622565b905060006103e887611e2e9190613622565b90506000818385611e3f9190613653565b611e499190613653565b905060968161022686611e5c919061368b565b611e6691906136c8565b611e709190613653565b965060968161022685611e83919061368b565b611e8d91906136c8565b611e979190613653565b955060968161022684611eaa919061368b565b611eb491906136c8565b611ebe9190613653565b94505050505093509350939050565b6000600682611edc9190613622565b9050919050565b6000600a82611ef29190613622565b9050919050565b604051806101000160405280600063ffffffff168152602001600063ffffffff168152602001600063ffffffff168152602001600063ffffffff168152602001600063ffffffff168152602001600063ffffffff168152602001600063ffffffff168152602001600063ffffffff1681525090565b6000604051905090565b600080fd5b600080fd5b600063ffffffff82169050919050565b611f9b81611f82565b8114611fa657600080fd5b50565b600081359050611fb881611f92565b92915050565b600080fd5b600080fd5b6000601f19601f8301169050919050565b7f4e487b7100000000000000000000000000000000000000000000000000000000600052604160045260246000fd5b61201182611fc8565b810181811067ffffffffffffffff821117156120305761202f611fd9565b5b80604052505050565b6000612043611f6e565b905061204f8282612008565b919050565b600067ffffffffffffffff82111561206f5761206e611fd9565b5b61207882611fc8565b9050602081019050919050565b82818337600083830152505050565b60006120a76120a284612054565b612039565b9050828152602081018484840111156120c3576120c2611fc3565b5b6120ce848285612085565b509392505050565b600082601f8301126120eb576120ea611fbe565b5b81356120fb848260208601612094565b91505092915050565b60008060006060848603121561211d5761211c611f78565b5b600061212b86828701611fa9565b935050602061213c86828701611fa9565b925050604084013567ffffffffffffffff81111561215d5761215c611f7d565b5b612169868287016120d6565b9150509250925092565b600073ffffffffffffffffffffffffffffffffffffffff82169050919050565b600061219e82612173565b9050919050565b6121ae81612193565b81146121b957600080fd5b50565b6000813590506121cb816121a5565b92915050565b6000602082840312156121e7576121e6611f78565b5b60006121f5848285016121bc565b91505092915050565b6000819050919050565b612211816121fe565b82525050565b61222081611f82565b82525050565b600081519050919050565b600082825260208201905092915050565b60005b83811015612260578082015181840152602081019050612245565b60008484015250505050565b600061227782612226565b6122818185612231565b9350612291818560208601612242565b61229a81611fc8565b840191505092915050565b600060a0820190506122ba6000830188612208565b6122c76020830187612217565b6122d46040830186612217565b81810360608301526122e6818561226c565b90506122f56080830184612208565b9695505050505050565b60008115159050919050565b612314816122ff565b82525050565b600060208201905061232f600083018461230b565b92915050565b61233e81612193565b82525050565b60006020820190506123596000830184612335565b92915050565b600067ffffffffffffffff82111561237a57612379611fd9565b5b602082029050602081019050919050565b600080fd5b612399816121fe565b81146123a457600080fd5b50565b6000813590506123b681612390565b92915050565b60006123cf6123ca8461235f565b612039565b905080838252602082019050602084028301858111156123f2576123f161238b565b5b835b8181101561241b578061240788826123a7565b8452602084019350506020810190506123f4565b5050509392505050565b600082601f83011261243a57612439611fbe565b5b813561244a8482602086016123bc565b91505092915050565b6000806040838503121561246a57612469611f78565b5b6000612478858286016121bc565b925050602083013567ffffffffffffffff81111561249957612498611f7d565b5b6124a585828601612425565b9150509250929050565b6000602082840312156124c5576124c4611f78565b5b60006124d3848285016123a7565b91505092915050565b7f4e487b7100000000000000000000000000000000000000000000000000000000600052602260045260246000fd5b6000600282049050600182168061252357607f821691505b602082108103612536576125356124dc565b5b50919050565b7f634d4e54523a205468657265206973206120726571756573742070656e64696e60008201527f67206d696e742e00000000000000000000000000000000000000000000000000602082015250565b6000612598602783612231565b91506125a38261253c565b604082019050919050565b600060208201905081810360008301526125c78161258b565b9050919050565b7f634d4e54523a20496e636f7272656374206e756d62657220666f72206120636860008201527f617261637465722066616374696f6e2e00000000000000000000000000000000602082015250565b600061262a603083612231565b9150612635826125ce565b604082019050919050565b600060208201905081810360008301526126598161261d565b9050919050565b7f634d4e54523a20496e636f7272656374206e756d62657220666f72206120636860008201527f6172616374657220636c6173732e000000000000000000000000000000000000602082015250565b60006126bc602e83612231565b91506126c782612660565b604082019050919050565b600060208201905081810360008301526126eb816126af565b9050919050565b7f634d4e54523a20496e636f727265637420616d6f756e7420666f72206368617260008201527f6163746572206d696e74696e672e2053656e642065786163746c7920302e303160208201527f204d4154494320706572206974656d207265717565737465642e000000000000604082015250565b6000612774605a83612231565b915061277f826126f2565b606082019050919050565b600060208201905081810360008301526127a381612767565b9050919050565b6000819050919050565b6000819050919050565b60006127d96127d46127cf846127aa565b6127b4565b611f82565b9050919050565b6127e9816127be565b82525050565b60006060820190506128046000830186612335565b61281160208301856127e0565b61281e604083018461230b565b949350505050565b60008151905061283581612390565b92915050565b60006020828403121561285157612850611f78565b5b600061285f84828501612826565b91505092915050565b60008190508160005260206000209050919050565b60006020601f8301049050919050565b600082821b905092915050565b6000600883026128ca7fffffffffffffffffffffffffffffffffffffffffffffffffffffffffffffffff8261288d565b6128d4868361288d565b95508019841693508086168417925050509392505050565b60006129076129026128fd846121fe565b6127b4565b6121fe565b9050919050565b6000819050919050565b612921836128ec565b61293561292d8261290e565b84845461289a565b825550505050565b600090565b61294a61293d565b612955818484612918565b505050565b5b818110156129795761296e600082612942565b60018101905061295b565b5050565b601f8211156129be5761298f81612868565b6129988461287d565b810160208510156129a7578190505b6129bb6129b38561287d565b83018261295a565b50505b505050565b600082821c905092915050565b60006129e1600019846008026129c3565b1980831691505092915050565b60006129fa83836129d0565b9150826002028217905092915050565b612a1382612226565b67ffffffffffffffff811115612a2c57612a2b611fd9565b5b612a36825461250b565b612a4182828561297d565b600060209050601f831160018114612a745760008415612a62578287015190505b612a6c85826129ee565b865550612ad4565b601f198416612a8286612868565b60005b82811015612aaa57848901518255600182019150602085019450602081019050612a85565b86831015612ac75784890151612ac3601f8916826129d0565b8355505b6001600288020188555050505b505050505050565b60008160001c9050919050565b6000819050919050565b6000612b06612b0183612adc565b612ae9565b9050919050565b612b16816121fe565b82525050565b600063ffffffff82169050919050565b6000612b3f612b3a83612adc565b612b1c565b9050919050565b612b4f81611f82565b82525050565b60008160201c9050919050565b6000612b75612b7083612b55565b612b1c565b9050919050565b600082825260208201905092915050565b60008154612b9a8161250b565b612ba48186612b7c565b94506001821660008114612bbf5760018114612bd557612c08565b60ff198316865281151560200286019350612c08565b612bde85612868565b60005b83811015612c0057815481890152600182019150602081019050612be1565b808801955050505b50505092915050565b600060a083016000808401549050612c2881612af3565b612c356000870182612b0d565b5060018401549050612c4681612b2c565b612c536020870182612b46565b50612c5d81612b62565b612c6a6040870182612b46565b50600284018583036060870152612c818382612b8d565b92505060038401549050612c9481612af3565b612ca16080870182612b0d565b50819250505092915050565b60006020820190508181036000830152612cc78184612c11565b905092915050565b600081905092915050565b50565b6000612cea600083612ccf565b9150612cf582612cda565b600082019050919050565b6000612d0b82612cdd565b9150819050919050565b7f4661696c656420746f207769746864726177206d61746963732e000000000000600082015250565b6000612d4b601a83612231565b9150612d5682612d15565b602082019050919050565b60006020820190508181036000830152612d7a81612d3e565b9050919050565b7f634d4e54523a2043616e6e6f742063616e63656c206e6f6e2d6578697374696e60008201527f672072657175657374732e000000000000000000000000000000000000000000602082015250565b6000612ddd602b83612231565b9150612de882612d81565b604082019050919050565b60006020820190508181036000830152612e0c81612dd0565b9050919050565b7f4e487b7100000000000000000000000000000000000000000000000000000000600052601160045260246000fd5b6000612e4d826121fe565b9150612e58836121fe565b9250828203905081811115612e7057612e6f612e13565b5b92915050565b7f634d4e54523a2043616e6e6f742063616e63656c20726571756573747320746860008201527f617420686176656e74206c6170736564203120686f75722066726f6d2074696d60208201527f65207265717565737465642e0000000000000000000000000000000000000000604082015250565b6000612ef8604c83612231565b9150612f0382612e76565b606082019050919050565b60006020820190508181036000830152612f2781612eeb565b9050919050565b6000602082019050612f436000830184612208565b92915050565b612f52816122ff565b8114612f5d57600080fd5b50565b600081519050612f6f81612f49565b92915050565b6000612f88612f838461235f565b612039565b90508083825260208201905060208402830185811115612fab57612faa61238b565b5b835b81811015612fd45780612fc08882612826565b845260208401935050602081019050612fad565b5050509392505050565b600082601f830112612ff357612ff2611fbe565b5b8151613003848260208601612f75565b91505092915050565b6000806040838503121561302357613022611f78565b5b600061303185828601612f60565b925050602083015167ffffffffffffffff81111561305257613051611f7d565b5b61305e85828601612fde565b9150509250929050565b7f634d4e54523a2043616e6e6f742063616e63656c20726571756573747320746860008201527f6174206861766520616c7265616479206265656e2066756c66696c6c65642e00602082015250565b60006130c4603f83612231565b91506130cf82613068565b604082019050919050565b600060208201905081810360008301526130f3816130b7565b9050919050565b7f634d4e54523a2043616e206f6e6c792062652063616c6c65642062792074686560008201527f2056524620436f6e747261637420666f722065717569706d656e74206372616660208201527f74696e672e000000000000000000000000000000000000000000000000000000604082015250565b600061317c604583612231565b9150613187826130fa565b606082019050919050565b600060208201905081810360008301526131ab8161316f565b9050919050565b7f4e487b7100000000000000000000000000000000000000000000000000000000600052603260045260246000fd5b60006131ec826121fe565b91506131f7836121fe565b9250828202613205816121fe565b9150828204841483151761321c5761321b612e13565b5b5092915050565b7f4f776e61626c653a206e6577206f776e657220697320746865207a65726f206160008201527f6464726573730000000000000000000000000000000000000000000000000000602082015250565b600061327f602683612231565b915061328a82613223565b604082019050919050565b600060208201905081810360008301526132ae81613272565b9050919050565b7f634d4e5452533a204e6f207265717565737420746f206d696e742e0000000000600082015250565b60006132eb601b83612231565b91506132f6826132b5565b602082019050919050565b6000602082019050818103600083015261331a816132de565b9050919050565b7f634d4e5452533a2052657175657374206973206e6f74207965742066756c666960008201527f6c6c6564206f7220696e76616c696420726571756573742069642e0000000000602082015250565b600061337d603b83612231565b915061338882613321565b604082019050919050565b600060208201905081810360008301526133ac81613370565b9050919050565b7f5061757361626c653a2070617573656400000000000000000000000000000000600082015250565b60006133e9601083612231565b91506133f4826133b3565b602082019050919050565b60006020820190508181036000830152613418816133dc565b9050919050565b7f4f776e61626c653a2063616c6c6572206973206e6f7420746865206f776e6572600082015250565b6000613455602083612231565b91506134608261341f565b602082019050919050565b6000602082019050818103600083015261348481613448565b9050919050565b610100820160008201516134a26000850182612b46565b5060208201516134b56020850182612b46565b5060408201516134c86040850182612b46565b5060608201516134db6060850182612b46565b5060808201516134ee6080850182612b46565b5060a082015161350160a0850182612b46565b5060c082015161351460c0850182612b46565b5060e082015161352760e0850182612b46565b50505050565b6000610140820190506135436000830186612335565b613550602083018561348b565b818103610120830152613563818461226c565b9050949350505050565b6000613578826121fe565b9150613583836121fe565b925082820190508082111561359b5761359a612e13565b5b92915050565b6000819050919050565b60006135b6826135a1565b91507f800000000000000000000000000000000000000000000000000000000000000082036135e8576135e7612e13565b5b600182039050919050565b7f4e487b7100000000000000000000000000000000000000000000000000000000600052601260045260246000fd5b600061362d82611f82565b915061363883611f82565b925082613648576136476135f3565b5b828206905092915050565b600061365e82611f82565b915061366983611f82565b9250828201905063ffffffff81111561368557613684612e13565b5b92915050565b600061369682611f82565b91506136a183611f82565b92508282026136af81611f82565b91508082146136c1576136c0612e13565b5b5092915050565b60006136d382611f82565b91506136de83611f82565b9250826136ee576136ed6135f3565b5b82820490509291505056fea2646970667358221220e6601ea6a957d9a5457ff37c0c5f12ab1ce19c13f5768d6e9f2e2a8c79ffff1464736f6c63430008110033",
  "linkReferences": {},
  "deployedLinkReferences": {}
}