{
  "_format": "hh-sol-artifact-1",
  "contractName": "Dungeons",
  "sourceName": "contracts/core/dungeons/Dungeons.sol",
  "abi": [
    {
      "inputs": [
        {
          "internalType": "address",
          "name": "charactersNftAddress",
          "type": "address"
        },
        {
          "internalType": "address",
          "name": "equipmentNftAddress",
          "type": "address"
        },
        {
          "internalType": "address",
          "name": "equipmentManagerAddress",
          "type": "address"
        },
        {
          "internalType": "address[2]",
          "name": "materials",
          "type": "address[2]"
        },
        {
          "internalType": "address",
          "name": "enerlinkAddress",
          "type": "address"
        }
      ],
      "stateMutability": "nonpayable",
      "type": "constructor"
    },
    {
      "anonymous": false,
      "inputs": [
        {
          "indexed": false,
          "internalType": "uint256",
          "name": "battle_id",
          "type": "uint256"
        },
        {
          "indexed": false,
          "internalType": "uint256",
          "name": "battle_result",
          "type": "uint256"
        }
      ],
      "name": "BattleEnded",
      "type": "event"
    },
    {
      "anonymous": false,
      "inputs": [
        {
          "indexed": false,
          "internalType": "address",
          "name": "user",
          "type": "address"
        },
        {
          "components": [
            {
              "internalType": "uint256",
              "name": "request_id",
              "type": "uint256"
            },
            {
              "internalType": "uint64",
              "name": "dungeon_type",
              "type": "uint64"
            },
            {
              "internalType": "uint64",
              "name": "tier",
              "type": "uint64"
            },
            {
              "internalType": "uint64",
              "name": "result",
              "type": "uint64"
            },
            {
              "internalType": "uint64",
              "name": "max_loot",
              "type": "uint64"
            },
            {
              "internalType": "uint256",
              "name": "character_id",
              "type": "uint256"
            },
            {
              "internalType": "bool",
              "name": "completed",
              "type": "bool"
            }
          ],
          "indexed": false,
          "internalType": "struct battle_request",
          "name": "request",
          "type": "tuple"
        }
      ],
      "name": "BattleRequested",
      "type": "event"
    },
    {
      "anonymous": false,
      "inputs": [
        {
          "components": [
            {
              "internalType": "uint256",
              "name": "request_id",
              "type": "uint256"
            },
            {
              "internalType": "uint64",
              "name": "dungeon_type",
              "type": "uint64"
            },
            {
              "internalType": "uint64",
              "name": "tier",
              "type": "uint64"
            },
            {
              "internalType": "uint64",
              "name": "result",
              "type": "uint64"
            },
            {
              "internalType": "uint64",
              "name": "max_loot",
              "type": "uint64"
            },
            {
              "internalType": "uint256",
              "name": "character_id",
              "type": "uint256"
            },
            {
              "internalType": "bool",
              "name": "completed",
              "type": "bool"
            }
          ],
          "indexed": false,
          "internalType": "struct battle_request",
          "name": "request",
          "type": "tuple"
        },
        {
          "components": [
            {
              "internalType": "uint32",
              "name": "character_faction",
              "type": "uint32"
            },
            {
              "internalType": "uint32",
              "name": "character_class",
              "type": "uint32"
            },
            {
              "internalType": "uint32",
              "name": "element",
              "type": "uint32"
            },
            {
              "internalType": "uint32",
              "name": "str",
              "type": "uint32"
            },
            {
              "internalType": "uint32",
              "name": "vit",
              "type": "uint32"
            },
            {
              "internalType": "uint32",
              "name": "dex",
              "type": "uint32"
            },
            {
              "internalType": "uint32",
              "name": "talent",
              "type": "uint32"
            },
            {
              "internalType": "uint32",
              "name": "exp",
              "type": "uint32"
            }
          ],
          "indexed": false,
          "internalType": "struct character_properties",
          "name": "char_props",
          "type": "tuple"
        },
        {
          "components": [
            {
              "internalType": "uint256",
              "name": "atk",
              "type": "uint256"
            },
            {
              "internalType": "uint256",
              "name": "def",
              "type": "uint256"
            },
            {
              "internalType": "uint256",
              "name": "eva",
              "type": "uint256"
            },
            {
              "internalType": "uint256",
              "name": "hp",
              "type": "uint256"
            },
            {
              "internalType": "uint256",
              "name": "pen",
              "type": "uint256"
            },
            {
              "internalType": "uint256",
              "name": "crit",
              "type": "uint256"
            },
            {
              "internalType": "uint256",
              "name": "luck",
              "type": "uint256"
            },
            {
              "internalType": "uint256",
              "name": "energy_restoration",
              "type": "uint256"
            }
          ],
          "indexed": false,
          "internalType": "struct battle_stats",
          "name": "char_stats",
          "type": "tuple"
        },
        {
          "components": [
            {
              "internalType": "uint256",
              "name": "dungeon",
              "type": "uint256"
            },
            {
              "internalType": "uint256",
              "name": "tier",
              "type": "uint256"
            },
            {
              "internalType": "uint256",
              "name": "_type",
              "type": "uint256"
            },
            {
              "internalType": "uint256",
              "name": "attr_sum",
              "type": "uint256"
            },
            {
              "internalType": "uint256",
              "name": "attr_alloc",
              "type": "uint256"
            }
          ],
          "indexed": false,
          "internalType": "struct enemy_properties",
          "name": "enemy_props",
          "type": "tuple"
        },
        {
          "components": [
            {
              "internalType": "uint256",
              "name": "atk",
              "type": "uint256"
            },
            {
              "internalType": "uint256",
              "name": "def",
              "type": "uint256"
            },
            {
              "internalType": "uint256",
              "name": "eva",
              "type": "uint256"
            },
            {
              "internalType": "uint256",
              "name": "hp",
              "type": "uint256"
            },
            {
              "internalType": "uint256",
              "name": "pen",
              "type": "uint256"
            },
            {
              "internalType": "uint256",
              "name": "crit",
              "type": "uint256"
            },
            {
              "internalType": "uint256",
              "name": "luck",
              "type": "uint256"
            },
            {
              "internalType": "uint256",
              "name": "energy_restoration",
              "type": "uint256"
            }
          ],
          "indexed": false,
          "internalType": "struct battle_stats",
          "name": "enemy_stats",
          "type": "tuple"
        }
      ],
      "name": "BattleStarted",
      "type": "event"
    },
    {
      "anonymous": false,
      "inputs": [
        {
          "indexed": false,
          "internalType": "uint256",
          "name": "battle_id",
          "type": "uint256"
        },
        {
          "components": [
            {
              "components": [
                {
                  "internalType": "bool",
                  "name": "evaded",
                  "type": "bool"
                },
                {
                  "internalType": "bool",
                  "name": "penetrated",
                  "type": "bool"
                },
                {
                  "internalType": "bool",
                  "name": "critical_hit",
                  "type": "bool"
                },
                {
                  "internalType": "uint256",
                  "name": "damage",
                  "type": "uint256"
                }
              ],
              "internalType": "struct attack_event",
              "name": "attack1",
              "type": "tuple"
            },
            {
              "components": [
                {
                  "internalType": "bool",
                  "name": "evaded",
                  "type": "bool"
                },
                {
                  "internalType": "bool",
                  "name": "penetrated",
                  "type": "bool"
                },
                {
                  "internalType": "bool",
                  "name": "critical_hit",
                  "type": "bool"
                },
                {
                  "internalType": "uint256",
                  "name": "damage",
                  "type": "uint256"
                }
              ],
              "internalType": "struct attack_event",
              "name": "attack2",
              "type": "tuple"
            }
          ],
          "indexed": false,
          "internalType": "struct clash_event",
          "name": "clash",
          "type": "tuple"
        },
        {
          "components": [
            {
              "internalType": "uint256",
              "name": "char_hp",
              "type": "uint256"
            },
            {
              "internalType": "uint256",
              "name": "char_def",
              "type": "uint256"
            },
            {
              "internalType": "uint256",
              "name": "enem_hp",
              "type": "uint256"
            },
            {
              "internalType": "uint256",
              "name": "enem_def",
              "type": "uint256"
            }
          ],
          "indexed": false,
          "internalType": "struct battlers_balances",
          "name": "balances",
          "type": "tuple"
        }
      ],
      "name": "Clashed",
      "type": "event"
    },
    {
      "anonymous": false,
      "inputs": [
        {
          "indexed": false,
          "internalType": "uint256",
          "name": "dungeon1",
          "type": "uint256"
        }
      ],
      "name": "DungeonsReplenished",
      "type": "event"
    },
    {
      "anonymous": false,
      "inputs": [
        {
          "indexed": false,
          "internalType": "uint256",
          "name": "character_id",
          "type": "uint256"
        },
        {
          "components": [
            {
              "internalType": "uint256",
              "name": "exp_amount",
              "type": "uint256"
            },
            {
              "internalType": "uint256",
              "name": "stat_affected",
              "type": "uint256"
            },
            {
              "internalType": "uint256",
              "name": "stat_amount",
              "type": "uint256"
            }
          ],
          "indexed": false,
          "internalType": "struct character_gained",
          "name": "char_gain",
          "type": "tuple"
        }
      ],
      "name": "ExpAndStatGained",
      "type": "event"
    },
    {
      "anonymous": false,
      "inputs": [
        {
          "indexed": false,
          "internalType": "address",
          "name": "user",
          "type": "address"
        },
        {
          "components": [
            {
              "internalType": "uint256",
              "name": "material",
              "type": "uint256"
            },
            {
              "internalType": "uint256",
              "name": "amount",
              "type": "uint256"
            },
            {
              "internalType": "uint256",
              "name": "snap_amount",
              "type": "uint256"
            }
          ],
          "indexed": false,
          "internalType": "struct loot_gained",
          "name": "loot",
          "type": "tuple"
        }
      ],
      "name": "LootGained",
      "type": "event"
    },
    {
      "anonymous": false,
      "inputs": [
        {
          "indexed": true,
          "internalType": "address",
          "name": "previousOwner",
          "type": "address"
        },
        {
          "indexed": true,
          "internalType": "address",
          "name": "newOwner",
          "type": "address"
        }
      ],
      "name": "OwnershipTransferred",
      "type": "event"
    },
    {
      "inputs": [
        {
          "internalType": "address",
          "name": "",
          "type": "address"
        }
      ],
      "name": "battle_requests",
      "outputs": [
        {
          "internalType": "uint256",
          "name": "request_id",
          "type": "uint256"
        },
        {
          "internalType": "uint64",
          "name": "dungeon_type",
          "type": "uint64"
        },
        {
          "internalType": "uint64",
          "name": "tier",
          "type": "uint64"
        },
        {
          "internalType": "uint64",
          "name": "result",
          "type": "uint64"
        },
        {
          "internalType": "uint64",
          "name": "max_loot",
          "type": "uint64"
        },
        {
          "internalType": "uint256",
          "name": "character_id",
          "type": "uint256"
        },
        {
          "internalType": "bool",
          "name": "completed",
          "type": "bool"
        }
      ],
      "stateMutability": "view",
      "type": "function"
    },
    {
      "inputs": [
        {
          "internalType": "uint256",
          "name": "character_id",
          "type": "uint256"
        }
      ],
      "name": "consumeEnerLink",
      "outputs": [
        {
          "internalType": "bool",
          "name": "restored",
          "type": "bool"
        }
      ],
      "stateMutability": "nonpayable",
      "type": "function"
    },
    {
      "inputs": [
        {
          "internalType": "uint256",
          "name": "",
          "type": "uint256"
        }
      ],
      "name": "dungeon_loot_cap",
      "outputs": [
        {
          "internalType": "uint256",
          "name": "",
          "type": "uint256"
        }
      ],
      "stateMutability": "view",
      "type": "function"
    },
    {
      "inputs": [
        {
          "internalType": "uint256",
          "name": "",
          "type": "uint256"
        }
      ],
      "name": "dungeon_loot_remaining",
      "outputs": [
        {
          "internalType": "uint256",
          "name": "",
          "type": "uint256"
        }
      ],
      "stateMutability": "view",
      "type": "function"
    },
    {
      "inputs": [
        {
          "internalType": "uint256",
          "name": "",
          "type": "uint256"
        }
      ],
      "name": "energy_balances",
      "outputs": [
        {
          "internalType": "uint256",
          "name": "energy",
          "type": "uint256"
        },
        {
          "internalType": "uint256",
          "name": "time_last_updated",
          "type": "uint256"
        }
      ],
      "stateMutability": "view",
      "type": "function"
    },
    {
      "inputs": [
        {
          "internalType": "uint256",
          "name": "character_id",
          "type": "uint256"
        },
        {
          "internalType": "uint64",
          "name": "dungeon",
          "type": "uint64"
        },
        {
          "internalType": "uint64",
          "name": "tier",
          "type": "uint64"
        }
      ],
      "name": "findBattle",
      "outputs": [],
      "stateMutability": "payable",
      "type": "function"
    },
    {
      "inputs": [
        {
          "internalType": "uint256",
          "name": "character_id",
          "type": "uint256"
        }
      ],
      "name": "getCharacterEnergy",
      "outputs": [
        {
          "internalType": "uint256",
          "name": "character_energy",
          "type": "uint256"
        }
      ],
      "stateMutability": "view",
      "type": "function"
    },
    {
      "inputs": [],
      "name": "owner",
      "outputs": [
        {
          "internalType": "address",
          "name": "",
          "type": "address"
        }
      ],
      "stateMutability": "view",
      "type": "function"
    },
    {
      "inputs": [],
      "name": "renounceOwnership",
      "outputs": [],
      "stateMutability": "nonpayable",
      "type": "function"
    },
    {
      "inputs": [],
      "name": "replenishDungeonLoot",
      "outputs": [],
      "stateMutability": "nonpayable",
      "type": "function"
    },
    {
      "inputs": [
        {
          "internalType": "uint256",
          "name": "amount",
          "type": "uint256"
        }
      ],
      "name": "setBattleFee",
      "outputs": [],
      "stateMutability": "nonpayable",
      "type": "function"
    },
    {
      "inputs": [
        {
          "internalType": "address",
          "name": "keeperAddress",
          "type": "address"
        }
      ],
      "name": "setDungeonKeeper",
      "outputs": [],
      "stateMutability": "nonpayable",
      "type": "function"
    },
    {
      "inputs": [
        {
          "internalType": "uint256",
          "name": "dungeon",
          "type": "uint256"
        },
        {
          "internalType": "uint256",
          "name": "amount",
          "type": "uint256"
        }
      ],
      "name": "setDungeonLootCap",
      "outputs": [],
      "stateMutability": "nonpayable",
      "type": "function"
    },
    {
      "inputs": [
        {
          "internalType": "address",
          "name": "_vrf_contract_address",
          "type": "address"
        }
      ],
      "name": "setRandomizationContract",
      "outputs": [],
      "stateMutability": "nonpayable",
      "type": "function"
    },
    {
      "inputs": [],
      "name": "startBattle",
      "outputs": [],
      "stateMutability": "nonpayable",
      "type": "function"
    },
    {
      "inputs": [
        {
          "internalType": "address",
          "name": "newOwner",
          "type": "address"
        }
      ],
      "name": "transferOwnership",
      "outputs": [],
      "stateMutability": "nonpayable",
      "type": "function"
    },
    {
      "inputs": [],
      "name": "withdraw",
      "outputs": [],
      "stateMutability": "nonpayable",
      "type": "function"
    }
  ],
  "bytecode": "0x6080604052662386f26fc100006007553480156200001c57600080fd5b50604051620056303803806200563083398181016040528101906200004291906200053e565b6200006262000056620001fa60201b60201c565b6200020260201b60201c565b84600260006101000a81548173ffffffffffffffffffffffffffffffffffffffff021916908373ffffffffffffffffffffffffffffffffffffffff16021790555083600360006101000a81548173ffffffffffffffffffffffffffffffffffffffff021916908373ffffffffffffffffffffffffffffffffffffffff16021790555082600460006101000a81548173ffffffffffffffffffffffffffffffffffffffff021916908373ffffffffffffffffffffffffffffffffffffffff16021790555081600a90600262000138929190620002c6565b5080600560006101000a81548173ffffffffffffffffffffffffffffffffffffffff021916908373ffffffffffffffffffffffffffffffffffffffff16021790555033600660006101000a81548173ffffffffffffffffffffffffffffffffffffffff021916908373ffffffffffffffffffffffffffffffffffffffff16021790555061034c600c60008081526020019081526020016000208190555061034c600d6000808152602001908152602001600020819055505050505050620005c6565b600033905090565b60008060009054906101000a900473ffffffffffffffffffffffffffffffffffffffff169050816000806101000a81548173ffffffffffffffffffffffffffffffffffffffff021916908373ffffffffffffffffffffffffffffffffffffffff1602179055508173ffffffffffffffffffffffffffffffffffffffff168173ffffffffffffffffffffffffffffffffffffffff167f8be0079c531659141344cd1fd0a4f28419497f9722a3daafe3b4186f6b6457e060405160405180910390a35050565b826002810192821562000335579160200282015b82811115620003345782518260006101000a81548173ffffffffffffffffffffffffffffffffffffffff021916908373ffffffffffffffffffffffffffffffffffffffff16021790555091602001919060010190620002da565b5b50905062000344919062000348565b5090565b5b808211156200036357600081600090555060010162000349565b5090565b6000604051905090565b600080fd5b600073ffffffffffffffffffffffffffffffffffffffff82169050919050565b6000620003a38262000376565b9050919050565b620003b58162000396565b8114620003c157600080fd5b50565b600081519050620003d581620003aa565b92915050565b600080fd5b6000601f19601f8301169050919050565b7f4e487b7100000000000000000000000000000000000000000000000000000000600052604160045260246000fd5b6200042b82620003e0565b810181811067ffffffffffffffff821117156200044d576200044c620003f1565b5b80604052505050565b60006200046262000367565b905062000470828262000420565b919050565b600067ffffffffffffffff821115620004935762000492620003f1565b5b602082029050919050565b600080fd5b6000620004ba620004b48462000475565b62000456565b90508060208402830185811115620004d757620004d66200049e565b5b835b81811015620005045780620004ef8882620003c4565b845260208401935050602081019050620004d9565b5050509392505050565b600082601f830112620005265762000525620003db565b5b600262000535848285620004a3565b91505092915050565b600080600080600060c086880312156200055d576200055c62000371565b5b60006200056d88828901620003c4565b95505060206200058088828901620003c4565b94505060406200059388828901620003c4565b9350506060620005a6888289016200050e565b92505060a0620005b988828901620003c4565b9150509295509295909350565b61505a80620005d66000396000f3fe6080604052600436106100fe5760003560e01c80637ec80d16116100955780639493ac07116100645780639493ac07146102ed578063c653befd14610316578063db14bfb414610359578063f2fde38b14610396578063fb33e5ae146103bf576100fe565b80637ec80d16146102315780637f6a078a1461026e57806382b816b3146102855780638da5cb5b146102c2576100fe565b806353b8dd77116100d157806353b8dd77146101975780635473e978146101d55780636771ebda146101fe578063715018a61461021a576100fe565b8063240a2c97146101035780632d035fb41461011a5780633ccfd60b146101435780634117e4c41461015a575b600080fd5b34801561010f57600080fd5b506101186103e8565b005b34801561012657600080fd5b50610141600480360381019061013c919061373d565b610a66565b005b34801561014f57600080fd5b50610158610a8a565b005b34801561016657600080fd5b50610181600480360381019061017c919061377d565b610b63565b60405161018e91906137b9565b60405180910390f35b3480156101a357600080fd5b506101be60048036038101906101b9919061377d565b610b7b565b6040516101cc9291906137d4565b60405180910390f35b3480156101e157600080fd5b506101fc60048036038101906101f7919061385b565b610b9f565b005b610218600480360381019061021391906138c8565b610beb565b005b34801561022657600080fd5b5061022f611131565b005b34801561023d57600080fd5b506102586004803603810190610253919061377d565b611145565b60405161026591906137b9565b60405180910390f35b34801561027a57600080fd5b506102836111ad565b005b34801561029157600080fd5b506102ac60048036038101906102a7919061377d565b6112b4565b6040516102b991906137b9565b60405180910390f35b3480156102ce57600080fd5b506102d76112cc565b6040516102e4919061392a565b60405180910390f35b3480156102f957600080fd5b50610314600480360381019061030f919061377d565b6112f5565b005b34801561032257600080fd5b5061033d6004803603810190610338919061385b565b611316565b604051610350979695949392919061396f565b60405180910390f35b34801561036557600080fd5b50610380600480360381019061037b919061377d565b6113b5565b60405161038d91906139de565b60405180910390f35b3480156103a257600080fd5b506103bd60048036038101906103b8919061385b565b6114e4565b005b3480156103cb57600080fd5b506103e660048036038101906103e1919061385b565b611567565b005b6000600860003373ffffffffffffffffffffffffffffffffffffffff1673ffffffffffffffffffffffffffffffffffffffff1681526020019081526020016000206040518060e0016040529081600082015481526020016001820160009054906101000a900467ffffffffffffffff1667ffffffffffffffff1667ffffffffffffffff1681526020016001820160089054906101000a900467ffffffffffffffff1667ffffffffffffffff1667ffffffffffffffff1681526020016001820160109054906101000a900467ffffffffffffffff1667ffffffffffffffff1667ffffffffffffffff1681526020016001820160189054906101000a900467ffffffffffffffff1667ffffffffffffffff1667ffffffffffffffff168152602001600282015481526020016003820160009054906101000a900460ff1615151515815250509050600080600160009054906101000a900473ffffffffffffffffffffffffffffffffffffffff1673ffffffffffffffffffffffffffffffffffffffff1663d8a4676f84600001516040518263ffffffff1660e01b815260040161058f91906137b9565b600060405180830381865afa1580156105ac573d6000803e3d6000fd5b505050506040513d6000823e3d601f19601f820116820180604052508101906105d59190613b93565b9150915081610619576040517f08c379a000000000000000000000000000000000000000000000000000000000815260040161061090613c4c565b60405180910390fd5b600061063f8260008151811061063257610631613c6c565b5b60200260200101516115b3565b90506000806106518660a00151611687565b915091506000806106b6886020015167ffffffffffffffff16896040015167ffffffffffffffff168760008151811061068d5761068c613c6c565b5b6020026020010151886001815181106106a9576106a8613c6c565b5b602002602001015161175e565b9150915060648460e0015163ffffffff161080156106e257506000886040015167ffffffffffffffff16145b1561070e576064601982606001516106fa9190613cca565b6107049190613d3b565b8160600181815250505b7f35cc45055cf75bfd1439799d9a9a7ee9fcaf6b8b4d3e913f71201b1d602246a48885858585604051610745959493929190613ff2565b60405180910390a18760c0015115610792576040517f08c379a0000000000000000000000000000000000000000000000000000000008152600401610789906140bb565b60405180910390fd5b6001600860003373ffffffffffffffffffffffffffffffffffffffff1673ffffffffffffffffffffffffffffffffffffffff16815260200190815260200160002060030160006101000a81548160ff02191690831515021790555060006108018960000151868686868c6117da565b905080600860003373ffffffffffffffffffffffffffffffffffffffff1673ffffffffffffffffffffffffffffffffffffffff16815260200190815260200160002060010160106101000a81548167ffffffffffffffff021916908367ffffffffffffffff16021790555060018167ffffffffffffffff16148061088f575060028167ffffffffffffffff16145b156108f45761089e8986611b7b565b60028167ffffffffffffffff16036108f3576108b8613553565b7f24b281479456c9b6bee88018054dbbebf0ed9aa3295cf7980bdf2881bb98222833826040516108e992919061411d565b60405180910390a1505b5b60018167ffffffffffffffff160361097157610970898760028151811061091e5761091d613c6c565b5b602002602001015161ffff168860038151811061093e5761093d613c6c565b5b602002602001015161ffff168960048151811061095e5761095d613c6c565b5b602002602001015161ffff1633611d96565b5b60008167ffffffffffffffff1603610a0c5761098b613553565b610993613574565b7fb06d11cabafde2a769d3cb8a1f604c7ecd26fb05d9b1e1871e4d51205bf738918b60a00151826040516109c8929190614188565b60405180910390a17f24b281479456c9b6bee88018054dbbebf0ed9aa3295cf7980bdf2881bb9822283383604051610a0192919061411d565b60405180910390a150505b610a1e8960a001518560e00151611fe4565b7f277c2ba9c8248b5a28abd67ee9d4e2a32e7c0a3914aa3d726deef541031e29ee896000015182604051610a539291906141ec565b60405180910390a1505050505050505050565b610a6e612025565b80600d6000848152602001908152602001600020819055505050565b610a92612025565b6000600660009054906101000a900473ffffffffffffffffffffffffffffffffffffffff1673ffffffffffffffffffffffffffffffffffffffff1647604051610ada90614246565b60006040518083038185875af1925050503d8060008114610b17576040519150601f19603f3d011682016040523d82523d6000602084013e610b1c565b606091505b5050905080610b60576040517f08c379a0000000000000000000000000000000000000000000000000000000008152600401610b57906142a7565b60405180910390fd5b50565b600c6020528060005260406000206000915090505481565b60096020528060005260406000206000915090508060000154908060010154905082565b610ba7612025565b80600160006101000a81548173ffffffffffffffffffffffffffffffffffffffff021916908373ffffffffffffffffffffffffffffffffffffffff16021790555050565b600260009054906101000a900473ffffffffffffffffffffffffffffffffffffffff1673ffffffffffffffffffffffffffffffffffffffff1663e327a6af33856040518363ffffffff1660e01b8152600401610c489291906142c7565b602060405180830381865afa158015610c65573d6000803e3d6000fd5b505050506040513d601f19601f82011682018060405250810190610c8991906142f0565b610cc8576040517f08c379a0000000000000000000000000000000000000000000000000000000008152600401610cbf90614369565b60405180910390fd5b60038267ffffffffffffffff16108015610cec575060058167ffffffffffffffff16105b610d2b576040517f08c379a0000000000000000000000000000000000000000000000000000000008152600401610d22906143d5565b60405180910390fd5b600754341015610d70576040517f08c379a0000000000000000000000000000000000000000000000000000000008152600401610d6790614467565b60405180910390fd5b6000610d7b84611145565b90506064811015610dc1576040517f08c379a0000000000000000000000000000000000000000000000000000000008152600401610db8906144d3565b60405180910390fd5b610dcc8160646120a3565b60096000868152602001908152602001600020600001819055504260096000868152602001908152602001600020600101819055506000610e218467ffffffffffffffff168467ffffffffffffffff166120c8565b925050506000600c60008667ffffffffffffffff16815260200190815260200160002054905081811015610e53578091505b610e5d81836120a3565b600c60008767ffffffffffffffff168152602001908152602001600020819055506040518060e00160405280600160009054906101000a900473ffffffffffffffffffffffffffffffffffffffff1673ffffffffffffffffffffffffffffffffffffffff16639bca039d33600b60006040518463ffffffff1660e01b8152600401610eea93929190614502565b6020604051808303816000875af1158015610f09573d6000803e3d6000fd5b505050506040513d601f19601f82011682018060405250810190610f2d9190614539565b81526020018667ffffffffffffffff1681526020018567ffffffffffffffff168152602001600067ffffffffffffffff1681526020018367ffffffffffffffff16815260200187815260200160001515815250600860003373ffffffffffffffffffffffffffffffffffffffff1673ffffffffffffffffffffffffffffffffffffffff1681526020019081526020016000206000820151816000015560208201518160010160006101000a81548167ffffffffffffffff021916908367ffffffffffffffff16021790555060408201518160010160086101000a81548167ffffffffffffffff021916908367ffffffffffffffff16021790555060608201518160010160106101000a81548167ffffffffffffffff021916908367ffffffffffffffff16021790555060808201518160010160186101000a81548167ffffffffffffffff021916908367ffffffffffffffff16021790555060a0820151816002015560c08201518160030160006101000a81548160ff0219169083151502179055509050507fdb001f22d59ea0dc19344aa108b16bbf05d248b5857355d379a045f46b90055f33600860003373ffffffffffffffffffffffffffffffffffffffff1673ffffffffffffffffffffffffffffffffffffffff168152602001908152602001600020604051611121929190614729565b60405180910390a1505050505050565b611139612025565b61114360006120e8565b565b600080603c61116a4260096000878152602001908152602001600020600101546120a3565b6111749190613d3b565b90506111a5600960008581526020019081526020016000206000015460058361119d9190613cca565b6103e86121ac565b915050919050565b600e60009054906101000a900473ffffffffffffffffffffffffffffffffffffffff1673ffffffffffffffffffffffffffffffffffffffff163373ffffffffffffffffffffffffffffffffffffffff161461123d576040517f08c379a0000000000000000000000000000000000000000000000000000000008152600401611234906147c5565b60405180910390fd5b600d600080815260200190815260200160002054600c6000808152602001908152602001600020819055507f7c1b851ba16ab218087e3784549cf92b03c2345661d885cfa5d23c7db7b8371f600c6000808152602001908152602001600020546040516112aa91906137b9565b60405180910390a1565b600d6020528060005260406000206000915090505481565b60008060009054906101000a900473ffffffffffffffffffffffffffffffffffffffff16905090565b6112fd612025565b633b9aca008161130d9190613cca565b60078190555050565b60086020528060005260406000206000915090508060000154908060010160009054906101000a900467ffffffffffffffff16908060010160089054906101000a900467ffffffffffffffff16908060010160109054906101000a900467ffffffffffffffff16908060010160189054906101000a900467ffffffffffffffff16908060020154908060030160009054906101000a900460ff16905087565b60006103e86113c383611145565b10611403576040517f08c379a00000000000000000000000000000000000000000000000000000000081526004016113fa90614857565b60405180910390fd5b600560009054906101000a900473ffffffffffffffffffffffffffffffffffffffff1673ffffffffffffffffffffffffffffffffffffffff166379cc679033670de0b6b3a76400006040518363ffffffff1660e01b81526004016114689291906148b2565b600060405180830381600087803b15801561148257600080fd5b505af1158015611496573d6000803e3d6000fd5b5050505060405180604001604052806103e881526020014281525060096000848152602001908152602001600020600082015181600001556020820151816001015590505060019050919050565b6114ec612025565b600073ffffffffffffffffffffffffffffffffffffffff168173ffffffffffffffffffffffffffffffffffffffff160361155b576040517f08c379a00000000000000000000000000000000000000000000000000000000081526004016115529061494d565b60405180910390fd5b611564816120e8565b50565b61156f612025565b80600e60006101000a81548173ffffffffffffffffffffffffffffffffffffffff021916908373ffffffffffffffffffffffffffffffffffffffff16021790555050565b60606000601067ffffffffffffffff8111156115d2576115d1613a3b565b5b6040519080825280602002602001820160405280156116005781602001602082028036833780820191505090505b509050600061ffff9050600080600f90505b6000811261167b5760008387169050601084901b93508281901c90508085838151811061164257611641613c6c565b5b602002602001019061ffff16908161ffff1681525050601083611665919061496d565b9250508080611673906149ab565b915050611612565b50829350505050919050565b61168f613595565b61169761360a565b600260009054906101000a900473ffffffffffffffffffffffffffffffffffffffff1673ffffffffffffffffffffffffffffffffffffffff1663468f25b0846040518263ffffffff1660e01b81526004016116f291906137b9565b61010060405180830381865afa158015611710573d6000803e3d6000fd5b505050506040513d601f19601f820116820180604052508101906117349190614aee565b915061173f826121dc565b9050600061174c84612265565b905061175882826125bb565b50915091565b61176661364f565b61176e61360a565b6040518060a001604052808781526020018681526020016117928661ffff166126a7565b81526020016117a0876126bd565b81526020016117b28561ffff16612709565b815250915060006117c28361272b565b90506117ce81846128fa565b91505094509492505050565b6000806000600190505b600b811015611b6f57600061181285838151811061180557611804613c6c565b5b60200260200101516115b3565b905060005b6010811015611b5a57838061182b90614b1c565b94505060008960600151118015611846575060008760600151115b8015611853575060148411155b15611ab15761186061367e565b6119428b6020015163ffffffff168b8a604051806080016040528088888151811061188e5761188d613c6c565b5b602002602001015161ffff1661ffff168152602001886001896118b1919061496d565b815181106118c2576118c1613c6c565b5b602002602001015161ffff1661ffff168152602001886002896118e5919061496d565b815181106118f6576118f5613c6c565b5b602002602001015161ffff1661ffff16815260200188600389611919919061496d565b8151811061192a57611929613c6c565b5b602002602001015161ffff1661ffff1681525061297c565b8160000181905250611a328960400151898c60405180608001604052808860048961196d919061496d565b8151811061197e5761197d613c6c565b5b602002602001015161ffff1661ffff168152602001886005896119a1919061496d565b815181106119b2576119b1613c6c565b5b602002602001015161ffff1661ffff168152602001886006896119d5919061496d565b815181106119e6576119e5613c6c565b5b602002602001015161ffff1661ffff16815260200188600789611a09919061496d565b81518110611a1a57611a19613c6c565b5b602002602001015161ffff1661ffff1681525061297c565b8160200181905250600060405180608001604052808c6060015181526020018c6020015181526020018a6060015181526020018a6020015181525090507ffaf9235e14996aecca957358d2c2b6d418366712449ca325d03665eb61eeaaa78d8383604051611aa293929190614c3e565b60405180910390a15050611b46565b60008960600151118015611ac9575060008760600151115b8015611ad55750601484145b15611adf57600294505b60008960600151148015611af7575060008760600151145b15611b0157600294505b60008960600151118015611b19575060008760600151145b15611b2357600194505b60008960600151148015611b3b575060008760600151115b15611b4557600094505b5b600881611b53919061496d565b9050611817565b50508080611b6790614b1c565b9150506117e4565b50509695505050505050565b600080611b95846040015167ffffffffffffffff16612af0565b915091506000611bb2856020015167ffffffffffffffff16612b4d565b63ffffffff1690506127108460e0015163ffffffff161015611d2657611beb8460e0015163ffffffff168463ffffffff166127106121ac565b8460e0019063ffffffff16908163ffffffff168152505060008103611c32578184606001818151611c1c9190614c77565b91509063ffffffff16908163ffffffff16815250505b60018103611c62578184608001818151611c4c9190614c77565b91509063ffffffff16908163ffffffff16815250505b60028103611c9257818460a001818151611c7c9190614c77565b91509063ffffffff16908163ffffffff16815250505b600260009054906101000a900473ffffffffffffffffffffffffffffffffffffffff1673ffffffffffffffffffffffffffffffffffffffff16638d3bef3e8660a00151866040518363ffffffff1660e01b8152600401611cf3929190614caf565b600060405180830381600087803b158015611d0d57600080fd5b505af1158015611d21573d6000803e3d6000fd5b505050505b600060405180606001604052808563ffffffff1681526020018381526020018463ffffffff1681525090507fb06d11cabafde2a769d3cb8a1f604c7ecd26fb05d9b1e1871e4d51205bf738918660a0015182604051611d86929190614188565b60405180910390a1505050505050565b6000806000611dc1886020015167ffffffffffffffff16896040015167ffffffffffffffff166120c8565b9250925092506000611de288848b6080015167ffffffffffffffff16612b7a565b90506000600a8560028110611dfa57611df9613c6c565b5b0160009054906101000a900473ffffffffffffffffffffffffffffffffffffffff1690508073ffffffffffffffffffffffffffffffffffffffff166340c10f1987670de0b6b3a764000085611e4f9190613cca565b6040518363ffffffff1660e01b8152600401611e6c9291906142c7565b600060405180830381600087803b158015611e8657600080fd5b505af1158015611e9a573d6000803e3d6000fd5b505050506000611ea989612bde565b905060008115611f7d57611ebe898787612b7a565b90506000600a600160028110611ed757611ed6613c6c565b5b0160009054906101000a900473ffffffffffffffffffffffffffffffffffffffff1690508073ffffffffffffffffffffffffffffffffffffffff166340c10f198a670de0b6b3a764000085611f2c9190613cca565b6040518363ffffffff1660e01b8152600401611f499291906142c7565b600060405180830381600087803b158015611f6357600080fd5b505af1158015611f77573d6000803e3d6000fd5b50505050505b600060405180606001604052808981526020018681526020018381525090507f24b281479456c9b6bee88018054dbbebf0ed9aa3295cf7980bdf2881bb9822288982604051611fcd92919061411d565b60405180910390a150505050505050505050505050565b6120076009600084815260200190815260200160002060000154826103e86121ac565b60096000848152602001908152602001600020600001819055505050565b61202d612c04565b73ffffffffffffffffffffffffffffffffffffffff1661204b6112cc565b73ffffffffffffffffffffffffffffffffffffffff16146120a1576040517f08c379a000000000000000000000000000000000000000000000000000000000815260040161209890614d25565b60405180910390fd5b565b60008282116120bd5781836120b89190614d45565b6120c0565b60005b905092915050565b60008060008092506120d984612c0c565b80925081935050509250925092565b60008060009054906101000a900473ffffffffffffffffffffffffffffffffffffffff169050816000806101000a81548173ffffffffffffffffffffffffffffffffffffffff021916908373ffffffffffffffffffffffffffffffffffffffff1602179055508173ffffffffffffffffffffffffffffffffffffffff168173ffffffffffffffffffffffffffffffffffffffff167f8be0079c531659141344cd1fd0a4f28419497f9722a3daafe3b4186f6b6457e060405160405180910390a35050565b60008183856121bb919061496d565b116121d15782846121cc919061496d565b6121d3565b815b90509392505050565b6121e461360a565b6040518061010001604052806121f984612c69565b815260200161220784612d1d565b815260200161221584612dd0565b815260200161222384612e84565b815260200161223184612ed0565b815260200161223f84612f51565b815260200161224d84612fd2565b815260200161225b84612ff2565b8152509050919050565b61226d61360a565b6000600460009054906101000a900473ffffffffffffffffffffffffffffffffffffffff1673ffffffffffffffffffffffffffffffffffffffff1663c71fcf70846040518263ffffffff1660e01b81526004016122ca91906137b9565b608060405180830381865afa1580156122e7573d6000803e3d6000fd5b505050506040513d601f19601f8201168201806040525081019061230b9190614e06565b90506123b782600360009054906101000a900473ffffffffffffffffffffffffffffffffffffffff1673ffffffffffffffffffffffffffffffffffffffff1663ad217ae584600001516040518263ffffffff1660e01b81526004016123709190614e33565b61010060405180830381865afa15801561238e573d6000803e3d6000fd5b505050506040513d601f19601f820116820180604052508101906123b29190614f18565b61302d565b61246182600360009054906101000a900473ffffffffffffffffffffffffffffffffffffffff1673ffffffffffffffffffffffffffffffffffffffff1663ad217ae584602001516040518263ffffffff1660e01b815260040161241a9190614e33565b61010060405180830381865afa158015612438573d6000803e3d6000fd5b505050506040513d601f19601f8201168201806040525081019061245c9190614f18565b61302d565b61250b82600360009054906101000a900473ffffffffffffffffffffffffffffffffffffffff1673ffffffffffffffffffffffffffffffffffffffff1663ad217ae584604001516040518263ffffffff1660e01b81526004016124c49190614e33565b61010060405180830381865afa1580156124e2573d6000803e3d6000fd5b505050506040513d601f19601f820116820180604052508101906125069190614f18565b61302d565b6125b582600360009054906101000a900473ffffffffffffffffffffffffffffffffffffffff1673ffffffffffffffffffffffffffffffffffffffff1663ad217ae584606001516040518263ffffffff1660e01b815260040161256e9190614e33565b61010060405180830381865afa15801561258c573d6000803e3d6000fd5b505050506040513d601f19601f820116820180604052508101906125b09190614f18565b61302d565b50919050565b8060000151826000018181516125d1919061496d565b915081815250508060200151826020018181516125ee919061496d565b9150818152505080604001518260400181815161260b919061496d565b91508181525050806060015182606001818151612628919061496d565b91508181525050806080015182608001818151612645919061496d565b915081815250508060a001518260a001818151612662919061496d565b915081815250508060c001518260c00181815161267f919061496d565b915081815250508060e001518260e00181815161269c919061496d565b915081815250505050565b60006006826126b69190614f46565b9050919050565b60008082036126cc5761025890505b600182036126da5761038490505b600282036126e85761051490505b600382036126f65761070890505b600482036127045761096090505b919050565b6000606460c88361271a9190614f46565b612724919061496d565b9050919050565b6127336136a4565b60008260000151036127c9576103e882606001516101f46127549190613cca565b61275e9190613d3b565b8160000181815250506103e88260600151836080015161277e9190613cca565b6127889190613d3b565b8160200181815250506103e8826060015183608001516101f46127ab9190614d45565b6127b59190613cca565b6127bf9190613d3b565b8160400181815250505b600182600001510361285f576103e8826060015183608001516127ec9190613cca565b6127f69190613d3b565b8160000181815250506103e882606001516101f46128149190613cca565b61281e9190613d3b565b8160200181815250506103e8826060015183608001516101f46128419190614d45565b61284b9190613cca565b6128559190613d3b565b8160400181815250505b60028260000151036128f5576103e8826060015183608001516128829190613cca565b61288c9190613d3b565b8160000181815250506103e8826060015183608001516101f46128af9190614d45565b6128b99190613cca565b6128c39190613d3b565b8160200181815250506103e882606001516101f46128e19190613cca565b6128eb9190613d3b565b8160400181815250505b919050565b61290261360a565b6040518061010001604052806129188585613119565b81526020016129278585613193565b8152602001612936858561321a565b815260200161294585856132a1565b815260200161295485856132f5565b81526020016129638585613349565b8152602001600081526020016000815250905092915050565b6129846136c5565b6000806000806129ac866000600481106129a1576129a0613c6c565b5b60200201518861339d565b905080612abb576129d6866001600481106129ca576129c9613c6c565b5b6020020151898b6133cb565b93506129fa866002600481106129ef576129ee613c6c565b5b60200201518961347d565b9250612a1e86600360048110612a1357612a12613c6c565b5b6020020151896134ab565b91508215612a3e57612a348760600151856120a3565b8760600181815250505b8115612a5457600284612a519190613cca565b93505b8660200151841115612aa257612a8987606001516002896020015187612a7a9190614d45565b612a849190613d3b565b6120a3565b8760600181815250506000876020018181525050612aba565b612ab08760200151856120a3565b8760200181815250505b5b604051806080016040528082151581526020018415158152602001831515815260200185815250945050505050949350505050565b60008060008303612b045760149150600190505b60018303612b155760289150600390505b60028303612b2657603c9150600690505b60038303612b375760509150600a90505b60048303612b485760649150600f90505b915091565b6000808203612b5b57600290505b60018203612b6857600090505b60028203612b7557600190505b919050565b600082821115612bcc5760006103e885612b949190614f46565b90506000612ba284866120a3565b9050612bc7856103e88484612bb79190613cca565b612bc19190613d3b565b866121ac565b925050505b828211612bd7578190505b9392505050565b6000806103e883612bef9190614f46565b905060fa8111612bfe57600191505b50919050565b600033905090565b60008060008303612c205760019150600390505b60018303612c315760029150600690505b60028303612c425760039150600990505b60038303612c535760049150600c90505b60048303612c645760059150600f90505b915091565b60006004600a60048460a00151612c809190614f77565b60068560600151612c919190614f77565b612c9b9190614c77565b612ca59190614fb4565b612caf9190614fb4565b63ffffffff16905060006001836020015163ffffffff1603612cd057600590505b60018360c0015163ffffffff1603612cf257600581612cef919061496d565b90505b60648183612d009190613cca565b612d0a9190613d3b565b82612d15919061496d565b915050919050565b60006002600a60048460600151612d349190614f77565b60068560800151612d459190614f77565b612d4f9190614c77565b612d599190614fb4565b612d639190614fb4565b63ffffffff169050600080836020015163ffffffff1603612d8357600a90505b60008360c0015163ffffffff1603612da557600a81612da2919061496d565b90505b60648183612db39190613cca565b612dbd9190613d3b565b82612dc8919061496d565b915050919050565b60006002600a60048460800151612de79190614f77565b60068560a00151612df89190614f77565b612e029190614c77565b612e0c9190614fb4565b612e169190614fb4565b63ffffffff16905060006004836020015163ffffffff1603612e3757600a90505b60048360c0015163ffffffff1603612e5957600a81612e56919061496d565b90505b60648183612e679190613cca565b612e719190613d3b565b82612e7c919061496d565b915050919050565b600060058260800151612e979190614f77565b63ffffffff16905060006001905060648183612eb39190613cca565b612ebd9190613d3b565b82612ec8919061496d565b915050919050565b600060028260600151612ee39190614fb4565b63ffffffff16905060006002836020015163ffffffff1603612f0457600a90505b60028360c0015163ffffffff1603612f2657600a81612f23919061496d565b90505b60648183612f349190613cca565b612f3e9190613d3b565b82612f49919061496d565b915050919050565b600060028260a00151612f649190614fb4565b63ffffffff16905060006003836020015163ffffffff1603612f8557600a90505b60038360c0015163ffffffff1603612fa757600a81612fa4919061496d565b90505b60648183612fb59190613cca565b612fbf9190613d3b565b82612fca919061496d565b915050919050565b6000600a8260a00151612fe59190614fb4565b63ffffffff169050919050565b6000600a60028360600151846080015161300c9190614c77565b6130169190614fb4565b6130209190614fb4565b63ffffffff169050919050565b806000015182600001818151613043919061496d565b91508181525050806020015182602001818151613060919061496d565b9150818152505080604001518260400181815161307d919061496d565b9150818152505080606001518260600181815161309a919061496d565b915081815250508060800151826080018181516130b7919061496d565b915081815250508060a001518260a0018181516130d4919061496d565b915081815250508060c001518260c0018181516130f1919061496d565b915081815250508060e001518260e00181815161310e919061496d565b915081815250505050565b6000600a6004846040015161312e9190613cca565b6006856000015161313f9190613cca565b613149919061496d565b6131539190613d3b565b905060008083604001510361316757600590505b606481836131759190613cca565b61317f9190613d3b565b8261318a919061496d565b91505092915050565b60006002600a600485600001516131aa9190613cca565b600686602001516131bb9190613cca565b6131c5919061496d565b6131cf9190613d3b565b6131d99190613d3b565b9050600060038360400151036131ee57600a90505b606481836131fc9190613cca565b6132069190613d3b565b82613211919061496d565b91505092915050565b60006002600a600485602001516132319190613cca565b600686604001516132429190613cca565b61324c919061496d565b6132569190613d3b565b6132609190613d3b565b90506000600583604001510361327557600a90505b606481836132839190613cca565b61328d9190613d3b565b82613298919061496d565b91505092915050565b6000600583602001516132b49190613cca565b9050600060028360400151036132c957600390505b606481836132d79190613cca565b6132e19190613d3b565b826132ec919061496d565b91505092915050565b6000600283600001516133089190613d3b565b90506000600183604001510361331d57600a90505b6064818361332b9190613cca565b6133359190613d3b565b82613340919061496d565b91505092915050565b60006002836040015161335c9190613d3b565b90506000600483604001510361337157600a90505b6064818361337f9190613cca565b6133899190613d3b565b82613394919061496d565b91505092915050565b6000806103e8846133ae9190614ff3565b61ffff169050826040015181116133c457600191505b5092915050565b60008060006133d9846134d9565b9150915060006103e88660000151846133f29190613cca565b6133fc9190613d3b565b905060006103e88760000151846134139190613cca565b61341d9190613d3b565b90506000828261342d9190614d45565b905060006103e88a61343f9190614ff3565b61ffff16905060006103e882846134569190613cca565b6134609190613d3b565b905061346d8582866121ac565b9750505050505050509392505050565b6000806103e88461348e9190614ff3565b61ffff169050826080015181116134a457600191505b5092915050565b6000806103e8846134bc9190614ff3565b61ffff1690508260a0015181116134d257600191505b5092915050565b600080600083036134ef5761028a915061054690505b60018303613502576102bc91506104e290505b60028303613515576102ee915061044c90505b6003830361352857610320915061041a90505b6004830361353b5761035291506103e890505b6005830361354e5761038491506103b690505b915091565b60405180606001604052806000815260200160008152602001600081525090565b60405180606001604052806000815260200160008152602001600081525090565b604051806101000160405280600063ffffffff168152602001600063ffffffff168152602001600063ffffffff168152602001600063ffffffff168152602001600063ffffffff168152602001600063ffffffff168152602001600063ffffffff168152602001600063ffffffff1681525090565b60405180610100016040528060008152602001600081526020016000815260200160008152602001600081526020016000815260200160008152602001600081525090565b6040518060a0016040528060008152602001600081526020016000815260200160008152602001600081525090565b60405180604001604052806136916136c5565b815260200161369e6136c5565b81525090565b60405180606001604052806000815260200160008152602001600081525090565b6040518060800160405280600015158152602001600015158152602001600015158152602001600081525090565b6000604051905090565b600080fd5b600080fd5b6000819050919050565b61371a81613707565b811461372557600080fd5b50565b60008135905061373781613711565b92915050565b60008060408385031215613754576137536136fd565b5b600061376285828601613728565b925050602061377385828601613728565b9150509250929050565b600060208284031215613793576137926136fd565b5b60006137a184828501613728565b91505092915050565b6137b381613707565b82525050565b60006020820190506137ce60008301846137aa565b92915050565b60006040820190506137e960008301856137aa565b6137f660208301846137aa565b9392505050565b600073ffffffffffffffffffffffffffffffffffffffff82169050919050565b6000613828826137fd565b9050919050565b6138388161381d565b811461384357600080fd5b50565b6000813590506138558161382f565b92915050565b600060208284031215613871576138706136fd565b5b600061387f84828501613846565b91505092915050565b600067ffffffffffffffff82169050919050565b6138a581613888565b81146138b057600080fd5b50565b6000813590506138c28161389c565b92915050565b6000806000606084860312156138e1576138e06136fd565b5b60006138ef86828701613728565b9350506020613900868287016138b3565b9250506040613911868287016138b3565b9150509250925092565b6139248161381d565b82525050565b600060208201905061393f600083018461391b565b92915050565b61394e81613888565b82525050565b60008115159050919050565b61396981613954565b82525050565b600060e082019050613984600083018a6137aa565b6139916020830189613945565b61399e6040830188613945565b6139ab6060830187613945565b6139b86080830186613945565b6139c560a08301856137aa565b6139d260c0830184613960565b98975050505050505050565b60006020820190506139f36000830184613960565b92915050565b613a0281613954565b8114613a0d57600080fd5b50565b600081519050613a1f816139f9565b92915050565b600080fd5b6000601f19601f8301169050919050565b7f4e487b7100000000000000000000000000000000000000000000000000000000600052604160045260246000fd5b613a7382613a2a565b810181811067ffffffffffffffff82111715613a9257613a91613a3b565b5b80604052505050565b6000613aa56136f3565b9050613ab18282613a6a565b919050565b600067ffffffffffffffff821115613ad157613ad0613a3b565b5b602082029050602081019050919050565b600080fd5b600081519050613af681613711565b92915050565b6000613b0f613b0a84613ab6565b613a9b565b90508083825260208201905060208402830185811115613b3257613b31613ae2565b5b835b81811015613b5b5780613b478882613ae7565b845260208401935050602081019050613b34565b5050509392505050565b600082601f830112613b7a57613b79613a25565b5b8151613b8a848260208601613afc565b91505092915050565b60008060408385031215613baa57613ba96136fd565b5b6000613bb885828601613a10565b925050602083015167ffffffffffffffff811115613bd957613bd8613702565b5b613be585828601613b65565b9150509250929050565b600082825260208201905092915050565b7f44756e67656f6e733a204e6f74207965742066756c66696c6c65642e00000000600082015250565b6000613c36601c83613bef565b9150613c4182613c00565b602082019050919050565b60006020820190508181036000830152613c6581613c29565b9050919050565b7f4e487b7100000000000000000000000000000000000000000000000000000000600052603260045260246000fd5b7f4e487b7100000000000000000000000000000000000000000000000000000000600052601160045260246000fd5b6000613cd582613707565b9150613ce083613707565b9250828202613cee81613707565b91508282048414831517613d0557613d04613c9b565b5b5092915050565b7f4e487b7100000000000000000000000000000000000000000000000000000000600052601260045260246000fd5b6000613d4682613707565b9150613d5183613707565b925082613d6157613d60613d0c565b5b828204905092915050565b613d7581613707565b82525050565b613d8481613888565b82525050565b613d9381613954565b82525050565b60e082016000820151613daf6000850182613d6c565b506020820151613dc26020850182613d7b565b506040820151613dd56040850182613d7b565b506060820151613de86060850182613d7b565b506080820151613dfb6080850182613d7b565b5060a0820151613e0e60a0850182613d6c565b5060c0820151613e2160c0850182613d8a565b50505050565b600063ffffffff82169050919050565b613e4081613e27565b82525050565b61010082016000820151613e5d6000850182613e37565b506020820151613e706020850182613e37565b506040820151613e836040850182613e37565b506060820151613e966060850182613e37565b506080820151613ea96080850182613e37565b5060a0820151613ebc60a0850182613e37565b5060c0820151613ecf60c0850182613e37565b5060e0820151613ee260e0850182613e37565b50505050565b61010082016000820151613eff6000850182613d6c565b506020820151613f126020850182613d6c565b506040820151613f256040850182613d6c565b506060820151613f386060850182613d6c565b506080820151613f4b6080850182613d6c565b5060a0820151613f5e60a0850182613d6c565b5060c0820151613f7160c0850182613d6c565b5060e0820151613f8460e0850182613d6c565b50505050565b60a082016000820151613fa06000850182613d6c565b506020820151613fb36020850182613d6c565b506040820151613fc66040850182613d6c565b506060820151613fd96060850182613d6c565b506080820151613fec6080850182613d6c565b50505050565b6000610480820190506140086000830188613d99565b61401560e0830187613e46565b6140236101e0830186613ee8565b6140316102e0830185613f8a565b61403f610380830184613ee8565b9695505050505050565b7f44756e67656f6e733a20426174746c6520616c726561647920636f6d706c657460008201527f65642e0000000000000000000000000000000000000000000000000000000000602082015250565b60006140a5602383613bef565b91506140b082614049565b604082019050919050565b600060208201905081810360008301526140d481614098565b9050919050565b6060820160008201516140f16000850182613d6c565b5060208201516141046020850182613d6c565b5060408201516141176040850182613d6c565b50505050565b6000608082019050614132600083018561391b565b61413f60208301846140db565b9392505050565b60608201600082015161415c6000850182613d6c565b50602082015161416f6020850182613d6c565b5060408201516141826040850182613d6c565b50505050565b600060808201905061419d60008301856137aa565b6141aa6020830184614146565b9392505050565b6000819050919050565b60006141d66141d16141cc84613888565b6141b1565b613707565b9050919050565b6141e6816141bb565b82525050565b600060408201905061420160008301856137aa565b61420e60208301846141dd565b9392505050565b600081905092915050565b50565b6000614230600083614215565b915061423b82614220565b600082019050919050565b600061425182614223565b9150819050919050565b7f4661696c656420746f2077697468647261772066746d732e0000000000000000600082015250565b6000614291601883613bef565b915061429c8261425b565b602082019050919050565b600060208201905081810360008301526142c081614284565b9050919050565b60006040820190506142dc600083018561391b565b6142e960208301846137aa565b9392505050565b600060208284031215614306576143056136fd565b5b600061431484828501613a10565b91505092915050565b7f44756e67656f6e733a20436861726163746572206e6f74206f776e6564000000600082015250565b6000614353601d83613bef565b915061435e8261431d565b602082019050919050565b6000602082019050818103600083015261438281614346565b9050919050565b7f44756e67656f6e733a204976616c69642064756e67656f6e2f74696572000000600082015250565b60006143bf601d83613bef565b91506143ca82614389565b602082019050919050565b600060208201905081810360008301526143ee816143b2565b9050919050565b7f44756e67656f6e733a20496e73756666696369656e7420616d6f756e7420736560008201527f6e742e0000000000000000000000000000000000000000000000000000000000602082015250565b6000614451602383613bef565b915061445c826143f5565b604082019050919050565b6000602082019050818103600083015261448081614444565b9050919050565b7f44756e67656f6e733a204e6f7420656e6f75676820656e657267792e00000000600082015250565b60006144bd601c83613bef565b91506144c882614487565b602082019050919050565b600060208201905081810360008301526144ec816144b0565b9050919050565b6144fc81613e27565b82525050565b6000606082019050614517600083018661391b565b61452460208301856144f3565b6145316040830184613960565b949350505050565b60006020828403121561454f5761454e6136fd565b5b600061455d84828501613ae7565b91505092915050565b60008160001c9050919050565b6000819050919050565b600061459061458b83614566565b614573565b9050919050565b600067ffffffffffffffff82169050919050565b60006145be6145b983614566565b614597565b9050919050565b60008160401c9050919050565b60006145e56145e0836145c5565b614597565b9050919050565b60008160801c9050919050565b600061460c614607836145ec565b614597565b9050919050565b60008160c01c9050919050565b600061463361462e83614613565b614597565b9050919050565b600060ff82169050919050565b600061465a61465583614566565b61463a565b9050919050565b60e0820160008083015490506146768161457d565b6146836000860182613d6c565b5060018301549050614694816145ab565b6146a16020860182613d7b565b506146ab816145d2565b6146b86040860182613d7b565b506146c2816145f9565b6146cf6060860182613d7b565b506146d981614620565b6146e66080860182613d7b565b50600283015490506146f78161457d565b61470460a0860182613d6c565b506003830154905061471581614647565b61472260c0860182613d8a565b5050505050565b60006101008201905061473f600083018561391b565b61474c6020830184614661565b9392505050565b7f44756e67656f6e733a206f6e6c79207265706c656e697368657220636f6e747260008201527f6163740000000000000000000000000000000000000000000000000000000000602082015250565b60006147af602383613bef565b91506147ba82614753565b604082019050919050565b600060208201905081810360008301526147de816147a2565b9050919050565b7f44756e67656f6e733a2063686172616374657220616c7265616479206174206660008201527f756c6c20656e6572677900000000000000000000000000000000000000000000602082015250565b6000614841602a83613bef565b915061484c826147e5565b604082019050919050565b6000602082019050818103600083015261487081614834565b9050919050565b6000819050919050565b600061489c61489761489284614877565b6141b1565b613707565b9050919050565b6148ac81614881565b82525050565b60006040820190506148c7600083018561391b565b6148d460208301846148a3565b9392505050565b7f4f776e61626c653a206e6577206f776e657220697320746865207a65726f206160008201527f6464726573730000000000000000000000000000000000000000000000000000602082015250565b6000614937602683613bef565b9150614942826148db565b604082019050919050565b600060208201905081810360008301526149668161492a565b9050919050565b600061497882613707565b915061498383613707565b925082820190508082111561499b5761499a613c9b565b5b92915050565b6000819050919050565b60006149b6826149a1565b91507f800000000000000000000000000000000000000000000000000000000000000082036149e8576149e7613c9b565b5b600182039050919050565b600080fd5b614a0181613e27565b8114614a0c57600080fd5b50565b600081519050614a1e816149f8565b92915050565b60006101008284031215614a3b57614a3a6149f3565b5b614a46610100613a9b565b90506000614a5684828501614a0f565b6000830152506020614a6a84828501614a0f565b6020830152506040614a7e84828501614a0f565b6040830152506060614a9284828501614a0f565b6060830152506080614aa684828501614a0f565b60808301525060a0614aba84828501614a0f565b60a08301525060c0614ace84828501614a0f565b60c08301525060e0614ae284828501614a0f565b60e08301525092915050565b60006101008284031215614b0557614b046136fd565b5b6000614b1384828501614a24565b91505092915050565b6000614b2782613707565b91507fffffffffffffffffffffffffffffffffffffffffffffffffffffffffffffffff8203614b5957614b58613c9b565b5b600182019050919050565b608082016000820151614b7a6000850182613d8a565b506020820151614b8d6020850182613d8a565b506040820151614ba06040850182613d8a565b506060820151614bb36060850182613d6c565b50505050565b61010082016000820151614bd06000850182614b64565b506020820151614be36080850182614b64565b50505050565b608082016000820151614bff6000850182613d6c565b506020820151614c126020850182613d6c565b506040820151614c256040850182613d6c565b506060820151614c386060850182613d6c565b50505050565b60006101a082019050614c5460008301866137aa565b614c616020830185614bb9565b614c6f610120830184614be9565b949350505050565b6000614c8282613e27565b9150614c8d83613e27565b9250828201905063ffffffff811115614ca957614ca8613c9b565b5b92915050565b600061012082019050614cc560008301856137aa565b614cd26020830184613e46565b9392505050565b7f4f776e61626c653a2063616c6c6572206973206e6f7420746865206f776e6572600082015250565b6000614d0f602083613bef565b9150614d1a82614cd9565b602082019050919050565b60006020820190508181036000830152614d3e81614d02565b9050919050565b6000614d5082613707565b9150614d5b83613707565b9250828203905081811115614d7357614d72613c9b565b5b92915050565b600081519050614d888161389c565b92915050565b600060808284031215614da457614da36149f3565b5b614dae6080613a9b565b90506000614dbe84828501614d79565b6000830152506020614dd284828501614d79565b6020830152506040614de684828501614d79565b6040830152506060614dfa84828501614d79565b60608301525092915050565b600060808284031215614e1c57614e1b6136fd565b5b6000614e2a84828501614d8e565b91505092915050565b6000602082019050614e4860008301846141dd565b92915050565b60006101008284031215614e6557614e646149f3565b5b614e70610100613a9b565b90506000614e8084828501613ae7565b6000830152506020614e9484828501613ae7565b6020830152506040614ea884828501613ae7565b6040830152506060614ebc84828501613ae7565b6060830152506080614ed084828501613ae7565b60808301525060a0614ee484828501613ae7565b60a08301525060c0614ef884828501613ae7565b60c08301525060e0614f0c84828501613ae7565b60e08301525092915050565b60006101008284031215614f2f57614f2e6136fd565b5b6000614f3d84828501614e4e565b91505092915050565b6000614f5182613707565b9150614f5c83613707565b925082614f6c57614f6b613d0c565b5b828206905092915050565b6000614f8282613e27565b9150614f8d83613e27565b9250828202614f9b81613e27565b9150808214614fad57614fac613c9b565b5b5092915050565b6000614fbf82613e27565b9150614fca83613e27565b925082614fda57614fd9613d0c565b5b828204905092915050565b600061ffff82169050919050565b6000614ffe82614fe5565b915061500983614fe5565b92508261501957615018613d0c565b5b82820690509291505056fea2646970667358221220a554fe6b9398851c1c1a91a3fc76212934926058529a4791d264e69ba276ff4e64736f6c63430008110033",
  "linkReferences": {},
  "deployedLinkReferences": {}
}