{
  "_format": "hh-sol-artifact-1",
  "contractName": "Dungeons",
  "sourceName": "contracts/core/dungeons/Dungeons.sol",
  "abi": [
    {
      "inputs": [
        {
          "internalType": "address",
          "name": "charactersNftAddress",
          "type": "address"
        },
        {
          "internalType": "address",
          "name": "equipmentNftAddress",
          "type": "address"
        },
        {
          "internalType": "address",
          "name": "equipmentManagerAddress",
          "type": "address"
        },
        {
          "internalType": "address[2]",
          "name": "materials",
          "type": "address[2]"
        },
        {
          "internalType": "address",
          "name": "enerlinkAddress",
          "type": "address"
        }
      ],
      "stateMutability": "nonpayable",
      "type": "constructor"
    },
    {
      "anonymous": false,
      "inputs": [
        {
          "indexed": false,
          "internalType": "uint256",
          "name": "battle_id",
          "type": "uint256"
        },
        {
          "indexed": false,
          "internalType": "uint256",
          "name": "battle_result",
          "type": "uint256"
        }
      ],
      "name": "BattleEnded",
      "type": "event"
    },
    {
      "anonymous": false,
      "inputs": [
        {
          "indexed": false,
          "internalType": "address",
          "name": "user",
          "type": "address"
        },
        {
          "components": [
            {
              "internalType": "uint256",
              "name": "request_id",
              "type": "uint256"
            },
            {
              "internalType": "uint64",
              "name": "dungeon_type",
              "type": "uint64"
            },
            {
              "internalType": "uint64",
              "name": "tier",
              "type": "uint64"
            },
            {
              "internalType": "uint64",
              "name": "result",
              "type": "uint64"
            },
            {
              "internalType": "uint64",
              "name": "max_loot",
              "type": "uint64"
            },
            {
              "internalType": "uint256",
              "name": "character_id",
              "type": "uint256"
            },
            {
              "internalType": "bool",
              "name": "completed",
              "type": "bool"
            }
          ],
          "indexed": false,
          "internalType": "struct battle_request",
          "name": "request",
          "type": "tuple"
        }
      ],
      "name": "BattleRequested",
      "type": "event"
    },
    {
      "anonymous": false,
      "inputs": [
        {
          "components": [
            {
              "internalType": "uint256",
              "name": "request_id",
              "type": "uint256"
            },
            {
              "internalType": "uint64",
              "name": "dungeon_type",
              "type": "uint64"
            },
            {
              "internalType": "uint64",
              "name": "tier",
              "type": "uint64"
            },
            {
              "internalType": "uint64",
              "name": "result",
              "type": "uint64"
            },
            {
              "internalType": "uint64",
              "name": "max_loot",
              "type": "uint64"
            },
            {
              "internalType": "uint256",
              "name": "character_id",
              "type": "uint256"
            },
            {
              "internalType": "bool",
              "name": "completed",
              "type": "bool"
            }
          ],
          "indexed": false,
          "internalType": "struct battle_request",
          "name": "request",
          "type": "tuple"
        },
        {
          "components": [
            {
              "internalType": "uint32",
              "name": "character_class",
              "type": "uint32"
            },
            {
              "internalType": "uint32",
              "name": "element",
              "type": "uint32"
            },
            {
              "internalType": "uint32",
              "name": "str",
              "type": "uint32"
            },
            {
              "internalType": "uint32",
              "name": "vit",
              "type": "uint32"
            },
            {
              "internalType": "uint32",
              "name": "dex",
              "type": "uint32"
            },
            {
              "internalType": "uint32",
              "name": "talent",
              "type": "uint32"
            },
            {
              "internalType": "uint32",
              "name": "mood",
              "type": "uint32"
            },
            {
              "internalType": "uint32",
              "name": "exp",
              "type": "uint32"
            }
          ],
          "indexed": false,
          "internalType": "struct character_properties",
          "name": "char_props",
          "type": "tuple"
        },
        {
          "components": [
            {
              "internalType": "uint256",
              "name": "atk",
              "type": "uint256"
            },
            {
              "internalType": "uint256",
              "name": "def",
              "type": "uint256"
            },
            {
              "internalType": "uint256",
              "name": "eva",
              "type": "uint256"
            },
            {
              "internalType": "uint256",
              "name": "hp",
              "type": "uint256"
            },
            {
              "internalType": "uint256",
              "name": "pen",
              "type": "uint256"
            },
            {
              "internalType": "uint256",
              "name": "crit",
              "type": "uint256"
            },
            {
              "internalType": "uint256",
              "name": "luck",
              "type": "uint256"
            },
            {
              "internalType": "uint256",
              "name": "energy_restoration",
              "type": "uint256"
            }
          ],
          "indexed": false,
          "internalType": "struct battle_stats",
          "name": "char_stats",
          "type": "tuple"
        },
        {
          "components": [
            {
              "internalType": "uint256",
              "name": "dungeon",
              "type": "uint256"
            },
            {
              "internalType": "uint256",
              "name": "tier",
              "type": "uint256"
            },
            {
              "internalType": "uint256",
              "name": "_type",
              "type": "uint256"
            },
            {
              "internalType": "uint256",
              "name": "attr_sum",
              "type": "uint256"
            },
            {
              "internalType": "uint256",
              "name": "attr_alloc",
              "type": "uint256"
            }
          ],
          "indexed": false,
          "internalType": "struct enemy_properties",
          "name": "enemy_props",
          "type": "tuple"
        },
        {
          "components": [
            {
              "internalType": "uint256",
              "name": "atk",
              "type": "uint256"
            },
            {
              "internalType": "uint256",
              "name": "def",
              "type": "uint256"
            },
            {
              "internalType": "uint256",
              "name": "eva",
              "type": "uint256"
            },
            {
              "internalType": "uint256",
              "name": "hp",
              "type": "uint256"
            },
            {
              "internalType": "uint256",
              "name": "pen",
              "type": "uint256"
            },
            {
              "internalType": "uint256",
              "name": "crit",
              "type": "uint256"
            },
            {
              "internalType": "uint256",
              "name": "luck",
              "type": "uint256"
            },
            {
              "internalType": "uint256",
              "name": "energy_restoration",
              "type": "uint256"
            }
          ],
          "indexed": false,
          "internalType": "struct battle_stats",
          "name": "enemy_stats",
          "type": "tuple"
        }
      ],
      "name": "BattleStarted",
      "type": "event"
    },
    {
      "anonymous": false,
      "inputs": [
        {
          "indexed": false,
          "internalType": "uint256",
          "name": "battle_id",
          "type": "uint256"
        },
        {
          "components": [
            {
              "components": [
                {
                  "internalType": "bool",
                  "name": "evaded",
                  "type": "bool"
                },
                {
                  "internalType": "bool",
                  "name": "penetrated",
                  "type": "bool"
                },
                {
                  "internalType": "bool",
                  "name": "critical_hit",
                  "type": "bool"
                },
                {
                  "internalType": "uint256",
                  "name": "damage",
                  "type": "uint256"
                }
              ],
              "internalType": "struct attack_event",
              "name": "attack1",
              "type": "tuple"
            },
            {
              "components": [
                {
                  "internalType": "bool",
                  "name": "evaded",
                  "type": "bool"
                },
                {
                  "internalType": "bool",
                  "name": "penetrated",
                  "type": "bool"
                },
                {
                  "internalType": "bool",
                  "name": "critical_hit",
                  "type": "bool"
                },
                {
                  "internalType": "uint256",
                  "name": "damage",
                  "type": "uint256"
                }
              ],
              "internalType": "struct attack_event",
              "name": "attack2",
              "type": "tuple"
            }
          ],
          "indexed": false,
          "internalType": "struct clash_event",
          "name": "clash",
          "type": "tuple"
        },
        {
          "components": [
            {
              "internalType": "uint256",
              "name": "char_hp",
              "type": "uint256"
            },
            {
              "internalType": "uint256",
              "name": "char_def",
              "type": "uint256"
            },
            {
              "internalType": "uint256",
              "name": "enem_hp",
              "type": "uint256"
            },
            {
              "internalType": "uint256",
              "name": "enem_def",
              "type": "uint256"
            }
          ],
          "indexed": false,
          "internalType": "struct battlers_balances",
          "name": "balances",
          "type": "tuple"
        }
      ],
      "name": "Clashed",
      "type": "event"
    },
    {
      "anonymous": false,
      "inputs": [
        {
          "indexed": false,
          "internalType": "uint256",
          "name": "dungeon1",
          "type": "uint256"
        }
      ],
      "name": "DungeonsReplenished",
      "type": "event"
    },
    {
      "anonymous": false,
      "inputs": [
        {
          "indexed": false,
          "internalType": "uint256",
          "name": "character_id",
          "type": "uint256"
        },
        {
          "components": [
            {
              "internalType": "uint256",
              "name": "exp_amount",
              "type": "uint256"
            },
            {
              "internalType": "uint256",
              "name": "stat_affected",
              "type": "uint256"
            },
            {
              "internalType": "uint256",
              "name": "stat_amount",
              "type": "uint256"
            }
          ],
          "indexed": false,
          "internalType": "struct character_gained",
          "name": "char_gain",
          "type": "tuple"
        }
      ],
      "name": "ExpAndStatGained",
      "type": "event"
    },
    {
      "anonymous": false,
      "inputs": [
        {
          "indexed": false,
          "internalType": "address",
          "name": "user",
          "type": "address"
        },
        {
          "components": [
            {
              "internalType": "uint256",
              "name": "material",
              "type": "uint256"
            },
            {
              "internalType": "uint256",
              "name": "amount",
              "type": "uint256"
            },
            {
              "internalType": "uint256",
              "name": "snap_amount",
              "type": "uint256"
            }
          ],
          "indexed": false,
          "internalType": "struct loot_gained",
          "name": "loot",
          "type": "tuple"
        }
      ],
      "name": "LootGained",
      "type": "event"
    },
    {
      "anonymous": false,
      "inputs": [
        {
          "indexed": true,
          "internalType": "address",
          "name": "previousOwner",
          "type": "address"
        },
        {
          "indexed": true,
          "internalType": "address",
          "name": "newOwner",
          "type": "address"
        }
      ],
      "name": "OwnershipTransferred",
      "type": "event"
    },
    {
      "inputs": [
        {
          "internalType": "address",
          "name": "",
          "type": "address"
        }
      ],
      "name": "battle_requests",
      "outputs": [
        {
          "internalType": "uint256",
          "name": "request_id",
          "type": "uint256"
        },
        {
          "internalType": "uint64",
          "name": "dungeon_type",
          "type": "uint64"
        },
        {
          "internalType": "uint64",
          "name": "tier",
          "type": "uint64"
        },
        {
          "internalType": "uint64",
          "name": "result",
          "type": "uint64"
        },
        {
          "internalType": "uint64",
          "name": "max_loot",
          "type": "uint64"
        },
        {
          "internalType": "uint256",
          "name": "character_id",
          "type": "uint256"
        },
        {
          "internalType": "bool",
          "name": "completed",
          "type": "bool"
        }
      ],
      "stateMutability": "view",
      "type": "function"
    },
    {
      "inputs": [
        {
          "internalType": "uint256",
          "name": "character_id",
          "type": "uint256"
        }
      ],
      "name": "consumeEnerLink",
      "outputs": [
        {
          "internalType": "bool",
          "name": "restored",
          "type": "bool"
        }
      ],
      "stateMutability": "nonpayable",
      "type": "function"
    },
    {
      "inputs": [
        {
          "internalType": "uint256",
          "name": "",
          "type": "uint256"
        }
      ],
      "name": "dungeon_loot_cap",
      "outputs": [
        {
          "internalType": "uint256",
          "name": "",
          "type": "uint256"
        }
      ],
      "stateMutability": "view",
      "type": "function"
    },
    {
      "inputs": [
        {
          "internalType": "uint256",
          "name": "",
          "type": "uint256"
        }
      ],
      "name": "dungeon_loot_remaining",
      "outputs": [
        {
          "internalType": "uint256",
          "name": "",
          "type": "uint256"
        }
      ],
      "stateMutability": "view",
      "type": "function"
    },
    {
      "inputs": [
        {
          "internalType": "uint256",
          "name": "",
          "type": "uint256"
        }
      ],
      "name": "energy_balances",
      "outputs": [
        {
          "internalType": "uint256",
          "name": "energy",
          "type": "uint256"
        },
        {
          "internalType": "uint256",
          "name": "time_last_updated",
          "type": "uint256"
        }
      ],
      "stateMutability": "view",
      "type": "function"
    },
    {
      "inputs": [
        {
          "internalType": "uint256",
          "name": "character_id",
          "type": "uint256"
        },
        {
          "internalType": "uint64",
          "name": "dungeon",
          "type": "uint64"
        },
        {
          "internalType": "uint64",
          "name": "tier",
          "type": "uint64"
        }
      ],
      "name": "findBattle",
      "outputs": [],
      "stateMutability": "payable",
      "type": "function"
    },
    {
      "inputs": [
        {
          "internalType": "uint256",
          "name": "character_id",
          "type": "uint256"
        }
      ],
      "name": "getCharacterEnergy",
      "outputs": [
        {
          "internalType": "uint256",
          "name": "character_energy",
          "type": "uint256"
        }
      ],
      "stateMutability": "view",
      "type": "function"
    },
    {
      "inputs": [],
      "name": "owner",
      "outputs": [
        {
          "internalType": "address",
          "name": "",
          "type": "address"
        }
      ],
      "stateMutability": "view",
      "type": "function"
    },
    {
      "inputs": [],
      "name": "renounceOwnership",
      "outputs": [],
      "stateMutability": "nonpayable",
      "type": "function"
    },
    {
      "inputs": [],
      "name": "replenishDungeonLoot",
      "outputs": [],
      "stateMutability": "nonpayable",
      "type": "function"
    },
    {
      "inputs": [
        {
          "internalType": "uint256",
          "name": "amount",
          "type": "uint256"
        }
      ],
      "name": "setBattleFee",
      "outputs": [],
      "stateMutability": "nonpayable",
      "type": "function"
    },
    {
      "inputs": [
        {
          "internalType": "address",
          "name": "keeperAddress",
          "type": "address"
        }
      ],
      "name": "setDungeonKeeper",
      "outputs": [],
      "stateMutability": "nonpayable",
      "type": "function"
    },
    {
      "inputs": [
        {
          "internalType": "uint256",
          "name": "dungeon",
          "type": "uint256"
        },
        {
          "internalType": "uint256",
          "name": "amount",
          "type": "uint256"
        }
      ],
      "name": "setDungeonLootCap",
      "outputs": [],
      "stateMutability": "nonpayable",
      "type": "function"
    },
    {
      "inputs": [
        {
          "internalType": "address",
          "name": "_vrf_contract_address",
          "type": "address"
        }
      ],
      "name": "setRandomizationContract",
      "outputs": [],
      "stateMutability": "nonpayable",
      "type": "function"
    },
    {
      "inputs": [],
      "name": "startBattle",
      "outputs": [],
      "stateMutability": "nonpayable",
      "type": "function"
    },
    {
      "inputs": [
        {
          "internalType": "address",
          "name": "newOwner",
          "type": "address"
        }
      ],
      "name": "transferOwnership",
      "outputs": [],
      "stateMutability": "nonpayable",
      "type": "function"
    },
    {
      "inputs": [],
      "name": "withdraw",
      "outputs": [],
      "stateMutability": "nonpayable",
      "type": "function"
    }
  ],
  "bytecode": "0x6080604052662386f26fc100006007553480156200001c57600080fd5b50604051620056653803806200566583398181016040528101906200004291906200053e565b6200006262000056620001fa60201b60201c565b6200020260201b60201c565b84600260006101000a81548173ffffffffffffffffffffffffffffffffffffffff021916908373ffffffffffffffffffffffffffffffffffffffff16021790555083600360006101000a81548173ffffffffffffffffffffffffffffffffffffffff021916908373ffffffffffffffffffffffffffffffffffffffff16021790555082600460006101000a81548173ffffffffffffffffffffffffffffffffffffffff021916908373ffffffffffffffffffffffffffffffffffffffff16021790555081600a90600262000138929190620002c6565b5080600560006101000a81548173ffffffffffffffffffffffffffffffffffffffff021916908373ffffffffffffffffffffffffffffffffffffffff16021790555033600660006101000a81548173ffffffffffffffffffffffffffffffffffffffff021916908373ffffffffffffffffffffffffffffffffffffffff16021790555061034c600c60008081526020019081526020016000208190555061034c600d6000808152602001908152602001600020819055505050505050620005c6565b600033905090565b60008060009054906101000a900473ffffffffffffffffffffffffffffffffffffffff169050816000806101000a81548173ffffffffffffffffffffffffffffffffffffffff021916908373ffffffffffffffffffffffffffffffffffffffff1602179055508173ffffffffffffffffffffffffffffffffffffffff168173ffffffffffffffffffffffffffffffffffffffff167f8be0079c531659141344cd1fd0a4f28419497f9722a3daafe3b4186f6b6457e060405160405180910390a35050565b826002810192821562000335579160200282015b82811115620003345782518260006101000a81548173ffffffffffffffffffffffffffffffffffffffff021916908373ffffffffffffffffffffffffffffffffffffffff16021790555091602001919060010190620002da565b5b50905062000344919062000348565b5090565b5b808211156200036357600081600090555060010162000349565b5090565b6000604051905090565b600080fd5b600073ffffffffffffffffffffffffffffffffffffffff82169050919050565b6000620003a38262000376565b9050919050565b620003b58162000396565b8114620003c157600080fd5b50565b600081519050620003d581620003aa565b92915050565b600080fd5b6000601f19601f8301169050919050565b7f4e487b7100000000000000000000000000000000000000000000000000000000600052604160045260246000fd5b6200042b82620003e0565b810181811067ffffffffffffffff821117156200044d576200044c620003f1565b5b80604052505050565b60006200046262000367565b905062000470828262000420565b919050565b600067ffffffffffffffff821115620004935762000492620003f1565b5b602082029050919050565b600080fd5b6000620004ba620004b48462000475565b62000456565b90508060208402830185811115620004d757620004d66200049e565b5b835b81811015620005045780620004ef8882620003c4565b845260208401935050602081019050620004d9565b5050509392505050565b600082601f830112620005265762000525620003db565b5b600262000535848285620004a3565b91505092915050565b600080600080600060c086880312156200055d576200055c62000371565b5b60006200056d88828901620003c4565b95505060206200058088828901620003c4565b94505060406200059388828901620003c4565b9350506060620005a6888289016200050e565b92505060a0620005b988828901620003c4565b9150509295509295909350565b61508f80620005d66000396000f3fe6080604052600436106100fe5760003560e01c80637ec80d16116100955780639493ac07116100645780639493ac07146102ed578063c653befd14610316578063db14bfb414610359578063f2fde38b14610396578063fb33e5ae146103bf576100fe565b80637ec80d16146102315780637f6a078a1461026e57806382b816b3146102855780638da5cb5b146102c2576100fe565b806353b8dd77116100d157806353b8dd77146101975780635473e978146101d55780636771ebda146101fe578063715018a61461021a576100fe565b8063240a2c97146101035780632d035fb41461011a5780633ccfd60b146101435780634117e4c41461015a575b600080fd5b34801561010f57600080fd5b506101186103e8565b005b34801561012657600080fd5b50610141600480360381019061013c9190613772565b610a66565b005b34801561014f57600080fd5b50610158610a8a565b005b34801561016657600080fd5b50610181600480360381019061017c91906137b2565b610b63565b60405161018e91906137ee565b60405180910390f35b3480156101a357600080fd5b506101be60048036038101906101b991906137b2565b610b7b565b6040516101cc929190613809565b60405180910390f35b3480156101e157600080fd5b506101fc60048036038101906101f79190613890565b610b9f565b005b610218600480360381019061021391906138fd565b610beb565b005b34801561022657600080fd5b5061022f611131565b005b34801561023d57600080fd5b50610258600480360381019061025391906137b2565b611145565b60405161026591906137ee565b60405180910390f35b34801561027a57600080fd5b506102836111ad565b005b34801561029157600080fd5b506102ac60048036038101906102a791906137b2565b6112b4565b6040516102b991906137ee565b60405180910390f35b3480156102ce57600080fd5b506102d76112cc565b6040516102e4919061395f565b60405180910390f35b3480156102f957600080fd5b50610314600480360381019061030f91906137b2565b6112f5565b005b34801561032257600080fd5b5061033d60048036038101906103389190613890565b611316565b60405161035097969594939291906139a4565b60405180910390f35b34801561036557600080fd5b50610380600480360381019061037b91906137b2565b6113b5565b60405161038d9190613a13565b60405180910390f35b3480156103a257600080fd5b506103bd60048036038101906103b89190613890565b6114e4565b005b3480156103cb57600080fd5b506103e660048036038101906103e19190613890565b611567565b005b6000600860003373ffffffffffffffffffffffffffffffffffffffff1673ffffffffffffffffffffffffffffffffffffffff1681526020019081526020016000206040518060e0016040529081600082015481526020016001820160009054906101000a900467ffffffffffffffff1667ffffffffffffffff1667ffffffffffffffff1681526020016001820160089054906101000a900467ffffffffffffffff1667ffffffffffffffff1667ffffffffffffffff1681526020016001820160109054906101000a900467ffffffffffffffff1667ffffffffffffffff1667ffffffffffffffff1681526020016001820160189054906101000a900467ffffffffffffffff1667ffffffffffffffff1667ffffffffffffffff168152602001600282015481526020016003820160009054906101000a900460ff1615151515815250509050600080600160009054906101000a900473ffffffffffffffffffffffffffffffffffffffff1673ffffffffffffffffffffffffffffffffffffffff1663d8a4676f84600001516040518263ffffffff1660e01b815260040161058f91906137ee565b600060405180830381865afa1580156105ac573d6000803e3d6000fd5b505050506040513d6000823e3d601f19601f820116820180604052508101906105d59190613bc8565b9150915081610619576040517f08c379a000000000000000000000000000000000000000000000000000000000815260040161061090613c81565b60405180910390fd5b600061063f8260008151811061063257610631613ca1565b5b60200260200101516115b3565b90506000806106518660a00151611687565b915091506000806106b6886020015167ffffffffffffffff16896040015167ffffffffffffffff168760008151811061068d5761068c613ca1565b5b6020026020010151886001815181106106a9576106a8613ca1565b5b602002602001015161175e565b9150915060648460e0015163ffffffff161080156106e257506000886040015167ffffffffffffffff16145b1561070e576064601982606001516106fa9190613cff565b6107049190613d70565b8160600181815250505b7f35cc45055cf75bfd1439799d9a9a7ee9fcaf6b8b4d3e913f71201b1d602246a48885858585604051610745959493929190614027565b60405180910390a18760c0015115610792576040517f08c379a0000000000000000000000000000000000000000000000000000000008152600401610789906140f0565b60405180910390fd5b6001600860003373ffffffffffffffffffffffffffffffffffffffff1673ffffffffffffffffffffffffffffffffffffffff16815260200190815260200160002060030160006101000a81548160ff02191690831515021790555060006108018960000151868686868c6117da565b905080600860003373ffffffffffffffffffffffffffffffffffffffff1673ffffffffffffffffffffffffffffffffffffffff16815260200190815260200160002060010160106101000a81548167ffffffffffffffff021916908367ffffffffffffffff16021790555060018167ffffffffffffffff16148061088f575060028167ffffffffffffffff16145b156108f45761089e8986611b7b565b60028167ffffffffffffffff16036108f3576108b8613588565b7f24b281479456c9b6bee88018054dbbebf0ed9aa3295cf7980bdf2881bb98222833826040516108e9929190614152565b60405180910390a1505b5b60018167ffffffffffffffff160361097157610970898760028151811061091e5761091d613ca1565b5b602002602001015161ffff168860038151811061093e5761093d613ca1565b5b602002602001015161ffff168960048151811061095e5761095d613ca1565b5b602002602001015161ffff1633611d96565b5b60008167ffffffffffffffff1603610a0c5761098b613588565b6109936135a9565b7fb06d11cabafde2a769d3cb8a1f604c7ecd26fb05d9b1e1871e4d51205bf738918b60a00151826040516109c89291906141bd565b60405180910390a17f24b281479456c9b6bee88018054dbbebf0ed9aa3295cf7980bdf2881bb9822283383604051610a01929190614152565b60405180910390a150505b610a1e8960a001518560e00151611fe4565b7f277c2ba9c8248b5a28abd67ee9d4e2a32e7c0a3914aa3d726deef541031e29ee896000015182604051610a53929190614221565b60405180910390a1505050505050505050565b610a6e612025565b80600d6000848152602001908152602001600020819055505050565b610a92612025565b6000600660009054906101000a900473ffffffffffffffffffffffffffffffffffffffff1673ffffffffffffffffffffffffffffffffffffffff1647604051610ada9061427b565b60006040518083038185875af1925050503d8060008114610b17576040519150601f19603f3d011682016040523d82523d6000602084013e610b1c565b606091505b5050905080610b60576040517f08c379a0000000000000000000000000000000000000000000000000000000008152600401610b57906142dc565b60405180910390fd5b50565b600c6020528060005260406000206000915090505481565b60096020528060005260406000206000915090508060000154908060010154905082565b610ba7612025565b80600160006101000a81548173ffffffffffffffffffffffffffffffffffffffff021916908373ffffffffffffffffffffffffffffffffffffffff16021790555050565b600260009054906101000a900473ffffffffffffffffffffffffffffffffffffffff1673ffffffffffffffffffffffffffffffffffffffff1663e327a6af33856040518363ffffffff1660e01b8152600401610c489291906142fc565b602060405180830381865afa158015610c65573d6000803e3d6000fd5b505050506040513d601f19601f82011682018060405250810190610c899190614325565b610cc8576040517f08c379a0000000000000000000000000000000000000000000000000000000008152600401610cbf9061439e565b60405180910390fd5b60038267ffffffffffffffff16108015610cec575060058167ffffffffffffffff16105b610d2b576040517f08c379a0000000000000000000000000000000000000000000000000000000008152600401610d229061440a565b60405180910390fd5b600754341015610d70576040517f08c379a0000000000000000000000000000000000000000000000000000000008152600401610d679061449c565b60405180910390fd5b6000610d7b84611145565b90506064811015610dc1576040517f08c379a0000000000000000000000000000000000000000000000000000000008152600401610db890614508565b60405180910390fd5b610dcc8160646120a3565b60096000868152602001908152602001600020600001819055504260096000868152602001908152602001600020600101819055506000610e218467ffffffffffffffff168467ffffffffffffffff166120c8565b925050506000600c60008667ffffffffffffffff16815260200190815260200160002054905081811015610e53578091505b610e5d81836120a3565b600c60008767ffffffffffffffff168152602001908152602001600020819055506040518060e00160405280600160009054906101000a900473ffffffffffffffffffffffffffffffffffffffff1673ffffffffffffffffffffffffffffffffffffffff16639bca039d33600b60006040518463ffffffff1660e01b8152600401610eea93929190614537565b6020604051808303816000875af1158015610f09573d6000803e3d6000fd5b505050506040513d601f19601f82011682018060405250810190610f2d919061456e565b81526020018667ffffffffffffffff1681526020018567ffffffffffffffff168152602001600067ffffffffffffffff1681526020018367ffffffffffffffff16815260200187815260200160001515815250600860003373ffffffffffffffffffffffffffffffffffffffff1673ffffffffffffffffffffffffffffffffffffffff1681526020019081526020016000206000820151816000015560208201518160010160006101000a81548167ffffffffffffffff021916908367ffffffffffffffff16021790555060408201518160010160086101000a81548167ffffffffffffffff021916908367ffffffffffffffff16021790555060608201518160010160106101000a81548167ffffffffffffffff021916908367ffffffffffffffff16021790555060808201518160010160186101000a81548167ffffffffffffffff021916908367ffffffffffffffff16021790555060a0820151816002015560c08201518160030160006101000a81548160ff0219169083151502179055509050507fdb001f22d59ea0dc19344aa108b16bbf05d248b5857355d379a045f46b90055f33600860003373ffffffffffffffffffffffffffffffffffffffff1673ffffffffffffffffffffffffffffffffffffffff16815260200190815260200160002060405161112192919061475e565b60405180910390a1505050505050565b611139612025565b61114360006120e8565b565b600080603c61116a4260096000878152602001908152602001600020600101546120a3565b6111749190613d70565b90506111a5600960008581526020019081526020016000206000015460058361119d9190613cff565b6103e86121ac565b915050919050565b600e60009054906101000a900473ffffffffffffffffffffffffffffffffffffffff1673ffffffffffffffffffffffffffffffffffffffff163373ffffffffffffffffffffffffffffffffffffffff161461123d576040517f08c379a0000000000000000000000000000000000000000000000000000000008152600401611234906147fa565b60405180910390fd5b600d600080815260200190815260200160002054600c6000808152602001908152602001600020819055507f7c1b851ba16ab218087e3784549cf92b03c2345661d885cfa5d23c7db7b8371f600c6000808152602001908152602001600020546040516112aa91906137ee565b60405180910390a1565b600d6020528060005260406000206000915090505481565b60008060009054906101000a900473ffffffffffffffffffffffffffffffffffffffff16905090565b6112fd612025565b633b9aca008161130d9190613cff565b60078190555050565b60086020528060005260406000206000915090508060000154908060010160009054906101000a900467ffffffffffffffff16908060010160089054906101000a900467ffffffffffffffff16908060010160109054906101000a900467ffffffffffffffff16908060010160189054906101000a900467ffffffffffffffff16908060020154908060030160009054906101000a900460ff16905087565b60006103e86113c383611145565b10611403576040517f08c379a00000000000000000000000000000000000000000000000000000000081526004016113fa9061488c565b60405180910390fd5b600560009054906101000a900473ffffffffffffffffffffffffffffffffffffffff1673ffffffffffffffffffffffffffffffffffffffff166379cc679033670de0b6b3a76400006040518363ffffffff1660e01b81526004016114689291906148e7565b600060405180830381600087803b15801561148257600080fd5b505af1158015611496573d6000803e3d6000fd5b5050505060405180604001604052806103e881526020014281525060096000848152602001908152602001600020600082015181600001556020820151816001015590505060019050919050565b6114ec612025565b600073ffffffffffffffffffffffffffffffffffffffff168173ffffffffffffffffffffffffffffffffffffffff160361155b576040517f08c379a000000000000000000000000000000000000000000000000000000000815260040161155290614982565b60405180910390fd5b611564816120e8565b50565b61156f612025565b80600e60006101000a81548173ffffffffffffffffffffffffffffffffffffffff021916908373ffffffffffffffffffffffffffffffffffffffff16021790555050565b60606000601067ffffffffffffffff8111156115d2576115d1613a70565b5b6040519080825280602002602001820160405280156116005781602001602082028036833780820191505090505b509050600061ffff9050600080600f90505b6000811261167b5760008387169050601084901b93508281901c90508085838151811061164257611641613ca1565b5b602002602001019061ffff16908161ffff168152505060108361166591906149a2565b9250508080611673906149e0565b915050611612565b50829350505050919050565b61168f6135ca565b61169761363f565b600260009054906101000a900473ffffffffffffffffffffffffffffffffffffffff1673ffffffffffffffffffffffffffffffffffffffff1663468f25b0846040518263ffffffff1660e01b81526004016116f291906137ee565b61010060405180830381865afa158015611710573d6000803e3d6000fd5b505050506040513d601f19601f820116820180604052508101906117349190614b23565b915061173f826121dc565b9050600061174c84612265565b905061175882826125bb565b50915091565b611766613684565b61176e61363f565b6040518060a001604052808781526020018681526020016117928661ffff166126a7565b81526020016117a0876126bd565b81526020016117b28561ffff16612709565b815250915060006117c28361272b565b90506117ce81846128fa565b91505094509492505050565b6000806000600190505b600b811015611b6f57600061181285838151811061180557611804613ca1565b5b60200260200101516115b3565b905060005b6010811015611b5a57838061182b90614b51565b94505060008960600151118015611846575060008760600151115b8015611853575060148411155b15611ab1576118606136b3565b6119428b6000015163ffffffff168b8a604051806080016040528088888151811061188e5761188d613ca1565b5b602002602001015161ffff1661ffff168152602001886001896118b191906149a2565b815181106118c2576118c1613ca1565b5b602002602001015161ffff1661ffff168152602001886002896118e591906149a2565b815181106118f6576118f5613ca1565b5b602002602001015161ffff1661ffff1681526020018860038961191991906149a2565b8151811061192a57611929613ca1565b5b602002602001015161ffff1661ffff1681525061297c565b8160000181905250611a328960400151898c60405180608001604052808860048961196d91906149a2565b8151811061197e5761197d613ca1565b5b602002602001015161ffff1661ffff168152602001886005896119a191906149a2565b815181106119b2576119b1613ca1565b5b602002602001015161ffff1661ffff168152602001886006896119d591906149a2565b815181106119e6576119e5613ca1565b5b602002602001015161ffff1661ffff16815260200188600789611a0991906149a2565b81518110611a1a57611a19613ca1565b5b602002602001015161ffff1661ffff1681525061297c565b8160200181905250600060405180608001604052808c6060015181526020018c6020015181526020018a6060015181526020018a6020015181525090507ffaf9235e14996aecca957358d2c2b6d418366712449ca325d03665eb61eeaaa78d8383604051611aa293929190614c73565b60405180910390a15050611b46565b60008960600151118015611ac9575060008760600151115b8015611ad55750601484145b15611adf57600294505b60008960600151148015611af7575060008760600151145b15611b0157600294505b60008960600151118015611b19575060008760600151145b15611b2357600194505b60008960600151148015611b3b575060008760600151115b15611b4557600094505b5b600881611b5391906149a2565b9050611817565b50508080611b6790614b51565b9150506117e4565b50509695505050505050565b600080611b95846040015167ffffffffffffffff16612af0565b915091506000611bb2856020015167ffffffffffffffff16612b4d565b63ffffffff1690506127108460e0015163ffffffff161015611d2657611beb8460e0015163ffffffff168463ffffffff166127106121ac565b8460e0019063ffffffff16908163ffffffff168152505060008103611c32578184604001818151611c1c9190614cac565b91509063ffffffff16908163ffffffff16815250505b60018103611c62578184606001818151611c4c9190614cac565b91509063ffffffff16908163ffffffff16815250505b60028103611c92578184608001818151611c7c9190614cac565b91509063ffffffff16908163ffffffff16815250505b600260009054906101000a900473ffffffffffffffffffffffffffffffffffffffff1673ffffffffffffffffffffffffffffffffffffffff16638d3bef3e8660a00151866040518363ffffffff1660e01b8152600401611cf3929190614ce4565b600060405180830381600087803b158015611d0d57600080fd5b505af1158015611d21573d6000803e3d6000fd5b505050505b600060405180606001604052808563ffffffff1681526020018381526020018463ffffffff1681525090507fb06d11cabafde2a769d3cb8a1f604c7ecd26fb05d9b1e1871e4d51205bf738918660a0015182604051611d869291906141bd565b60405180910390a1505050505050565b6000806000611dc1886020015167ffffffffffffffff16896040015167ffffffffffffffff166120c8565b9250925092506000611de288848b6080015167ffffffffffffffff16612b7a565b90506000600a8560028110611dfa57611df9613ca1565b5b0160009054906101000a900473ffffffffffffffffffffffffffffffffffffffff1690508073ffffffffffffffffffffffffffffffffffffffff166340c10f1987670de0b6b3a764000085611e4f9190613cff565b6040518363ffffffff1660e01b8152600401611e6c9291906142fc565b600060405180830381600087803b158015611e8657600080fd5b505af1158015611e9a573d6000803e3d6000fd5b505050506000611ea989612bde565b905060008115611f7d57611ebe898787612b7a565b90506000600a600160028110611ed757611ed6613ca1565b5b0160009054906101000a900473ffffffffffffffffffffffffffffffffffffffff1690508073ffffffffffffffffffffffffffffffffffffffff166340c10f198a670de0b6b3a764000085611f2c9190613cff565b6040518363ffffffff1660e01b8152600401611f499291906142fc565b600060405180830381600087803b158015611f6357600080fd5b505af1158015611f77573d6000803e3d6000fd5b50505050505b600060405180606001604052808981526020018681526020018381525090507f24b281479456c9b6bee88018054dbbebf0ed9aa3295cf7980bdf2881bb9822288982604051611fcd929190614152565b60405180910390a150505050505050505050505050565b6120076009600084815260200190815260200160002060000154826103e86121ac565b60096000848152602001908152602001600020600001819055505050565b61202d612c04565b73ffffffffffffffffffffffffffffffffffffffff1661204b6112cc565b73ffffffffffffffffffffffffffffffffffffffff16146120a1576040517f08c379a000000000000000000000000000000000000000000000000000000000815260040161209890614d5a565b60405180910390fd5b565b60008282116120bd5781836120b89190614d7a565b6120c0565b60005b905092915050565b60008060008092506120d984612c0c565b80925081935050509250925092565b60008060009054906101000a900473ffffffffffffffffffffffffffffffffffffffff169050816000806101000a81548173ffffffffffffffffffffffffffffffffffffffff021916908373ffffffffffffffffffffffffffffffffffffffff1602179055508173ffffffffffffffffffffffffffffffffffffffff168173ffffffffffffffffffffffffffffffffffffffff167f8be0079c531659141344cd1fd0a4f28419497f9722a3daafe3b4186f6b6457e060405160405180910390a35050565b60008183856121bb91906149a2565b116121d15782846121cc91906149a2565b6121d3565b815b90509392505050565b6121e461363f565b6040518061010001604052806121f984612c69565b815260200161220784612d1c565b815260200161221584612dd0565b815260200161222384612e84565b815260200161223184612f05565b815260200161223f84612f86565b815260200161224d84613007565b815260200161225b84613027565b8152509050919050565b61226d61363f565b6000600460009054906101000a900473ffffffffffffffffffffffffffffffffffffffff1673ffffffffffffffffffffffffffffffffffffffff1663c71fcf70846040518263ffffffff1660e01b81526004016122ca91906137ee565b608060405180830381865afa1580156122e7573d6000803e3d6000fd5b505050506040513d601f19601f8201168201806040525081019061230b9190614e3b565b90506123b782600360009054906101000a900473ffffffffffffffffffffffffffffffffffffffff1673ffffffffffffffffffffffffffffffffffffffff1663ad217ae584600001516040518263ffffffff1660e01b81526004016123709190614e68565b61010060405180830381865afa15801561238e573d6000803e3d6000fd5b505050506040513d601f19601f820116820180604052508101906123b29190614f4d565b613062565b61246182600360009054906101000a900473ffffffffffffffffffffffffffffffffffffffff1673ffffffffffffffffffffffffffffffffffffffff1663ad217ae584602001516040518263ffffffff1660e01b815260040161241a9190614e68565b61010060405180830381865afa158015612438573d6000803e3d6000fd5b505050506040513d601f19601f8201168201806040525081019061245c9190614f4d565b613062565b61250b82600360009054906101000a900473ffffffffffffffffffffffffffffffffffffffff1673ffffffffffffffffffffffffffffffffffffffff1663ad217ae584604001516040518263ffffffff1660e01b81526004016124c49190614e68565b61010060405180830381865afa1580156124e2573d6000803e3d6000fd5b505050506040513d601f19601f820116820180604052508101906125069190614f4d565b613062565b6125b582600360009054906101000a900473ffffffffffffffffffffffffffffffffffffffff1673ffffffffffffffffffffffffffffffffffffffff1663ad217ae584606001516040518263ffffffff1660e01b815260040161256e9190614e68565b61010060405180830381865afa15801561258c573d6000803e3d6000fd5b505050506040513d601f19601f820116820180604052508101906125b09190614f4d565b613062565b50919050565b8060000151826000018181516125d191906149a2565b915081815250508060200151826020018181516125ee91906149a2565b9150818152505080604001518260400181815161260b91906149a2565b9150818152505080606001518260600181815161262891906149a2565b9150818152505080608001518260800181815161264591906149a2565b915081815250508060a001518260a00181815161266291906149a2565b915081815250508060c001518260c00181815161267f91906149a2565b915081815250508060e001518260e00181815161269c91906149a2565b915081815250505050565b60006006826126b69190614f7b565b9050919050565b60008082036126cc5761025890505b600182036126da5761038490505b600282036126e85761051490505b600382036126f65761070890505b600482036127045761096090505b919050565b6000606460c88361271a9190614f7b565b61272491906149a2565b9050919050565b6127336136d9565b60008260000151036127c9576103e882606001516101f46127549190613cff565b61275e9190613d70565b8160000181815250506103e88260600151836080015161277e9190613cff565b6127889190613d70565b8160200181815250506103e8826060015183608001516101f46127ab9190614d7a565b6127b59190613cff565b6127bf9190613d70565b8160400181815250505b600182600001510361285f576103e8826060015183608001516127ec9190613cff565b6127f69190613d70565b8160000181815250506103e882606001516101f46128149190613cff565b61281e9190613d70565b8160200181815250506103e8826060015183608001516101f46128419190614d7a565b61284b9190613cff565b6128559190613d70565b8160400181815250505b60028260000151036128f5576103e8826060015183608001516128829190613cff565b61288c9190613d70565b8160000181815250506103e8826060015183608001516101f46128af9190614d7a565b6128b99190613cff565b6128c39190613d70565b8160200181815250506103e882606001516101f46128e19190613cff565b6128eb9190613d70565b8160400181815250505b919050565b61290261363f565b604051806101000160405280612918858561314e565b815260200161292785856131c8565b8152602001612936858561324f565b815260200161294585856132d6565b8152602001612954858561332a565b8152602001612963858561337e565b8152602001600081526020016000815250905092915050565b6129846136fa565b6000806000806129ac866000600481106129a1576129a0613ca1565b5b6020020151886133d2565b905080612abb576129d6866001600481106129ca576129c9613ca1565b5b6020020151898b613400565b93506129fa866002600481106129ef576129ee613ca1565b5b6020020151896134b2565b9250612a1e86600360048110612a1357612a12613ca1565b5b6020020151896134e0565b91508215612a3e57612a348760600151856120a3565b8760600181815250505b8115612a5457600284612a519190613cff565b93505b8660200151841115612aa257612a8987606001516002896020015187612a7a9190614d7a565b612a849190613d70565b6120a3565b8760600181815250506000876020018181525050612aba565b612ab08760200151856120a3565b8760200181815250505b5b604051806080016040528082151581526020018415158152602001831515815260200185815250945050505050949350505050565b60008060008303612b045760149150600190505b60018303612b155760289150600390505b60028303612b2657603c9150600690505b60038303612b375760509150600a90505b60048303612b485760649150600f90505b915091565b6000808203612b5b57600290505b60018203612b6857600090505b60028203612b7557600190505b919050565b600082821115612bcc5760006103e885612b949190614f7b565b90506000612ba284866120a3565b9050612bc7856103e88484612bb79190613cff565b612bc19190613d70565b866121ac565b925050505b828211612bd7578190505b9392505050565b6000806103e883612bef9190614f7b565b905060fa8111612bfe57600191505b50919050565b600033905090565b60008060008303612c205760019150600390505b60018303612c315760029150600690505b60028303612c425760039150600990505b60038303612c535760049150600c90505b60048303612c645760059150600f90505b915091565b60006004600a60048460800151612c809190614fac565b60068560400151612c919190614fac565b612c9b9190614cac565b612ca59190614fe9565b612caf9190614fe9565b63ffffffff169050600080836000015163ffffffff1603612ccf57600590505b60008360a0015163ffffffff1603612cf157600581612cee91906149a2565b90505b60648183612cff9190613cff565b612d099190613d70565b82612d1491906149a2565b915050919050565b60006002600a60048460400151612d339190614fac565b60068560600151612d449190614fac565b612d4e9190614cac565b612d589190614fe9565b612d629190614fe9565b63ffffffff16905060006003836000015163ffffffff1603612d8357600a90505b60038360a0015163ffffffff1603612da557600a81612da291906149a2565b90505b60648183612db39190613cff565b612dbd9190613d70565b82612dc891906149a2565b915050919050565b60006002600a60048460600151612de79190614fac565b60068560800151612df89190614fac565b612e029190614cac565b612e0c9190614fe9565b612e169190614fe9565b63ffffffff16905060006005836000015163ffffffff1603612e3757600a90505b60058360a0015163ffffffff1603612e5957600a81612e5691906149a2565b90505b60648183612e679190613cff565b612e719190613d70565b82612e7c91906149a2565b915050919050565b600060058260600151612e979190614fac565b63ffffffff16905060006002836000015163ffffffff1603612eb857600390505b60028360a0015163ffffffff1603612eda57600381612ed791906149a2565b90505b60648183612ee89190613cff565b612ef29190613d70565b82612efd91906149a2565b915050919050565b600060028260400151612f189190614fe9565b63ffffffff16905060006001836000015163ffffffff1603612f3957600a90505b60018360a0015163ffffffff1603612f5b57600a81612f5891906149a2565b90505b60648183612f699190613cff565b612f739190613d70565b82612f7e91906149a2565b915050919050565b600060028260800151612f999190614fe9565b63ffffffff16905060006004836000015163ffffffff1603612fba57600a90505b60048360a0015163ffffffff1603612fdc57600a81612fd991906149a2565b90505b60648183612fea9190613cff565b612ff49190613d70565b82612fff91906149a2565b915050919050565b6000600a826080015161301a9190614fe9565b63ffffffff169050919050565b6000600a6002836040015184606001516130419190614cac565b61304b9190614fe9565b6130559190614fe9565b63ffffffff169050919050565b80600001518260000181815161307891906149a2565b9150818152505080602001518260200181815161309591906149a2565b915081815250508060400151826040018181516130b291906149a2565b915081815250508060600151826060018181516130cf91906149a2565b915081815250508060800151826080018181516130ec91906149a2565b915081815250508060a001518260a00181815161310991906149a2565b915081815250508060c001518260c00181815161312691906149a2565b915081815250508060e001518260e00181815161314391906149a2565b915081815250505050565b6000600a600484604001516131639190613cff565b600685600001516131749190613cff565b61317e91906149a2565b6131889190613d70565b905060008083604001510361319c57600590505b606481836131aa9190613cff565b6131b49190613d70565b826131bf91906149a2565b91505092915050565b60006002600a600485600001516131df9190613cff565b600686602001516131f09190613cff565b6131fa91906149a2565b6132049190613d70565b61320e9190613d70565b90506000600383604001510361322357600a90505b606481836132319190613cff565b61323b9190613d70565b8261324691906149a2565b91505092915050565b60006002600a600485602001516132669190613cff565b600686604001516132779190613cff565b61328191906149a2565b61328b9190613d70565b6132959190613d70565b9050600060058360400151036132aa57600a90505b606481836132b89190613cff565b6132c29190613d70565b826132cd91906149a2565b91505092915050565b6000600583602001516132e99190613cff565b9050600060028360400151036132fe57600390505b6064818361330c9190613cff565b6133169190613d70565b8261332191906149a2565b91505092915050565b60006002836000015161333d9190613d70565b90506000600183604001510361335257600a90505b606481836133609190613cff565b61336a9190613d70565b8261337591906149a2565b91505092915050565b6000600283604001516133919190613d70565b9050600060048360400151036133a657600a90505b606481836133b49190613cff565b6133be9190613d70565b826133c991906149a2565b91505092915050565b6000806103e8846133e39190615028565b61ffff169050826040015181116133f957600191505b5092915050565b600080600061340e8461350e565b9150915060006103e88660000151846134279190613cff565b6134319190613d70565b905060006103e88760000151846134489190613cff565b6134529190613d70565b9050600082826134629190614d7a565b905060006103e88a6134749190615028565b61ffff16905060006103e8828461348b9190613cff565b6134959190613d70565b90506134a28582866121ac565b9750505050505050509392505050565b6000806103e8846134c39190615028565b61ffff169050826080015181116134d957600191505b5092915050565b6000806103e8846134f19190615028565b61ffff1690508260a00151811161350757600191505b5092915050565b600080600083036135245761028a915061054690505b60018303613537576102bc91506104e290505b6002830361354a576102ee915061044c90505b6003830361355d57610320915061041a90505b600483036135705761035291506103e890505b600583036135835761038491506103b690505b915091565b60405180606001604052806000815260200160008152602001600081525090565b60405180606001604052806000815260200160008152602001600081525090565b604051806101000160405280600063ffffffff168152602001600063ffffffff168152602001600063ffffffff168152602001600063ffffffff168152602001600063ffffffff168152602001600063ffffffff168152602001600063ffffffff168152602001600063ffffffff1681525090565b60405180610100016040528060008152602001600081526020016000815260200160008152602001600081526020016000815260200160008152602001600081525090565b6040518060a0016040528060008152602001600081526020016000815260200160008152602001600081525090565b60405180604001604052806136c66136fa565b81526020016136d36136fa565b81525090565b60405180606001604052806000815260200160008152602001600081525090565b6040518060800160405280600015158152602001600015158152602001600015158152602001600081525090565b6000604051905090565b600080fd5b600080fd5b6000819050919050565b61374f8161373c565b811461375a57600080fd5b50565b60008135905061376c81613746565b92915050565b6000806040838503121561378957613788613732565b5b60006137978582860161375d565b92505060206137a88582860161375d565b9150509250929050565b6000602082840312156137c8576137c7613732565b5b60006137d68482850161375d565b91505092915050565b6137e88161373c565b82525050565b600060208201905061380360008301846137df565b92915050565b600060408201905061381e60008301856137df565b61382b60208301846137df565b9392505050565b600073ffffffffffffffffffffffffffffffffffffffff82169050919050565b600061385d82613832565b9050919050565b61386d81613852565b811461387857600080fd5b50565b60008135905061388a81613864565b92915050565b6000602082840312156138a6576138a5613732565b5b60006138b48482850161387b565b91505092915050565b600067ffffffffffffffff82169050919050565b6138da816138bd565b81146138e557600080fd5b50565b6000813590506138f7816138d1565b92915050565b60008060006060848603121561391657613915613732565b5b60006139248682870161375d565b9350506020613935868287016138e8565b9250506040613946868287016138e8565b9150509250925092565b61395981613852565b82525050565b60006020820190506139746000830184613950565b92915050565b613983816138bd565b82525050565b60008115159050919050565b61399e81613989565b82525050565b600060e0820190506139b9600083018a6137df565b6139c6602083018961397a565b6139d3604083018861397a565b6139e0606083018761397a565b6139ed608083018661397a565b6139fa60a08301856137df565b613a0760c0830184613995565b98975050505050505050565b6000602082019050613a286000830184613995565b92915050565b613a3781613989565b8114613a4257600080fd5b50565b600081519050613a5481613a2e565b92915050565b600080fd5b6000601f19601f8301169050919050565b7f4e487b7100000000000000000000000000000000000000000000000000000000600052604160045260246000fd5b613aa882613a5f565b810181811067ffffffffffffffff82111715613ac757613ac6613a70565b5b80604052505050565b6000613ada613728565b9050613ae68282613a9f565b919050565b600067ffffffffffffffff821115613b0657613b05613a70565b5b602082029050602081019050919050565b600080fd5b600081519050613b2b81613746565b92915050565b6000613b44613b3f84613aeb565b613ad0565b90508083825260208201905060208402830185811115613b6757613b66613b17565b5b835b81811015613b905780613b7c8882613b1c565b845260208401935050602081019050613b69565b5050509392505050565b600082601f830112613baf57613bae613a5a565b5b8151613bbf848260208601613b31565b91505092915050565b60008060408385031215613bdf57613bde613732565b5b6000613bed85828601613a45565b925050602083015167ffffffffffffffff811115613c0e57613c0d613737565b5b613c1a85828601613b9a565b9150509250929050565b600082825260208201905092915050565b7f44756e67656f6e733a204e6f74207965742066756c66696c6c65642e00000000600082015250565b6000613c6b601c83613c24565b9150613c7682613c35565b602082019050919050565b60006020820190508181036000830152613c9a81613c5e565b9050919050565b7f4e487b7100000000000000000000000000000000000000000000000000000000600052603260045260246000fd5b7f4e487b7100000000000000000000000000000000000000000000000000000000600052601160045260246000fd5b6000613d0a8261373c565b9150613d158361373c565b9250828202613d238161373c565b91508282048414831517613d3a57613d39613cd0565b5b5092915050565b7f4e487b7100000000000000000000000000000000000000000000000000000000600052601260045260246000fd5b6000613d7b8261373c565b9150613d868361373c565b925082613d9657613d95613d41565b5b828204905092915050565b613daa8161373c565b82525050565b613db9816138bd565b82525050565b613dc881613989565b82525050565b60e082016000820151613de46000850182613da1565b506020820151613df76020850182613db0565b506040820151613e0a6040850182613db0565b506060820151613e1d6060850182613db0565b506080820151613e306080850182613db0565b5060a0820151613e4360a0850182613da1565b5060c0820151613e5660c0850182613dbf565b50505050565b600063ffffffff82169050919050565b613e7581613e5c565b82525050565b61010082016000820151613e926000850182613e6c565b506020820151613ea56020850182613e6c565b506040820151613eb86040850182613e6c565b506060820151613ecb6060850182613e6c565b506080820151613ede6080850182613e6c565b5060a0820151613ef160a0850182613e6c565b5060c0820151613f0460c0850182613e6c565b5060e0820151613f1760e0850182613e6c565b50505050565b61010082016000820151613f346000850182613da1565b506020820151613f476020850182613da1565b506040820151613f5a6040850182613da1565b506060820151613f6d6060850182613da1565b506080820151613f806080850182613da1565b5060a0820151613f9360a0850182613da1565b5060c0820151613fa660c0850182613da1565b5060e0820151613fb960e0850182613da1565b50505050565b60a082016000820151613fd56000850182613da1565b506020820151613fe86020850182613da1565b506040820151613ffb6040850182613da1565b50606082015161400e6060850182613da1565b5060808201516140216080850182613da1565b50505050565b60006104808201905061403d6000830188613dce565b61404a60e0830187613e7b565b6140586101e0830186613f1d565b6140666102e0830185613fbf565b614074610380830184613f1d565b9695505050505050565b7f44756e67656f6e733a20426174746c6520616c726561647920636f6d706c657460008201527f65642e0000000000000000000000000000000000000000000000000000000000602082015250565b60006140da602383613c24565b91506140e58261407e565b604082019050919050565b60006020820190508181036000830152614109816140cd565b9050919050565b6060820160008201516141266000850182613da1565b5060208201516141396020850182613da1565b50604082015161414c6040850182613da1565b50505050565b60006080820190506141676000830185613950565b6141746020830184614110565b9392505050565b6060820160008201516141916000850182613da1565b5060208201516141a46020850182613da1565b5060408201516141b76040850182613da1565b50505050565b60006080820190506141d260008301856137df565b6141df602083018461417b565b9392505050565b6000819050919050565b600061420b614206614201846138bd565b6141e6565b61373c565b9050919050565b61421b816141f0565b82525050565b600060408201905061423660008301856137df565b6142436020830184614212565b9392505050565b600081905092915050565b50565b600061426560008361424a565b915061427082614255565b600082019050919050565b600061428682614258565b9150819050919050565b7f4661696c656420746f2077697468647261772066746d732e0000000000000000600082015250565b60006142c6601883613c24565b91506142d182614290565b602082019050919050565b600060208201905081810360008301526142f5816142b9565b9050919050565b60006040820190506143116000830185613950565b61431e60208301846137df565b9392505050565b60006020828403121561433b5761433a613732565b5b600061434984828501613a45565b91505092915050565b7f44756e67656f6e733a20436861726163746572206e6f74206f776e6564000000600082015250565b6000614388601d83613c24565b915061439382614352565b602082019050919050565b600060208201905081810360008301526143b78161437b565b9050919050565b7f44756e67656f6e733a204976616c69642064756e67656f6e2f74696572000000600082015250565b60006143f4601d83613c24565b91506143ff826143be565b602082019050919050565b60006020820190508181036000830152614423816143e7565b9050919050565b7f44756e67656f6e733a20496e73756666696369656e7420616d6f756e7420736560008201527f6e742e0000000000000000000000000000000000000000000000000000000000602082015250565b6000614486602383613c24565b91506144918261442a565b604082019050919050565b600060208201905081810360008301526144b581614479565b9050919050565b7f44756e67656f6e733a204e6f7420656e6f75676820656e657267792e00000000600082015250565b60006144f2601c83613c24565b91506144fd826144bc565b602082019050919050565b60006020820190508181036000830152614521816144e5565b9050919050565b61453181613e5c565b82525050565b600060608201905061454c6000830186613950565b6145596020830185614528565b6145666040830184613995565b949350505050565b60006020828403121561458457614583613732565b5b600061459284828501613b1c565b91505092915050565b60008160001c9050919050565b6000819050919050565b60006145c56145c08361459b565b6145a8565b9050919050565b600067ffffffffffffffff82169050919050565b60006145f36145ee8361459b565b6145cc565b9050919050565b60008160401c9050919050565b600061461a614615836145fa565b6145cc565b9050919050565b60008160801c9050919050565b600061464161463c83614621565b6145cc565b9050919050565b60008160c01c9050919050565b600061466861466383614648565b6145cc565b9050919050565b600060ff82169050919050565b600061468f61468a8361459b565b61466f565b9050919050565b60e0820160008083015490506146ab816145b2565b6146b86000860182613da1565b50600183015490506146c9816145e0565b6146d66020860182613db0565b506146e081614607565b6146ed6040860182613db0565b506146f78161462e565b6147046060860182613db0565b5061470e81614655565b61471b6080860182613db0565b506002830154905061472c816145b2565b61473960a0860182613da1565b506003830154905061474a8161467c565b61475760c0860182613dbf565b5050505050565b6000610100820190506147746000830185613950565b6147816020830184614696565b9392505050565b7f44756e67656f6e733a206f6e6c79207265706c656e697368657220636f6e747260008201527f6163740000000000000000000000000000000000000000000000000000000000602082015250565b60006147e4602383613c24565b91506147ef82614788565b604082019050919050565b60006020820190508181036000830152614813816147d7565b9050919050565b7f44756e67656f6e733a2063686172616374657220616c7265616479206174206660008201527f756c6c20656e6572677900000000000000000000000000000000000000000000602082015250565b6000614876602a83613c24565b91506148818261481a565b604082019050919050565b600060208201905081810360008301526148a581614869565b9050919050565b6000819050919050565b60006148d16148cc6148c7846148ac565b6141e6565b61373c565b9050919050565b6148e1816148b6565b82525050565b60006040820190506148fc6000830185613950565b61490960208301846148d8565b9392505050565b7f4f776e61626c653a206e6577206f776e657220697320746865207a65726f206160008201527f6464726573730000000000000000000000000000000000000000000000000000602082015250565b600061496c602683613c24565b915061497782614910565b604082019050919050565b6000602082019050818103600083015261499b8161495f565b9050919050565b60006149ad8261373c565b91506149b88361373c565b92508282019050808211156149d0576149cf613cd0565b5b92915050565b6000819050919050565b60006149eb826149d6565b91507f80000000000000000000000000000000000000000000000000000000000000008203614a1d57614a1c613cd0565b5b600182039050919050565b600080fd5b614a3681613e5c565b8114614a4157600080fd5b50565b600081519050614a5381614a2d565b92915050565b60006101008284031215614a7057614a6f614a28565b5b614a7b610100613ad0565b90506000614a8b84828501614a44565b6000830152506020614a9f84828501614a44565b6020830152506040614ab384828501614a44565b6040830152506060614ac784828501614a44565b6060830152506080614adb84828501614a44565b60808301525060a0614aef84828501614a44565b60a08301525060c0614b0384828501614a44565b60c08301525060e0614b1784828501614a44565b60e08301525092915050565b60006101008284031215614b3a57614b39613732565b5b6000614b4884828501614a59565b91505092915050565b6000614b5c8261373c565b91507fffffffffffffffffffffffffffffffffffffffffffffffffffffffffffffffff8203614b8e57614b8d613cd0565b5b600182019050919050565b608082016000820151614baf6000850182613dbf565b506020820151614bc26020850182613dbf565b506040820151614bd56040850182613dbf565b506060820151614be86060850182613da1565b50505050565b61010082016000820151614c056000850182614b99565b506020820151614c186080850182614b99565b50505050565b608082016000820151614c346000850182613da1565b506020820151614c476020850182613da1565b506040820151614c5a6040850182613da1565b506060820151614c6d6060850182613da1565b50505050565b60006101a082019050614c8960008301866137df565b614c966020830185614bee565b614ca4610120830184614c1e565b949350505050565b6000614cb782613e5c565b9150614cc283613e5c565b9250828201905063ffffffff811115614cde57614cdd613cd0565b5b92915050565b600061012082019050614cfa60008301856137df565b614d076020830184613e7b565b9392505050565b7f4f776e61626c653a2063616c6c6572206973206e6f7420746865206f776e6572600082015250565b6000614d44602083613c24565b9150614d4f82614d0e565b602082019050919050565b60006020820190508181036000830152614d7381614d37565b9050919050565b6000614d858261373c565b9150614d908361373c565b9250828203905081811115614da857614da7613cd0565b5b92915050565b600081519050614dbd816138d1565b92915050565b600060808284031215614dd957614dd8614a28565b5b614de36080613ad0565b90506000614df384828501614dae565b6000830152506020614e0784828501614dae565b6020830152506040614e1b84828501614dae565b6040830152506060614e2f84828501614dae565b60608301525092915050565b600060808284031215614e5157614e50613732565b5b6000614e5f84828501614dc3565b91505092915050565b6000602082019050614e7d6000830184614212565b92915050565b60006101008284031215614e9a57614e99614a28565b5b614ea5610100613ad0565b90506000614eb584828501613b1c565b6000830152506020614ec984828501613b1c565b6020830152506040614edd84828501613b1c565b6040830152506060614ef184828501613b1c565b6060830152506080614f0584828501613b1c565b60808301525060a0614f1984828501613b1c565b60a08301525060c0614f2d84828501613b1c565b60c08301525060e0614f4184828501613b1c565b60e08301525092915050565b60006101008284031215614f6457614f63613732565b5b6000614f7284828501614e83565b91505092915050565b6000614f868261373c565b9150614f918361373c565b925082614fa157614fa0613d41565b5b828206905092915050565b6000614fb782613e5c565b9150614fc283613e5c565b9250828202614fd081613e5c565b9150808214614fe257614fe1613cd0565b5b5092915050565b6000614ff482613e5c565b9150614fff83613e5c565b92508261500f5761500e613d41565b5b828204905092915050565b600061ffff82169050919050565b60006150338261501a565b915061503e8361501a565b92508261504e5761504d613d41565b5b82820690509291505056fea264697066735822122010ea654b186e426df9cd6356f7b3de854d41cfcbc7c864381167ca6e37d43d2064736f6c63430008110033",
  "linkReferences": {},
  "deployedLinkReferences": {}
}