{
  "_format": "hh-sol-artifact-1",
  "contractName": "Raiders",
  "sourceName": "contracts/core/tokens/Raiders.sol",
  "abi": [
    {
      "inputs": [
        {
          "internalType": "address",
          "name": "oldTokenAddress",
          "type": "address"
        }
      ],
      "stateMutability": "nonpayable",
      "type": "constructor"
    },
    {
      "anonymous": false,
      "inputs": [
        {
          "indexed": true,
          "internalType": "address",
          "name": "owner",
          "type": "address"
        },
        {
          "indexed": true,
          "internalType": "address",
          "name": "spender",
          "type": "address"
        },
        {
          "indexed": false,
          "internalType": "uint256",
          "name": "value",
          "type": "uint256"
        }
      ],
      "name": "Approval",
      "type": "event"
    },
    {
      "anonymous": false,
      "inputs": [
        {
          "indexed": true,
          "internalType": "address",
          "name": "previousOwner",
          "type": "address"
        },
        {
          "indexed": true,
          "internalType": "address",
          "name": "newOwner",
          "type": "address"
        }
      ],
      "name": "OwnershipTransferred",
      "type": "event"
    },
    {
      "anonymous": false,
      "inputs": [
        {
          "indexed": true,
          "internalType": "address",
          "name": "from",
          "type": "address"
        },
        {
          "indexed": true,
          "internalType": "address",
          "name": "to",
          "type": "address"
        },
        {
          "indexed": false,
          "internalType": "uint256",
          "name": "value",
          "type": "uint256"
        }
      ],
      "name": "Transfer",
      "type": "event"
    },
    {
      "inputs": [
        {
          "internalType": "address",
          "name": "owner",
          "type": "address"
        },
        {
          "internalType": "address",
          "name": "spender",
          "type": "address"
        }
      ],
      "name": "allowance",
      "outputs": [
        {
          "internalType": "uint256",
          "name": "",
          "type": "uint256"
        }
      ],
      "stateMutability": "view",
      "type": "function"
    },
    {
      "inputs": [
        {
          "internalType": "address",
          "name": "spender",
          "type": "address"
        },
        {
          "internalType": "uint256",
          "name": "amount",
          "type": "uint256"
        }
      ],
      "name": "approve",
      "outputs": [
        {
          "internalType": "bool",
          "name": "",
          "type": "bool"
        }
      ],
      "stateMutability": "nonpayable",
      "type": "function"
    },
    {
      "inputs": [
        {
          "internalType": "address",
          "name": "account",
          "type": "address"
        }
      ],
      "name": "balanceOf",
      "outputs": [
        {
          "internalType": "uint256",
          "name": "",
          "type": "uint256"
        }
      ],
      "stateMutability": "view",
      "type": "function"
    },
    {
      "inputs": [
        {
          "internalType": "uint256",
          "name": "amount",
          "type": "uint256"
        }
      ],
      "name": "burn",
      "outputs": [],
      "stateMutability": "nonpayable",
      "type": "function"
    },
    {
      "inputs": [
        {
          "internalType": "address",
          "name": "account",
          "type": "address"
        },
        {
          "internalType": "uint256",
          "name": "amount",
          "type": "uint256"
        }
      ],
      "name": "burnFrom",
      "outputs": [],
      "stateMutability": "nonpayable",
      "type": "function"
    },
    {
      "inputs": [],
      "name": "decimals",
      "outputs": [
        {
          "internalType": "uint8",
          "name": "",
          "type": "uint8"
        }
      ],
      "stateMutability": "view",
      "type": "function"
    },
    {
      "inputs": [
        {
          "internalType": "address",
          "name": "spender",
          "type": "address"
        },
        {
          "internalType": "uint256",
          "name": "subtractedValue",
          "type": "uint256"
        }
      ],
      "name": "decreaseAllowance",
      "outputs": [
        {
          "internalType": "bool",
          "name": "",
          "type": "bool"
        }
      ],
      "stateMutability": "nonpayable",
      "type": "function"
    },
    {
      "inputs": [
        {
          "internalType": "address",
          "name": "spender",
          "type": "address"
        },
        {
          "internalType": "uint256",
          "name": "addedValue",
          "type": "uint256"
        }
      ],
      "name": "increaseAllowance",
      "outputs": [
        {
          "internalType": "bool",
          "name": "",
          "type": "bool"
        }
      ],
      "stateMutability": "nonpayable",
      "type": "function"
    },
    {
      "inputs": [
        {
          "internalType": "uint256",
          "name": "amount",
          "type": "uint256"
        }
      ],
      "name": "migrateOldTokens",
      "outputs": [],
      "stateMutability": "nonpayable",
      "type": "function"
    },
    {
      "inputs": [
        {
          "internalType": "address",
          "name": "to",
          "type": "address"
        },
        {
          "internalType": "uint256",
          "name": "amount",
          "type": "uint256"
        }
      ],
      "name": "mint",
      "outputs": [],
      "stateMutability": "nonpayable",
      "type": "function"
    },
    {
      "inputs": [],
      "name": "name",
      "outputs": [
        {
          "internalType": "string",
          "name": "",
          "type": "string"
        }
      ],
      "stateMutability": "view",
      "type": "function"
    },
    {
      "inputs": [],
      "name": "oldToken",
      "outputs": [
        {
          "internalType": "contract ERC20Burnable",
          "name": "",
          "type": "address"
        }
      ],
      "stateMutability": "view",
      "type": "function"
    },
    {
      "inputs": [],
      "name": "oldTokensMigrated",
      "outputs": [
        {
          "internalType": "uint256",
          "name": "",
          "type": "uint256"
        }
      ],
      "stateMutability": "view",
      "type": "function"
    },
    {
      "inputs": [],
      "name": "owner",
      "outputs": [
        {
          "internalType": "address",
          "name": "",
          "type": "address"
        }
      ],
      "stateMutability": "view",
      "type": "function"
    },
    {
      "inputs": [],
      "name": "renounceOwnership",
      "outputs": [],
      "stateMutability": "nonpayable",
      "type": "function"
    },
    {
      "inputs": [],
      "name": "symbol",
      "outputs": [
        {
          "internalType": "string",
          "name": "",
          "type": "string"
        }
      ],
      "stateMutability": "view",
      "type": "function"
    },
    {
      "inputs": [],
      "name": "totalSupply",
      "outputs": [
        {
          "internalType": "uint256",
          "name": "",
          "type": "uint256"
        }
      ],
      "stateMutability": "view",
      "type": "function"
    },
    {
      "inputs": [
        {
          "internalType": "address",
          "name": "to",
          "type": "address"
        },
        {
          "internalType": "uint256",
          "name": "amount",
          "type": "uint256"
        }
      ],
      "name": "transfer",
      "outputs": [
        {
          "internalType": "bool",
          "name": "",
          "type": "bool"
        }
      ],
      "stateMutability": "nonpayable",
      "type": "function"
    },
    {
      "inputs": [
        {
          "internalType": "address",
          "name": "from",
          "type": "address"
        },
        {
          "internalType": "address",
          "name": "to",
          "type": "address"
        },
        {
          "internalType": "uint256",
          "name": "amount",
          "type": "uint256"
        }
      ],
      "name": "transferFrom",
      "outputs": [
        {
          "internalType": "bool",
          "name": "",
          "type": "bool"
        }
      ],
      "stateMutability": "nonpayable",
      "type": "function"
    },
    {
      "inputs": [
        {
          "internalType": "address",
          "name": "newOwner",
          "type": "address"
        }
      ],
      "name": "transferOwnership",
      "outputs": [],
      "stateMutability": "nonpayable",
      "type": "function"
    }
  ],
  "bytecode": "0x60806040523480156200001157600080fd5b50604051620024c5380380620024c5833981810160405281019062000037919062000269565b6040518060400160405280600d81526020017f5261696465727320546f6b656e000000000000000000000000000000000000008152506040518060400160405280600581526020017f20524452530000000000000000000000000000000000000000000000000000008152508160039081620000b4919062000515565b508060049081620000c6919062000515565b505050620000e9620000dd6200013160201b60201c565b6200013960201b60201c565b80600760006101000a81548173ffffffffffffffffffffffffffffffffffffffff021916908373ffffffffffffffffffffffffffffffffffffffff16021790555050620005fc565b600033905090565b6000600560009054906101000a900473ffffffffffffffffffffffffffffffffffffffff16905081600560006101000a81548173ffffffffffffffffffffffffffffffffffffffff021916908373ffffffffffffffffffffffffffffffffffffffff1602179055508173ffffffffffffffffffffffffffffffffffffffff168173ffffffffffffffffffffffffffffffffffffffff167f8be0079c531659141344cd1fd0a4f28419497f9722a3daafe3b4186f6b6457e060405160405180910390a35050565b600080fd5b600073ffffffffffffffffffffffffffffffffffffffff82169050919050565b6000620002318262000204565b9050919050565b620002438162000224565b81146200024f57600080fd5b50565b600081519050620002638162000238565b92915050565b600060208284031215620002825762000281620001ff565b5b6000620002928482850162000252565b91505092915050565b600081519050919050565b7f4e487b7100000000000000000000000000000000000000000000000000000000600052604160045260246000fd5b7f4e487b7100000000000000000000000000000000000000000000000000000000600052602260045260246000fd5b600060028204905060018216806200031d57607f821691505b602082108103620003335762000332620002d5565b5b50919050565b60008190508160005260206000209050919050565b60006020601f8301049050919050565b600082821b905092915050565b6000600883026200039d7fffffffffffffffffffffffffffffffffffffffffffffffffffffffffffffffff826200035e565b620003a986836200035e565b95508019841693508086168417925050509392505050565b6000819050919050565b6000819050919050565b6000620003f6620003f0620003ea84620003c1565b620003cb565b620003c1565b9050919050565b6000819050919050565b6200041283620003d5565b6200042a6200042182620003fd565b8484546200036b565b825550505050565b600090565b6200044162000432565b6200044e81848462000407565b505050565b5b8181101562000476576200046a60008262000437565b60018101905062000454565b5050565b601f821115620004c5576200048f8162000339565b6200049a846200034e565b81016020851015620004aa578190505b620004c2620004b9856200034e565b83018262000453565b50505b505050565b600082821c905092915050565b6000620004ea60001984600802620004ca565b1980831691505092915050565b6000620005058383620004d7565b9150826002028217905092915050565b62000520826200029b565b67ffffffffffffffff8111156200053c576200053b620002a6565b5b62000548825462000304565b620005558282856200047a565b600060209050601f8311600181146200058d576000841562000578578287015190505b620005848582620004f7565b865550620005f4565b601f1984166200059d8662000339565b60005b82811015620005c757848901518255600182019150602085019450602081019050620005a0565b86831015620005e75784890151620005e3601f891682620004d7565b8355505b6001600288020188555050505b505050505050565b611eb9806200060c6000396000f3fe608060405234801561001057600080fd5b506004361061012c5760003560e01c8063715018a6116100ad578063a9059cbb11610071578063a9059cbb14610333578063ac0eaf8c14610363578063b31c710a1461037f578063dd62ed3e1461039d578063f2fde38b146103cd5761012c565b8063715018a6146102a157806379cc6790146102ab5780638da5cb5b146102c757806395d89b41146102e5578063a457c2d7146103035761012c565b806339509351116100f457806339509351146101eb57806340c10f191461021b57806342966c68146102375780635139efb01461025357806370a08231146102715761012c565b806306fdde0314610131578063095ea7b31461014f57806318160ddd1461017f57806323b872dd1461019d578063313ce567146101cd575b600080fd5b6101396103e9565b6040516101469190611348565b60405180910390f35b61016960048036038101906101649190611403565b61047b565b604051610176919061145e565b60405180910390f35b61018761049e565b6040516101949190611488565b60405180910390f35b6101b760048036038101906101b291906114a3565b6104a8565b6040516101c4919061145e565b60405180910390f35b6101d56104d7565b6040516101e29190611512565b60405180910390f35b61020560048036038101906102009190611403565b6104e0565b604051610212919061145e565b60405180910390f35b61023560048036038101906102309190611403565b610517565b005b610251600480360381019061024c919061152d565b61052d565b005b61025b610541565b6040516102689190611488565b60405180910390f35b61028b6004803603810190610286919061155a565b610547565b6040516102989190611488565b60405180910390f35b6102a961058f565b005b6102c560048036038101906102c09190611403565b6105a3565b005b6102cf6105c3565b6040516102dc9190611596565b60405180910390f35b6102ed6105ed565b6040516102fa9190611348565b60405180910390f35b61031d60048036038101906103189190611403565b61067f565b60405161032a919061145e565b60405180910390f35b61034d60048036038101906103489190611403565b6106f6565b60405161035a919061145e565b60405180910390f35b61037d6004803603810190610378919061152d565b610719565b005b610387610829565b6040516103949190611610565b60405180910390f35b6103b760048036038101906103b2919061162b565b61084f565b6040516103c49190611488565b60405180910390f35b6103e760048036038101906103e2919061155a565b6108d6565b005b6060600380546103f89061169a565b80601f01602080910402602001604051908101604052809291908181526020018280546104249061169a565b80156104715780601f1061044657610100808354040283529160200191610471565b820191906000526020600020905b81548152906001019060200180831161045457829003601f168201915b5050505050905090565b600080610486610959565b9050610493818585610961565b600191505092915050565b6000600254905090565b6000806104b3610959565b90506104c0858285610b2a565b6104cb858585610bb6565b60019150509392505050565b60006012905090565b6000806104eb610959565b905061050c8185856104fd858961084f565b61050791906116fa565b610961565b600191505092915050565b61051f610e35565b6105298282610eb3565b5050565b61053e610538610959565b82611012565b50565b60065481565b60008060008373ffffffffffffffffffffffffffffffffffffffff1673ffffffffffffffffffffffffffffffffffffffff168152602001908152602001600020549050919050565b610597610e35565b6105a160006111e8565b565b6105b5826105af610959565b83610b2a565b6105bf8282611012565b5050565b6000600560009054906101000a900473ffffffffffffffffffffffffffffffffffffffff16905090565b6060600480546105fc9061169a565b80601f01602080910402602001604051908101604052809291908181526020018280546106289061169a565b80156106755780601f1061064a57610100808354040283529160200191610675565b820191906000526020600020905b81548152906001019060200180831161065857829003601f168201915b5050505050905090565b60008061068a610959565b90506000610698828661084f565b9050838110156106dd576040517f08c379a00000000000000000000000000000000000000000000000000000000081526004016106d4906117a0565b60405180910390fd5b6106ea8286868403610961565b60019250505092915050565b600080610701610959565b905061070e818585610bb6565b600191505092915050565b6a3faf001ef1c19dd0bc00008160065461073391906116fa565b1115610774576040517f08c379a000000000000000000000000000000000000000000000000000000000815260040161076b90611832565b60405180910390fd5b600760009054906101000a900473ffffffffffffffffffffffffffffffffffffffff1673ffffffffffffffffffffffffffffffffffffffff166379cc679033836040518363ffffffff1660e01b81526004016107d1929190611852565b600060405180830381600087803b1580156107eb57600080fd5b505af11580156107ff573d6000803e3d6000fd5b50505050806006600082825461081591906116fa565b925050819055506108263382610eb3565b50565b600760009054906101000a900473ffffffffffffffffffffffffffffffffffffffff1681565b6000600160008473ffffffffffffffffffffffffffffffffffffffff1673ffffffffffffffffffffffffffffffffffffffff16815260200190815260200160002060008373ffffffffffffffffffffffffffffffffffffffff1673ffffffffffffffffffffffffffffffffffffffff16815260200190815260200160002054905092915050565b6108de610e35565b600073ffffffffffffffffffffffffffffffffffffffff168173ffffffffffffffffffffffffffffffffffffffff160361094d576040517f08c379a0000000000000000000000000000000000000000000000000000000008152600401610944906118ed565b60405180910390fd5b610956816111e8565b50565b600033905090565b600073ffffffffffffffffffffffffffffffffffffffff168373ffffffffffffffffffffffffffffffffffffffff16036109d0576040517f08c379a00000000000000000000000000000000000000000000000000000000081526004016109c79061197f565b60405180910390fd5b600073ffffffffffffffffffffffffffffffffffffffff168273ffffffffffffffffffffffffffffffffffffffff1603610a3f576040517f08c379a0000000000000000000000000000000000000000000000000000000008152600401610a3690611a11565b60405180910390fd5b80600160008573ffffffffffffffffffffffffffffffffffffffff1673ffffffffffffffffffffffffffffffffffffffff16815260200190815260200160002060008473ffffffffffffffffffffffffffffffffffffffff1673ffffffffffffffffffffffffffffffffffffffff168152602001908152602001600020819055508173ffffffffffffffffffffffffffffffffffffffff168373ffffffffffffffffffffffffffffffffffffffff167f8c5be1e5ebec7d5bd14f71427d1e84f3dd0314c0f7b2291e5b200ac8c7c3b92583604051610b1d9190611488565b60405180910390a3505050565b6000610b36848461084f565b90507fffffffffffffffffffffffffffffffffffffffffffffffffffffffffffffffff8114610bb05781811015610ba2576040517f08c379a0000000000000000000000000000000000000000000000000000000008152600401610b9990611a7d565b60405180910390fd5b610baf8484848403610961565b5b50505050565b600073ffffffffffffffffffffffffffffffffffffffff168373ffffffffffffffffffffffffffffffffffffffff1603610c25576040517f08c379a0000000000000000000000000000000000000000000000000000000008152600401610c1c90611b0f565b60405180910390fd5b600073ffffffffffffffffffffffffffffffffffffffff168273ffffffffffffffffffffffffffffffffffffffff1603610c94576040517f08c379a0000000000000000000000000000000000000000000000000000000008152600401610c8b90611ba1565b60405180910390fd5b610c9f8383836112ae565b60008060008573ffffffffffffffffffffffffffffffffffffffff1673ffffffffffffffffffffffffffffffffffffffff16815260200190815260200160002054905081811015610d25576040517f08c379a0000000000000000000000000000000000000000000000000000000008152600401610d1c90611c33565b60405180910390fd5b8181036000808673ffffffffffffffffffffffffffffffffffffffff1673ffffffffffffffffffffffffffffffffffffffff16815260200190815260200160002081905550816000808573ffffffffffffffffffffffffffffffffffffffff1673ffffffffffffffffffffffffffffffffffffffff1681526020019081526020016000206000828254610db891906116fa565b925050819055508273ffffffffffffffffffffffffffffffffffffffff168473ffffffffffffffffffffffffffffffffffffffff167fddf252ad1be2c89b69c2b068fc378daa952ba7f163c4a11628f55a4df523b3ef84604051610e1c9190611488565b60405180910390a3610e2f8484846112b3565b50505050565b610e3d610959565b73ffffffffffffffffffffffffffffffffffffffff16610e5b6105c3565b73ffffffffffffffffffffffffffffffffffffffff1614610eb1576040517f08c379a0000000000000000000000000000000000000000000000000000000008152600401610ea890611c9f565b60405180910390fd5b565b600073ffffffffffffffffffffffffffffffffffffffff168273ffffffffffffffffffffffffffffffffffffffff1603610f22576040517f08c379a0000000000000000000000000000000000000000000000000000000008152600401610f1990611d0b565b60405180910390fd5b610f2e600083836112ae565b8060026000828254610f4091906116fa565b92505081905550806000808473ffffffffffffffffffffffffffffffffffffffff1673ffffffffffffffffffffffffffffffffffffffff1681526020019081526020016000206000828254610f9591906116fa565b925050819055508173ffffffffffffffffffffffffffffffffffffffff16600073ffffffffffffffffffffffffffffffffffffffff167fddf252ad1be2c89b69c2b068fc378daa952ba7f163c4a11628f55a4df523b3ef83604051610ffa9190611488565b60405180910390a361100e600083836112b3565b5050565b600073ffffffffffffffffffffffffffffffffffffffff168273ffffffffffffffffffffffffffffffffffffffff1603611081576040517f08c379a000000000000000000000000000000000000000000000000000000000815260040161107890611d9d565b60405180910390fd5b61108d826000836112ae565b60008060008473ffffffffffffffffffffffffffffffffffffffff1673ffffffffffffffffffffffffffffffffffffffff16815260200190815260200160002054905081811015611113576040517f08c379a000000000000000000000000000000000000000000000000000000000815260040161110a90611e2f565b60405180910390fd5b8181036000808573ffffffffffffffffffffffffffffffffffffffff1673ffffffffffffffffffffffffffffffffffffffff16815260200190815260200160002081905550816002600082825461116a9190611e4f565b92505081905550600073ffffffffffffffffffffffffffffffffffffffff168373ffffffffffffffffffffffffffffffffffffffff167fddf252ad1be2c89b69c2b068fc378daa952ba7f163c4a11628f55a4df523b3ef846040516111cf9190611488565b60405180910390a36111e3836000846112b3565b505050565b6000600560009054906101000a900473ffffffffffffffffffffffffffffffffffffffff16905081600560006101000a81548173ffffffffffffffffffffffffffffffffffffffff021916908373ffffffffffffffffffffffffffffffffffffffff1602179055508173ffffffffffffffffffffffffffffffffffffffff168173ffffffffffffffffffffffffffffffffffffffff167f8be0079c531659141344cd1fd0a4f28419497f9722a3daafe3b4186f6b6457e060405160405180910390a35050565b505050565b505050565b600081519050919050565b600082825260208201905092915050565b60005b838110156112f25780820151818401526020810190506112d7565b60008484015250505050565b6000601f19601f8301169050919050565b600061131a826112b8565b61132481856112c3565b93506113348185602086016112d4565b61133d816112fe565b840191505092915050565b60006020820190508181036000830152611362818461130f565b905092915050565b600080fd5b600073ffffffffffffffffffffffffffffffffffffffff82169050919050565b600061139a8261136f565b9050919050565b6113aa8161138f565b81146113b557600080fd5b50565b6000813590506113c7816113a1565b92915050565b6000819050919050565b6113e0816113cd565b81146113eb57600080fd5b50565b6000813590506113fd816113d7565b92915050565b6000806040838503121561141a5761141961136a565b5b6000611428858286016113b8565b9250506020611439858286016113ee565b9150509250929050565b60008115159050919050565b61145881611443565b82525050565b6000602082019050611473600083018461144f565b92915050565b611482816113cd565b82525050565b600060208201905061149d6000830184611479565b92915050565b6000806000606084860312156114bc576114bb61136a565b5b60006114ca868287016113b8565b93505060206114db868287016113b8565b92505060406114ec868287016113ee565b9150509250925092565b600060ff82169050919050565b61150c816114f6565b82525050565b60006020820190506115276000830184611503565b92915050565b6000602082840312156115435761154261136a565b5b6000611551848285016113ee565b91505092915050565b6000602082840312156115705761156f61136a565b5b600061157e848285016113b8565b91505092915050565b6115908161138f565b82525050565b60006020820190506115ab6000830184611587565b92915050565b6000819050919050565b60006115d66115d16115cc8461136f565b6115b1565b61136f565b9050919050565b60006115e8826115bb565b9050919050565b60006115fa826115dd565b9050919050565b61160a816115ef565b82525050565b60006020820190506116256000830184611601565b92915050565b600080604083850312156116425761164161136a565b5b6000611650858286016113b8565b9250506020611661858286016113b8565b9150509250929050565b7f4e487b7100000000000000000000000000000000000000000000000000000000600052602260045260246000fd5b600060028204905060018216806116b257607f821691505b6020821081036116c5576116c461166b565b5b50919050565b7f4e487b7100000000000000000000000000000000000000000000000000000000600052601160045260246000fd5b6000611705826113cd565b9150611710836113cd565b9250828201905080821115611728576117276116cb565b5b92915050565b7f45524332303a2064656372656173656420616c6c6f77616e63652062656c6f7760008201527f207a65726f000000000000000000000000000000000000000000000000000000602082015250565b600061178a6025836112c3565b91506117958261172e565b604082019050919050565b600060208201905081810360008301526117b98161177d565b9050919050565b7f43616e6e6f7420657863656564206d6178696d756d20616d6f756e74206f662060008201527f636f6e7665727469626c6520746f6b656e732e00000000000000000000000000602082015250565b600061181c6033836112c3565b9150611827826117c0565b604082019050919050565b6000602082019050818103600083015261184b8161180f565b9050919050565b60006040820190506118676000830185611587565b6118746020830184611479565b9392505050565b7f4f776e61626c653a206e6577206f776e657220697320746865207a65726f206160008201527f6464726573730000000000000000000000000000000000000000000000000000602082015250565b60006118d76026836112c3565b91506118e28261187b565b604082019050919050565b60006020820190508181036000830152611906816118ca565b9050919050565b7f45524332303a20617070726f76652066726f6d20746865207a65726f2061646460008201527f7265737300000000000000000000000000000000000000000000000000000000602082015250565b60006119696024836112c3565b91506119748261190d565b604082019050919050565b600060208201905081810360008301526119988161195c565b9050919050565b7f45524332303a20617070726f766520746f20746865207a65726f20616464726560008201527f7373000000000000000000000000000000000000000000000000000000000000602082015250565b60006119fb6022836112c3565b9150611a068261199f565b604082019050919050565b60006020820190508181036000830152611a2a816119ee565b9050919050565b7f45524332303a20696e73756666696369656e7420616c6c6f77616e6365000000600082015250565b6000611a67601d836112c3565b9150611a7282611a31565b602082019050919050565b60006020820190508181036000830152611a9681611a5a565b9050919050565b7f45524332303a207472616e736665722066726f6d20746865207a65726f20616460008201527f6472657373000000000000000000000000000000000000000000000000000000602082015250565b6000611af96025836112c3565b9150611b0482611a9d565b604082019050919050565b60006020820190508181036000830152611b2881611aec565b9050919050565b7f45524332303a207472616e7366657220746f20746865207a65726f206164647260008201527f6573730000000000000000000000000000000000000000000000000000000000602082015250565b6000611b8b6023836112c3565b9150611b9682611b2f565b604082019050919050565b60006020820190508181036000830152611bba81611b7e565b9050919050565b7f45524332303a207472616e7366657220616d6f756e742065786365656473206260008201527f616c616e63650000000000000000000000000000000000000000000000000000602082015250565b6000611c1d6026836112c3565b9150611c2882611bc1565b604082019050919050565b60006020820190508181036000830152611c4c81611c10565b9050919050565b7f4f776e61626c653a2063616c6c6572206973206e6f7420746865206f776e6572600082015250565b6000611c896020836112c3565b9150611c9482611c53565b602082019050919050565b60006020820190508181036000830152611cb881611c7c565b9050919050565b7f45524332303a206d696e7420746f20746865207a65726f206164647265737300600082015250565b6000611cf5601f836112c3565b9150611d0082611cbf565b602082019050919050565b60006020820190508181036000830152611d2481611ce8565b9050919050565b7f45524332303a206275726e2066726f6d20746865207a65726f2061646472657360008201527f7300000000000000000000000000000000000000000000000000000000000000602082015250565b6000611d876021836112c3565b9150611d9282611d2b565b604082019050919050565b60006020820190508181036000830152611db681611d7a565b9050919050565b7f45524332303a206275726e20616d6f756e7420657863656564732062616c616e60008201527f6365000000000000000000000000000000000000000000000000000000000000602082015250565b6000611e196022836112c3565b9150611e2482611dbd565b604082019050919050565b60006020820190508181036000830152611e4881611e0c565b9050919050565b6000611e5a826113cd565b9150611e65836113cd565b9250828203905081811115611e7d57611e7c6116cb565b5b9291505056fea2646970667358221220becba63ecd2d1cf7eff232b2d72e3b7b0e3d218ee4dd4b8b520b5f7b27d31d0564736f6c63430008110033",
  "linkReferences": {},
  "deployedLinkReferences": {}
}